{
  "_format": "hh-sol-artifact-1",
  "contractName": "NFT",
  "sourceName": "contracts/NFT.sol",
  "abi": [
    {
      "inputs": [
        {
          "internalType": "string",
          "name": "name",
          "type": "string"
        },
        {
          "internalType": "string",
          "name": "symbol",
          "type": "string"
        }
      ],
      "stateMutability": "nonpayable",
      "type": "constructor"
    },
    {
      "anonymous": false,
      "inputs": [
        {
          "indexed": true,
          "internalType": "address",
          "name": "owner",
          "type": "address"
        },
        {
          "indexed": true,
          "internalType": "address",
          "name": "approved",
          "type": "address"
        },
        {
          "indexed": true,
          "internalType": "uint256",
          "name": "tokenId",
          "type": "uint256"
        }
      ],
      "name": "Approval",
      "type": "event"
    },
    {
      "anonymous": false,
      "inputs": [
        {
          "indexed": true,
          "internalType": "address",
          "name": "owner",
          "type": "address"
        },
        {
          "indexed": true,
          "internalType": "address",
          "name": "operator",
          "type": "address"
        },
        {
          "indexed": false,
          "internalType": "bool",
          "name": "approved",
          "type": "bool"
        }
      ],
      "name": "ApprovalForAll",
      "type": "event"
    },
    {
      "anonymous": false,
      "inputs": [
        {
          "indexed": true,
          "internalType": "address",
          "name": "previousOwner",
          "type": "address"
        },
        {
          "indexed": true,
          "internalType": "address",
          "name": "newOwner",
          "type": "address"
        }
      ],
      "name": "OwnershipTransferred",
      "type": "event"
    },
    {
      "anonymous": false,
      "inputs": [
        {
          "indexed": true,
          "internalType": "address",
          "name": "from",
          "type": "address"
        },
        {
          "indexed": true,
          "internalType": "address",
          "name": "to",
          "type": "address"
        },
        {
          "indexed": true,
          "internalType": "uint256",
          "name": "tokenId",
          "type": "uint256"
        }
      ],
      "name": "Transfer",
      "type": "event"
    },
    {
      "inputs": [
        {
          "internalType": "address",
          "name": "to",
          "type": "address"
        },
        {
          "internalType": "uint256",
          "name": "tokenId",
          "type": "uint256"
        }
      ],
      "name": "approve",
      "outputs": [],
      "stateMutability": "nonpayable",
      "type": "function"
    },
    {
      "inputs": [
        {
          "internalType": "address",
          "name": "owner",
          "type": "address"
        }
      ],
      "name": "balanceOf",
      "outputs": [
        {
          "internalType": "uint256",
          "name": "",
          "type": "uint256"
        }
      ],
      "stateMutability": "view",
      "type": "function"
    },
    {
      "inputs": [
        {
          "internalType": "string",
          "name": "tokenURI",
          "type": "string"
        }
      ],
      "name": "createToken",
      "outputs": [
        {
          "internalType": "uint256",
          "name": "",
          "type": "uint256"
        }
      ],
      "stateMutability": "nonpayable",
      "type": "function"
    },
    {
      "inputs": [
        {
          "internalType": "uint256",
          "name": "tokenId",
          "type": "uint256"
        }
      ],
      "name": "getApproved",
      "outputs": [
        {
          "internalType": "address",
          "name": "",
          "type": "address"
        }
      ],
      "stateMutability": "view",
      "type": "function"
    },
    {
      "inputs": [
        {
          "internalType": "address",
          "name": "owner",
          "type": "address"
        },
        {
          "internalType": "address",
          "name": "operator",
          "type": "address"
        }
      ],
      "name": "isApprovedForAll",
      "outputs": [
        {
          "internalType": "bool",
          "name": "",
          "type": "bool"
        }
      ],
      "stateMutability": "view",
      "type": "function"
    },
    {
      "inputs": [],
      "name": "name",
      "outputs": [
        {
          "internalType": "string",
          "name": "",
          "type": "string"
        }
      ],
      "stateMutability": "view",
      "type": "function"
    },
    {
      "inputs": [],
      "name": "owner",
      "outputs": [
        {
          "internalType": "address",
          "name": "",
          "type": "address"
        }
      ],
      "stateMutability": "view",
      "type": "function"
    },
    {
      "inputs": [
        {
          "internalType": "uint256",
          "name": "tokenId",
          "type": "uint256"
        }
      ],
      "name": "ownerOf",
      "outputs": [
        {
          "internalType": "address",
          "name": "",
          "type": "address"
        }
      ],
      "stateMutability": "view",
      "type": "function"
    },
    {
      "inputs": [],
      "name": "renounceOwnership",
      "outputs": [],
      "stateMutability": "nonpayable",
      "type": "function"
    },
    {
      "inputs": [
        {
          "internalType": "address",
          "name": "from",
          "type": "address"
        },
        {
          "internalType": "address",
          "name": "to",
          "type": "address"
        },
        {
          "internalType": "uint256",
          "name": "tokenId",
          "type": "uint256"
        }
      ],
      "name": "safeTransferFrom",
      "outputs": [],
      "stateMutability": "nonpayable",
      "type": "function"
    },
    {
      "inputs": [
        {
          "internalType": "address",
          "name": "from",
          "type": "address"
        },
        {
          "internalType": "address",
          "name": "to",
          "type": "address"
        },
        {
          "internalType": "uint256",
          "name": "tokenId",
          "type": "uint256"
        },
        {
          "internalType": "bytes",
          "name": "_data",
          "type": "bytes"
        }
      ],
      "name": "safeTransferFrom",
      "outputs": [],
      "stateMutability": "nonpayable",
      "type": "function"
    },
    {
      "inputs": [
        {
          "internalType": "address",
          "name": "operator",
          "type": "address"
        },
        {
          "internalType": "bool",
          "name": "approved",
          "type": "bool"
        }
      ],
      "name": "setApprovalForAll",
      "outputs": [],
      "stateMutability": "nonpayable",
      "type": "function"
    },
    {
      "inputs": [
        {
          "internalType": "bytes4",
          "name": "interfaceId",
          "type": "bytes4"
        }
      ],
      "name": "supportsInterface",
      "outputs": [
        {
          "internalType": "bool",
          "name": "",
          "type": "bool"
        }
      ],
      "stateMutability": "view",
      "type": "function"
    },
    {
      "inputs": [],
      "name": "symbol",
      "outputs": [
        {
          "internalType": "string",
          "name": "",
          "type": "string"
        }
      ],
      "stateMutability": "view",
      "type": "function"
    },
    {
      "inputs": [
        {
          "internalType": "uint256",
          "name": "tokenId",
          "type": "uint256"
        }
      ],
      "name": "tokenURI",
      "outputs": [
        {
          "internalType": "string",
          "name": "",
          "type": "string"
        }
      ],
      "stateMutability": "view",
      "type": "function"
    },
    {
      "inputs": [
        {
          "internalType": "address",
          "name": "from",
          "type": "address"
        },
        {
          "internalType": "address",
          "name": "to",
          "type": "address"
        },
        {
          "internalType": "uint256",
          "name": "tokenId",
          "type": "uint256"
        }
      ],
      "name": "transferFrom",
      "outputs": [],
      "stateMutability": "nonpayable",
      "type": "function"
    },
    {
      "inputs": [
        {
          "internalType": "address",
          "name": "newOwner",
          "type": "address"
        }
      ],
      "name": "transferOwnership",
      "outputs": [],
      "stateMutability": "nonpayable",
      "type": "function"
    }
  ],
  "bytecode": "0x60806040523480156200001157600080fd5b5060405162001e2338038062001e23833981016040819052620000349162000237565b8151829082906200004d906000906020850190620000de565b50805162000063906001906020840190620000de565b505050620000806200007a6200008860201b60201c565b6200008c565b5050620002f1565b3390565b600780546001600160a01b038381166001600160a01b0319831681179093556040519116919082907f8be0079c531659141344cd1fd0a4f28419497f9722a3daafe3b4186f6b6457e090600090a35050565b828054620000ec906200029e565b90600052602060002090601f0160209004810192826200011057600085556200015b565b82601f106200012b57805160ff19168380011785556200015b565b828001600101855582156200015b579182015b828111156200015b5782518255916020019190600101906200013e565b50620001699291506200016d565b5090565b5b808211156200016957600081556001016200016e565b600082601f83011262000195578081fd5b81516001600160401b0380821115620001b257620001b2620002db565b604051601f8301601f19908116603f01168101908282118183101715620001dd57620001dd620002db565b81604052838152602092508683858801011115620001f9578485fd5b8491505b838210156200021c5785820183015181830184015290820190620001fd565b838211156200022d57848385830101525b9695505050505050565b600080604083850312156200024a578182fd5b82516001600160401b038082111562000261578384fd5b6200026f8683870162000184565b9350602085015191508082111562000285578283fd5b50620002948582860162000184565b9150509250929050565b600181811c90821680620002b357607f821691505b60208210811415620002d557634e487b7160e01b600052602260045260246000fd5b50919050565b634e487b7160e01b600052604160045260246000fd5b611b2280620003016000396000f3fe608060405234801561001057600080fd5b506004361061011b5760003560e01c806370a08231116100b2578063a22cb46511610081578063c87b56dd11610066578063c87b56dd14610251578063e985e9c514610264578063f2fde38b146102a057600080fd5b8063a22cb4651461022b578063b88d4fde1461023e57600080fd5b806370a08231146101f7578063715018a61461020a5780638da5cb5b1461021257806395d89b411461022357600080fd5b806323b872dd116100ee57806323b872dd1461019d57806342842e0e146101b057806345576f94146101c35780636352211e146101e457600080fd5b806301ffc9a71461012057806306fdde0314610148578063081812fc1461015d578063095ea7b314610188575b600080fd5b61013361012e36600461187b565b6102b3565b60405190151581526020015b60405180910390f35b610150610350565b60405161013f91906119a8565b61017061016b3660046118f9565b6103e2565b6040516001600160a01b03909116815260200161013f565b61019b610196366004611852565b61048d565b005b61019b6101ab366004611764565b6105bf565b61019b6101be366004611764565b610646565b6101d66101d13660046118b3565b610661565b60405190815260200161013f565b6101706101f23660046118f9565b610692565b6101d6610205366004611718565b61071d565b61019b6107b7565b6007546001600160a01b0316610170565b61015061081d565b61019b610239366004611818565b61082c565b61019b61024c36600461179f565b61083b565b61015061025f3660046118f9565b6108c9565b610133610272366004611732565b6001600160a01b03918216600090815260056020908152604080832093909416825291909152205460ff1690565b61019b6102ae366004611718565b610a5c565b60006001600160e01b031982167f80ac58cd00000000000000000000000000000000000000000000000000000000148061031657506001600160e01b031982167f5b5e139f00000000000000000000000000000000000000000000000000000000145b8061034a57507f01ffc9a7000000000000000000000000000000000000000000000000000000006001600160e01b03198316145b92915050565b60606000805461035f90611a2a565b80601f016020809104026020016040519081016040528092919081815260200182805461038b90611a2a565b80156103d85780601f106103ad576101008083540402835291602001916103d8565b820191906000526020600020905b8154815290600101906020018083116103bb57829003601f168201915b5050505050905090565b6000818152600260205260408120546001600160a01b03166104715760405162461bcd60e51b815260206004820152602c60248201527f4552433732313a20617070726f76656420717565727920666f72206e6f6e657860448201527f697374656e7420746f6b656e000000000000000000000000000000000000000060648201526084015b60405180910390fd5b506000908152600460205260409020546001600160a01b031690565b600061049882610692565b9050806001600160a01b0316836001600160a01b031614156105225760405162461bcd60e51b815260206004820152602160248201527f4552433732313a20617070726f76616c20746f2063757272656e74206f776e6560448201527f72000000000000000000000000000000000000000000000000000000000000006064820152608401610468565b336001600160a01b038216148061053e575061053e8133610272565b6105b05760405162461bcd60e51b815260206004820152603860248201527f4552433732313a20617070726f76652063616c6c6572206973206e6f74206f7760448201527f6e6572206e6f7220617070726f76656420666f7220616c6c00000000000000006064820152608401610468565b6105ba8383610b3e565b505050565b6105c93382610bb9565b61063b5760405162461bcd60e51b815260206004820152603160248201527f4552433732313a207472616e736665722063616c6c6572206973206e6f74206f60448201527f776e6572206e6f7220617070726f7665640000000000000000000000000000006064820152608401610468565b6105ba838383610cbd565b6105ba8383836040518060200160405280600081525061083b565b6000610671600880546001019055565b600061067c60085490565b90506106883382610e97565b61034a8184610fe6565b6000818152600260205260408120546001600160a01b03168061034a5760405162461bcd60e51b815260206004820152602960248201527f4552433732313a206f776e657220717565727920666f72206e6f6e657869737460448201527f656e7420746f6b656e00000000000000000000000000000000000000000000006064820152608401610468565b60006001600160a01b03821661079b5760405162461bcd60e51b815260206004820152602a60248201527f4552433732313a2062616c616e636520717565727920666f7220746865207a6560448201527f726f2061646472657373000000000000000000000000000000000000000000006064820152608401610468565b506001600160a01b031660009081526003602052604090205490565b6007546001600160a01b031633146108115760405162461bcd60e51b815260206004820181905260248201527f4f776e61626c653a2063616c6c6572206973206e6f7420746865206f776e65726044820152606401610468565b61081b600061108f565b565b60606001805461035f90611a2a565b6108373383836110ee565b5050565b6108453383610bb9565b6108b75760405162461bcd60e51b815260206004820152603160248201527f4552433732313a207472616e736665722063616c6c6572206973206e6f74206f60448201527f776e6572206e6f7220617070726f7665640000000000000000000000000000006064820152608401610468565b6108c3848484846111bd565b50505050565b6000818152600260205260409020546060906001600160a01b03166109565760405162461bcd60e51b815260206004820152603160248201527f45524337323155524953746f726167653a2055524920717565727920666f722060448201527f6e6f6e6578697374656e7420746f6b656e0000000000000000000000000000006064820152608401610468565b6000828152600660205260408120805461096f90611a2a565b80601f016020809104026020016040519081016040528092919081815260200182805461099b90611a2a565b80156109e85780601f106109bd576101008083540402835291602001916109e8565b820191906000526020600020905b8154815290600101906020018083116109cb57829003601f168201915b505050505090506000610a0660408051602081019091526000815290565b9050805160001415610a19575092915050565b815115610a4b578082604051602001610a3392919061193d565b60405160208183030381529060405292505050919050565b610a5484611246565b949350505050565b6007546001600160a01b03163314610ab65760405162461bcd60e51b815260206004820181905260248201527f4f776e61626c653a2063616c6c6572206973206e6f7420746865206f776e65726044820152606401610468565b6001600160a01b038116610b325760405162461bcd60e51b815260206004820152602660248201527f4f776e61626c653a206e6577206f776e657220697320746865207a65726f206160448201527f64647265737300000000000000000000000000000000000000000000000000006064820152608401610468565b610b3b8161108f565b50565b6000818152600460205260409020805473ffffffffffffffffffffffffffffffffffffffff19166001600160a01b0384169081179091558190610b8082610692565b6001600160a01b03167f8c5be1e5ebec7d5bd14f71427d1e84f3dd0314c0f7b2291e5b200ac8c7c3b92560405160405180910390a45050565b6000818152600260205260408120546001600160a01b0316610c435760405162461bcd60e51b815260206004820152602c60248201527f4552433732313a206f70657261746f7220717565727920666f72206e6f6e657860448201527f697374656e7420746f6b656e00000000000000000000000000000000000000006064820152608401610468565b6000610c4e83610692565b9050806001600160a01b0316846001600160a01b03161480610c895750836001600160a01b0316610c7e846103e2565b6001600160a01b0316145b80610a5457506001600160a01b0380821660009081526005602090815260408083209388168352929052205460ff16610a54565b826001600160a01b0316610cd082610692565b6001600160a01b031614610d4c5760405162461bcd60e51b815260206004820152602960248201527f4552433732313a207472616e73666572206f6620746f6b656e2074686174206960448201527f73206e6f74206f776e00000000000000000000000000000000000000000000006064820152608401610468565b6001600160a01b038216610dc75760405162461bcd60e51b8152602060048201526024808201527f4552433732313a207472616e7366657220746f20746865207a65726f2061646460448201527f72657373000000000000000000000000000000000000000000000000000000006064820152608401610468565b610dd2600082610b3e565b6001600160a01b0383166000908152600360205260408120805460019290610dfb9084906119e7565b90915550506001600160a01b0382166000908152600360205260408120805460019290610e299084906119bb565b9091555050600081815260026020526040808220805473ffffffffffffffffffffffffffffffffffffffff19166001600160a01b0386811691821790925591518493918716917fddf252ad1be2c89b69c2b068fc378daa952ba7f163c4a11628f55a4df523b3ef91a4505050565b6001600160a01b038216610eed5760405162461bcd60e51b815260206004820181905260248201527f4552433732313a206d696e7420746f20746865207a65726f20616464726573736044820152606401610468565b6000818152600260205260409020546001600160a01b031615610f525760405162461bcd60e51b815260206004820152601c60248201527f4552433732313a20746f6b656e20616c7265616479206d696e746564000000006044820152606401610468565b6001600160a01b0382166000908152600360205260408120805460019290610f7b9084906119bb565b9091555050600081815260026020526040808220805473ffffffffffffffffffffffffffffffffffffffff19166001600160a01b03861690811790915590518392907fddf252ad1be2c89b69c2b068fc378daa952ba7f163c4a11628f55a4df523b3ef908290a45050565b6000828152600260205260409020546001600160a01b03166110705760405162461bcd60e51b815260206004820152602e60248201527f45524337323155524953746f726167653a2055524920736574206f66206e6f6e60448201527f6578697374656e7420746f6b656e0000000000000000000000000000000000006064820152608401610468565b600082815260066020908152604090912082516105ba928401906115ed565b600780546001600160a01b0383811673ffffffffffffffffffffffffffffffffffffffff19831681179093556040519116919082907f8be0079c531659141344cd1fd0a4f28419497f9722a3daafe3b4186f6b6457e090600090a35050565b816001600160a01b0316836001600160a01b031614156111505760405162461bcd60e51b815260206004820152601960248201527f4552433732313a20617070726f766520746f2063616c6c6572000000000000006044820152606401610468565b6001600160a01b03838116600081815260056020908152604080832094871680845294825291829020805460ff191686151590811790915591519182527f17307eab39ab6107e8899845ad3d59bd9653f200f220920489ca2b5937696c31910160405180910390a3505050565b6111c8848484610cbd565b6111d48484848461133c565b6108c35760405162461bcd60e51b815260206004820152603260248201527f4552433732313a207472616e7366657220746f206e6f6e20455243373231526560448201527f63656976657220696d706c656d656e74657200000000000000000000000000006064820152608401610468565b6000818152600260205260409020546060906001600160a01b03166112d35760405162461bcd60e51b815260206004820152602f60248201527f4552433732314d657461646174613a2055524920717565727920666f72206e6f60448201527f6e6578697374656e7420746f6b656e00000000000000000000000000000000006064820152608401610468565b60006112ea60408051602081019091526000815290565b9050600081511161130a5760405180602001604052806000815250611335565b806113148461149f565b60405160200161132592919061193d565b6040516020818303038152906040525b9392505050565b60006001600160a01b0384163b1561149457604051630a85bd0160e11b81526001600160a01b0385169063150b7a029061138090339089908890889060040161196c565b602060405180830381600087803b15801561139a57600080fd5b505af19250505080156113ca575060408051601f3d908101601f191682019092526113c791810190611897565b60015b61147a573d8080156113f8576040519150601f19603f3d011682016040523d82523d6000602084013e6113fd565b606091505b5080516114725760405162461bcd60e51b815260206004820152603260248201527f4552433732313a207472616e7366657220746f206e6f6e20455243373231526560448201527f63656976657220696d706c656d656e74657200000000000000000000000000006064820152608401610468565b805181602001fd5b6001600160e01b031916630a85bd0160e11b149050610a54565b506001949350505050565b6060816114df57505060408051808201909152600181527f3000000000000000000000000000000000000000000000000000000000000000602082015290565b8160005b811561150957806114f381611a65565b91506115029050600a836119d3565b91506114e3565b60008167ffffffffffffffff81111561153257634e487b7160e01b600052604160045260246000fd5b6040519080825280601f01601f19166020018201604052801561155c576020820181803683370190505b5090505b8415610a54576115716001836119e7565b915061157e600a86611a80565b6115899060306119bb565b60f81b8183815181106115ac57634e487b7160e01b600052603260045260246000fd5b60200101907effffffffffffffffffffffffffffffffffffffffffffffffffffffffffffff1916908160001a9053506115e6600a866119d3565b9450611560565b8280546115f990611a2a565b90600052602060002090601f01602090048101928261161b5760008555611661565b82601f1061163457805160ff1916838001178555611661565b82800160010185558215611661579182015b82811115611661578251825591602001919060010190611646565b5061166d929150611671565b5090565b5b8082111561166d5760008155600101611672565b600067ffffffffffffffff808411156116a1576116a1611ac0565b604051601f8501601f19908116603f011681019082821181831017156116c9576116c9611ac0565b816040528093508581528686860111156116e257600080fd5b858560208301376000602087830101525050509392505050565b80356001600160a01b038116811461171357600080fd5b919050565b600060208284031215611729578081fd5b611335826116fc565b60008060408385031215611744578081fd5b61174d836116fc565b915061175b602084016116fc565b90509250929050565b600080600060608486031215611778578081fd5b611781846116fc565b925061178f602085016116fc565b9150604084013590509250925092565b600080600080608085870312156117b4578081fd5b6117bd856116fc565b93506117cb602086016116fc565b925060408501359150606085013567ffffffffffffffff8111156117ed578182fd5b8501601f810187136117fd578182fd5b61180c87823560208401611686565b91505092959194509250565b6000806040838503121561182a578182fd5b611833836116fc565b915060208301358015158114611847578182fd5b809150509250929050565b60008060408385031215611864578182fd5b61186d836116fc565b946020939093013593505050565b60006020828403121561188c578081fd5b813561133581611ad6565b6000602082840312156118a8578081fd5b815161133581611ad6565b6000602082840312156118c4578081fd5b813567ffffffffffffffff8111156118da578182fd5b8201601f810184136118ea578182fd5b610a5484823560208401611686565b60006020828403121561190a578081fd5b5035919050565b600081518084526119298160208601602086016119fe565b601f01601f19169290920160200192915050565b6000835161194f8184602088016119fe565b8351908301906119638183602088016119fe565b01949350505050565b60006001600160a01b0380871683528086166020840152508360408301526080606083015261199e6080830184611911565b9695505050505050565b6020815260006113356020830184611911565b600082198211156119ce576119ce611a94565b500190565b6000826119e2576119e2611aaa565b500490565b6000828210156119f9576119f9611a94565b500390565b60005b83811015611a19578181015183820152602001611a01565b838111156108c35750506000910152565b600181811c90821680611a3e57607f821691505b60208210811415611a5f57634e487b7160e01b600052602260045260246000fd5b50919050565b6000600019821415611a7957611a79611a94565b5060010190565b600082611a8f57611a8f611aaa565b500690565b634e487b7160e01b600052601160045260246000fd5b634e487b7160e01b600052601260045260246000fd5b634e487b7160e01b600052604160045260246000fd5b6001600160e01b031981168114610b3b57600080fdfea2646970667358221220614487e5b1e370f6ff364b348b388c43c424f040ac0bf80a5c4febeabb2aaafa64736f6c63430008040033",
  "linkReferences": {},
  "deployedLinkReferences": {}
}