{
  "_format": "hh-sol-artifact-1",
  "contractName": "NFT",
  "sourceName": "contracts/NFT.sol",
  "abi": [
    {
      "inputs": [
        {
          "internalType": "address",
          "name": "marketplaceAddress",
          "type": "address"
        }
      ],
      "stateMutability": "nonpayable",
      "type": "constructor"
    },
    {
      "anonymous": false,
      "inputs": [
        {
          "indexed": true,
          "internalType": "address",
          "name": "owner",
          "type": "address"
        },
        {
          "indexed": true,
          "internalType": "address",
          "name": "approved",
          "type": "address"
        },
        {
          "indexed": true,
          "internalType": "uint256",
          "name": "tokenId",
          "type": "uint256"
        }
      ],
      "name": "Approval",
      "type": "event"
    },
    {
      "anonymous": false,
      "inputs": [
        {
          "indexed": true,
          "internalType": "address",
          "name": "owner",
          "type": "address"
        },
        {
          "indexed": true,
          "internalType": "address",
          "name": "operator",
          "type": "address"
        },
        {
          "indexed": false,
          "internalType": "bool",
          "name": "approved",
          "type": "bool"
        }
      ],
      "name": "ApprovalForAll",
      "type": "event"
    },
    {
      "anonymous": false,
      "inputs": [
        {
          "indexed": true,
          "internalType": "address",
          "name": "previousOwner",
          "type": "address"
        },
        {
          "indexed": true,
          "internalType": "address",
          "name": "newOwner",
          "type": "address"
        }
      ],
      "name": "OwnershipTransferred",
      "type": "event"
    },
    {
      "anonymous": false,
      "inputs": [
        {
          "indexed": true,
          "internalType": "address",
          "name": "from",
          "type": "address"
        },
        {
          "indexed": true,
          "internalType": "address",
          "name": "to",
          "type": "address"
        },
        {
          "indexed": true,
          "internalType": "uint256",
          "name": "tokenId",
          "type": "uint256"
        }
      ],
      "name": "Transfer",
      "type": "event"
    },
    {
      "inputs": [
        {
          "internalType": "address",
          "name": "to",
          "type": "address"
        },
        {
          "internalType": "uint256",
          "name": "tokenId",
          "type": "uint256"
        }
      ],
      "name": "approve",
      "outputs": [],
      "stateMutability": "nonpayable",
      "type": "function"
    },
    {
      "inputs": [
        {
          "internalType": "address",
          "name": "owner",
          "type": "address"
        }
      ],
      "name": "balanceOf",
      "outputs": [
        {
          "internalType": "uint256",
          "name": "",
          "type": "uint256"
        }
      ],
      "stateMutability": "view",
      "type": "function"
    },
    {
      "inputs": [
        {
          "internalType": "string",
          "name": "tokenURI",
          "type": "string"
        }
      ],
      "name": "createToken",
      "outputs": [
        {
          "internalType": "uint256",
          "name": "",
          "type": "uint256"
        }
      ],
      "stateMutability": "nonpayable",
      "type": "function"
    },
    {
      "inputs": [
        {
          "internalType": "uint256",
          "name": "tokenId",
          "type": "uint256"
        }
      ],
      "name": "getApproved",
      "outputs": [
        {
          "internalType": "address",
          "name": "",
          "type": "address"
        }
      ],
      "stateMutability": "view",
      "type": "function"
    },
    {
      "inputs": [
        {
          "internalType": "address",
          "name": "owner",
          "type": "address"
        },
        {
          "internalType": "address",
          "name": "operator",
          "type": "address"
        }
      ],
      "name": "isApprovedForAll",
      "outputs": [
        {
          "internalType": "bool",
          "name": "",
          "type": "bool"
        }
      ],
      "stateMutability": "view",
      "type": "function"
    },
    {
      "inputs": [],
      "name": "name",
      "outputs": [
        {
          "internalType": "string",
          "name": "",
          "type": "string"
        }
      ],
      "stateMutability": "view",
      "type": "function"
    },
    {
      "inputs": [],
      "name": "owner",
      "outputs": [
        {
          "internalType": "address",
          "name": "",
          "type": "address"
        }
      ],
      "stateMutability": "view",
      "type": "function"
    },
    {
      "inputs": [
        {
          "internalType": "uint256",
          "name": "tokenId",
          "type": "uint256"
        }
      ],
      "name": "ownerOf",
      "outputs": [
        {
          "internalType": "address",
          "name": "",
          "type": "address"
        }
      ],
      "stateMutability": "view",
      "type": "function"
    },
    {
      "inputs": [],
      "name": "renounceOwnership",
      "outputs": [],
      "stateMutability": "nonpayable",
      "type": "function"
    },
    {
      "inputs": [
        {
          "internalType": "address",
          "name": "from",
          "type": "address"
        },
        {
          "internalType": "address",
          "name": "to",
          "type": "address"
        },
        {
          "internalType": "uint256",
          "name": "tokenId",
          "type": "uint256"
        }
      ],
      "name": "safeTransferFrom",
      "outputs": [],
      "stateMutability": "nonpayable",
      "type": "function"
    },
    {
      "inputs": [
        {
          "internalType": "address",
          "name": "from",
          "type": "address"
        },
        {
          "internalType": "address",
          "name": "to",
          "type": "address"
        },
        {
          "internalType": "uint256",
          "name": "tokenId",
          "type": "uint256"
        },
        {
          "internalType": "bytes",
          "name": "_data",
          "type": "bytes"
        }
      ],
      "name": "safeTransferFrom",
      "outputs": [],
      "stateMutability": "nonpayable",
      "type": "function"
    },
    {
      "inputs": [
        {
          "internalType": "address",
          "name": "operator",
          "type": "address"
        },
        {
          "internalType": "bool",
          "name": "approved",
          "type": "bool"
        }
      ],
      "name": "setApprovalForAll",
      "outputs": [],
      "stateMutability": "nonpayable",
      "type": "function"
    },
    {
      "inputs": [
        {
          "internalType": "bytes4",
          "name": "interfaceId",
          "type": "bytes4"
        }
      ],
      "name": "supportsInterface",
      "outputs": [
        {
          "internalType": "bool",
          "name": "",
          "type": "bool"
        }
      ],
      "stateMutability": "view",
      "type": "function"
    },
    {
      "inputs": [],
      "name": "symbol",
      "outputs": [
        {
          "internalType": "string",
          "name": "",
          "type": "string"
        }
      ],
      "stateMutability": "view",
      "type": "function"
    },
    {
      "inputs": [
        {
          "internalType": "uint256",
          "name": "tokenId",
          "type": "uint256"
        }
      ],
      "name": "tokenURI",
      "outputs": [
        {
          "internalType": "string",
          "name": "",
          "type": "string"
        }
      ],
      "stateMutability": "view",
      "type": "function"
    },
    {
      "inputs": [
        {
          "internalType": "address",
          "name": "from",
          "type": "address"
        },
        {
          "internalType": "address",
          "name": "to",
          "type": "address"
        },
        {
          "internalType": "uint256",
          "name": "tokenId",
          "type": "uint256"
        }
      ],
      "name": "transferFrom",
      "outputs": [],
      "stateMutability": "nonpayable",
      "type": "function"
    },
    {
      "inputs": [
        {
          "internalType": "address",
          "name": "newOwner",
          "type": "address"
        }
      ],
      "name": "transferOwnership",
      "outputs": [],
      "stateMutability": "nonpayable",
      "type": "function"
    }
  ],
  "bytecode": "0x60806040523480156200001157600080fd5b50604051620032f0380380620032f08339818101604052810190620000379190620002d4565b6040518060400160405280600a81526020017f4e4654204e6174696f6e000000000000000000000000000000000000000000008152506040518060400160405280600381526020017f4e465400000000000000000000000000000000000000000000000000000000008152508160009080519060200190620000bb9291906200020d565b508060019080519060200190620000d49291906200020d565b505050620000f7620000eb6200013f60201b60201c565b6200014760201b60201c565b80600960006101000a81548173ffffffffffffffffffffffffffffffffffffffff021916908373ffffffffffffffffffffffffffffffffffffffff16021790555050620003b3565b600033905090565b6000600760009054906101000a900473ffffffffffffffffffffffffffffffffffffffff16905081600760006101000a81548173ffffffffffffffffffffffffffffffffffffffff021916908373ffffffffffffffffffffffffffffffffffffffff1602179055508173ffffffffffffffffffffffffffffffffffffffff168173ffffffffffffffffffffffffffffffffffffffff167f8be0079c531659141344cd1fd0a4f28419497f9722a3daafe3b4186f6b6457e060405160405180910390a35050565b8280546200021b9062000334565b90600052602060002090601f0160209004810192826200023f57600085556200028b565b82601f106200025a57805160ff19168380011785556200028b565b828001600101855582156200028b579182015b828111156200028a5782518255916020019190600101906200026d565b5b5090506200029a91906200029e565b5090565b5b80821115620002b95760008160009055506001016200029f565b5090565b600081519050620002ce8162000399565b92915050565b600060208284031215620002e757600080fd5b6000620002f784828501620002bd565b91505092915050565b60006200030d8262000314565b9050919050565b600073ffffffffffffffffffffffffffffffffffffffff82169050919050565b600060028204905060018216806200034d57607f821691505b602082108114156200036457620003636200036a565b5b50919050565b7f4e487b7100000000000000000000000000000000000000000000000000000000600052602260045260246000fd5b620003a48162000300565b8114620003b057600080fd5b50565b612f2d80620003c36000396000f3fe608060405234801561001057600080fd5b506004361061010b5760003560e01c806370a08231116100a2578063a22cb46511610071578063a22cb465146102b8578063b88d4fde146102d4578063c87b56dd146102f0578063e985e9c514610320578063f2fde38b146103505761010b565b806370a0823114610242578063715018a6146102725780638da5cb5b1461027c57806395d89b411461029a5761010b565b806323b872dd116100de57806323b872dd146101aa57806342842e0e146101c657806345576f94146101e25780636352211e146102125761010b565b806301ffc9a71461011057806306fdde0314610140578063081812fc1461015e578063095ea7b31461018e575b600080fd5b61012a60048036038101906101259190611e9b565b61036c565b6040516101379190612328565b60405180910390f35b61014861044e565b6040516101559190612343565b60405180910390f35b61017860048036038101906101739190611f2e565b6104e0565b60405161018591906122c1565b60405180910390f35b6101a860048036038101906101a39190611e5f565b610565565b005b6101c460048036038101906101bf9190611d59565b61067d565b005b6101e060048036038101906101db9190611d59565b6106dd565b005b6101fc60048036038101906101f79190611eed565b6106fd565b60405161020991906125a5565b60405180910390f35b61022c60048036038101906102279190611f2e565b610734565b60405161023991906122c1565b60405180910390f35b61025c60048036038101906102579190611cf4565b6107e6565b60405161026991906125a5565b60405180910390f35b61027a61089e565b005b610284610926565b60405161029191906122c1565b60405180910390f35b6102a2610950565b6040516102af9190612343565b60405180910390f35b6102d260048036038101906102cd9190611e23565b6109e2565b005b6102ee60048036038101906102e99190611da8565b6109f8565b005b61030a60048036038101906103059190611f2e565b610a5a565b6040516103179190612343565b60405180910390f35b61033a60048036038101906103359190611d1d565b610bac565b6040516103479190612328565b60405180910390f35b61036a60048036038101906103659190611cf4565b610c40565b005b60007f80ac58cd000000000000000000000000000000000000000000000000000000007bffffffffffffffffffffffffffffffffffffffffffffffffffffffff1916827bffffffffffffffffffffffffffffffffffffffffffffffffffffffff1916148061043757507f5b5e139f000000000000000000000000000000000000000000000000000000007bffffffffffffffffffffffffffffffffffffffffffffffffffffffff1916827bffffffffffffffffffffffffffffffffffffffffffffffffffffffff1916145b80610447575061044682610d38565b5b9050919050565b60606000805461045d906127fb565b80601f0160208091040260200160405190810160405280929190818152602001828054610489906127fb565b80156104d65780601f106104ab576101008083540402835291602001916104d6565b820191906000526020600020905b8154815290600101906020018083116104b957829003601f168201915b5050505050905090565b60006104eb82610da2565b61052a576040517f08c379a0000000000000000000000000000000000000000000000000000000008152600401610521906124e5565b60405180910390fd5b6004600083815260200190815260200160002060009054906101000a900473ffffffffffffffffffffffffffffffffffffffff169050919050565b600061057082610734565b90508073ffffffffffffffffffffffffffffffffffffffff168373ffffffffffffffffffffffffffffffffffffffff1614156105e1576040517f08c379a00000000000000000000000000000000000000000000000000000000081526004016105d890612565565b60405180910390fd5b8073ffffffffffffffffffffffffffffffffffffffff16610600610e0e565b73ffffffffffffffffffffffffffffffffffffffff16148061062f575061062e81610629610e0e565b610bac565b5b61066e576040517f08c379a000000000000000000000000000000000000000000000000000000000815260040161066590612425565b60405180910390fd5b6106788383610e16565b505050565b61068e610688610e0e565b82610ecf565b6106cd576040517f08c379a00000000000000000000000000000000000000000000000000000000081526004016106c490612585565b60405180910390fd5b6106d8838383610fad565b505050565b6106f8838383604051806020016040528060008152506109f8565b505050565b60006107096008611209565b6000610715600861121f565b9050610721338261122d565b61072b81846113fb565b80915050919050565b6000806002600084815260200190815260200160002060009054906101000a900473ffffffffffffffffffffffffffffffffffffffff169050600073ffffffffffffffffffffffffffffffffffffffff168173ffffffffffffffffffffffffffffffffffffffff1614156107dd576040517f08c379a00000000000000000000000000000000000000000000000000000000081526004016107d490612465565b60405180910390fd5b80915050919050565b60008073ffffffffffffffffffffffffffffffffffffffff168273ffffffffffffffffffffffffffffffffffffffff161415610857576040517f08c379a000000000000000000000000000000000000000000000000000000000815260040161084e90612445565b60405180910390fd5b600360008373ffffffffffffffffffffffffffffffffffffffff1673ffffffffffffffffffffffffffffffffffffffff168152602001908152602001600020549050919050565b6108a6610e0e565b73ffffffffffffffffffffffffffffffffffffffff166108c4610926565b73ffffffffffffffffffffffffffffffffffffffff161461091a576040517f08c379a000000000000000000000000000000000000000000000000000000000815260040161091190612505565b60405180910390fd5b610924600061146f565b565b6000600760009054906101000a900473ffffffffffffffffffffffffffffffffffffffff16905090565b60606001805461095f906127fb565b80601f016020809104026020016040519081016040528092919081815260200182805461098b906127fb565b80156109d85780601f106109ad576101008083540402835291602001916109d8565b820191906000526020600020905b8154815290600101906020018083116109bb57829003601f168201915b5050505050905090565b6109f46109ed610e0e565b8383611535565b5050565b610a09610a03610e0e565b83610ecf565b610a48576040517f08c379a0000000000000000000000000000000000000000000000000000000008152600401610a3f90612585565b60405180910390fd5b610a54848484846116a2565b50505050565b6060610a6582610da2565b610aa4576040517f08c379a0000000000000000000000000000000000000000000000000000000008152600401610a9b906124c5565b60405180910390fd5b6000600660008481526020019081526020016000208054610ac4906127fb565b80601f0160208091040260200160405190810160405280929190818152602001828054610af0906127fb565b8015610b3d5780601f10610b1257610100808354040283529160200191610b3d565b820191906000526020600020905b815481529060010190602001808311610b2057829003601f168201915b505050505090506000610b4e6116fe565b9050600081511415610b64578192505050610ba7565b600082511115610b99578082604051602001610b8192919061229d565b60405160208183030381529060405292505050610ba7565b610ba284611715565b925050505b919050565b6000600560008473ffffffffffffffffffffffffffffffffffffffff1673ffffffffffffffffffffffffffffffffffffffff16815260200190815260200160002060008373ffffffffffffffffffffffffffffffffffffffff1673ffffffffffffffffffffffffffffffffffffffff16815260200190815260200160002060009054906101000a900460ff16905092915050565b610c48610e0e565b73ffffffffffffffffffffffffffffffffffffffff16610c66610926565b73ffffffffffffffffffffffffffffffffffffffff1614610cbc576040517f08c379a0000000000000000000000000000000000000000000000000000000008152600401610cb390612505565b60405180910390fd5b600073ffffffffffffffffffffffffffffffffffffffff168173ffffffffffffffffffffffffffffffffffffffff161415610d2c576040517f08c379a0000000000000000000000000000000000000000000000000000000008152600401610d2390612385565b60405180910390fd5b610d358161146f565b50565b60007f01ffc9a7000000000000000000000000000000000000000000000000000000007bffffffffffffffffffffffffffffffffffffffffffffffffffffffff1916827bffffffffffffffffffffffffffffffffffffffffffffffffffffffff1916149050919050565b60008073ffffffffffffffffffffffffffffffffffffffff166002600084815260200190815260200160002060009054906101000a900473ffffffffffffffffffffffffffffffffffffffff1673ffffffffffffffffffffffffffffffffffffffff1614159050919050565b600033905090565b816004600083815260200190815260200160002060006101000a81548173ffffffffffffffffffffffffffffffffffffffff021916908373ffffffffffffffffffffffffffffffffffffffff160217905550808273ffffffffffffffffffffffffffffffffffffffff16610e8983610734565b73ffffffffffffffffffffffffffffffffffffffff167f8c5be1e5ebec7d5bd14f71427d1e84f3dd0314c0f7b2291e5b200ac8c7c3b92560405160405180910390a45050565b6000610eda82610da2565b610f19576040517f08c379a0000000000000000000000000000000000000000000000000000000008152600401610f1090612405565b60405180910390fd5b6000610f2483610734565b90508073ffffffffffffffffffffffffffffffffffffffff168473ffffffffffffffffffffffffffffffffffffffff161480610f9357508373ffffffffffffffffffffffffffffffffffffffff16610f7b846104e0565b73ffffffffffffffffffffffffffffffffffffffff16145b80610fa45750610fa38185610bac565b5b91505092915050565b8273ffffffffffffffffffffffffffffffffffffffff16610fcd82610734565b73ffffffffffffffffffffffffffffffffffffffff1614611023576040517f08c379a000000000000000000000000000000000000000000000000000000000815260040161101a90612525565b60405180910390fd5b600073ffffffffffffffffffffffffffffffffffffffff168273ffffffffffffffffffffffffffffffffffffffff161415611093576040517f08c379a000000000000000000000000000000000000000000000000000000000815260040161108a906123c5565b60405180910390fd5b61109e8383836117bc565b6110a9600082610e16565b6001600360008573ffffffffffffffffffffffffffffffffffffffff1673ffffffffffffffffffffffffffffffffffffffff16815260200190815260200160002060008282546110f99190612711565b925050819055506001600360008473ffffffffffffffffffffffffffffffffffffffff1673ffffffffffffffffffffffffffffffffffffffff1681526020019081526020016000206000828254611150919061268a565b92505081905550816002600083815260200190815260200160002060006101000a81548173ffffffffffffffffffffffffffffffffffffffff021916908373ffffffffffffffffffffffffffffffffffffffff160217905550808273ffffffffffffffffffffffffffffffffffffffff168473ffffffffffffffffffffffffffffffffffffffff167fddf252ad1be2c89b69c2b068fc378daa952ba7f163c4a11628f55a4df523b3ef60405160405180910390a4505050565b6001816000016000828254019250508190555050565b600081600001549050919050565b600073ffffffffffffffffffffffffffffffffffffffff168273ffffffffffffffffffffffffffffffffffffffff16141561129d576040517f08c379a0000000000000000000000000000000000000000000000000000000008152600401611294906124a5565b60405180910390fd5b6112a681610da2565b156112e6576040517f08c379a00000000000000000000000000000000000000000000000000000000081526004016112dd906123a5565b60405180910390fd5b6112f2600083836117bc565b6001600360008473ffffffffffffffffffffffffffffffffffffffff1673ffffffffffffffffffffffffffffffffffffffff1681526020019081526020016000206000828254611342919061268a565b92505081905550816002600083815260200190815260200160002060006101000a81548173ffffffffffffffffffffffffffffffffffffffff021916908373ffffffffffffffffffffffffffffffffffffffff160217905550808273ffffffffffffffffffffffffffffffffffffffff16600073ffffffffffffffffffffffffffffffffffffffff167fddf252ad1be2c89b69c2b068fc378daa952ba7f163c4a11628f55a4df523b3ef60405160405180910390a45050565b61140482610da2565b611443576040517f08c379a000000000000000000000000000000000000000000000000000000000815260040161143a90612485565b60405180910390fd5b8060066000848152602001908152602001600020908051906020019061146a929190611b18565b505050565b6000600760009054906101000a900473ffffffffffffffffffffffffffffffffffffffff16905081600760006101000a81548173ffffffffffffffffffffffffffffffffffffffff021916908373ffffffffffffffffffffffffffffffffffffffff1602179055508173ffffffffffffffffffffffffffffffffffffffff168173ffffffffffffffffffffffffffffffffffffffff167f8be0079c531659141344cd1fd0a4f28419497f9722a3daafe3b4186f6b6457e060405160405180910390a35050565b8173ffffffffffffffffffffffffffffffffffffffff168373ffffffffffffffffffffffffffffffffffffffff1614156115a4576040517f08c379a000000000000000000000000000000000000000000000000000000000815260040161159b906123e5565b60405180910390fd5b80600560008573ffffffffffffffffffffffffffffffffffffffff1673ffffffffffffffffffffffffffffffffffffffff16815260200190815260200160002060008473ffffffffffffffffffffffffffffffffffffffff1673ffffffffffffffffffffffffffffffffffffffff16815260200190815260200160002060006101000a81548160ff0219169083151502179055508173ffffffffffffffffffffffffffffffffffffffff168373ffffffffffffffffffffffffffffffffffffffff167f17307eab39ab6107e8899845ad3d59bd9653f200f220920489ca2b5937696c31836040516116959190612328565b60405180910390a3505050565b6116ad848484610fad565b6116b9848484846117c1565b6116f8576040517f08c379a00000000000000000000000000000000000000000000000000000000081526004016116ef90612365565b60405180910390fd5b50505050565b606060405180602001604052806000815250905090565b606061172082610da2565b61175f576040517f08c379a000000000000000000000000000000000000000000000000000000000815260040161175690612545565b60405180910390fd5b60006117696116fe565b9050600081511161178957604051806020016040528060008152506117b4565b8061179384611958565b6040516020016117a492919061229d565b6040516020818303038152906040525b915050919050565b505050565b60006117e28473ffffffffffffffffffffffffffffffffffffffff16611b05565b1561194b578373ffffffffffffffffffffffffffffffffffffffff1663150b7a0261180b610e0e565b8786866040518563ffffffff1660e01b815260040161182d94939291906122dc565b602060405180830381600087803b15801561184757600080fd5b505af192505050801561187857506040513d601f19601f820116820180604052508101906118759190611ec4565b60015b6118fb573d80600081146118a8576040519150601f19603f3d011682016040523d82523d6000602084013e6118ad565b606091505b506000815114156118f3576040517f08c379a00000000000000000000000000000000000000000000000000000000081526004016118ea90612365565b60405180910390fd5b805181602001fd5b63150b7a0260e01b7bffffffffffffffffffffffffffffffffffffffffffffffffffffffff1916817bffffffffffffffffffffffffffffffffffffffffffffffffffffffff191614915050611950565b600190505b949350505050565b606060008214156119a0576040518060400160405280600181526020017f30000000000000000000000000000000000000000000000000000000000000008152509050611b00565b600082905060005b600082146119d25780806119bb9061285e565b915050600a826119cb91906126e0565b91506119a8565b60008167ffffffffffffffff811115611a14577f4e487b7100000000000000000000000000000000000000000000000000000000600052604160045260246000fd5b6040519080825280601f01601f191660200182016040528015611a465781602001600182028036833780820191505090505b5090505b60008514611af957600182611a5f9190612711565b9150600a85611a6e91906128a7565b6030611a7a919061268a565b60f81b818381518110611ab6577f4e487b7100000000000000000000000000000000000000000000000000000000600052603260045260246000fd5b60200101907effffffffffffffffffffffffffffffffffffffffffffffffffffffffffffff1916908160001a905350600a85611af291906126e0565b9450611a4a565b8093505050505b919050565b600080823b905060008111915050919050565b828054611b24906127fb565b90600052602060002090601f016020900481019282611b465760008555611b8d565b82601f10611b5f57805160ff1916838001178555611b8d565b82800160010185558215611b8d579182015b82811115611b8c578251825591602001919060010190611b71565b5b509050611b9a9190611b9e565b5090565b5b80821115611bb7576000816000905550600101611b9f565b5090565b6000611bce611bc9846125e5565b6125c0565b905082815260208101848484011115611be657600080fd5b611bf18482856127b9565b509392505050565b6000611c0c611c0784612616565b6125c0565b905082815260208101848484011115611c2457600080fd5b611c2f8482856127b9565b509392505050565b600081359050611c4681612e9b565b92915050565b600081359050611c5b81612eb2565b92915050565b600081359050611c7081612ec9565b92915050565b600081519050611c8581612ec9565b92915050565b600082601f830112611c9c57600080fd5b8135611cac848260208601611bbb565b91505092915050565b600082601f830112611cc657600080fd5b8135611cd6848260208601611bf9565b91505092915050565b600081359050611cee81612ee0565b92915050565b600060208284031215611d0657600080fd5b6000611d1484828501611c37565b91505092915050565b60008060408385031215611d3057600080fd5b6000611d3e85828601611c37565b9250506020611d4f85828601611c37565b9150509250929050565b600080600060608486031215611d6e57600080fd5b6000611d7c86828701611c37565b9350506020611d8d86828701611c37565b9250506040611d9e86828701611cdf565b9150509250925092565b60008060008060808587031215611dbe57600080fd5b6000611dcc87828801611c37565b9450506020611ddd87828801611c37565b9350506040611dee87828801611cdf565b925050606085013567ffffffffffffffff811115611e0b57600080fd5b611e1787828801611c8b565b91505092959194509250565b60008060408385031215611e3657600080fd5b6000611e4485828601611c37565b9250506020611e5585828601611c4c565b9150509250929050565b60008060408385031215611e7257600080fd5b6000611e8085828601611c37565b9250506020611e9185828601611cdf565b9150509250929050565b600060208284031215611ead57600080fd5b6000611ebb84828501611c61565b91505092915050565b600060208284031215611ed657600080fd5b6000611ee484828501611c76565b91505092915050565b600060208284031215611eff57600080fd5b600082013567ffffffffffffffff811115611f1957600080fd5b611f2584828501611cb5565b91505092915050565b600060208284031215611f4057600080fd5b6000611f4e84828501611cdf565b91505092915050565b611f6081612745565b82525050565b611f6f81612757565b82525050565b6000611f8082612647565b611f8a818561265d565b9350611f9a8185602086016127c8565b611fa381612994565b840191505092915050565b6000611fb982612652565b611fc3818561266e565b9350611fd38185602086016127c8565b611fdc81612994565b840191505092915050565b6000611ff282612652565b611ffc818561267f565b935061200c8185602086016127c8565b80840191505092915050565b600061202560328361266e565b9150612030826129a5565b604082019050919050565b600061204860268361266e565b9150612053826129f4565b604082019050919050565b600061206b601c8361266e565b915061207682612a43565b602082019050919050565b600061208e60248361266e565b915061209982612a6c565b604082019050919050565b60006120b160198361266e565b91506120bc82612abb565b602082019050919050565b60006120d4602c8361266e565b91506120df82612ae4565b604082019050919050565b60006120f760388361266e565b915061210282612b33565b604082019050919050565b600061211a602a8361266e565b915061212582612b82565b604082019050919050565b600061213d60298361266e565b915061214882612bd1565b604082019050919050565b6000612160602e8361266e565b915061216b82612c20565b604082019050919050565b600061218360208361266e565b915061218e82612c6f565b602082019050919050565b60006121a660318361266e565b91506121b182612c98565b604082019050919050565b60006121c9602c8361266e565b91506121d482612ce7565b604082019050919050565b60006121ec60208361266e565b91506121f782612d36565b602082019050919050565b600061220f60298361266e565b915061221a82612d5f565b604082019050919050565b6000612232602f8361266e565b915061223d82612dae565b604082019050919050565b600061225560218361266e565b915061226082612dfd565b604082019050919050565b600061227860318361266e565b915061228382612e4c565b604082019050919050565b612297816127af565b82525050565b60006122a98285611fe7565b91506122b58284611fe7565b91508190509392505050565b60006020820190506122d66000830184611f57565b92915050565b60006080820190506122f16000830187611f57565b6122fe6020830186611f57565b61230b604083018561228e565b818103606083015261231d8184611f75565b905095945050505050565b600060208201905061233d6000830184611f66565b92915050565b6000602082019050818103600083015261235d8184611fae565b905092915050565b6000602082019050818103600083015261237e81612018565b9050919050565b6000602082019050818103600083015261239e8161203b565b9050919050565b600060208201905081810360008301526123be8161205e565b9050919050565b600060208201905081810360008301526123de81612081565b9050919050565b600060208201905081810360008301526123fe816120a4565b9050919050565b6000602082019050818103600083015261241e816120c7565b9050919050565b6000602082019050818103600083015261243e816120ea565b9050919050565b6000602082019050818103600083015261245e8161210d565b9050919050565b6000602082019050818103600083015261247e81612130565b9050919050565b6000602082019050818103600083015261249e81612153565b9050919050565b600060208201905081810360008301526124be81612176565b9050919050565b600060208201905081810360008301526124de81612199565b9050919050565b600060208201905081810360008301526124fe816121bc565b9050919050565b6000602082019050818103600083015261251e816121df565b9050919050565b6000602082019050818103600083015261253e81612202565b9050919050565b6000602082019050818103600083015261255e81612225565b9050919050565b6000602082019050818103600083015261257e81612248565b9050919050565b6000602082019050818103600083015261259e8161226b565b9050919050565b60006020820190506125ba600083018461228e565b92915050565b60006125ca6125db565b90506125d6828261282d565b919050565b6000604051905090565b600067ffffffffffffffff821115612600576125ff612965565b5b61260982612994565b9050602081019050919050565b600067ffffffffffffffff82111561263157612630612965565b5b61263a82612994565b9050602081019050919050565b600081519050919050565b600081519050919050565b600082825260208201905092915050565b600082825260208201905092915050565b600081905092915050565b6000612695826127af565b91506126a0836127af565b9250827fffffffffffffffffffffffffffffffffffffffffffffffffffffffffffffffff038211156126d5576126d46128d8565b5b828201905092915050565b60006126eb826127af565b91506126f6836127af565b92508261270657612705612907565b5b828204905092915050565b600061271c826127af565b9150612727836127af565b92508282101561273a576127396128d8565b5b828203905092915050565b60006127508261278f565b9050919050565b60008115159050919050565b60007fffffffff0000000000000000000000000000000000000000000000000000000082169050919050565b600073ffffffffffffffffffffffffffffffffffffffff82169050919050565b6000819050919050565b82818337600083830152505050565b60005b838110156127e65780820151818401526020810190506127cb565b838111156127f5576000848401525b50505050565b6000600282049050600182168061281357607f821691505b6020821081141561282757612826612936565b5b50919050565b61283682612994565b810181811067ffffffffffffffff8211171561285557612854612965565b5b80604052505050565b6000612869826127af565b91507fffffffffffffffffffffffffffffffffffffffffffffffffffffffffffffffff82141561289c5761289b6128d8565b5b600182019050919050565b60006128b2826127af565b91506128bd836127af565b9250826128cd576128cc612907565b5b828206905092915050565b7f4e487b7100000000000000000000000000000000000000000000000000000000600052601160045260246000fd5b7f4e487b7100000000000000000000000000000000000000000000000000000000600052601260045260246000fd5b7f4e487b7100000000000000000000000000000000000000000000000000000000600052602260045260246000fd5b7f4e487b7100000000000000000000000000000000000000000000000000000000600052604160045260246000fd5b6000601f19601f8301169050919050565b7f4552433732313a207472616e7366657220746f206e6f6e20455243373231526560008201527f63656976657220696d706c656d656e7465720000000000000000000000000000602082015250565b7f4f776e61626c653a206e6577206f776e657220697320746865207a65726f206160008201527f6464726573730000000000000000000000000000000000000000000000000000602082015250565b7f4552433732313a20746f6b656e20616c7265616479206d696e74656400000000600082015250565b7f4552433732313a207472616e7366657220746f20746865207a65726f2061646460008201527f7265737300000000000000000000000000000000000000000000000000000000602082015250565b7f4552433732313a20617070726f766520746f2063616c6c657200000000000000600082015250565b7f4552433732313a206f70657261746f7220717565727920666f72206e6f6e657860008201527f697374656e7420746f6b656e0000000000000000000000000000000000000000602082015250565b7f4552433732313a20617070726f76652063616c6c6572206973206e6f74206f7760008201527f6e6572206e6f7220617070726f76656420666f7220616c6c0000000000000000602082015250565b7f4552433732313a2062616c616e636520717565727920666f7220746865207a6560008201527f726f206164647265737300000000000000000000000000000000000000000000602082015250565b7f4552433732313a206f776e657220717565727920666f72206e6f6e657869737460008201527f656e7420746f6b656e0000000000000000000000000000000000000000000000602082015250565b7f45524337323155524953746f726167653a2055524920736574206f66206e6f6e60008201527f6578697374656e7420746f6b656e000000000000000000000000000000000000602082015250565b7f4552433732313a206d696e7420746f20746865207a65726f2061646472657373600082015250565b7f45524337323155524953746f726167653a2055524920717565727920666f722060008201527f6e6f6e6578697374656e7420746f6b656e000000000000000000000000000000602082015250565b7f4552433732313a20617070726f76656420717565727920666f72206e6f6e657860008201527f697374656e7420746f6b656e0000000000000000000000000000000000000000602082015250565b7f4f776e61626c653a2063616c6c6572206973206e6f7420746865206f776e6572600082015250565b7f4552433732313a207472616e73666572206f6620746f6b656e2074686174206960008201527f73206e6f74206f776e0000000000000000000000000000000000000000000000602082015250565b7f4552433732314d657461646174613a2055524920717565727920666f72206e6f60008201527f6e6578697374656e7420746f6b656e0000000000000000000000000000000000602082015250565b7f4552433732313a20617070726f76616c20746f2063757272656e74206f776e6560008201527f7200000000000000000000000000000000000000000000000000000000000000602082015250565b7f4552433732313a207472616e736665722063616c6c6572206973206e6f74206f60008201527f776e6572206e6f7220617070726f766564000000000000000000000000000000602082015250565b612ea481612745565b8114612eaf57600080fd5b50565b612ebb81612757565b8114612ec657600080fd5b50565b612ed281612763565b8114612edd57600080fd5b50565b612ee9816127af565b8114612ef457600080fd5b5056fea2646970667358221220f5bc461581adbd6039b71d57523308e43f27aacae8e37721cad1a2bdb5220dbf64736f6c63430008040033",
  "linkReferences": {},
  "deployedLinkReferences": {}
}