{
  "_format": "hh-sol-artifact-1",
  "contractName": "NFTMarket",
  "sourceName": "contracts/NFTMarket.sol",
  "abi": [
    {
      "inputs": [],
      "stateMutability": "nonpayable",
      "type": "constructor"
    },
    {
      "anonymous": false,
      "inputs": [
        {
          "indexed": false,
          "internalType": "uint256",
          "name": "itemId",
          "type": "uint256"
        },
        {
          "indexed": false,
          "internalType": "address",
          "name": "nftContract",
          "type": "address"
        },
        {
          "indexed": false,
          "internalType": "uint256",
          "name": "tokenId",
          "type": "uint256"
        },
        {
          "indexed": false,
          "internalType": "address payable",
          "name": "seller",
          "type": "address"
        },
        {
          "indexed": false,
          "internalType": "address payable",
          "name": "owner",
          "type": "address"
        },
        {
          "indexed": false,
          "internalType": "uint256",
          "name": "price",
          "type": "uint256"
        },
        {
          "indexed": false,
          "internalType": "address payable",
          "name": "highestBidder",
          "type": "address"
        },
        {
          "indexed": false,
          "internalType": "uint256",
          "name": "highestBid",
          "type": "uint256"
        },
        {
          "indexed": false,
          "internalType": "address payable[]",
          "name": "pendingBidders",
          "type": "address[]"
        },
        {
          "indexed": false,
          "internalType": "bool",
          "name": "auctionEnded",
          "type": "bool"
        }
      ],
      "name": "UpdatedMarketItem",
      "type": "event"
    },
    {
      "inputs": [
        {
          "internalType": "address",
          "name": "nftContract",
          "type": "address"
        },
        {
          "internalType": "uint256",
          "name": "itemId",
          "type": "uint256"
        }
      ],
      "name": "cancelMarketSale",
      "outputs": [],
      "stateMutability": "nonpayable",
      "type": "function"
    },
    {
      "inputs": [
        {
          "internalType": "address",
          "name": "nftContract",
          "type": "address"
        },
        {
          "internalType": "uint256",
          "name": "itemId",
          "type": "uint256"
        }
      ],
      "name": "createMarketAuction",
      "outputs": [],
      "stateMutability": "payable",
      "type": "function"
    },
    {
      "inputs": [
        {
          "internalType": "address",
          "name": "nftContract",
          "type": "address"
        },
        {
          "internalType": "uint256",
          "name": "tokenId",
          "type": "uint256"
        }
      ],
      "name": "createMarketItem",
      "outputs": [],
      "stateMutability": "nonpayable",
      "type": "function"
    },
    {
      "inputs": [
        {
          "internalType": "address",
          "name": "nftContract",
          "type": "address"
        },
        {
          "internalType": "uint256",
          "name": "tokenId",
          "type": "uint256"
        }
      ],
      "name": "createMarketItemForAuction",
      "outputs": [],
      "stateMutability": "nonpayable",
      "type": "function"
    },
    {
      "inputs": [
        {
          "internalType": "address",
          "name": "nftContract",
          "type": "address"
        },
        {
          "internalType": "uint256",
          "name": "tokenId",
          "type": "uint256"
        },
        {
          "internalType": "uint256",
          "name": "price",
          "type": "uint256"
        }
      ],
      "name": "createMarketItemForSale",
      "outputs": [],
      "stateMutability": "nonpayable",
      "type": "function"
    },
    {
      "inputs": [
        {
          "internalType": "address",
          "name": "nftContract",
          "type": "address"
        },
        {
          "internalType": "uint256",
          "name": "itemId",
          "type": "uint256"
        },
        {
          "internalType": "uint256",
          "name": "price",
          "type": "uint256"
        }
      ],
      "name": "createMarketSale",
      "outputs": [],
      "stateMutability": "payable",
      "type": "function"
    },
    {
      "inputs": [
        {
          "internalType": "address",
          "name": "nftContract",
          "type": "address"
        },
        {
          "internalType": "uint256",
          "name": "itemId",
          "type": "uint256"
        }
      ],
      "name": "executeMarketAuctionEnd",
      "outputs": [],
      "stateMutability": "nonpayable",
      "type": "function"
    },
    {
      "inputs": [
        {
          "internalType": "address",
          "name": "nftContract",
          "type": "address"
        },
        {
          "internalType": "uint256",
          "name": "itemId",
          "type": "uint256"
        }
      ],
      "name": "executeMarketSale",
      "outputs": [],
      "stateMutability": "payable",
      "type": "function"
    },
    {
      "inputs": [
        {
          "internalType": "uint256",
          "name": "pageNumber",
          "type": "uint256"
        },
        {
          "internalType": "uint256",
          "name": "pageSize",
          "type": "uint256"
        }
      ],
      "name": "fetchMarketItems",
      "outputs": [
        {
          "components": [
            {
              "internalType": "uint256",
              "name": "itemId",
              "type": "uint256"
            },
            {
              "internalType": "address",
              "name": "nftContract",
              "type": "address"
            },
            {
              "internalType": "uint256",
              "name": "tokenId",
              "type": "uint256"
            },
            {
              "internalType": "address payable",
              "name": "seller",
              "type": "address"
            },
            {
              "internalType": "address payable",
              "name": "owner",
              "type": "address"
            },
            {
              "internalType": "uint256",
              "name": "price",
              "type": "uint256"
            },
            {
              "internalType": "address payable",
              "name": "highestBidder",
              "type": "address"
            },
            {
              "internalType": "uint256",
              "name": "highestBid",
              "type": "uint256"
            },
            {
              "internalType": "address payable[]",
              "name": "pendingBidders",
              "type": "address[]"
            },
            {
              "internalType": "bool",
              "name": "auctionEnded",
              "type": "bool"
            }
          ],
          "internalType": "struct NFTMarket.MarketItem[]",
          "name": "",
          "type": "tuple[]"
        }
      ],
      "stateMutability": "view",
      "type": "function"
    },
    {
      "inputs": [
        {
          "internalType": "uint256",
          "name": "",
          "type": "uint256"
        }
      ],
      "name": "idToMarketItem",
      "outputs": [
        {
          "internalType": "uint256",
          "name": "itemId",
          "type": "uint256"
        },
        {
          "internalType": "address",
          "name": "nftContract",
          "type": "address"
        },
        {
          "internalType": "uint256",
          "name": "tokenId",
          "type": "uint256"
        },
        {
          "internalType": "address payable",
          "name": "seller",
          "type": "address"
        },
        {
          "internalType": "address payable",
          "name": "owner",
          "type": "address"
        },
        {
          "internalType": "uint256",
          "name": "price",
          "type": "uint256"
        },
        {
          "internalType": "address payable",
          "name": "highestBidder",
          "type": "address"
        },
        {
          "internalType": "uint256",
          "name": "highestBid",
          "type": "uint256"
        },
        {
          "internalType": "bool",
          "name": "auctionEnded",
          "type": "bool"
        }
      ],
      "stateMutability": "view",
      "type": "function"
    },
    {
      "inputs": [],
      "name": "listingPrice",
      "outputs": [
        {
          "internalType": "uint256",
          "name": "",
          "type": "uint256"
        }
      ],
      "stateMutability": "view",
      "type": "function"
    },
    {
      "inputs": [
        {
          "internalType": "uint256",
          "name": "itemId",
          "type": "uint256"
        }
      ],
      "name": "makeAuctionBid",
      "outputs": [],
      "stateMutability": "payable",
      "type": "function"
    },
    {
      "inputs": [
        {
          "internalType": "uint256",
          "name": "",
          "type": "uint256"
        },
        {
          "internalType": "address",
          "name": "",
          "type": "address"
        }
      ],
      "name": "pendingReturns",
      "outputs": [
        {
          "internalType": "uint256",
          "name": "",
          "type": "uint256"
        }
      ],
      "stateMutability": "view",
      "type": "function"
    },
    {
      "inputs": [
        {
          "internalType": "uint256",
          "name": "_listingPrice",
          "type": "uint256"
        }
      ],
      "name": "setListingPrice",
      "outputs": [],
      "stateMutability": "nonpayable",
      "type": "function"
    },
    {
      "inputs": [
        {
          "internalType": "uint256",
          "name": "itemId",
          "type": "uint256"
        }
      ],
      "name": "withdrawAuctionBid",
      "outputs": [],
      "stateMutability": "nonpayable",
      "type": "function"
    }
  ],
  "bytecode": "0x6080604052600160035534801561001557600080fd5b50600160008190555033600260006101000a81548173ffffffffffffffffffffffffffffffffffffffff021916908373ffffffffffffffffffffffffffffffffffffffff160217905550615902806200006f6000396000f3fe6080604052600436106100e85760003560e01c80637c726b691161008a578063c78f19f911610059578063c78f19f9146102b1578063dd5f8518146102dc578063e61a70c014610305578063f01a6dde1461034a576100e8565b80637c726b69146102065780638ddac1ef1461022f578063bd1ecd611461026c578063c3a3b8ea14610295576100e8565b806321cf91ac116100c657806321cf91ac1461015b578063283f766c146101775780635d30c81b146101a05780637063b64e146101c9576100e8565b8063087a7992146100ed5780631ae1b701146101095780631dd9cf8614610132575b600080fd5b610107600480360381019061010291906147b8565b610366565b005b34801561011557600080fd5b50610130600480360381019061012b91906147f4565b6108c3565b005b34801561013e57600080fd5b50610159600480360381019061015491906147b8565b610e60565b005b610175600480360381019061017091906147f4565b611235565b005b34801561018357600080fd5b5061019e60048036038101906101999190614843565b611792565b005b3480156101ac57600080fd5b506101c760048036038101906101c291906147b8565b61242f565b005b3480156101d557600080fd5b506101f060048036038101906101eb91906148a8565b612c05565b6040516101fd9190614de2565b60405180910390f35b34801561021257600080fd5b5061022d60048036038101906102289190614843565b61322e565b005b34801561023b57600080fd5b506102566004803603810190610251919061486c565b6132c8565b6040516102639190614f84565b60405180910390f35b34801561027857600080fd5b50610293600480360381019061028e91906147b8565b6132ed565b005b6102af60048036038101906102aa9190614843565b613847565b005b3480156102bd57600080fd5b506102c6613da0565b6040516102d39190614f84565b60405180910390f35b3480156102e857600080fd5b5061030360048036038101906102fe91906147b8565b613da6565b005b34801561031157600080fd5b5061032c60048036038101906103279190614843565b61419b565b60405161034199989796959493929190615188565b60405180910390f35b610364600480360381019061035f91906147b8565b614276565b005b600260005414156103ac576040517f08c379a00000000000000000000000000000000000000000000000000000000081526004016103a390614f24565b60405180910390fd5b60026000819055506000600460008381526020019081526020016000206002015490503073ffffffffffffffffffffffffffffffffffffffff168373ffffffffffffffffffffffffffffffffffffffff1663081812fc836040518263ffffffff1660e01b815260040161041f9190614f84565b60206040518083038186803b15801561043757600080fd5b505afa15801561044b573d6000803e3d6000fd5b505050506040513d601f19601f8201168201806040525081019061046f919061478f565b73ffffffffffffffffffffffffffffffffffffffff16146104c5576040517f08c379a00000000000000000000000000000000000000000000000000000000081526004016104bc90614e04565b60405180910390fd5b3373ffffffffffffffffffffffffffffffffffffffff168373ffffffffffffffffffffffffffffffffffffffff16636352211e836040518263ffffffff1660e01b81526004016105159190614f84565b60206040518083038186803b15801561052d57600080fd5b505afa158015610541573d6000803e3d6000fd5b505050506040513d601f19601f82011682018060405250810190610565919061478f565b73ffffffffffffffffffffffffffffffffffffffff16146105bb576040517f08c379a00000000000000000000000000000000000000000000000000000000081526004016105b290614ec4565b60405180910390fd5b60606040518061014001604052808481526020018573ffffffffffffffffffffffffffffffffffffffff1681526020018381526020013373ffffffffffffffffffffffffffffffffffffffff168152602001600073ffffffffffffffffffffffffffffffffffffffff168152602001600081526020013373ffffffffffffffffffffffffffffffffffffffff1681526020016000815260200182815260200160001515815250600460008581526020019081526020016000206000820151816000015560208201518160010160006101000a81548173ffffffffffffffffffffffffffffffffffffffff021916908373ffffffffffffffffffffffffffffffffffffffff1602179055506040820151816002015560608201518160030160006101000a81548173ffffffffffffffffffffffffffffffffffffffff021916908373ffffffffffffffffffffffffffffffffffffffff16021790555060808201518160040160006101000a81548173ffffffffffffffffffffffffffffffffffffffff021916908373ffffffffffffffffffffffffffffffffffffffff16021790555060a0820151816005015560c08201518160060160006101000a81548173ffffffffffffffffffffffffffffffffffffffff021916908373ffffffffffffffffffffffffffffffffffffffff16021790555060e082015181600701556101008201518160080190805190602001906107d59291906145fc565b506101208201518160090160006101000a81548160ff0219169083151502179055509050508373ffffffffffffffffffffffffffffffffffffffff166323b872dd3330856040518463ffffffff1660e01b815260040161083793929190614dab565b600060405180830381600087803b15801561085157600080fd5b505af1158015610865573d6000803e3d6000fd5b505050507fdbc981a0a95e1ac563066f1f2031b6bfbddb3a8af6035fdb5eda876a6343d1e9838584336000803360008960006040516108ad9a99989796959493929190614f9f565b60405180910390a1505060016000819055505050565b60026000541415610909576040517f08c379a000000000000000000000000000000000000000000000000000000000815260040161090090614f24565b60405180910390fd5b600260008190555060008111610954576040517f08c379a000000000000000000000000000000000000000000000000000000000815260040161094b90614f44565b60405180910390fd5b3073ffffffffffffffffffffffffffffffffffffffff168373ffffffffffffffffffffffffffffffffffffffff1663081812fc846040518263ffffffff1660e01b81526004016109a49190614f84565b60206040518083038186803b1580156109bc57600080fd5b505afa1580156109d0573d6000803e3d6000fd5b505050506040513d601f19601f820116820180604052508101906109f4919061478f565b73ffffffffffffffffffffffffffffffffffffffff1614610a4a576040517f08c379a0000000000000000000000000000000000000000000000000000000008152600401610a4190614e04565b60405180910390fd5b3373ffffffffffffffffffffffffffffffffffffffff168373ffffffffffffffffffffffffffffffffffffffff16636352211e846040518263ffffffff1660e01b8152600401610a9a9190614f84565b60206040518083038186803b158015610ab257600080fd5b505afa158015610ac6573d6000803e3d6000fd5b505050506040513d601f19601f82011682018060405250810190610aea919061478f565b73ffffffffffffffffffffffffffffffffffffffff1614610b40576040517f08c379a0000000000000000000000000000000000000000000000000000000008152600401610b3790614f04565b60405180910390fd5b6060610b4c60016145d8565b6000610b5860016145ee565b90506040518061014001604052808281526020018673ffffffffffffffffffffffffffffffffffffffff1681526020018581526020013373ffffffffffffffffffffffffffffffffffffffff168152602001600073ffffffffffffffffffffffffffffffffffffffff1681526020018481526020013373ffffffffffffffffffffffffffffffffffffffff1681526020016000815260200183815260200160011515815250600460008381526020019081526020016000206000820151816000015560208201518160010160006101000a81548173ffffffffffffffffffffffffffffffffffffffff021916908373ffffffffffffffffffffffffffffffffffffffff1602179055506040820151816002015560608201518160030160006101000a81548173ffffffffffffffffffffffffffffffffffffffff021916908373ffffffffffffffffffffffffffffffffffffffff16021790555060808201518160040160006101000a81548173ffffffffffffffffffffffffffffffffffffffff021916908373ffffffffffffffffffffffffffffffffffffffff16021790555060a0820151816005015560c08201518160060160006101000a81548173ffffffffffffffffffffffffffffffffffffffff021916908373ffffffffffffffffffffffffffffffffffffffff16021790555060e08201518160070155610100820151816008019080519060200190610d719291906145fc565b506101208201518160090160006101000a81548160ff0219169083151502179055509050508473ffffffffffffffffffffffffffffffffffffffff166323b872dd3330876040518463ffffffff1660e01b8152600401610dd393929190614dab565b600060405180830381600087803b158015610ded57600080fd5b505af1158015610e01573d6000803e3d6000fd5b505050507fdbc981a0a95e1ac563066f1f2031b6bfbddb3a8af6035fdb5eda876a6343d1e9818686336000883360008a6001604051610e499a99989796959493929190615042565b60405180910390a150506001600081905550505050565b60026000541415610ea6576040517f08c379a0000000000000000000000000000000000000000000000000000000008152600401610e9d90614f24565b60405180910390fd5b600260008190555060006004600083815260200190815260200160002060020154905060006004600084815260200190815260200160002060030160009054906101000a900473ffffffffffffffffffffffffffffffffffffffff1690503373ffffffffffffffffffffffffffffffffffffffff168173ffffffffffffffffffffffffffffffffffffffff1614610f72576040517f08c379a0000000000000000000000000000000000000000000000000000000008152600401610f6990614f64565b60405180910390fd5b336004600085815260200190815260200160002060040160006101000a81548173ffffffffffffffffffffffffffffffffffffffff021916908373ffffffffffffffffffffffffffffffffffffffff16021790555060006004600085815260200190815260200160002060030160006101000a81548173ffffffffffffffffffffffffffffffffffffffff021916908373ffffffffffffffffffffffffffffffffffffffff1602179055508373ffffffffffffffffffffffffffffffffffffffff166323b872dd3033856040518463ffffffff1660e01b815260040161105a93929190614dab565b600060405180830381600087803b15801561107457600080fd5b505af1158015611088573d6000803e3d6000fd5b505050507fdbc981a0a95e1ac563066f1f2031b6bfbddb3a8af6035fdb5eda876a6343d1e9836004600086815260200190815260200160002060010160009054906101000a900473ffffffffffffffffffffffffffffffffffffffff1660046000878152602001908152602001600020600201546004600088815260200190815260200160002060030160009054906101000a900473ffffffffffffffffffffffffffffffffffffffff166004600089815260200190815260200160002060040160009054906101000a900473ffffffffffffffffffffffffffffffffffffffff16600460008a815260200190815260200160002060050154600460008b815260200190815260200160002060060160009054906101000a900473ffffffffffffffffffffffffffffffffffffffff16600460008c815260200190815260200160002060070154600460008d8152602001908152602001600020600801600460008e815260200190815260200160002060090160009054906101000a900460ff1660405161121f9a999897969594939291906150e5565b60405180910390a1505060016000819055505050565b6002600054141561127b576040517f08c379a000000000000000000000000000000000000000000000000000000000815260040161127290614f24565b60405180910390fd5b60026000819055506000600460008481526020019081526020016000206002015490503073ffffffffffffffffffffffffffffffffffffffff168473ffffffffffffffffffffffffffffffffffffffff1663081812fc836040518263ffffffff1660e01b81526004016112ee9190614f84565b60206040518083038186803b15801561130657600080fd5b505afa15801561131a573d6000803e3d6000fd5b505050506040513d601f19601f8201168201806040525081019061133e919061478f565b73ffffffffffffffffffffffffffffffffffffffff1614611394576040517f08c379a000000000000000000000000000000000000000000000000000000000815260040161138b90614e04565b60405180910390fd5b3373ffffffffffffffffffffffffffffffffffffffff168473ffffffffffffffffffffffffffffffffffffffff16636352211e836040518263ffffffff1660e01b81526004016113e49190614f84565b60206040518083038186803b1580156113fc57600080fd5b505afa158015611410573d6000803e3d6000fd5b505050506040513d601f19601f82011682018060405250810190611434919061478f565b73ffffffffffffffffffffffffffffffffffffffff161461148a576040517f08c379a000000000000000000000000000000000000000000000000000000000815260040161148190614f04565b60405180910390fd5b60606040518061014001604052808581526020018673ffffffffffffffffffffffffffffffffffffffff1681526020018381526020013373ffffffffffffffffffffffffffffffffffffffff168152602001600073ffffffffffffffffffffffffffffffffffffffff1681526020018481526020013373ffffffffffffffffffffffffffffffffffffffff1681526020016000815260200182815260200160011515815250600460008681526020019081526020016000206000820151816000015560208201518160010160006101000a81548173ffffffffffffffffffffffffffffffffffffffff021916908373ffffffffffffffffffffffffffffffffffffffff1602179055506040820151816002015560608201518160030160006101000a81548173ffffffffffffffffffffffffffffffffffffffff021916908373ffffffffffffffffffffffffffffffffffffffff16021790555060808201518160040160006101000a81548173ffffffffffffffffffffffffffffffffffffffff021916908373ffffffffffffffffffffffffffffffffffffffff16021790555060a0820151816005015560c08201518160060160006101000a81548173ffffffffffffffffffffffffffffffffffffffff021916908373ffffffffffffffffffffffffffffffffffffffff16021790555060e082015181600701556101008201518160080190805190602001906116a39291906145fc565b506101208201518160090160006101000a81548160ff0219169083151502179055509050508473ffffffffffffffffffffffffffffffffffffffff166323b872dd3330856040518463ffffffff1660e01b815260040161170593929190614dab565b600060405180830381600087803b15801561171f57600080fd5b505af1158015611733573d6000803e3d6000fd5b505050507fdbc981a0a95e1ac563066f1f2031b6bfbddb3a8af6035fdb5eda876a6343d1e98486843360008833600089600060405161177b9a99989796959493929190615042565b60405180910390a150506001600081905550505050565b600260005414156117d8576040517f08c379a00000000000000000000000000000000000000000000000000000000081526004016117cf90614f24565b60405180910390fd5b60026000819055506004600082815260200190815260200160002060090160009054906101000a900460ff1615611844576040517f08c379a000000000000000000000000000000000000000000000000000000000815260040161183b90614e24565b60405180910390fd5b6004600082815260200190815260200160002060060160009054906101000a900473ffffffffffffffffffffffffffffffffffffffff1673ffffffffffffffffffffffffffffffffffffffff163373ffffffffffffffffffffffffffffffffffffffff1614611b9c5760006005600083815260200190815260200160002060003373ffffffffffffffffffffffffffffffffffffffff1673ffffffffffffffffffffffffffffffffffffffff1681526020019081526020016000205411611940576040517f08c379a000000000000000000000000000000000000000000000000000000000815260040161193790614e64565b60405180910390fd5b60006005600083815260200190815260200160002060003373ffffffffffffffffffffffffffffffffffffffff1673ffffffffffffffffffffffffffffffffffffffff1681526020019081526020016000205490503373ffffffffffffffffffffffffffffffffffffffff166108fc829081150290604051600060405180830381858888f193505050501580156119db573d6000803e3d6000fd5b5060006005600084815260200190815260200160002060003373ffffffffffffffffffffffffffffffffffffffff1673ffffffffffffffffffffffffffffffffffffffff1681526020019081526020016000208190555060005b6004600084815260200190815260200160002060080180549050811015611b95573373ffffffffffffffffffffffffffffffffffffffff16600460008581526020019081526020016000206008018281548110611abb577f4e487b7100000000000000000000000000000000000000000000000000000000600052603260045260246000fd5b9060005260206000200160009054906101000a900473ffffffffffffffffffffffffffffffffffffffff1673ffffffffffffffffffffffffffffffffffffffff161415611b8257600460008481526020019081526020016000206008018181548110611b50577f4e487b7100000000000000000000000000000000000000000000000000000000600052603260045260246000fd5b9060005260206000200160006101000a81549073ffffffffffffffffffffffffffffffffffffffff0219169055611b95565b8080611b8d906154bb565b915050611a35565b5050612289565b60006004600083815260200190815260200160002060070154905060006004600084815260200190815260200160002060060160009054906101000a900473ffffffffffffffffffffffffffffffffffffffff1690503373ffffffffffffffffffffffffffffffffffffffff166108fc839081150290604051600060405180830381858888f19350505050158015611c38573d6000803e3d6000fd5b50600060046000858152602001908152602001600020600701819055506004600084815260200190815260200160002060030160009054906101000a900473ffffffffffffffffffffffffffffffffffffffff166004600085815260200190815260200160002060060160006101000a81548173ffffffffffffffffffffffffffffffffffffffff021916908373ffffffffffffffffffffffffffffffffffffffff16021790555060008060056000868152602001908152602001600020600060046000888152602001908152602001600020600801600081548110611d47577f4e487b7100000000000000000000000000000000000000000000000000000000600052603260045260246000fd5b9060005260206000200160009054906101000a900473ffffffffffffffffffffffffffffffffffffffff1673ffffffffffffffffffffffffffffffffffffffff1673ffffffffffffffffffffffffffffffffffffffff1681526020019081526020016000205411611dee576004600085815260200190815260200160002060030160009054906101000a900473ffffffffffffffffffffffffffffffffffffffff16611e69565b60046000858152602001908152602001600020600801600081548110611e3d577f4e487b7100000000000000000000000000000000000000000000000000000000600052603260045260246000fd5b9060005260206000200160009054906101000a900473ffffffffffffffffffffffffffffffffffffffff165b90506000805b60046000878152602001908152602001600020600801805490508110156120f2576005600087815260200190815260200160002060008473ffffffffffffffffffffffffffffffffffffffff1673ffffffffffffffffffffffffffffffffffffffff16815260200190815260200160002054600560008881526020019081526020016000206000600460008a81526020019081526020016000206008018481548110611f44577f4e487b7100000000000000000000000000000000000000000000000000000000600052603260045260246000fd5b9060005260206000200160009054906101000a900473ffffffffffffffffffffffffffffffffffffffff1673ffffffffffffffffffffffffffffffffffffffff1673ffffffffffffffffffffffffffffffffffffffff1681526020019081526020016000205411801561205b57508373ffffffffffffffffffffffffffffffffffffffff16600460008881526020019081526020016000206008018281548110612017577f4e487b7100000000000000000000000000000000000000000000000000000000600052603260045260246000fd5b9060005260206000200160009054906101000a900473ffffffffffffffffffffffffffffffffffffffff1673ffffffffffffffffffffffffffffffffffffffff1614155b156120df576004600087815260200190815260200160002060080181815481106120ae577f4e487b7100000000000000000000000000000000000000000000000000000000600052603260045260246000fd5b9060005260206000200160009054906101000a900473ffffffffffffffffffffffffffffffffffffffff1692508091505b80806120ea906154bb565b915050611e6f565b50816004600087815260200190815260200160002060060160006101000a81548173ffffffffffffffffffffffffffffffffffffffff021916908373ffffffffffffffffffffffffffffffffffffffff1602179055506005600086815260200190815260200160002060008373ffffffffffffffffffffffffffffffffffffffff1673ffffffffffffffffffffffffffffffffffffffff16815260200190815260200160002054600460008781526020019081526020016000206007018190555060006005600087815260200190815260200160002060008473ffffffffffffffffffffffffffffffffffffffff1673ffffffffffffffffffffffffffffffffffffffff16815260200190815260200160002081905550600460008681526020019081526020016000206008018181548110612257577f4e487b7100000000000000000000000000000000000000000000000000000000600052603260045260246000fd5b9060005260206000200160006101000a81549073ffffffffffffffffffffffffffffffffffffffff0219169055505050505b7fdbc981a0a95e1ac563066f1f2031b6bfbddb3a8af6035fdb5eda876a6343d1e9816004600084815260200190815260200160002060010160009054906101000a900473ffffffffffffffffffffffffffffffffffffffff1660046000858152602001908152602001600020600201546004600086815260200190815260200160002060030160009054906101000a900473ffffffffffffffffffffffffffffffffffffffff166004600087815260200190815260200160002060040160009054906101000a900473ffffffffffffffffffffffffffffffffffffffff1660046000888152602001908152602001600020600501546004600089815260200190815260200160002060060160009054906101000a900473ffffffffffffffffffffffffffffffffffffffff16600460008a815260200190815260200160002060070154600460008b8152602001908152602001600020600801600460008c815260200190815260200160002060090160009054906101000a900460ff1660405161241c9a999897969594939291906150e5565b60405180910390a1600160008190555050565b60026000541415612475576040517f08c379a000000000000000000000000000000000000000000000000000000000815260040161246c90614f24565b60405180910390fd5b60026000819055506004600082815260200190815260200160002060090160009054906101000a900460ff16156124e1576040517f08c379a00000000000000000000000000000000000000000000000000000000081526004016124d890614ee4565b60405180910390fd5b60006004600083815260200190815260200160002060070154905060006004600084815260200190815260200160002060060160009054906101000a900473ffffffffffffffffffffffffffffffffffffffff169050600060046000858152602001908152602001600020600201549050606060008414612681576004600086815260200190815260200160002060030160009054906101000a900473ffffffffffffffffffffffffffffffffffffffff1673ffffffffffffffffffffffffffffffffffffffff166108fc606460035460646125bd91906153b7565b876125c8919061535d565b6125d2919061532c565b9081150290604051600060405180830381858888f193505050501580156125fd573d6000803e3d6000fd5b50600260009054906101000a900473ffffffffffffffffffffffffffffffffffffffff1673ffffffffffffffffffffffffffffffffffffffff166108fc60646003548761264a919061535d565b612654919061532c565b9081150290604051600060405180830381858888f1935050505015801561267f573d6000803e3d6000fd5b505b8573ffffffffffffffffffffffffffffffffffffffff166323b872dd3085856040518463ffffffff1660e01b81526004016126be93929190614dab565b600060405180830381600087803b1580156126d857600080fd5b505af11580156126ec573d6000803e3d6000fd5b50505050826004600087815260200190815260200160002060040160006101000a81548173ffffffffffffffffffffffffffffffffffffffff021916908373ffffffffffffffffffffffffffffffffffffffff16021790555060006004600087815260200190815260200160002060030160006101000a81548173ffffffffffffffffffffffffffffffffffffffff021916908373ffffffffffffffffffffffffffffffffffffffff160217905550826004600087815260200190815260200160002060060160006101000a81548173ffffffffffffffffffffffffffffffffffffffff021916908373ffffffffffffffffffffffffffffffffffffffff1602179055506000600460008781526020019081526020016000206007018190555060016004600087815260200190815260200160002060090160006101000a81548160ff021916908315150217905550806004600087815260200190815260200160002060080190805190602001906128659291906145fc565b5060005b6004600087815260200190815260200160002060080180549050811015612ba757600073ffffffffffffffffffffffffffffffffffffffff166004600088815260200190815260200160002060080182815481106128f0577f4e487b7100000000000000000000000000000000000000000000000000000000600052603260045260246000fd5b9060005260206000200160009054906101000a900473ffffffffffffffffffffffffffffffffffffffff1673ffffffffffffffffffffffffffffffffffffffff1614158015612a0757506000600560008881526020019081526020016000206000600460008a8152602001908152602001600020600801848154811061299f577f4e487b7100000000000000000000000000000000000000000000000000000000600052603260045260246000fd5b9060005260206000200160009054906101000a900473ffffffffffffffffffffffffffffffffffffffff1673ffffffffffffffffffffffffffffffffffffffff1673ffffffffffffffffffffffffffffffffffffffff16815260200190815260200160002054115b15612b9457600460008781526020019081526020016000206008018181548110612a5a577f4e487b7100000000000000000000000000000000000000000000000000000000600052603260045260246000fd5b9060005260206000200160009054906101000a900473ffffffffffffffffffffffffffffffffffffffff1673ffffffffffffffffffffffffffffffffffffffff166108fc600560008981526020019081526020016000206000600460008b81526020019081526020016000206008018581548110612b01577f4e487b7100000000000000000000000000000000000000000000000000000000600052603260045260246000fd5b9060005260206000200160009054906101000a900473ffffffffffffffffffffffffffffffffffffffff1673ffffffffffffffffffffffffffffffffffffffff1673ffffffffffffffffffffffffffffffffffffffff168152602001908152602001600020549081150290604051600060405180830381858888f19350505050158015612b92573d6000803e3d6000fd5b505b8080612b9f906154bb565b915050612869565b507fdbc981a0a95e1ac563066f1f2031b6bfbddb3a8af6035fdb5eda876a6343d1e98587846000876000896000896001604051612bed9a99989796959493929190614f9f565b60405180910390a15050505060016000819055505050565b60606000612c1360016145ee565b9050600060018486612c25919061535d565b612c2f91906152d6565b905060008467ffffffffffffffff811115612c73577f4e487b7100000000000000000000000000000000000000000000000000000000600052604160045260246000fd5b604051908082528060200260200182016040528015612cac57816020015b612c99614686565b815260200190600190039081612c915790505b50905060008390505b828110158015612cc6575060018110155b15612f6a576004600082815260200190815260200160002060405180610140016040529081600082015481526020016001820160009054906101000a900473ffffffffffffffffffffffffffffffffffffffff1673ffffffffffffffffffffffffffffffffffffffff1673ffffffffffffffffffffffffffffffffffffffff168152602001600282015481526020016003820160009054906101000a900473ffffffffffffffffffffffffffffffffffffffff1673ffffffffffffffffffffffffffffffffffffffff1673ffffffffffffffffffffffffffffffffffffffff1681526020016004820160009054906101000a900473ffffffffffffffffffffffffffffffffffffffff1673ffffffffffffffffffffffffffffffffffffffff1673ffffffffffffffffffffffffffffffffffffffff168152602001600582015481526020016006820160009054906101000a900473ffffffffffffffffffffffffffffffffffffffff1673ffffffffffffffffffffffffffffffffffffffff1673ffffffffffffffffffffffffffffffffffffffff1681526020016007820154815260200160088201805480602002602001604051908101604052809291908181526020018280548015612eef57602002820191906000526020600020905b8160009054906101000a900473ffffffffffffffffffffffffffffffffffffffff1673ffffffffffffffffffffffffffffffffffffffff1681526020019060010190808311612ea5575b505050505081526020016009820160009054906101000a900460ff161515151581525050828281518110612f4c577f4e487b7100000000000000000000000000000000000000000000000000000000600052603260045260246000fd5b60200260200101819052508080612f6290615477565b915050612cb5565b5060005b600083118015612f7d57508581105b15613221576004600082815260200190815260200160002060405180610140016040529081600082015481526020016001820160009054906101000a900473ffffffffffffffffffffffffffffffffffffffff1673ffffffffffffffffffffffffffffffffffffffff1673ffffffffffffffffffffffffffffffffffffffff168152602001600282015481526020016003820160009054906101000a900473ffffffffffffffffffffffffffffffffffffffff1673ffffffffffffffffffffffffffffffffffffffff1673ffffffffffffffffffffffffffffffffffffffff1681526020016004820160009054906101000a900473ffffffffffffffffffffffffffffffffffffffff1673ffffffffffffffffffffffffffffffffffffffff1673ffffffffffffffffffffffffffffffffffffffff168152602001600582015481526020016006820160009054906101000a900473ffffffffffffffffffffffffffffffffffffffff1673ffffffffffffffffffffffffffffffffffffffff1673ffffffffffffffffffffffffffffffffffffffff16815260200160078201548152602001600882018054806020026020016040519081016040528092919081815260200182805480156131a657602002820191906000526020600020905b8160009054906101000a900473ffffffffffffffffffffffffffffffffffffffff1673ffffffffffffffffffffffffffffffffffffffff168152602001906001019080831161315c575b505050505081526020016009820160009054906101000a900460ff161515151581525050828281518110613203577f4e487b7100000000000000000000000000000000000000000000000000000000600052603260045260246000fd5b60200260200101819052508080613219906154bb565b915050612f6e565b8194505050505092915050565b600260009054906101000a900473ffffffffffffffffffffffffffffffffffffffff1673ffffffffffffffffffffffffffffffffffffffff163373ffffffffffffffffffffffffffffffffffffffff16146132be576040517f08c379a00000000000000000000000000000000000000000000000000000000081526004016132b590614e44565b60405180910390fd5b8060038190555050565b6005602052816000526040600020602052806000526040600020600091509150505481565b60026000541415613333576040517f08c379a000000000000000000000000000000000000000000000000000000000815260040161332a90614f24565b60405180910390fd5b60026000819055503073ffffffffffffffffffffffffffffffffffffffff168273ffffffffffffffffffffffffffffffffffffffff1663081812fc836040518263ffffffff1660e01b815260040161338b9190614f84565b60206040518083038186803b1580156133a357600080fd5b505afa1580156133b7573d6000803e3d6000fd5b505050506040513d601f19601f820116820180604052508101906133db919061478f565b73ffffffffffffffffffffffffffffffffffffffff1614613431576040517f08c379a000000000000000000000000000000000000000000000000000000000815260040161342890614e04565b60405180910390fd5b3373ffffffffffffffffffffffffffffffffffffffff168273ffffffffffffffffffffffffffffffffffffffff16636352211e836040518263ffffffff1660e01b81526004016134819190614f84565b60206040518083038186803b15801561349957600080fd5b505afa1580156134ad573d6000803e3d6000fd5b505050506040513d601f19601f820116820180604052508101906134d1919061478f565b73ffffffffffffffffffffffffffffffffffffffff1614613527576040517f08c379a000000000000000000000000000000000000000000000000000000000815260040161351e90614f04565b60405180910390fd5b606061353360016145d8565b600061353f60016145ee565b90506040518061014001604052808281526020018573ffffffffffffffffffffffffffffffffffffffff1681526020018481526020013373ffffffffffffffffffffffffffffffffffffffff168152602001600073ffffffffffffffffffffffffffffffffffffffff168152602001600081526020013373ffffffffffffffffffffffffffffffffffffffff1681526020016000815260200183815260200160001515815250600460008381526020019081526020016000206000820151816000015560208201518160010160006101000a81548173ffffffffffffffffffffffffffffffffffffffff021916908373ffffffffffffffffffffffffffffffffffffffff1602179055506040820151816002015560608201518160030160006101000a81548173ffffffffffffffffffffffffffffffffffffffff021916908373ffffffffffffffffffffffffffffffffffffffff16021790555060808201518160040160006101000a81548173ffffffffffffffffffffffffffffffffffffffff021916908373ffffffffffffffffffffffffffffffffffffffff16021790555060a0820151816005015560c08201518160060160006101000a81548173ffffffffffffffffffffffffffffffffffffffff021916908373ffffffffffffffffffffffffffffffffffffffff16021790555060e082015181600701556101008201518160080190805190602001906137599291906145fc565b506101208201518160090160006101000a81548160ff0219169083151502179055509050508373ffffffffffffffffffffffffffffffffffffffff166323b872dd3330866040518463ffffffff1660e01b81526004016137bb93929190614dab565b600060405180830381600087803b1580156137d557600080fd5b505af11580156137e9573d6000803e3d6000fd5b505050507fdbc981a0a95e1ac563066f1f2031b6bfbddb3a8af6035fdb5eda876a6343d1e9818585336000803360008a60006040516138319a99989796959493929190614f9f565b60405180910390a1505060016000819055505050565b6002600054141561388d576040517f08c379a000000000000000000000000000000000000000000000000000000000815260040161388490614f24565b60405180910390fd5b60026000819055506004600082815260200190815260200160002060090160009054906101000a900460ff16156138f9576040517f08c379a00000000000000000000000000000000000000000000000000000000081526004016138f090614e24565b60405180910390fd5b60006005600083815260200190815260200160002060003373ffffffffffffffffffffffffffffffffffffffff1673ffffffffffffffffffffffffffffffffffffffff168152602001908152602001600020541461398c576040517f08c379a000000000000000000000000000000000000000000000000000000000815260040161398390614e84565b60405180910390fd5b60006004600083815260200190815260200160002060060160009054906101000a900473ffffffffffffffffffffffffffffffffffffffff16905060006004600084815260200190815260200160002060070154905080341115613b2b57336004600085815260200190815260200160002060060160006101000a81548173ffffffffffffffffffffffffffffffffffffffff021916908373ffffffffffffffffffffffffffffffffffffffff16021790555034600460008581526020019081526020016000206007018190555060046000848152602001908152602001600020600801829080600181540180825580915050600190039060005260206000200160009091909190916101000a81548173ffffffffffffffffffffffffffffffffffffffff021916908373ffffffffffffffffffffffffffffffffffffffff160217905550806005600085815260200190815260200160002060008473ffffffffffffffffffffffffffffffffffffffff1673ffffffffffffffffffffffffffffffffffffffff16815260200190815260200160002081905550613bf8565b346005600085815260200190815260200160002060003373ffffffffffffffffffffffffffffffffffffffff1673ffffffffffffffffffffffffffffffffffffffff1681526020019081526020016000208190555060046000848152602001908152602001600020600801339080600181540180825580915050600190039060005260206000200160009091909190916101000a81548173ffffffffffffffffffffffffffffffffffffffff021916908373ffffffffffffffffffffffffffffffffffffffff1602179055505b7fdbc981a0a95e1ac563066f1f2031b6bfbddb3a8af6035fdb5eda876a6343d1e9836004600086815260200190815260200160002060010160009054906101000a900473ffffffffffffffffffffffffffffffffffffffff1660046000878152602001908152602001600020600201546004600088815260200190815260200160002060030160009054906101000a900473ffffffffffffffffffffffffffffffffffffffff166004600089815260200190815260200160002060040160009054906101000a900473ffffffffffffffffffffffffffffffffffffffff16600460008a815260200190815260200160002060050154600460008b815260200190815260200160002060060160009054906101000a900473ffffffffffffffffffffffffffffffffffffffff16600460008c815260200190815260200160002060070154600460008d8152602001908152602001600020600801600460008e815260200190815260200160002060090160009054906101000a900460ff16604051613d8b9a999897969594939291906150e5565b60405180910390a15050600160008190555050565b60035481565b60026000541415613dec576040517f08c379a0000000000000000000000000000000000000000000000000000000008152600401613de390614f24565b60405180910390fd5b60026000819055503373ffffffffffffffffffffffffffffffffffffffff168273ffffffffffffffffffffffffffffffffffffffff16636352211e836040518263ffffffff1660e01b8152600401613e449190614f84565b60206040518083038186803b158015613e5c57600080fd5b505afa158015613e70573d6000803e3d6000fd5b505050506040513d601f19601f82011682018060405250810190613e94919061478f565b73ffffffffffffffffffffffffffffffffffffffff1614613eea576040517f08c379a0000000000000000000000000000000000000000000000000000000008152600401613ee190614f04565b60405180910390fd5b6060613ef660016145d8565b6000613f0260016145ee565b90506040518061014001604052808281526020018573ffffffffffffffffffffffffffffffffffffffff1681526020018481526020013373ffffffffffffffffffffffffffffffffffffffff168152602001600073ffffffffffffffffffffffffffffffffffffffff168152602001600081526020013373ffffffffffffffffffffffffffffffffffffffff1681526020016000815260200183815260200160011515815250600460008381526020019081526020016000206000820151816000015560208201518160010160006101000a81548173ffffffffffffffffffffffffffffffffffffffff021916908373ffffffffffffffffffffffffffffffffffffffff1602179055506040820151816002015560608201518160030160006101000a81548173ffffffffffffffffffffffffffffffffffffffff021916908373ffffffffffffffffffffffffffffffffffffffff16021790555060808201518160040160006101000a81548173ffffffffffffffffffffffffffffffffffffffff021916908373ffffffffffffffffffffffffffffffffffffffff16021790555060a0820151816005015560c08201518160060160006101000a81548173ffffffffffffffffffffffffffffffffffffffff021916908373ffffffffffffffffffffffffffffffffffffffff16021790555060e0820151816007015561010082015181600801908051906020019061411c9291906145fc565b506101208201518160090160006101000a81548160ff0219169083151502179055509050507fdbc981a0a95e1ac563066f1f2031b6bfbddb3a8af6035fdb5eda876a6343d1e9818585336000803360008a60016040516141859a99989796959493929190614f9f565b60405180910390a1505060016000819055505050565b60046020528060005260406000206000915090508060000154908060010160009054906101000a900473ffffffffffffffffffffffffffffffffffffffff16908060020154908060030160009054906101000a900473ffffffffffffffffffffffffffffffffffffffff16908060040160009054906101000a900473ffffffffffffffffffffffffffffffffffffffff16908060050154908060060160009054906101000a900473ffffffffffffffffffffffffffffffffffffffff16908060070154908060090160009054906101000a900460ff16905089565b600260005414156142bc576040517f08c379a00000000000000000000000000000000000000000000000000000000081526004016142b390614f24565b60405180910390fd5b6002600081905550600060046000838152602001908152602001600020600501549050600060046000848152602001908152602001600020600201549050606082341461433e576040517f08c379a000000000000000000000000000000000000000000000000000000000815260040161433590614ea4565b60405180910390fd5b6004600085815260200190815260200160002060030160009054906101000a900473ffffffffffffffffffffffffffffffffffffffff1673ffffffffffffffffffffffffffffffffffffffff166108fc6064600354606461439f91906153b7565b346143aa919061535d565b6143b4919061532c565b9081150290604051600060405180830381858888f193505050501580156143df573d6000803e3d6000fd5b508473ffffffffffffffffffffffffffffffffffffffff166323b872dd3033856040518463ffffffff1660e01b815260040161441d93929190614dab565b600060405180830381600087803b15801561443757600080fd5b505af115801561444b573d6000803e3d6000fd5b50505050336004600086815260200190815260200160002060040160006101000a81548173ffffffffffffffffffffffffffffffffffffffff021916908373ffffffffffffffffffffffffffffffffffffffff16021790555060006004600086815260200190815260200160002060030160006101000a81548173ffffffffffffffffffffffffffffffffffffffff021916908373ffffffffffffffffffffffffffffffffffffffff160217905550600260009054906101000a900473ffffffffffffffffffffffffffffffffffffffff1673ffffffffffffffffffffffffffffffffffffffff166108fc606460035434614546919061535d565b614550919061532c565b9081150290604051600060405180830381858888f1935050505015801561457b573d6000803e3d6000fd5b507fdbc981a0a95e1ac563066f1f2031b6bfbddb3a8af6035fdb5eda876a6343d1e984868460003360003360008960016040516145c19a99989796959493929190614f9f565b60405180910390a150505060016000819055505050565b6001816000016000828254019250508190555050565b600081600001549050919050565b828054828255906000526020600020908101928215614675579160200282015b828111156146745782518260006101000a81548173ffffffffffffffffffffffffffffffffffffffff021916908373ffffffffffffffffffffffffffffffffffffffff1602179055509160200191906001019061461c565b5b5090506146829190614733565b5090565b60405180610140016040528060008152602001600073ffffffffffffffffffffffffffffffffffffffff16815260200160008152602001600073ffffffffffffffffffffffffffffffffffffffff168152602001600073ffffffffffffffffffffffffffffffffffffffff16815260200160008152602001600073ffffffffffffffffffffffffffffffffffffffff16815260200160008152602001606081526020016000151581525090565b5b8082111561474c576000816000905550600101614734565b5090565b60008135905061475f8161589e565b92915050565b6000815190506147748161589e565b92915050565b600081359050614789816158b5565b92915050565b6000602082840312156147a157600080fd5b60006147af84828501614765565b91505092915050565b600080604083850312156147cb57600080fd5b60006147d985828601614750565b92505060206147ea8582860161477a565b9150509250929050565b60008060006060848603121561480957600080fd5b600061481786828701614750565b93505060206148288682870161477a565b92505060406148398682870161477a565b9150509250925092565b60006020828403121561485557600080fd5b60006148638482850161477a565b91505092915050565b6000806040838503121561487f57600080fd5b600061488d8582860161477a565b925050602061489e85828601614750565b9150509250929050565b600080604083850312156148bb57600080fd5b60006148c98582860161477a565b92505060206148da8582860161477a565b9150509250929050565b60006148f08383614910565b60208301905092915050565b60006149088383614cb3565b905092915050565b6149198161541d565b82525050565b6149288161541d565b82525050565b6149378161540b565b82525050565b6149468161540b565b82525050565b60006149578261524a565b6149618185615292565b935061496c83615215565b8060005b8381101561499d57815161498488826148e4565b975061498f8361526b565b925050600181019050614970565b5085935050505092915050565b60006149b58261524a565b6149bf81856152a3565b93506149ca83615215565b8060005b838110156149fb5781516149e288826148e4565b97506149ed8361526b565b9250506001810190506149ce565b5085935050505092915050565b6000614a1382615255565b614a1d81856152a3565b9350614a2883615225565b8060005b83811015614a6057614a3d82615562565b614a4788826148e4565b9750614a5283615278565b925050600181019050614a2c565b5085935050505092915050565b6000614a7882615260565b614a8281856152b4565b935083602082028501614a948561523a565b8060005b85811015614ad05784840389528151614ab185826148fc565b9450614abc83615285565b925060208a01995050600181019050614a98565b50829750879550505050505092915050565b614aeb8161542f565b82525050565b614afa8161542f565b82525050565b614b0981615465565b82525050565b6000614b1c601a836152c5565b9150614b2782615582565b602082019050919050565b6000614b3f601e836152c5565b9150614b4a826155ab565b602082019050919050565b6000614b62602c836152c5565b9150614b6d826155d4565b604082019050919050565b6000614b856037836152c5565b9150614b9082615623565b604082019050919050565b6000614ba86023836152c5565b9150614bb382615672565b604082019050919050565b6000614bcb6040836152c5565b9150614bd6826156c1565b604082019050919050565b6000614bee602a836152c5565b9150614bf982615710565b604082019050919050565b6000614c116026836152c5565b9150614c1c8261575f565b604082019050919050565b6000614c346026836152c5565b9150614c3f826157ae565b604082019050919050565b6000614c57601f836152c5565b9150614c62826157fd565b602082019050919050565b6000614c7a601c836152c5565b9150614c8582615826565b602082019050919050565b6000614c9d6026836152c5565b9150614ca88261584f565b604082019050919050565b600061014083016000830151614ccc6000860182614d8d565b506020830151614cdf602086018261492e565b506040830151614cf26040860182614d8d565b506060830151614d056060860182614910565b506080830151614d186080860182614910565b5060a0830151614d2b60a0860182614d8d565b5060c0830151614d3e60c0860182614910565b5060e0830151614d5160e0860182614d8d565b50610100830151848203610100860152614d6b828261494c565b915050610120830151614d82610120860182614ae2565b508091505092915050565b614d968161545b565b82525050565b614da58161545b565b82525050565b6000606082019050614dc0600083018661493d565b614dcd602083018561493d565b614dda6040830184614d9c565b949350505050565b60006020820190508181036000830152614dfc8184614a6d565b905092915050565b60006020820190508181036000830152614e1d81614b0f565b9050919050565b60006020820190508181036000830152614e3d81614b32565b9050919050565b60006020820190508181036000830152614e5d81614b55565b9050919050565b60006020820190508181036000830152614e7d81614b78565b9050919050565b60006020820190508181036000830152614e9d81614b9b565b9050919050565b60006020820190508181036000830152614ebd81614bbe565b9050919050565b60006020820190508181036000830152614edd81614be1565b9050919050565b60006020820190508181036000830152614efd81614c04565b9050919050565b60006020820190508181036000830152614f1d81614c27565b9050919050565b60006020820190508181036000830152614f3d81614c4a565b9050919050565b60006020820190508181036000830152614f5d81614c6d565b9050919050565b60006020820190508181036000830152614f7d81614c90565b9050919050565b6000602082019050614f996000830184614d9c565b92915050565b600061014082019050614fb5600083018d614d9c565b614fc2602083018c61493d565b614fcf604083018b614d9c565b614fdc606083018a61491f565b614fe9608083018961491f565b614ff660a0830188614b00565b61500360c083018761491f565b61501060e0830186614b00565b81810361010083015261502381856149aa565b9050615033610120830184614af1565b9b9a5050505050505050505050565b600061014082019050615058600083018d614d9c565b615065602083018c61493d565b615072604083018b614d9c565b61507f606083018a61491f565b61508c608083018961491f565b61509960a0830188614d9c565b6150a660c083018761491f565b6150b360e0830186614b00565b8181036101008301526150c681856149aa565b90506150d6610120830184614af1565b9b9a5050505050505050505050565b6000610140820190506150fb600083018d614d9c565b615108602083018c61493d565b615115604083018b614d9c565b615122606083018a61491f565b61512f608083018961491f565b61513c60a0830188614d9c565b61514960c083018761491f565b61515660e0830186614d9c565b8181036101008301526151698185614a08565b9050615179610120830184614af1565b9b9a5050505050505050505050565b60006101208201905061519e600083018c614d9c565b6151ab602083018b61493d565b6151b8604083018a614d9c565b6151c5606083018961491f565b6151d2608083018861491f565b6151df60a0830187614d9c565b6151ec60c083018661491f565b6151f960e0830185614d9c565b615207610100830184614af1565b9a9950505050505050505050565b6000819050602082019050919050565b60008190508160005260206000209050919050565b6000819050602082019050919050565b600081519050919050565b600081549050919050565b600081519050919050565b6000602082019050919050565b6000600182019050919050565b6000602082019050919050565b600082825260208201905092915050565b600082825260208201905092915050565b600082825260208201905092915050565b600082825260208201905092915050565b60006152e18261545b565b91506152ec8361545b565b9250827fffffffffffffffffffffffffffffffffffffffffffffffffffffffffffffffff0382111561532157615320615504565b5b828201905092915050565b60006153378261545b565b91506153428361545b565b92508261535257615351615533565b5b828204905092915050565b60006153688261545b565b91506153738361545b565b9250817fffffffffffffffffffffffffffffffffffffffffffffffffffffffffffffffff04831182151516156153ac576153ab615504565b5b828202905092915050565b60006153c28261545b565b91506153cd8361545b565b9250828210156153e0576153df615504565b5b828203905092915050565b600073ffffffffffffffffffffffffffffffffffffffff82169050919050565b60006154168261543b565b9050919050565b60006154288261543b565b9050919050565b60008115159050919050565b600073ffffffffffffffffffffffffffffffffffffffff82169050919050565b6000819050919050565b60006154708261545b565b9050919050565b60006154828261545b565b9150600082141561549657615495615504565b5b600182039050919050565b60006154b46154af83615575565b6153eb565b9050919050565b60006154c68261545b565b91507fffffffffffffffffffffffffffffffffffffffffffffffffffffffffffffffff8214156154f9576154f8615504565b5b600182019050919050565b7f4e487b7100000000000000000000000000000000000000000000000000000000600052601160045260246000fd5b7f4e487b7100000000000000000000000000000000000000000000000000000000600052601260045260246000fd5b600061556e82546154a1565b9050919050565b60008160001c9050919050565b7f4d61726b6574206469646e27742067657420617070726f76616c000000000000600082015250565b7f41756374696f6e20666f722074686973204e46542068617320656e6465640000600082015250565b7f596f7520617265206e6f7420746865206f776e6572206f66207468697320736d60008201527f61727420636f6e74726163740000000000000000000000000000000000000000602082015250565b7f596f7520646f6e2774206861766520616e792070726576696f7573206269642060008201527f746f207769746864726177206f6e2074686973204e4654000000000000000000602082015250565b7f596f7520616c7265616479206861766520612062696420666f7220746869732060008201527f4e46540000000000000000000000000000000000000000000000000000000000602082015250565b7f506c65617365207375626d6974207468652061736b696e67207072696365206960008201527f6e206f7264657220746f20636f6d706c65746520746865207075726368617365602082015250565b7f596f75206d75737420626520746865204f776e657220746f206372656174652060008201527f616e2061756374696f6e00000000000000000000000000000000000000000000602082015250565b7f41756374696f6e20666f722074686973204e46542068617320616c726561647960008201527f20656e6465640000000000000000000000000000000000000000000000000000602082015250565b7f596f75206d75737420626520746865204f776e657220746f206372656174652060008201527f612073616c650000000000000000000000000000000000000000000000000000602082015250565b7f5265656e7472616e637947756172643a207265656e7472616e742063616c6c00600082015250565b7f5072696365206d757374206265206174206c6561737420312077656900000000600082015250565b7f596f75206d75737420626520746865204f776e657220746f2063616e63656c2060008201527f612073616c650000000000000000000000000000000000000000000000000000602082015250565b6158a78161540b565b81146158b257600080fd5b50565b6158be8161545b565b81146158c957600080fd5b5056fea2646970667358221220728827ad517d404340d9c2085d44ae5ed02ad9d83829001f947a625fe6c98cdf64736f6c63430008040033",
  "linkReferences": {},
  "deployedLinkReferences": {}
}