{
  "_format": "hh-sol-artifact-1",
  "contractName": "NFTMarket",
  "sourceName": "contracts/NFTMarket.sol",
  "abi": [
    {
      "inputs": [
        {
          "internalType": "address",
          "name": "_tokenAddress",
          "type": "address"
        }
      ],
      "stateMutability": "nonpayable",
      "type": "constructor"
    },
    {
      "anonymous": false,
      "inputs": [
        {
          "indexed": false,
          "internalType": "uint256",
          "name": "itemId",
          "type": "uint256"
        },
        {
          "indexed": false,
          "internalType": "address",
          "name": "nftContract",
          "type": "address"
        },
        {
          "indexed": false,
          "internalType": "uint256",
          "name": "tokenId",
          "type": "uint256"
        },
        {
          "indexed": false,
          "internalType": "address payable",
          "name": "seller",
          "type": "address"
        },
        {
          "indexed": false,
          "internalType": "address payable",
          "name": "owner",
          "type": "address"
        },
        {
          "indexed": false,
          "internalType": "uint256",
          "name": "price",
          "type": "uint256"
        },
        {
          "indexed": false,
          "internalType": "address payable",
          "name": "highestBidder",
          "type": "address"
        },
        {
          "indexed": false,
          "internalType": "uint256",
          "name": "highestBid",
          "type": "uint256"
        },
        {
          "indexed": false,
          "internalType": "address payable[]",
          "name": "pendingBidders",
          "type": "address[]"
        },
        {
          "indexed": false,
          "internalType": "bool",
          "name": "auctionEnded",
          "type": "bool"
        }
      ],
      "name": "UpdatedMarketItem",
      "type": "event"
    },
    {
      "inputs": [
        {
          "internalType": "address",
          "name": "nftContract",
          "type": "address"
        },
        {
          "internalType": "uint256",
          "name": "itemId",
          "type": "uint256"
        }
      ],
      "name": "cancelMarketSale",
      "outputs": [],
      "stateMutability": "nonpayable",
      "type": "function"
    },
    {
      "inputs": [
        {
          "internalType": "address",
          "name": "nftContract",
          "type": "address"
        },
        {
          "internalType": "uint256",
          "name": "itemId",
          "type": "uint256"
        }
      ],
      "name": "createMarketAuction",
      "outputs": [],
      "stateMutability": "payable",
      "type": "function"
    },
    {
      "inputs": [
        {
          "internalType": "address",
          "name": "nftContract",
          "type": "address"
        },
        {
          "internalType": "uint256",
          "name": "tokenId",
          "type": "uint256"
        }
      ],
      "name": "createMarketItem",
      "outputs": [],
      "stateMutability": "nonpayable",
      "type": "function"
    },
    {
      "inputs": [
        {
          "internalType": "address",
          "name": "nftContract",
          "type": "address"
        },
        {
          "internalType": "uint256",
          "name": "tokenId",
          "type": "uint256"
        }
      ],
      "name": "createMarketItemForAuction",
      "outputs": [],
      "stateMutability": "nonpayable",
      "type": "function"
    },
    {
      "inputs": [
        {
          "internalType": "address",
          "name": "nftContract",
          "type": "address"
        },
        {
          "internalType": "uint256",
          "name": "tokenId",
          "type": "uint256"
        },
        {
          "internalType": "uint256",
          "name": "price",
          "type": "uint256"
        }
      ],
      "name": "createMarketItemForSale",
      "outputs": [],
      "stateMutability": "nonpayable",
      "type": "function"
    },
    {
      "inputs": [
        {
          "internalType": "address",
          "name": "nftContract",
          "type": "address"
        },
        {
          "internalType": "uint256",
          "name": "itemId",
          "type": "uint256"
        },
        {
          "internalType": "uint256",
          "name": "price",
          "type": "uint256"
        }
      ],
      "name": "createMarketSale",
      "outputs": [],
      "stateMutability": "payable",
      "type": "function"
    },
    {
      "inputs": [],
      "name": "crowdSale",
      "outputs": [],
      "stateMutability": "payable",
      "type": "function"
    },
    {
      "inputs": [
        {
          "internalType": "uint256",
          "name": "_amount",
          "type": "uint256"
        }
      ],
      "name": "earn",
      "outputs": [],
      "stateMutability": "nonpayable",
      "type": "function"
    },
    {
      "inputs": [
        {
          "internalType": "address",
          "name": "nftContract",
          "type": "address"
        },
        {
          "internalType": "uint256",
          "name": "itemId",
          "type": "uint256"
        }
      ],
      "name": "executeMarketAuctionEnd",
      "outputs": [],
      "stateMutability": "nonpayable",
      "type": "function"
    },
    {
      "inputs": [
        {
          "internalType": "address",
          "name": "nftContract",
          "type": "address"
        },
        {
          "internalType": "uint256",
          "name": "itemId",
          "type": "uint256"
        }
      ],
      "name": "executeMarketSale",
      "outputs": [],
      "stateMutability": "payable",
      "type": "function"
    },
    {
      "inputs": [
        {
          "internalType": "uint256",
          "name": "pageNumber",
          "type": "uint256"
        },
        {
          "internalType": "uint256",
          "name": "pageSize",
          "type": "uint256"
        }
      ],
      "name": "fetchMarketItems",
      "outputs": [
        {
          "components": [
            {
              "internalType": "uint256",
              "name": "itemId",
              "type": "uint256"
            },
            {
              "internalType": "address",
              "name": "nftContract",
              "type": "address"
            },
            {
              "internalType": "uint256",
              "name": "tokenId",
              "type": "uint256"
            },
            {
              "internalType": "address payable",
              "name": "seller",
              "type": "address"
            },
            {
              "internalType": "address payable",
              "name": "owner",
              "type": "address"
            },
            {
              "internalType": "uint256",
              "name": "price",
              "type": "uint256"
            },
            {
              "internalType": "address payable",
              "name": "highestBidder",
              "type": "address"
            },
            {
              "internalType": "uint256",
              "name": "highestBid",
              "type": "uint256"
            },
            {
              "internalType": "address payable[]",
              "name": "pendingBidders",
              "type": "address[]"
            },
            {
              "internalType": "bool",
              "name": "auctionEnded",
              "type": "bool"
            }
          ],
          "internalType": "struct NFTMarket.MarketItem[]",
          "name": "",
          "type": "tuple[]"
        }
      ],
      "stateMutability": "view",
      "type": "function"
    },
    {
      "inputs": [
        {
          "internalType": "address",
          "name": "nftContract",
          "type": "address"
        },
        {
          "internalType": "uint256",
          "name": "itemId",
          "type": "uint256"
        },
        {
          "internalType": "address",
          "name": "giftingAddress",
          "type": "address"
        }
      ],
      "name": "giftMarketItem",
      "outputs": [],
      "stateMutability": "nonpayable",
      "type": "function"
    },
    {
      "inputs": [
        {
          "internalType": "uint256",
          "name": "",
          "type": "uint256"
        }
      ],
      "name": "idToMarketItem",
      "outputs": [
        {
          "internalType": "uint256",
          "name": "itemId",
          "type": "uint256"
        },
        {
          "internalType": "address",
          "name": "nftContract",
          "type": "address"
        },
        {
          "internalType": "uint256",
          "name": "tokenId",
          "type": "uint256"
        },
        {
          "internalType": "address payable",
          "name": "seller",
          "type": "address"
        },
        {
          "internalType": "address payable",
          "name": "owner",
          "type": "address"
        },
        {
          "internalType": "uint256",
          "name": "price",
          "type": "uint256"
        },
        {
          "internalType": "address payable",
          "name": "highestBidder",
          "type": "address"
        },
        {
          "internalType": "uint256",
          "name": "highestBid",
          "type": "uint256"
        },
        {
          "internalType": "bool",
          "name": "auctionEnded",
          "type": "bool"
        }
      ],
      "stateMutability": "view",
      "type": "function"
    },
    {
      "inputs": [],
      "name": "listingPrice",
      "outputs": [
        {
          "internalType": "uint256",
          "name": "",
          "type": "uint256"
        }
      ],
      "stateMutability": "view",
      "type": "function"
    },
    {
      "inputs": [
        {
          "internalType": "uint256",
          "name": "itemId",
          "type": "uint256"
        }
      ],
      "name": "makeAuctionBid",
      "outputs": [],
      "stateMutability": "payable",
      "type": "function"
    },
    {
      "inputs": [
        {
          "internalType": "uint256",
          "name": "",
          "type": "uint256"
        },
        {
          "internalType": "address",
          "name": "",
          "type": "address"
        }
      ],
      "name": "pendingReturns",
      "outputs": [
        {
          "internalType": "uint256",
          "name": "",
          "type": "uint256"
        }
      ],
      "stateMutability": "view",
      "type": "function"
    },
    {
      "inputs": [
        {
          "internalType": "uint256",
          "name": "_listingPrice",
          "type": "uint256"
        }
      ],
      "name": "setListingPrice",
      "outputs": [],
      "stateMutability": "nonpayable",
      "type": "function"
    },
    {
      "inputs": [
        {
          "internalType": "uint256",
          "name": "_tokenRate",
          "type": "uint256"
        }
      ],
      "name": "setTokenRate",
      "outputs": [],
      "stateMutability": "nonpayable",
      "type": "function"
    },
    {
      "inputs": [],
      "name": "tokenRate",
      "outputs": [
        {
          "internalType": "uint256",
          "name": "",
          "type": "uint256"
        }
      ],
      "stateMutability": "view",
      "type": "function"
    },
    {
      "inputs": [
        {
          "internalType": "uint256",
          "name": "itemId",
          "type": "uint256"
        }
      ],
      "name": "withdrawAuctionBid",
      "outputs": [],
      "stateMutability": "nonpayable",
      "type": "function"
    }
  ],
  "bytecode": "0x6080604052600160035560016005553480156200001b57600080fd5b5060405162005d5a38038062005d5a8339818101604052810190620000419190620000e9565b600160008190555033600260006101000a81548173ffffffffffffffffffffffffffffffffffffffff021916908373ffffffffffffffffffffffffffffffffffffffff16021790555080600460006101000a81548173ffffffffffffffffffffffffffffffffffffffff021916908373ffffffffffffffffffffffffffffffffffffffff1602179055505062000163565b600081519050620000e38162000149565b92915050565b600060208284031215620000fc57600080fd5b60006200010c84828501620000d2565b91505092915050565b6000620001228262000129565b9050919050565b600073ffffffffffffffffffffffffffffffffffffffff82169050919050565b620001548162000115565b81146200016057600080fd5b50565b615be780620001736000396000f3fe60806040526004361061011f5760003560e01c80637c726b69116100a0578063c78f19f911610064578063c78f19f91461036f578063dd5f85181461039a578063e61a70c0146103c3578063e65a011714610408578063f01a6dde146104315761011f565b80637c726b691461029b5780638ddac1ef146102c4578063bac3d62014610301578063bd1ecd611461032a578063c3a3b8ea146103535761011f565b806331711884116100e757806331711884146101d75780635d30c81b1461020257806361241c281461022b5780637063b64e146102545780637770bd15146102915761011f565b8063087a7992146101245780631ae1b701146101405780631dd9cf861461016957806321cf91ac14610192578063283f766c146101ae575b600080fd5b61013e60048036038101906101399190614a1a565b61044d565b005b34801561014c57600080fd5b5061016760048036038101906101629190614aa5565b610967565b005b34801561017557600080fd5b50610190600480360381019061018b9190614a1a565b610ec1565b005b6101ac60048036038101906101a79190614aa5565b611120565b005b3480156101ba57600080fd5b506101d560048036038101906101d09190614b1d565b61163a565b005b3480156101e357600080fd5b506101ec611fd9565b6040516101f991906152e3565b60405180910390f35b34801561020e57600080fd5b5061022960048036038101906102249190614a1a565b611fdf565b005b34801561023757600080fd5b50610252600480360381019061024d9190614b1d565b61283f565b005b34801561026057600080fd5b5061027b60048036038101906102769190614b82565b6128d9565b60405161028891906150e1565b60405180910390f35b610299612f02565b005b3480156102a757600080fd5b506102c260048036038101906102bd9190614b1d565b61307b565b005b3480156102d057600080fd5b506102eb60048036038101906102e69190614b46565b613115565b6040516102f891906152e3565b60405180910390f35b34801561030d57600080fd5b5061032860048036038101906103239190614a56565b61313a565b005b34801561033657600080fd5b50610351600480360381019061034c9190614a1a565b613456565b005b61036d60048036038101906103689190614b1d565b61396d565b005b34801561037b57600080fd5b50610384613dac565b60405161039191906152e3565b60405180910390f35b3480156103a657600080fd5b506103c160048036038101906103bc9190614a1a565b613db2565b005b3480156103cf57600080fd5b506103ea60048036038101906103e59190614b1d565b614164565b6040516103ff999897969594939291906153a1565b60405180910390f35b34801561041457600080fd5b5061042f600480360381019061042a9190614b1d565b61423f565b005b61044b60048036038101906104469190614a1a565b614350565b005b60026000541415610493576040517f08c379a000000000000000000000000000000000000000000000000000000000815260040161048a906152c3565b60405180910390fd5b60026000819055506000600660008381526020019081526020016000206002015490503373ffffffffffffffffffffffffffffffffffffffff168373ffffffffffffffffffffffffffffffffffffffff16636352211e836040518263ffffffff1660e01b815260040161050691906152e3565b60206040518083038186803b15801561051e57600080fd5b505afa158015610532573d6000803e3d6000fd5b505050506040513d601f19601f8201168201806040525081019061055691906149f1565b73ffffffffffffffffffffffffffffffffffffffff16146105ac576040517f08c379a00000000000000000000000000000000000000000000000000000000081526004016105a390615203565b60405180910390fd5b3073ffffffffffffffffffffffffffffffffffffffff168373ffffffffffffffffffffffffffffffffffffffff1663081812fc836040518263ffffffff1660e01b81526004016105fc91906152e3565b60206040518083038186803b15801561061457600080fd5b505afa158015610628573d6000803e3d6000fd5b505050506040513d601f19601f8201168201806040525081019061064c91906149f1565b73ffffffffffffffffffffffffffffffffffffffff16146106a2576040517f08c379a000000000000000000000000000000000000000000000000000000000815260040161069990615263565b60405180910390fd5b60606040518061014001604052808481526020018573ffffffffffffffffffffffffffffffffffffffff1681526020018381526020013373ffffffffffffffffffffffffffffffffffffffff168152602001600073ffffffffffffffffffffffffffffffffffffffff168152602001600081526020013373ffffffffffffffffffffffffffffffffffffffff1681526020016000815260200182815260200160001515815250600660008581526020019081526020016000206000820151816000015560208201518160010160006101000a81548173ffffffffffffffffffffffffffffffffffffffff021916908373ffffffffffffffffffffffffffffffffffffffff1602179055506040820151816002015560608201518160030160006101000a81548173ffffffffffffffffffffffffffffffffffffffff021916908373ffffffffffffffffffffffffffffffffffffffff16021790555060808201518160040160006101000a81548173ffffffffffffffffffffffffffffffffffffffff021916908373ffffffffffffffffffffffffffffffffffffffff16021790555060a0820151816005015560c08201518160060160006101000a81548173ffffffffffffffffffffffffffffffffffffffff021916908373ffffffffffffffffffffffffffffffffffffffff16021790555060e082015181600701556101008201518160080190805190602001906108bc929190614849565b506101208201518160090160006101000a81548160ff0219169083151502179055509050508373ffffffffffffffffffffffffffffffffffffffff166323b872dd3330856040518463ffffffff1660e01b815260040161091e93929190615081565b600060405180830381600087803b15801561093857600080fd5b505af115801561094c573d6000803e3d6000fd5b5050505061095983614687565b505060016000819055505050565b600260005414156109ad576040517f08c379a00000000000000000000000000000000000000000000000000000000081526004016109a4906152c3565b60405180910390fd5b6002600081905550600081116109f8576040517f08c379a00000000000000000000000000000000000000000000000000000000081526004016109ef90615223565b60405180910390fd5b3373ffffffffffffffffffffffffffffffffffffffff168373ffffffffffffffffffffffffffffffffffffffff16636352211e846040518263ffffffff1660e01b8152600401610a4891906152e3565b60206040518083038186803b158015610a6057600080fd5b505afa158015610a74573d6000803e3d6000fd5b505050506040513d601f19601f82011682018060405250810190610a9891906149f1565b73ffffffffffffffffffffffffffffffffffffffff1614610aee576040517f08c379a0000000000000000000000000000000000000000000000000000000008152600401610ae590615123565b60405180910390fd5b3073ffffffffffffffffffffffffffffffffffffffff168373ffffffffffffffffffffffffffffffffffffffff1663081812fc846040518263ffffffff1660e01b8152600401610b3e91906152e3565b60206040518083038186803b158015610b5657600080fd5b505afa158015610b6a573d6000803e3d6000fd5b505050506040513d601f19601f82011682018060405250810190610b8e91906149f1565b73ffffffffffffffffffffffffffffffffffffffff1614610be4576040517f08c379a0000000000000000000000000000000000000000000000000000000008152600401610bdb90615263565b60405180910390fd5b6060610bf06001614825565b6000610bfc600161483b565b90506040518061014001604052808281526020018673ffffffffffffffffffffffffffffffffffffffff1681526020018581526020013373ffffffffffffffffffffffffffffffffffffffff168152602001600073ffffffffffffffffffffffffffffffffffffffff1681526020018481526020013373ffffffffffffffffffffffffffffffffffffffff1681526020016000815260200183815260200160011515815250600660008381526020019081526020016000206000820151816000015560208201518160010160006101000a81548173ffffffffffffffffffffffffffffffffffffffff021916908373ffffffffffffffffffffffffffffffffffffffff1602179055506040820151816002015560608201518160030160006101000a81548173ffffffffffffffffffffffffffffffffffffffff021916908373ffffffffffffffffffffffffffffffffffffffff16021790555060808201518160040160006101000a81548173ffffffffffffffffffffffffffffffffffffffff021916908373ffffffffffffffffffffffffffffffffffffffff16021790555060a0820151816005015560c08201518160060160006101000a81548173ffffffffffffffffffffffffffffffffffffffff021916908373ffffffffffffffffffffffffffffffffffffffff16021790555060e08201518160070155610100820151816008019080519060200190610e15929190614849565b506101208201518160090160006101000a81548160ff0219169083151502179055509050508473ffffffffffffffffffffffffffffffffffffffff166323b872dd3330876040518463ffffffff1660e01b8152600401610e7793929190615081565b600060405180830381600087803b158015610e9157600080fd5b505af1158015610ea5573d6000803e3d6000fd5b50505050610eb281614687565b50506001600081905550505050565b60026000541415610f07576040517f08c379a0000000000000000000000000000000000000000000000000000000008152600401610efe906152c3565b60405180910390fd5b600260008190555060006006600083815260200190815260200160002060020154905060006006600084815260200190815260200160002060030160009054906101000a900473ffffffffffffffffffffffffffffffffffffffff1690503373ffffffffffffffffffffffffffffffffffffffff168173ffffffffffffffffffffffffffffffffffffffff1614610fd3576040517f08c379a0000000000000000000000000000000000000000000000000000000008152600401610fca90615283565b60405180910390fd5b8373ffffffffffffffffffffffffffffffffffffffff166323b872dd3033856040518463ffffffff1660e01b815260040161101093929190615081565b600060405180830381600087803b15801561102a57600080fd5b505af115801561103e573d6000803e3d6000fd5b50505050336006600085815260200190815260200160002060040160006101000a81548173ffffffffffffffffffffffffffffffffffffffff021916908373ffffffffffffffffffffffffffffffffffffffff16021790555060006006600085815260200190815260200160002060030160006101000a81548173ffffffffffffffffffffffffffffffffffffffff021916908373ffffffffffffffffffffffffffffffffffffffff1602179055506000600660008581526020019081526020016000206005018190555061111283614687565b505060016000819055505050565b60026000541415611166576040517f08c379a000000000000000000000000000000000000000000000000000000000815260040161115d906152c3565b60405180910390fd5b60026000819055506000600660008481526020019081526020016000206002015490503373ffffffffffffffffffffffffffffffffffffffff168473ffffffffffffffffffffffffffffffffffffffff16636352211e836040518263ffffffff1660e01b81526004016111d991906152e3565b60206040518083038186803b1580156111f157600080fd5b505afa158015611205573d6000803e3d6000fd5b505050506040513d601f19601f8201168201806040525081019061122991906149f1565b73ffffffffffffffffffffffffffffffffffffffff161461127f576040517f08c379a000000000000000000000000000000000000000000000000000000000815260040161127690615123565b60405180910390fd5b3073ffffffffffffffffffffffffffffffffffffffff168473ffffffffffffffffffffffffffffffffffffffff1663081812fc836040518263ffffffff1660e01b81526004016112cf91906152e3565b60206040518083038186803b1580156112e757600080fd5b505afa1580156112fb573d6000803e3d6000fd5b505050506040513d601f19601f8201168201806040525081019061131f91906149f1565b73ffffffffffffffffffffffffffffffffffffffff1614611375576040517f08c379a000000000000000000000000000000000000000000000000000000000815260040161136c90615263565b60405180910390fd5b60606040518061014001604052808581526020018673ffffffffffffffffffffffffffffffffffffffff1681526020018381526020013373ffffffffffffffffffffffffffffffffffffffff168152602001600073ffffffffffffffffffffffffffffffffffffffff1681526020018481526020013373ffffffffffffffffffffffffffffffffffffffff1681526020016000815260200182815260200160011515815250600660008681526020019081526020016000206000820151816000015560208201518160010160006101000a81548173ffffffffffffffffffffffffffffffffffffffff021916908373ffffffffffffffffffffffffffffffffffffffff1602179055506040820151816002015560608201518160030160006101000a81548173ffffffffffffffffffffffffffffffffffffffff021916908373ffffffffffffffffffffffffffffffffffffffff16021790555060808201518160040160006101000a81548173ffffffffffffffffffffffffffffffffffffffff021916908373ffffffffffffffffffffffffffffffffffffffff16021790555060a0820151816005015560c08201518160060160006101000a81548173ffffffffffffffffffffffffffffffffffffffff021916908373ffffffffffffffffffffffffffffffffffffffff16021790555060e0820151816007015561010082015181600801908051906020019061158e929190614849565b506101208201518160090160006101000a81548160ff0219169083151502179055509050508473ffffffffffffffffffffffffffffffffffffffff166323b872dd3330856040518463ffffffff1660e01b81526004016115f093929190615081565b600060405180830381600087803b15801561160a57600080fd5b505af115801561161e573d6000803e3d6000fd5b5050505061162b84614687565b50506001600081905550505050565b60026000541415611680576040517f08c379a0000000000000000000000000000000000000000000000000000000008152600401611677906152c3565b60405180910390fd5b60026000819055506006600082815260200190815260200160002060090160009054906101000a900460ff16156116ec576040517f08c379a00000000000000000000000000000000000000000000000000000000081526004016116e390615243565b60405180910390fd5b6006600082815260200190815260200160002060060160009054906101000a900473ffffffffffffffffffffffffffffffffffffffff1673ffffffffffffffffffffffffffffffffffffffff163373ffffffffffffffffffffffffffffffffffffffff1614611a445760006007600083815260200190815260200160002060003373ffffffffffffffffffffffffffffffffffffffff1673ffffffffffffffffffffffffffffffffffffffff16815260200190815260200160002054116117e8576040517f08c379a00000000000000000000000000000000000000000000000000000000081526004016117df90615183565b60405180910390fd5b60006007600083815260200190815260200160002060003373ffffffffffffffffffffffffffffffffffffffff1673ffffffffffffffffffffffffffffffffffffffff1681526020019081526020016000205490503373ffffffffffffffffffffffffffffffffffffffff166108fc829081150290604051600060405180830381858888f19350505050158015611883573d6000803e3d6000fd5b5060006007600084815260200190815260200160002060003373ffffffffffffffffffffffffffffffffffffffff1673ffffffffffffffffffffffffffffffffffffffff1681526020019081526020016000208190555060005b6006600084815260200190815260200160002060080180549050811015611a3d573373ffffffffffffffffffffffffffffffffffffffff16600660008581526020019081526020016000206008018281548110611963577f4e487b7100000000000000000000000000000000000000000000000000000000600052603260045260246000fd5b9060005260206000200160009054906101000a900473ffffffffffffffffffffffffffffffffffffffff1673ffffffffffffffffffffffffffffffffffffffff161415611a2a576006600084815260200190815260200160002060080181815481106119f8577f4e487b7100000000000000000000000000000000000000000000000000000000600052603260045260246000fd5b9060005260206000200160006101000a81549073ffffffffffffffffffffffffffffffffffffffff0219169055611a3d565b8080611a35906156c2565b9150506118dd565b5050611fc5565b3373ffffffffffffffffffffffffffffffffffffffff166006600083815260200190815260200160002060060160009054906101000a900473ffffffffffffffffffffffffffffffffffffffff1673ffffffffffffffffffffffffffffffffffffffff1614611ae8576040517f08c379a0000000000000000000000000000000000000000000000000000000008152600401611adf90615183565b60405180910390fd5b6000600660008381526020019081526020016000206007015490503373ffffffffffffffffffffffffffffffffffffffff166108fc829081150290604051600060405180830381858888f19350505050158015611b49573d6000803e3d6000fd5b506000806006600085815260200190815260200160002060030160009054906101000a900473ffffffffffffffffffffffffffffffffffffffff169050600060016006600087815260200190815260200160002060080180549050611bae91906154ef565b905060005b6006600087815260200190815260200160002060080180549050811015611e51576007600087815260200190815260200160002060008473ffffffffffffffffffffffffffffffffffffffff1673ffffffffffffffffffffffffffffffffffffffff16815260200190815260200160002054600760008881526020019081526020016000206000600660008a81526020019081526020016000206008018481548110611c88577f4e487b7100000000000000000000000000000000000000000000000000000000600052603260045260246000fd5b9060005260206000200160009054906101000a900473ffffffffffffffffffffffffffffffffffffffff1673ffffffffffffffffffffffffffffffffffffffff1673ffffffffffffffffffffffffffffffffffffffff168152602001908152602001600020541115611e3e57600660008781526020019081526020016000206008018181548110611d42577f4e487b7100000000000000000000000000000000000000000000000000000000600052603260045260246000fd5b9060005260206000200160009054906101000a900473ffffffffffffffffffffffffffffffffffffffff169250600760008781526020019081526020016000206000600660008981526020019081526020016000206008018381548110611dd2577f4e487b7100000000000000000000000000000000000000000000000000000000600052603260045260246000fd5b9060005260206000200160009054906101000a900473ffffffffffffffffffffffffffffffffffffffff1673ffffffffffffffffffffffffffffffffffffffff1673ffffffffffffffffffffffffffffffffffffffff1681526020019081526020016000205493508091505b8080611e49906156c2565b915050611bb3565b50816006600087815260200190815260200160002060060160006101000a81548173ffffffffffffffffffffffffffffffffffffffff021916908373ffffffffffffffffffffffffffffffffffffffff16021790555082600660008781526020019081526020016000206007018190555060006007600087815260200190815260200160002060008473ffffffffffffffffffffffffffffffffffffffff1673ffffffffffffffffffffffffffffffffffffffff1681526020019081526020016000208190555060016006600087815260200190815260200160002060080180549050611f3e91906154ef565b8114611fc057600660008681526020019081526020016000206008018181548110611f92577f4e487b7100000000000000000000000000000000000000000000000000000000600052603260045260246000fd5b9060005260206000200160006101000a81549073ffffffffffffffffffffffffffffffffffffffff02191690555b505050505b611fce81614687565b600160008190555050565b60055481565b60026000541415612025576040517f08c379a000000000000000000000000000000000000000000000000000000000815260040161201c906152c3565b60405180910390fd5b60026000819055506006600082815260200190815260200160002060090160009054906101000a900460ff1615612091576040517f08c379a0000000000000000000000000000000000000000000000000000000008152600401612088906151a3565b60405180910390fd5b60006006600083815260200190815260200160002060070154905060006006600084815260200190815260200160002060060160009054906101000a900473ffffffffffffffffffffffffffffffffffffffff169050600060066000858152602001908152602001600020600201549050606060008414612231576006600086815260200190815260200160002060030160009054906101000a900473ffffffffffffffffffffffffffffffffffffffff1673ffffffffffffffffffffffffffffffffffffffff166108fc6064600354606461216d91906155d0565b876121789190615576565b6121829190615545565b9081150290604051600060405180830381858888f193505050501580156121ad573d6000803e3d6000fd5b50600260009054906101000a900473ffffffffffffffffffffffffffffffffffffffff1673ffffffffffffffffffffffffffffffffffffffff166108fc6064600354876121fa9190615576565b6122049190615545565b9081150290604051600060405180830381858888f1935050505015801561222f573d6000803e3d6000fd5b505b8573ffffffffffffffffffffffffffffffffffffffff166323b872dd3085856040518463ffffffff1660e01b815260040161226e93929190615081565b600060405180830381600087803b15801561228857600080fd5b505af115801561229c573d6000803e3d6000fd5b5050505060005b60066000878152602001908152602001600020600801805490508110156126af57600073ffffffffffffffffffffffffffffffffffffffff1660066000888152602001908152602001600020600801828154811061232a577f4e487b7100000000000000000000000000000000000000000000000000000000600052603260045260246000fd5b9060005260206000200160009054906101000a900473ffffffffffffffffffffffffffffffffffffffff1673ffffffffffffffffffffffffffffffffffffffff161415801561244157506000600760008881526020019081526020016000206000600660008a815260200190815260200160002060080184815481106123d9577f4e487b7100000000000000000000000000000000000000000000000000000000600052603260045260246000fd5b9060005260206000200160009054906101000a900473ffffffffffffffffffffffffffffffffffffffff1673ffffffffffffffffffffffffffffffffffffffff1673ffffffffffffffffffffffffffffffffffffffff16815260200190815260200160002054115b1561269c57600660008781526020019081526020016000206008018181548110612494577f4e487b7100000000000000000000000000000000000000000000000000000000600052603260045260246000fd5b9060005260206000200160009054906101000a900473ffffffffffffffffffffffffffffffffffffffff1673ffffffffffffffffffffffffffffffffffffffff166108fc600760008981526020019081526020016000206000600660008b8152602001908152602001600020600801858154811061253b577f4e487b7100000000000000000000000000000000000000000000000000000000600052603260045260246000fd5b9060005260206000200160009054906101000a900473ffffffffffffffffffffffffffffffffffffffff1673ffffffffffffffffffffffffffffffffffffffff1673ffffffffffffffffffffffffffffffffffffffff168152602001908152602001600020549081150290604051600060405180830381858888f193505050501580156125cc573d6000803e3d6000fd5b506000600760008881526020019081526020016000206000600660008a81526020019081526020016000206008018481548110612632577f4e487b7100000000000000000000000000000000000000000000000000000000600052603260045260246000fd5b9060005260206000200160009054906101000a900473ffffffffffffffffffffffffffffffffffffffff1673ffffffffffffffffffffffffffffffffffffffff1673ffffffffffffffffffffffffffffffffffffffff168152602001908152602001600020819055505b80806126a7906156c2565b9150506122a3565b50826006600087815260200190815260200160002060040160006101000a81548173ffffffffffffffffffffffffffffffffffffffff021916908373ffffffffffffffffffffffffffffffffffffffff16021790555060006006600087815260200190815260200160002060030160006101000a81548173ffffffffffffffffffffffffffffffffffffffff021916908373ffffffffffffffffffffffffffffffffffffffff160217905550826006600087815260200190815260200160002060060160006101000a81548173ffffffffffffffffffffffffffffffffffffffff021916908373ffffffffffffffffffffffffffffffffffffffff1602179055506000600660008781526020019081526020016000206007018190555060016006600087815260200190815260200160002060090160006101000a81548160ff02191690831515021790555080600660008781526020019081526020016000206008019080519060200190612825929190614849565b5061282f85614687565b5050505060016000819055505050565b600260009054906101000a900473ffffffffffffffffffffffffffffffffffffffff1673ffffffffffffffffffffffffffffffffffffffff163373ffffffffffffffffffffffffffffffffffffffff16146128cf576040517f08c379a00000000000000000000000000000000000000000000000000000000081526004016128c690615163565b60405180910390fd5b8060058190555050565b606060006128e7600161483b565b90506000600184866128f99190615576565b61290391906154ef565b905060008467ffffffffffffffff811115612947577f4e487b7100000000000000000000000000000000000000000000000000000000600052604160045260246000fd5b60405190808252806020026020018201604052801561298057816020015b61296d6148d3565b8152602001906001900390816129655790505b50905060008390505b82811015801561299a575060018110155b15612c3e576006600082815260200190815260200160002060405180610140016040529081600082015481526020016001820160009054906101000a900473ffffffffffffffffffffffffffffffffffffffff1673ffffffffffffffffffffffffffffffffffffffff1673ffffffffffffffffffffffffffffffffffffffff168152602001600282015481526020016003820160009054906101000a900473ffffffffffffffffffffffffffffffffffffffff1673ffffffffffffffffffffffffffffffffffffffff1673ffffffffffffffffffffffffffffffffffffffff1681526020016004820160009054906101000a900473ffffffffffffffffffffffffffffffffffffffff1673ffffffffffffffffffffffffffffffffffffffff1673ffffffffffffffffffffffffffffffffffffffff168152602001600582015481526020016006820160009054906101000a900473ffffffffffffffffffffffffffffffffffffffff1673ffffffffffffffffffffffffffffffffffffffff1673ffffffffffffffffffffffffffffffffffffffff1681526020016007820154815260200160088201805480602002602001604051908101604052809291908181526020018280548015612bc357602002820191906000526020600020905b8160009054906101000a900473ffffffffffffffffffffffffffffffffffffffff1673ffffffffffffffffffffffffffffffffffffffff1681526020019060010190808311612b79575b505050505081526020016009820160009054906101000a900460ff161515151581525050828281518110612c20577f4e487b7100000000000000000000000000000000000000000000000000000000600052603260045260246000fd5b60200260200101819052508080612c369061567e565b915050612989565b5060005b600083118015612c5157508581105b15612ef5576006600082815260200190815260200160002060405180610140016040529081600082015481526020016001820160009054906101000a900473ffffffffffffffffffffffffffffffffffffffff1673ffffffffffffffffffffffffffffffffffffffff1673ffffffffffffffffffffffffffffffffffffffff168152602001600282015481526020016003820160009054906101000a900473ffffffffffffffffffffffffffffffffffffffff1673ffffffffffffffffffffffffffffffffffffffff1673ffffffffffffffffffffffffffffffffffffffff1681526020016004820160009054906101000a900473ffffffffffffffffffffffffffffffffffffffff1673ffffffffffffffffffffffffffffffffffffffff1673ffffffffffffffffffffffffffffffffffffffff168152602001600582015481526020016006820160009054906101000a900473ffffffffffffffffffffffffffffffffffffffff1673ffffffffffffffffffffffffffffffffffffffff1673ffffffffffffffffffffffffffffffffffffffff1681526020016007820154815260200160088201805480602002602001604051908101604052809291908181526020018280548015612e7a57602002820191906000526020600020905b8160009054906101000a900473ffffffffffffffffffffffffffffffffffffffff1673ffffffffffffffffffffffffffffffffffffffff1681526020019060010190808311612e30575b505050505081526020016009820160009054906101000a900460ff161515151581525050828281518110612ed7577f4e487b7100000000000000000000000000000000000000000000000000000000600052603260045260246000fd5b60200260200101819052508080612eed906156c2565b915050612c42565b8194505050505092915050565b60026000541415612f48576040517f08c379a0000000000000000000000000000000000000000000000000000000008152600401612f3f906152c3565b60405180910390fd5b6002600081905550600460009054906101000a900473ffffffffffffffffffffffffffffffffffffffff1673ffffffffffffffffffffffffffffffffffffffff1663a9059cbb33346040518363ffffffff1660e01b8152600401612fad9291906150b8565b602060405180830381600087803b158015612fc757600080fd5b505af1158015612fdb573d6000803e3d6000fd5b505050506040513d601f19601f82011682018060405250810190612fff9190614af4565b61300857600080fd5b600260009054906101000a900473ffffffffffffffffffffffffffffffffffffffff1673ffffffffffffffffffffffffffffffffffffffff166108fc349081150290604051600060405180830381858888f19350505050158015613070573d6000803e3d6000fd5b506001600081905550565b600260009054906101000a900473ffffffffffffffffffffffffffffffffffffffff1673ffffffffffffffffffffffffffffffffffffffff163373ffffffffffffffffffffffffffffffffffffffff161461310b576040517f08c379a000000000000000000000000000000000000000000000000000000000815260040161310290615163565b60405180910390fd5b8060038190555050565b6007602052816000526040600020602052806000526040600020600091509150505481565b60026000541415613180576040517f08c379a0000000000000000000000000000000000000000000000000000000008152600401613177906152c3565b60405180910390fd5b60026000819055506000600660008481526020019081526020016000206002015490503373ffffffffffffffffffffffffffffffffffffffff168473ffffffffffffffffffffffffffffffffffffffff16636352211e836040518263ffffffff1660e01b81526004016131f391906152e3565b60206040518083038186803b15801561320b57600080fd5b505afa15801561321f573d6000803e3d6000fd5b505050506040513d601f19601f8201168201806040525081019061324391906149f1565b73ffffffffffffffffffffffffffffffffffffffff1614613299576040517f08c379a000000000000000000000000000000000000000000000000000000000815260040161329090615143565b60405180910390fd5b600073ffffffffffffffffffffffffffffffffffffffff168273ffffffffffffffffffffffffffffffffffffffff161415613309576040517f08c379a0000000000000000000000000000000000000000000000000000000008152600401613300906151c3565b60405180910390fd5b8373ffffffffffffffffffffffffffffffffffffffff166342842e0e3384846040518463ffffffff1660e01b815260040161334693929190615081565b600060405180830381600087803b15801561336057600080fd5b505af1158015613374573d6000803e3d6000fd5b50505050816006600085815260200190815260200160002060040160006101000a81548173ffffffffffffffffffffffffffffffffffffffff021916908373ffffffffffffffffffffffffffffffffffffffff16021790555060006006600085815260200190815260200160002060030160006101000a81548173ffffffffffffffffffffffffffffffffffffffff021916908373ffffffffffffffffffffffffffffffffffffffff1602179055506000600660008581526020019081526020016000206005018190555061344883614687565b506001600081905550505050565b6002600054141561349c576040517f08c379a0000000000000000000000000000000000000000000000000000000008152600401613493906152c3565b60405180910390fd5b60026000819055503073ffffffffffffffffffffffffffffffffffffffff168273ffffffffffffffffffffffffffffffffffffffff1663081812fc836040518263ffffffff1660e01b81526004016134f491906152e3565b60206040518083038186803b15801561350c57600080fd5b505afa158015613520573d6000803e3d6000fd5b505050506040513d601f19601f8201168201806040525081019061354491906149f1565b73ffffffffffffffffffffffffffffffffffffffff161461359a576040517f08c379a000000000000000000000000000000000000000000000000000000000815260040161359190615263565b60405180910390fd5b3373ffffffffffffffffffffffffffffffffffffffff168273ffffffffffffffffffffffffffffffffffffffff16636352211e836040518263ffffffff1660e01b81526004016135ea91906152e3565b60206040518083038186803b15801561360257600080fd5b505afa158015613616573d6000803e3d6000fd5b505050506040513d601f19601f8201168201806040525081019061363a91906149f1565b73ffffffffffffffffffffffffffffffffffffffff1614613690576040517f08c379a000000000000000000000000000000000000000000000000000000000815260040161368790615123565b60405180910390fd5b606061369c6001614825565b60006136a8600161483b565b90506040518061014001604052808281526020018573ffffffffffffffffffffffffffffffffffffffff1681526020018481526020013373ffffffffffffffffffffffffffffffffffffffff168152602001600073ffffffffffffffffffffffffffffffffffffffff168152602001600081526020013373ffffffffffffffffffffffffffffffffffffffff1681526020016000815260200183815260200160001515815250600660008381526020019081526020016000206000820151816000015560208201518160010160006101000a81548173ffffffffffffffffffffffffffffffffffffffff021916908373ffffffffffffffffffffffffffffffffffffffff1602179055506040820151816002015560608201518160030160006101000a81548173ffffffffffffffffffffffffffffffffffffffff021916908373ffffffffffffffffffffffffffffffffffffffff16021790555060808201518160040160006101000a81548173ffffffffffffffffffffffffffffffffffffffff021916908373ffffffffffffffffffffffffffffffffffffffff16021790555060a0820151816005015560c08201518160060160006101000a81548173ffffffffffffffffffffffffffffffffffffffff021916908373ffffffffffffffffffffffffffffffffffffffff16021790555060e082015181600701556101008201518160080190805190602001906138c2929190614849565b506101208201518160090160006101000a81548160ff0219169083151502179055509050508373ffffffffffffffffffffffffffffffffffffffff166323b872dd3330866040518463ffffffff1660e01b815260040161392493929190615081565b600060405180830381600087803b15801561393e57600080fd5b505af1158015613952573d6000803e3d6000fd5b5050505061395f81614687565b505060016000819055505050565b600260005414156139b3576040517f08c379a00000000000000000000000000000000000000000000000000000000081526004016139aa906152c3565b60405180910390fd5b60026000819055506006600082815260200190815260200160002060090160009054906101000a900460ff1615613a1f576040517f08c379a0000000000000000000000000000000000000000000000000000000008152600401613a1690615243565b60405180910390fd5b60006007600083815260200190815260200160002060003373ffffffffffffffffffffffffffffffffffffffff1673ffffffffffffffffffffffffffffffffffffffff1681526020019081526020016000205414613ab2576040517f08c379a0000000000000000000000000000000000000000000000000000000008152600401613aa990615103565b60405180910390fd5b60006006600083815260200190815260200160002060060160009054906101000a900473ffffffffffffffffffffffffffffffffffffffff16905060006006600084815260200190815260200160002060070154905080341115613cc957336006600085815260200190815260200160002060060160006101000a81548173ffffffffffffffffffffffffffffffffffffffff021916908373ffffffffffffffffffffffffffffffffffffffff160217905550346006600085815260200190815260200160002060070181905550600081118015613bf257506006600084815260200190815260200160002060030160009054906101000a900473ffffffffffffffffffffffffffffffffffffffff1673ffffffffffffffffffffffffffffffffffffffff168273ffffffffffffffffffffffffffffffffffffffff1614155b15613cc45760066000848152602001908152602001600020600801829080600181540180825580915050600190039060005260206000200160009091909190916101000a81548173ffffffffffffffffffffffffffffffffffffffff021916908373ffffffffffffffffffffffffffffffffffffffff160217905550806007600085815260200190815260200160002060008473ffffffffffffffffffffffffffffffffffffffff1673ffffffffffffffffffffffffffffffffffffffff168152602001908152602001600020819055505b613d96565b346007600085815260200190815260200160002060003373ffffffffffffffffffffffffffffffffffffffff1673ffffffffffffffffffffffffffffffffffffffff1681526020019081526020016000208190555060066000848152602001908152602001600020600801339080600181540180825580915050600190039060005260206000200160009091909190916101000a81548173ffffffffffffffffffffffffffffffffffffffff021916908373ffffffffffffffffffffffffffffffffffffffff1602179055505b613d9f83614687565b5050600160008190555050565b60035481565b60026000541415613df8576040517f08c379a0000000000000000000000000000000000000000000000000000000008152600401613def906152c3565b60405180910390fd5b60026000819055503373ffffffffffffffffffffffffffffffffffffffff168273ffffffffffffffffffffffffffffffffffffffff16636352211e836040518263ffffffff1660e01b8152600401613e5091906152e3565b60206040518083038186803b158015613e6857600080fd5b505afa158015613e7c573d6000803e3d6000fd5b505050506040513d601f19601f82011682018060405250810190613ea091906149f1565b73ffffffffffffffffffffffffffffffffffffffff1614613ef6576040517f08c379a0000000000000000000000000000000000000000000000000000000008152600401613eed906151e3565b60405180910390fd5b6060613f026001614825565b6000613f0e600161483b565b90506040518061014001604052808281526020018573ffffffffffffffffffffffffffffffffffffffff168152602001848152602001600073ffffffffffffffffffffffffffffffffffffffff1681526020013373ffffffffffffffffffffffffffffffffffffffff168152602001600081526020013373ffffffffffffffffffffffffffffffffffffffff1681526020016000815260200183815260200160011515815250600660008381526020019081526020016000206000820151816000015560208201518160010160006101000a81548173ffffffffffffffffffffffffffffffffffffffff021916908373ffffffffffffffffffffffffffffffffffffffff1602179055506040820151816002015560608201518160030160006101000a81548173ffffffffffffffffffffffffffffffffffffffff021916908373ffffffffffffffffffffffffffffffffffffffff16021790555060808201518160040160006101000a81548173ffffffffffffffffffffffffffffffffffffffff021916908373ffffffffffffffffffffffffffffffffffffffff16021790555060a0820151816005015560c08201518160060160006101000a81548173ffffffffffffffffffffffffffffffffffffffff021916908373ffffffffffffffffffffffffffffffffffffffff16021790555060e08201518160070155610100820151816008019080519060200190614128929190614849565b506101208201518160090160006101000a81548160ff02191690831515021790555090505061415681614687565b505060016000819055505050565b60066020528060005260406000206000915090508060000154908060010160009054906101000a900473ffffffffffffffffffffffffffffffffffffffff16908060020154908060030160009054906101000a900473ffffffffffffffffffffffffffffffffffffffff16908060040160009054906101000a900473ffffffffffffffffffffffffffffffffffffffff16908060050154908060060160009054906101000a900473ffffffffffffffffffffffffffffffffffffffff16908060070154908060090160009054906101000a900460ff16905089565b60026000541415614285576040517f08c379a000000000000000000000000000000000000000000000000000000000815260040161427c906152c3565b60405180910390fd5b6002600081905550600460009054906101000a900473ffffffffffffffffffffffffffffffffffffffff1673ffffffffffffffffffffffffffffffffffffffff1663a9059cbb33836040518363ffffffff1660e01b81526004016142ea9291906150b8565b602060405180830381600087803b15801561430457600080fd5b505af1158015614318573d6000803e3d6000fd5b505050506040513d601f19601f8201168201806040525081019061433c9190614af4565b61434557600080fd5b600160008190555050565b60026000541415614396576040517f08c379a000000000000000000000000000000000000000000000000000000000815260040161438d906152c3565b60405180910390fd5b6002600081905550600060066000838152602001908152602001600020600501549050600060066000848152602001908152602001600020600201549050813414614416576040517f08c379a000000000000000000000000000000000000000000000000000000000815260040161440d906152a3565b60405180910390fd5b6006600084815260200190815260200160002060030160009054906101000a900473ffffffffffffffffffffffffffffffffffffffff1673ffffffffffffffffffffffffffffffffffffffff166108fc6064600354606461447791906155d0565b346144829190615576565b61448c9190615545565b9081150290604051600060405180830381858888f193505050501580156144b7573d6000803e3d6000fd5b508373ffffffffffffffffffffffffffffffffffffffff166323b872dd3033846040518463ffffffff1660e01b81526004016144f593929190615081565b600060405180830381600087803b15801561450f57600080fd5b505af1158015614523573d6000803e3d6000fd5b50505050336006600085815260200190815260200160002060040160006101000a81548173ffffffffffffffffffffffffffffffffffffffff021916908373ffffffffffffffffffffffffffffffffffffffff16021790555060006006600085815260200190815260200160002060030160006101000a81548173ffffffffffffffffffffffffffffffffffffffff021916908373ffffffffffffffffffffffffffffffffffffffff16021790555060006006600085815260200190815260200160002060050181905550600260009054906101000a900473ffffffffffffffffffffffffffffffffffffffff1673ffffffffffffffffffffffffffffffffffffffff166108fc60646003543461463a9190615576565b6146449190615545565b9081150290604051600060405180830381858888f1935050505015801561466f573d6000803e3d6000fd5b5061467983614687565b505060016000819055505050565b7fdbc981a0a95e1ac563066f1f2031b6bfbddb3a8af6035fdb5eda876a6343d1e9816006600084815260200190815260200160002060010160009054906101000a900473ffffffffffffffffffffffffffffffffffffffff1660066000858152602001908152602001600020600201546006600086815260200190815260200160002060030160009054906101000a900473ffffffffffffffffffffffffffffffffffffffff166006600087815260200190815260200160002060040160009054906101000a900473ffffffffffffffffffffffffffffffffffffffff1660066000888152602001908152602001600020600501546006600089815260200190815260200160002060060160009054906101000a900473ffffffffffffffffffffffffffffffffffffffff16600660008a815260200190815260200160002060070154600660008b8152602001908152602001600020600801600660008c815260200190815260200160002060090160009054906101000a900460ff1660405161481a9a999897969594939291906152fe565b60405180910390a150565b6001816000016000828254019250508190555050565b600081600001549050919050565b8280548282559060005260206000209081019282156148c2579160200282015b828111156148c15782518260006101000a81548173ffffffffffffffffffffffffffffffffffffffff021916908373ffffffffffffffffffffffffffffffffffffffff16021790555091602001919060010190614869565b5b5090506148cf9190614980565b5090565b60405180610140016040528060008152602001600073ffffffffffffffffffffffffffffffffffffffff16815260200160008152602001600073ffffffffffffffffffffffffffffffffffffffff168152602001600073ffffffffffffffffffffffffffffffffffffffff16815260200160008152602001600073ffffffffffffffffffffffffffffffffffffffff16815260200160008152602001606081526020016000151581525090565b5b80821115614999576000816000905550600101614981565b5090565b6000813590506149ac81615b6c565b92915050565b6000815190506149c181615b6c565b92915050565b6000815190506149d681615b83565b92915050565b6000813590506149eb81615b9a565b92915050565b600060208284031215614a0357600080fd5b6000614a11848285016149b2565b91505092915050565b60008060408385031215614a2d57600080fd5b6000614a3b8582860161499d565b9250506020614a4c858286016149dc565b9150509250929050565b600080600060608486031215614a6b57600080fd5b6000614a798682870161499d565b9350506020614a8a868287016149dc565b9250506040614a9b8682870161499d565b9150509250925092565b600080600060608486031215614aba57600080fd5b6000614ac88682870161499d565b9350506020614ad9868287016149dc565b9250506040614aea868287016149dc565b9150509250925092565b600060208284031215614b0657600080fd5b6000614b14848285016149c7565b91505092915050565b600060208284031215614b2f57600080fd5b6000614b3d848285016149dc565b91505092915050565b60008060408385031215614b5957600080fd5b6000614b67858286016149dc565b9250506020614b788582860161499d565b9150509250929050565b60008060408385031215614b9557600080fd5b6000614ba3858286016149dc565b9250506020614bb4858286016149dc565b9150509250929050565b6000614bca8383614bea565b60208301905092915050565b6000614be28383614f89565b905092915050565b614bf381615636565b82525050565b614c0281615636565b82525050565b614c1181615624565b82525050565b614c2081615624565b82525050565b6000614c3182615463565b614c3b81856154ab565b9350614c468361542e565b8060005b83811015614c77578151614c5e8882614bbe565b9750614c6983615484565b925050600181019050614c4a565b5085935050505092915050565b6000614c8f8261546e565b614c9981856154bc565b9350614ca48361543e565b8060005b83811015614cdc57614cb982615769565b614cc38882614bbe565b9750614cce83615491565b925050600181019050614ca8565b5085935050505092915050565b6000614cf482615479565b614cfe81856154cd565b935083602082028501614d1085615453565b8060005b85811015614d4c5784840389528151614d2d8582614bd6565b9450614d388361549e565b925060208a01995050600181019050614d14565b50829750879550505050505092915050565b614d6781615648565b82525050565b614d7681615648565b82525050565b6000614d896023836154de565b9150614d9482615789565b604082019050919050565b6000614dac6032836154de565b9150614db7826157d8565b604082019050919050565b6000614dcf6029836154de565b9150614dda82615827565b604082019050919050565b6000614df2602c836154de565b9150614dfd82615876565b604082019050919050565b6000614e156037836154de565b9150614e20826158c5565b604082019050919050565b6000614e386026836154de565b9150614e4382615914565b604082019050919050565b6000614e5b601f836154de565b9150614e6682615963565b602082019050919050565b6000614e7e6039836154de565b9150614e898261598c565b604082019050919050565b6000614ea16033836154de565b9150614eac826159db565b604082019050919050565b6000614ec4601f836154de565b9150614ecf82615a2a565b602082019050919050565b6000614ee7601e836154de565b9150614ef282615a53565b602082019050919050565b6000614f0a601a836154de565b9150614f1582615a7c565b602082019050919050565b6000614f2d6034836154de565b9150614f3882615aa5565b604082019050919050565b6000614f506040836154de565b9150614f5b82615af4565b604082019050919050565b6000614f73601f836154de565b9150614f7e82615b43565b602082019050919050565b600061014083016000830151614fa26000860182615063565b506020830151614fb56020860182614c08565b506040830151614fc86040860182615063565b506060830151614fdb6060860182614bea565b506080830151614fee6080860182614bea565b5060a083015161500160a0860182615063565b5060c083015161501460c0860182614bea565b5060e083015161502760e0860182615063565b506101008301518482036101008601526150418282614c26565b915050610120830151615058610120860182614d5e565b508091505092915050565b61506c81615674565b82525050565b61507b81615674565b82525050565b60006060820190506150966000830186614c17565b6150a36020830185614c17565b6150b06040830184615072565b949350505050565b60006040820190506150cd6000830185614c17565b6150da6020830184615072565b9392505050565b600060208201905081810360008301526150fb8184614ce9565b905092915050565b6000602082019050818103600083015261511c81614d7c565b9050919050565b6000602082019050818103600083015261513c81614d9f565b9050919050565b6000602082019050818103600083015261515c81614dc2565b9050919050565b6000602082019050818103600083015261517c81614de5565b9050919050565b6000602082019050818103600083015261519c81614e08565b9050919050565b600060208201905081810360008301526151bc81614e2b565b9050919050565b600060208201905081810360008301526151dc81614e4e565b9050919050565b600060208201905081810360008301526151fc81614e71565b9050919050565b6000602082019050818103600083015261521c81614e94565b9050919050565b6000602082019050818103600083015261523c81614eb7565b9050919050565b6000602082019050818103600083015261525c81614eda565b9050919050565b6000602082019050818103600083015261527c81614efd565b9050919050565b6000602082019050818103600083015261529c81614f20565b9050919050565b600060208201905081810360008301526152bc81614f43565b9050919050565b600060208201905081810360008301526152dc81614f66565b9050919050565b60006020820190506152f86000830184615072565b92915050565b600061014082019050615314600083018d615072565b615321602083018c614c17565b61532e604083018b615072565b61533b606083018a614bf9565b6153486080830189614bf9565b61535560a0830188615072565b61536260c0830187614bf9565b61536f60e0830186615072565b8181036101008301526153828185614c84565b9050615392610120830184614d6d565b9b9a5050505050505050505050565b6000610120820190506153b7600083018c615072565b6153c4602083018b614c17565b6153d1604083018a615072565b6153de6060830189614bf9565b6153eb6080830188614bf9565b6153f860a0830187615072565b61540560c0830186614bf9565b61541260e0830185615072565b615420610100830184614d6d565b9a9950505050505050505050565b6000819050602082019050919050565b60008190508160005260206000209050919050565b6000819050602082019050919050565b600081519050919050565b600081549050919050565b600081519050919050565b6000602082019050919050565b6000600182019050919050565b6000602082019050919050565b600082825260208201905092915050565b600082825260208201905092915050565b600082825260208201905092915050565b600082825260208201905092915050565b60006154fa82615674565b915061550583615674565b9250827fffffffffffffffffffffffffffffffffffffffffffffffffffffffffffffffff0382111561553a5761553961570b565b5b828201905092915050565b600061555082615674565b915061555b83615674565b92508261556b5761556a61573a565b5b828204905092915050565b600061558182615674565b915061558c83615674565b9250817fffffffffffffffffffffffffffffffffffffffffffffffffffffffffffffffff04831182151516156155c5576155c461570b565b5b828202905092915050565b60006155db82615674565b91506155e683615674565b9250828210156155f9576155f861570b565b5b828203905092915050565b600073ffffffffffffffffffffffffffffffffffffffff82169050919050565b600061562f82615654565b9050919050565b600061564182615654565b9050919050565b60008115159050919050565b600073ffffffffffffffffffffffffffffffffffffffff82169050919050565b6000819050919050565b600061568982615674565b9150600082141561569d5761569c61570b565b5b600182039050919050565b60006156bb6156b68361577c565b615604565b9050919050565b60006156cd82615674565b91507fffffffffffffffffffffffffffffffffffffffffffffffffffffffffffffffff821415615700576156ff61570b565b5b600182019050919050565b7f4e487b7100000000000000000000000000000000000000000000000000000000600052601160045260246000fd5b7f4e487b7100000000000000000000000000000000000000000000000000000000600052601260045260246000fd5b600061577582546156a8565b9050919050565b60008160001c9050919050565b7f596f7520416c7265616479204861766520612042696420466f7220546869732060008201527f4e46540000000000000000000000000000000000000000000000000000000000602082015250565b7f596f75204d75737420426520546865204f776e6572204f662054686973204e4660008201527f5420546f2043726561746520412053616c650000000000000000000000000000602082015250565b7f596f75204d75737420426520546865204f776e6572204f662054686973204e4660008201527f5420546f20476966740000000000000000000000000000000000000000000000602082015250565b7f596f7520617265206e6f7420746865206f776e6572206f66207468697320736d60008201527f61727420636f6e74726163740000000000000000000000000000000000000000602082015250565b7f596f7520446f6e2774204861766520416e79204578697374696e67204269642060008201527f546f205769746864726177204f6e2054686973204e4654000000000000000000602082015250565b7f41756374696f6e20466f722054686973204e46542048617320416c726561647960008201527f20456e6465640000000000000000000000000000000000000000000000000000602082015250565b7f47696674696e6720416464726573732053686f756c642062652056616c696400600082015250565b7f596f75204d75737420426520546865204f776e6572204f662054686973204e4660008201527f5420546f204372656174652041204d61726b6574204974656d00000000000000602082015250565b7f596f75204d75737420426520546865204f776e65722054686973204e4654205460008201527f6f2043726561746520416e2041756374696f6e00000000000000000000000000602082015250565b7f5072696365204d7573742042652047726561746572205468616e205a65726f00600082015250565b7f41756374696f6e20466f722054686973204e46542048617320456e6465640000600082015250565b7f4d61726b6574204469646e27742047657420417070726f76616c000000000000600082015250565b7f596f75204d75737420426520546865204f776e6572204f662054686973204e4660008201527f5420546f2043616e63656c205468652053616c65000000000000000000000000602082015250565b7f506c65617365205375626d6974205468652041736b696e67205072696365204960008201527f6e204f7264657220546f20436f6d706c65746520546865205075726368617365602082015250565b7f5265656e7472616e637947756172643a207265656e7472616e742063616c6c00600082015250565b615b7581615624565b8114615b8057600080fd5b50565b615b8c81615648565b8114615b9757600080fd5b50565b615ba381615674565b8114615bae57600080fd5b5056fea26469706673582212209196c467a1f1cfc726d72fb47f8322349a7dea3b71065db34b1767a2ff5488c264736f6c63430008040033",
  "linkReferences": {},
  "deployedLinkReferences": {}
}