{
  "_format": "hh-sol-artifact-1",
  "contractName": "NFTMarket",
  "sourceName": "contracts/NFTMarket.sol",
  "abi": [
    {
      "inputs": [],
      "stateMutability": "nonpayable",
      "type": "constructor"
    },
    {
      "anonymous": false,
      "inputs": [
        {
          "indexed": false,
          "internalType": "uint256",
          "name": "itemId",
          "type": "uint256"
        },
        {
          "indexed": false,
          "internalType": "address",
          "name": "nftContract",
          "type": "address"
        },
        {
          "indexed": false,
          "internalType": "uint256",
          "name": "tokenId",
          "type": "uint256"
        },
        {
          "indexed": false,
          "internalType": "address payable",
          "name": "seller",
          "type": "address"
        },
        {
          "indexed": false,
          "internalType": "address payable",
          "name": "owner",
          "type": "address"
        },
        {
          "indexed": false,
          "internalType": "uint256",
          "name": "price",
          "type": "uint256"
        },
        {
          "indexed": false,
          "internalType": "bool",
          "name": "sold",
          "type": "bool"
        }
      ],
      "name": "MarketItemCreated",
      "type": "event"
    },
    {
      "inputs": [
        {
          "internalType": "address",
          "name": "nftContract",
          "type": "address"
        },
        {
          "internalType": "uint256",
          "name": "itemId",
          "type": "uint256"
        }
      ],
      "name": "cancelSale",
      "outputs": [],
      "stateMutability": "nonpayable",
      "type": "function"
    },
    {
      "inputs": [
        {
          "internalType": "address",
          "name": "nftContract",
          "type": "address"
        },
        {
          "internalType": "uint256",
          "name": "tokenId",
          "type": "uint256"
        },
        {
          "internalType": "uint256",
          "name": "price",
          "type": "uint256"
        }
      ],
      "name": "createMarketItem",
      "outputs": [],
      "stateMutability": "nonpayable",
      "type": "function"
    },
    {
      "inputs": [
        {
          "internalType": "address",
          "name": "nftContract",
          "type": "address"
        },
        {
          "internalType": "uint256",
          "name": "itemId",
          "type": "uint256"
        },
        {
          "internalType": "uint256",
          "name": "price",
          "type": "uint256"
        }
      ],
      "name": "createMarketSale",
      "outputs": [],
      "stateMutability": "payable",
      "type": "function"
    },
    {
      "inputs": [
        {
          "internalType": "address",
          "name": "nftContract",
          "type": "address"
        },
        {
          "internalType": "uint256",
          "name": "itemId",
          "type": "uint256"
        }
      ],
      "name": "executeMarketSale",
      "outputs": [],
      "stateMutability": "payable",
      "type": "function"
    },
    {
      "inputs": [],
      "name": "fetchItemsCreated",
      "outputs": [
        {
          "components": [
            {
              "internalType": "uint256",
              "name": "itemId",
              "type": "uint256"
            },
            {
              "internalType": "address",
              "name": "nftContract",
              "type": "address"
            },
            {
              "internalType": "uint256",
              "name": "tokenId",
              "type": "uint256"
            },
            {
              "internalType": "address payable",
              "name": "seller",
              "type": "address"
            },
            {
              "internalType": "address payable",
              "name": "owner",
              "type": "address"
            },
            {
              "internalType": "uint256",
              "name": "price",
              "type": "uint256"
            },
            {
              "internalType": "bool",
              "name": "sold",
              "type": "bool"
            }
          ],
          "internalType": "struct NFTMarket.MarketItem[]",
          "name": "",
          "type": "tuple[]"
        }
      ],
      "stateMutability": "view",
      "type": "function"
    },
    {
      "inputs": [],
      "name": "fetchMarketItems",
      "outputs": [
        {
          "components": [
            {
              "internalType": "uint256",
              "name": "itemId",
              "type": "uint256"
            },
            {
              "internalType": "address",
              "name": "nftContract",
              "type": "address"
            },
            {
              "internalType": "uint256",
              "name": "tokenId",
              "type": "uint256"
            },
            {
              "internalType": "address payable",
              "name": "seller",
              "type": "address"
            },
            {
              "internalType": "address payable",
              "name": "owner",
              "type": "address"
            },
            {
              "internalType": "uint256",
              "name": "price",
              "type": "uint256"
            },
            {
              "internalType": "bool",
              "name": "sold",
              "type": "bool"
            }
          ],
          "internalType": "struct NFTMarket.MarketItem[]",
          "name": "",
          "type": "tuple[]"
        }
      ],
      "stateMutability": "view",
      "type": "function"
    },
    {
      "inputs": [],
      "name": "fetchMyNFTs",
      "outputs": [
        {
          "components": [
            {
              "internalType": "uint256",
              "name": "itemId",
              "type": "uint256"
            },
            {
              "internalType": "address",
              "name": "nftContract",
              "type": "address"
            },
            {
              "internalType": "uint256",
              "name": "tokenId",
              "type": "uint256"
            },
            {
              "internalType": "address payable",
              "name": "seller",
              "type": "address"
            },
            {
              "internalType": "address payable",
              "name": "owner",
              "type": "address"
            },
            {
              "internalType": "uint256",
              "name": "price",
              "type": "uint256"
            },
            {
              "internalType": "bool",
              "name": "sold",
              "type": "bool"
            }
          ],
          "internalType": "struct NFTMarket.MarketItem[]",
          "name": "",
          "type": "tuple[]"
        }
      ],
      "stateMutability": "view",
      "type": "function"
    },
    {
      "inputs": [
        {
          "internalType": "uint256",
          "name": "",
          "type": "uint256"
        }
      ],
      "name": "idToMarketItem",
      "outputs": [
        {
          "internalType": "uint256",
          "name": "itemId",
          "type": "uint256"
        },
        {
          "internalType": "address",
          "name": "nftContract",
          "type": "address"
        },
        {
          "internalType": "uint256",
          "name": "tokenId",
          "type": "uint256"
        },
        {
          "internalType": "address payable",
          "name": "seller",
          "type": "address"
        },
        {
          "internalType": "address payable",
          "name": "owner",
          "type": "address"
        },
        {
          "internalType": "uint256",
          "name": "price",
          "type": "uint256"
        },
        {
          "internalType": "bool",
          "name": "sold",
          "type": "bool"
        }
      ],
      "stateMutability": "view",
      "type": "function"
    },
    {
      "inputs": [],
      "name": "listingPrice",
      "outputs": [
        {
          "internalType": "uint256",
          "name": "",
          "type": "uint256"
        }
      ],
      "stateMutability": "view",
      "type": "function"
    }
  ],
  "bytecode": "0x6080604052600160045534801561001557600080fd5b50600160008190555033600360006101000a81548173ffffffffffffffffffffffffffffffffffffffff021916908373ffffffffffffffffffffffffffffffffffffffff1602179055506124a48061006e6000396000f3fe6080604052600436106100865760003560e01c806358eb2df51161005957806358eb2df514610126578063c78f19f91461014f578063e61a70c01461017a578063f01a6dde146101bd578063f064c32e146101d957610086565b80630f08efe01461008b57806316f3a95b146100b6578063202e3740146100df57806321cf91ac1461010a575b600080fd5b34801561009757600080fd5b506100a0610204565b6040516100ad9190611f40565b60405180910390f35b3480156100c257600080fd5b506100dd60048036038101906100d89190611c07565b6105b6565b005b3480156100eb57600080fd5b506100f461079a565b6040516101019190611f40565b60405180910390f35b610124600480360381019061011f9190611c43565b610b4a565b005b34801561013257600080fd5b5061014d60048036038101906101489190611c43565b610fb7565b005b34801561015b57600080fd5b506101646113ba565b6040516101719190612022565b60405180910390f35b34801561018657600080fd5b506101a1600480360381019061019c9190611c92565b6113c0565b6040516101b4979695949392919061203d565b60405180910390f35b6101d760048036038101906101d29190611c07565b61146f565b005b3480156101e557600080fd5b506101ee61174a565b6040516101fb9190611f40565b60405180910390f35b606060006102126001611afa565b905060008060005b838110156102bc57600073ffffffffffffffffffffffffffffffffffffffff166005600060018461024b91906120f6565b815260200190815260200160002060040160009054906101000a900473ffffffffffffffffffffffffffffffffffffffff1673ffffffffffffffffffffffffffffffffffffffff1614156102a9576001826102a691906120f6565b91505b80806102b490612231565b91505061021a565b5060008167ffffffffffffffff8111156102ff577f4e487b7100000000000000000000000000000000000000000000000000000000600052604160045260246000fd5b60405190808252806020026020018201604052801561033857816020015b610325611b1e565b81526020019060019003908161031d5790505b50905060005b848110156105ab57600073ffffffffffffffffffffffffffffffffffffffff166005600060018461036f91906120f6565b815260200190815260200160002060040160009054906101000a900473ffffffffffffffffffffffffffffffffffffffff1673ffffffffffffffffffffffffffffffffffffffff161415610598576000600560006001846103d091906120f6565b81526020019081526020016000206000015490506000600560008381526020019081526020016000209050806040518060e0016040529081600082015481526020016001820160009054906101000a900473ffffffffffffffffffffffffffffffffffffffff1673ffffffffffffffffffffffffffffffffffffffff1673ffffffffffffffffffffffffffffffffffffffff168152602001600282015481526020016003820160009054906101000a900473ffffffffffffffffffffffffffffffffffffffff1673ffffffffffffffffffffffffffffffffffffffff1673ffffffffffffffffffffffffffffffffffffffff1681526020016004820160009054906101000a900473ffffffffffffffffffffffffffffffffffffffff1673ffffffffffffffffffffffffffffffffffffffff1673ffffffffffffffffffffffffffffffffffffffff168152602001600582015481526020016006820160009054906101000a900460ff16151515158152505084878151811061057b577f4e487b7100000000000000000000000000000000000000000000000000000000600052603260045260246000fd5b602002602001018190525060018661059391906120f6565b955050505b80806105a390612231565b91505061033e565b508094505050505090565b600260005414156105fc576040517f08c379a00000000000000000000000000000000000000000000000000000000081526004016105f390611fe2565b60405180910390fd5b600260008190555060006005600083815260200190815260200160002060030160009054906101000a900473ffffffffffffffffffffffffffffffffffffffff1690506000600560008481526020019081526020016000206002015490508173ffffffffffffffffffffffffffffffffffffffff163373ffffffffffffffffffffffffffffffffffffffff16146106c8576040517f08c379a00000000000000000000000000000000000000000000000000000000081526004016106bf90611f82565b60405180910390fd5b336005600085815260200190815260200160002060040160006101000a81548173ffffffffffffffffffffffffffffffffffffffff021916908373ffffffffffffffffffffffffffffffffffffffff1602179055508373ffffffffffffffffffffffffffffffffffffffff166323b872dd3033846040518463ffffffff1660e01b815260040161075a93929190611f09565b600060405180830381600087803b15801561077457600080fd5b505af1158015610788573d6000803e3d6000fd5b50505050505060016000819055505050565b606060006107a86001611afa565b905060008060005b83811015610851573373ffffffffffffffffffffffffffffffffffffffff16600560006001846107e091906120f6565b815260200190815260200160002060040160009054906101000a900473ffffffffffffffffffffffffffffffffffffffff1673ffffffffffffffffffffffffffffffffffffffff16141561083e5760018361083b91906120f6565b92505b808061084990612231565b9150506107b0565b5060008267ffffffffffffffff811115610894577f4e487b7100000000000000000000000000000000000000000000000000000000600052604160045260246000fd5b6040519080825280602002602001820160405280156108cd57816020015b6108ba611b1e565b8152602001906001900390816108b25790505b50905060005b84811015610b3f573373ffffffffffffffffffffffffffffffffffffffff166005600060018461090391906120f6565b815260200190815260200160002060040160009054906101000a900473ffffffffffffffffffffffffffffffffffffffff1673ffffffffffffffffffffffffffffffffffffffff161415610b2c5760006005600060018461096491906120f6565b81526020019081526020016000206000015490506000600560008381526020019081526020016000209050806040518060e0016040529081600082015481526020016001820160009054906101000a900473ffffffffffffffffffffffffffffffffffffffff1673ffffffffffffffffffffffffffffffffffffffff1673ffffffffffffffffffffffffffffffffffffffff168152602001600282015481526020016003820160009054906101000a900473ffffffffffffffffffffffffffffffffffffffff1673ffffffffffffffffffffffffffffffffffffffff1673ffffffffffffffffffffffffffffffffffffffff1681526020016004820160009054906101000a900473ffffffffffffffffffffffffffffffffffffffff1673ffffffffffffffffffffffffffffffffffffffff1673ffffffffffffffffffffffffffffffffffffffff168152602001600582015481526020016006820160009054906101000a900460ff161515151581525050848681518110610b0f577f4e487b7100000000000000000000000000000000000000000000000000000000600052603260045260246000fd5b6020026020010181905250600185610b2791906120f6565b945050505b8080610b3790612231565b9150506108d3565b508094505050505090565b60026000541415610b90576040517f08c379a0000000000000000000000000000000000000000000000000000000008152600401610b8790611fe2565b60405180910390fd5b600260008190555060006005600084815260200190815260200160002060040160009054906101000a900473ffffffffffffffffffffffffffffffffffffffff1690506000600560008581526020019081526020016000206002015490508173ffffffffffffffffffffffffffffffffffffffff163373ffffffffffffffffffffffffffffffffffffffff1614610c5c576040517f08c379a0000000000000000000000000000000000000000000000000000000008152600401610c5390611fa2565b60405180910390fd5b3073ffffffffffffffffffffffffffffffffffffffff168573ffffffffffffffffffffffffffffffffffffffff1663081812fc836040518263ffffffff1660e01b8152600401610cac9190612022565b60206040518083038186803b158015610cc457600080fd5b505afa158015610cd8573d6000803e3d6000fd5b505050506040513d601f19601f82011682018060405250810190610cfc9190611bde565b73ffffffffffffffffffffffffffffffffffffffff1614610d52576040517f08c379a0000000000000000000000000000000000000000000000000000000008152600401610d4990611f62565b60405180910390fd5b6040518060e001604052808581526020018673ffffffffffffffffffffffffffffffffffffffff1681526020018281526020013373ffffffffffffffffffffffffffffffffffffffff168152602001600073ffffffffffffffffffffffffffffffffffffffff16815260200184815260200160001515815250600560008681526020019081526020016000206000820151816000015560208201518160010160006101000a81548173ffffffffffffffffffffffffffffffffffffffff021916908373ffffffffffffffffffffffffffffffffffffffff1602179055506040820151816002015560608201518160030160006101000a81548173ffffffffffffffffffffffffffffffffffffffff021916908373ffffffffffffffffffffffffffffffffffffffff16021790555060808201518160040160006101000a81548173ffffffffffffffffffffffffffffffffffffffff021916908373ffffffffffffffffffffffffffffffffffffffff16021790555060a0820151816005015560c08201518160060160006101000a81548160ff0219169083151502179055509050508473ffffffffffffffffffffffffffffffffffffffff166323b872dd3330846040518463ffffffff1660e01b8152600401610f3193929190611f09565b600060405180830381600087803b158015610f4b57600080fd5b505af1158015610f5f573d6000803e3d6000fd5b505050507f045dfa01dcba2b36aba1d3dc4a874f4b0c5d2fbeb8d2c4b34a7d88c8d8f929d1848683336000886000604051610fa0979695949392919061203d565b60405180910390a150506001600081905550505050565b60026000541415610ffd576040517f08c379a0000000000000000000000000000000000000000000000000000000008152600401610ff490611fe2565b60405180910390fd5b600260008190555060008111611048576040517f08c379a000000000000000000000000000000000000000000000000000000000815260040161103f90612002565b60405180910390fd5b3073ffffffffffffffffffffffffffffffffffffffff168373ffffffffffffffffffffffffffffffffffffffff1663081812fc846040518263ffffffff1660e01b81526004016110989190612022565b60206040518083038186803b1580156110b057600080fd5b505afa1580156110c4573d6000803e3d6000fd5b505050506040513d601f19601f820116820180604052508101906110e89190611bde565b73ffffffffffffffffffffffffffffffffffffffff161461113e576040517f08c379a000000000000000000000000000000000000000000000000000000000815260040161113590611f62565b60405180910390fd5b6111486001611b08565b60006111546001611afa565b90506040518060e001604052808281526020018573ffffffffffffffffffffffffffffffffffffffff1681526020018481526020013373ffffffffffffffffffffffffffffffffffffffff168152602001600073ffffffffffffffffffffffffffffffffffffffff16815260200183815260200160001515815250600560008381526020019081526020016000206000820151816000015560208201518160010160006101000a81548173ffffffffffffffffffffffffffffffffffffffff021916908373ffffffffffffffffffffffffffffffffffffffff1602179055506040820151816002015560608201518160030160006101000a81548173ffffffffffffffffffffffffffffffffffffffff021916908373ffffffffffffffffffffffffffffffffffffffff16021790555060808201518160040160006101000a81548173ffffffffffffffffffffffffffffffffffffffff021916908373ffffffffffffffffffffffffffffffffffffffff16021790555060a0820151816005015560c08201518160060160006101000a81548160ff0219169083151502179055509050508373ffffffffffffffffffffffffffffffffffffffff166323b872dd3330866040518463ffffffff1660e01b815260040161133593929190611f09565b600060405180830381600087803b15801561134f57600080fd5b505af1158015611363573d6000803e3d6000fd5b505050507f045dfa01dcba2b36aba1d3dc4a874f4b0c5d2fbeb8d2c4b34a7d88c8d8f929d18185853360008760006040516113a4979695949392919061203d565b60405180910390a1506001600081905550505050565b60045481565b60056020528060005260406000206000915090508060000154908060010160009054906101000a900473ffffffffffffffffffffffffffffffffffffffff16908060020154908060030160009054906101000a900473ffffffffffffffffffffffffffffffffffffffff16908060040160009054906101000a900473ffffffffffffffffffffffffffffffffffffffff16908060050154908060060160009054906101000a900460ff16905087565b600260005414156114b5576040517f08c379a00000000000000000000000000000000000000000000000000000000081526004016114ac90611fe2565b60405180910390fd5b6002600081905550600060056000838152602001908152602001600020600501549050600060056000848152602001908152602001600020600201549050813414611535576040517f08c379a000000000000000000000000000000000000000000000000000000000815260040161152c90611fc2565b60405180910390fd5b6005600084815260200190815260200160002060030160009054906101000a900473ffffffffffffffffffffffffffffffffffffffff1673ffffffffffffffffffffffffffffffffffffffff166108fc6064606334611594919061217d565b61159e919061214c565b9081150290604051600060405180830381858888f193505050501580156115c9573d6000803e3d6000fd5b508373ffffffffffffffffffffffffffffffffffffffff166323b872dd3033846040518463ffffffff1660e01b815260040161160793929190611f09565b600060405180830381600087803b15801561162157600080fd5b505af1158015611635573d6000803e3d6000fd5b50505050336005600085815260200190815260200160002060040160006101000a81548173ffffffffffffffffffffffffffffffffffffffff021916908373ffffffffffffffffffffffffffffffffffffffff16021790555060016005600085815260200190815260200160002060060160006101000a81548160ff0219169083151502179055506116c76002611b08565b600360009054906101000a900473ffffffffffffffffffffffffffffffffffffffff1673ffffffffffffffffffffffffffffffffffffffff166108fc606434611710919061214c565b9081150290604051600060405180830381858888f1935050505015801561173b573d6000803e3d6000fd5b50505060016000819055505050565b606060006117586001611afa565b905060008060005b83811015611801573373ffffffffffffffffffffffffffffffffffffffff166005600060018461179091906120f6565b815260200190815260200160002060030160009054906101000a900473ffffffffffffffffffffffffffffffffffffffff1673ffffffffffffffffffffffffffffffffffffffff1614156117ee576001836117eb91906120f6565b92505b80806117f990612231565b915050611760565b5060008267ffffffffffffffff811115611844577f4e487b7100000000000000000000000000000000000000000000000000000000600052604160045260246000fd5b60405190808252806020026020018201604052801561187d57816020015b61186a611b1e565b8152602001906001900390816118625790505b50905060005b84811015611aef573373ffffffffffffffffffffffffffffffffffffffff16600560006001846118b391906120f6565b815260200190815260200160002060030160009054906101000a900473ffffffffffffffffffffffffffffffffffffffff1673ffffffffffffffffffffffffffffffffffffffff161415611adc5760006005600060018461191491906120f6565b81526020019081526020016000206000015490506000600560008381526020019081526020016000209050806040518060e0016040529081600082015481526020016001820160009054906101000a900473ffffffffffffffffffffffffffffffffffffffff1673ffffffffffffffffffffffffffffffffffffffff1673ffffffffffffffffffffffffffffffffffffffff168152602001600282015481526020016003820160009054906101000a900473ffffffffffffffffffffffffffffffffffffffff1673ffffffffffffffffffffffffffffffffffffffff1673ffffffffffffffffffffffffffffffffffffffff1681526020016004820160009054906101000a900473ffffffffffffffffffffffffffffffffffffffff1673ffffffffffffffffffffffffffffffffffffffff1673ffffffffffffffffffffffffffffffffffffffff168152602001600582015481526020016006820160009054906101000a900460ff161515151581525050848681518110611abf577f4e487b7100000000000000000000000000000000000000000000000000000000600052603260045260246000fd5b6020026020010181905250600185611ad791906120f6565b945050505b8080611ae790612231565b915050611883565b508094505050505090565b600081600001549050919050565b6001816000016000828254019250508190555050565b6040518060e0016040528060008152602001600073ffffffffffffffffffffffffffffffffffffffff16815260200160008152602001600073ffffffffffffffffffffffffffffffffffffffff168152602001600073ffffffffffffffffffffffffffffffffffffffff168152602001600081526020016000151581525090565b600081359050611bae81612440565b92915050565b600081519050611bc381612440565b92915050565b600081359050611bd881612457565b92915050565b600060208284031215611bf057600080fd5b6000611bfe84828501611bb4565b91505092915050565b60008060408385031215611c1a57600080fd5b6000611c2885828601611b9f565b9250506020611c3985828601611bc9565b9150509250929050565b600080600060608486031215611c5857600080fd5b6000611c6686828701611b9f565b9350506020611c7786828701611bc9565b9250506040611c8886828701611bc9565b9150509250925092565b600060208284031215611ca457600080fd5b6000611cb284828501611bc9565b91505092915050565b6000611cc78383611e5d565b60e08301905092915050565b611cdc816121e9565b82525050565b611ceb816121e9565b82525050565b611cfa816121d7565b82525050565b611d09816121d7565b82525050565b6000611d1a826120bc565b611d2481856120d4565b9350611d2f836120ac565b8060005b83811015611d60578151611d478882611cbb565b9750611d52836120c7565b925050600181019050611d33565b5085935050505092915050565b611d76816121fb565b82525050565b611d85816121fb565b82525050565b6000611d98601a836120e5565b9150611da3826122d8565b602082019050919050565b6000611dbb6028836120e5565b9150611dc682612301565b604082019050919050565b6000611dde6028836120e5565b9150611de982612350565b604082019050919050565b6000611e016040836120e5565b9150611e0c8261239f565b604082019050919050565b6000611e24601f836120e5565b9150611e2f826123ee565b602082019050919050565b6000611e47601c836120e5565b9150611e5282612417565b602082019050919050565b60e082016000820151611e736000850182611eeb565b506020820151611e866020850182611cf1565b506040820151611e996040850182611eeb565b506060820151611eac6060850182611cd3565b506080820151611ebf6080850182611cd3565b5060a0820151611ed260a0850182611eeb565b5060c0820151611ee560c0850182611d6d565b50505050565b611ef481612227565b82525050565b611f0381612227565b82525050565b6000606082019050611f1e6000830186611d00565b611f2b6020830185611d00565b611f386040830184611efa565b949350505050565b60006020820190508181036000830152611f5a8184611d0f565b905092915050565b60006020820190508181036000830152611f7b81611d8b565b9050919050565b60006020820190508181036000830152611f9b81611dae565b9050919050565b60006020820190508181036000830152611fbb81611dd1565b9050919050565b60006020820190508181036000830152611fdb81611df4565b9050919050565b60006020820190508181036000830152611ffb81611e17565b9050919050565b6000602082019050818103600083015261201b81611e3a565b9050919050565b60006020820190506120376000830184611efa565b92915050565b600060e082019050612052600083018a611efa565b61205f6020830189611d00565b61206c6040830188611efa565b6120796060830187611ce2565b6120866080830186611ce2565b61209360a0830185611efa565b6120a060c0830184611d7c565b98975050505050505050565b6000819050602082019050919050565b600081519050919050565b6000602082019050919050565b600082825260208201905092915050565b600082825260208201905092915050565b600061210182612227565b915061210c83612227565b9250827fffffffffffffffffffffffffffffffffffffffffffffffffffffffffffffffff038211156121415761214061227a565b5b828201905092915050565b600061215782612227565b915061216283612227565b925082612172576121716122a9565b5b828204905092915050565b600061218882612227565b915061219383612227565b9250817fffffffffffffffffffffffffffffffffffffffffffffffffffffffffffffffff04831182151516156121cc576121cb61227a565b5b828202905092915050565b60006121e282612207565b9050919050565b60006121f482612207565b9050919050565b60008115159050919050565b600073ffffffffffffffffffffffffffffffffffffffff82169050919050565b6000819050919050565b600061223c82612227565b91507fffffffffffffffffffffffffffffffffffffffffffffffffffffffffffffffff82141561226f5761226e61227a565b5b600182019050919050565b7f4e487b7100000000000000000000000000000000000000000000000000000000600052601160045260246000fd5b7f4e487b7100000000000000000000000000000000000000000000000000000000600052601260045260246000fd5b7f4d61726b6574206469646e27742067657420617070726f76616c000000000000600082015250565b7f596f75206d75737420626520746865206f776e657220746f2063616e63656c2060008201527f7468652073616c65000000000000000000000000000000000000000000000000602082015250565b7f596f75206d75737420626520746865206f776e657220746f206372656174652060008201527f7468652073616c65000000000000000000000000000000000000000000000000602082015250565b7f506c65617365207375626d6974207468652061736b696e67207072696365206960008201527f6e206f7264657220746f20636f6d706c65746520746865207075726368617365602082015250565b7f5265656e7472616e637947756172643a207265656e7472616e742063616c6c00600082015250565b7f5072696365206d757374206265206174206c6561737420312077656900000000600082015250565b612449816121d7565b811461245457600080fd5b50565b61246081612227565b811461246b57600080fd5b5056fea26469706673582212205be4258de5d36ff920668b653fdef86dc31b2be8f0096a0730529b6e9de41cb864736f6c63430008040033",
  "linkReferences": {},
  "deployedLinkReferences": {}
}