{
  "_format": "hh-sol-artifact-1",
  "contractName": "NFTMarket",
  "sourceName": "contracts/NFTMarket.sol",
  "abi": [
    {
      "inputs": [
        {
          "internalType": "address",
          "name": "_tokenAddress",
          "type": "address"
        }
      ],
      "stateMutability": "nonpayable",
      "type": "constructor"
    },
    {
      "anonymous": false,
      "inputs": [
        {
          "indexed": false,
          "internalType": "uint256",
          "name": "itemId",
          "type": "uint256"
        },
        {
          "indexed": false,
          "internalType": "address",
          "name": "nftContract",
          "type": "address"
        },
        {
          "indexed": false,
          "internalType": "uint256",
          "name": "tokenId",
          "type": "uint256"
        },
        {
          "indexed": false,
          "internalType": "bool",
          "name": "onSale",
          "type": "bool"
        },
        {
          "indexed": false,
          "internalType": "address payable",
          "name": "owner",
          "type": "address"
        },
        {
          "indexed": false,
          "internalType": "uint256",
          "name": "price",
          "type": "uint256"
        },
        {
          "indexed": false,
          "internalType": "address payable",
          "name": "highestBidder",
          "type": "address"
        },
        {
          "indexed": false,
          "internalType": "uint256",
          "name": "highestBid",
          "type": "uint256"
        },
        {
          "indexed": false,
          "internalType": "address payable[]",
          "name": "pendingBidders",
          "type": "address[]"
        },
        {
          "indexed": false,
          "internalType": "address payable[]",
          "name": "pendingOffers",
          "type": "address[]"
        },
        {
          "indexed": false,
          "internalType": "bool",
          "name": "auctionEnded",
          "type": "bool"
        }
      ],
      "name": "UpdatedMarketItem",
      "type": "event"
    },
    {
      "inputs": [
        {
          "internalType": "uint256",
          "name": "itemId",
          "type": "uint256"
        },
        {
          "internalType": "address",
          "name": "_offeringAddress",
          "type": "address"
        }
      ],
      "name": "acceptOffer",
      "outputs": [],
      "stateMutability": "nonpayable",
      "type": "function"
    },
    {
      "inputs": [
        {
          "internalType": "uint256",
          "name": "itemId",
          "type": "uint256"
        }
      ],
      "name": "cancelMarketSale",
      "outputs": [],
      "stateMutability": "nonpayable",
      "type": "function"
    },
    {
      "inputs": [
        {
          "internalType": "uint256",
          "name": "itemId",
          "type": "uint256"
        }
      ],
      "name": "createMarketAuction",
      "outputs": [],
      "stateMutability": "payable",
      "type": "function"
    },
    {
      "inputs": [
        {
          "internalType": "address",
          "name": "nftContract",
          "type": "address"
        },
        {
          "internalType": "uint256",
          "name": "tokenId",
          "type": "uint256"
        }
      ],
      "name": "createMarketItem",
      "outputs": [],
      "stateMutability": "nonpayable",
      "type": "function"
    },
    {
      "inputs": [
        {
          "internalType": "address",
          "name": "nftContract",
          "type": "address"
        },
        {
          "internalType": "uint256",
          "name": "tokenId",
          "type": "uint256"
        }
      ],
      "name": "createMarketItemForAuction",
      "outputs": [],
      "stateMutability": "nonpayable",
      "type": "function"
    },
    {
      "inputs": [
        {
          "internalType": "address",
          "name": "nftContract",
          "type": "address"
        },
        {
          "internalType": "uint256",
          "name": "tokenId",
          "type": "uint256"
        },
        {
          "internalType": "uint256",
          "name": "price",
          "type": "uint256"
        }
      ],
      "name": "createMarketItemForSale",
      "outputs": [],
      "stateMutability": "nonpayable",
      "type": "function"
    },
    {
      "inputs": [
        {
          "internalType": "uint256",
          "name": "itemId",
          "type": "uint256"
        },
        {
          "internalType": "uint256",
          "name": "price",
          "type": "uint256"
        }
      ],
      "name": "createMarketSale",
      "outputs": [],
      "stateMutability": "payable",
      "type": "function"
    },
    {
      "inputs": [],
      "name": "crowdSale",
      "outputs": [],
      "stateMutability": "payable",
      "type": "function"
    },
    {
      "inputs": [
        {
          "internalType": "uint256",
          "name": "_amount",
          "type": "uint256"
        }
      ],
      "name": "earn",
      "outputs": [],
      "stateMutability": "nonpayable",
      "type": "function"
    },
    {
      "inputs": [
        {
          "internalType": "uint256",
          "name": "itemId",
          "type": "uint256"
        }
      ],
      "name": "executeMarketAuctionEnd",
      "outputs": [],
      "stateMutability": "nonpayable",
      "type": "function"
    },
    {
      "inputs": [
        {
          "internalType": "uint256",
          "name": "itemId",
          "type": "uint256"
        }
      ],
      "name": "executeMarketSale",
      "outputs": [],
      "stateMutability": "payable",
      "type": "function"
    },
    {
      "inputs": [
        {
          "internalType": "uint256",
          "name": "pageNumber",
          "type": "uint256"
        },
        {
          "internalType": "uint256",
          "name": "pageSize",
          "type": "uint256"
        }
      ],
      "name": "fetchMarketItems",
      "outputs": [
        {
          "components": [
            {
              "internalType": "uint256",
              "name": "itemId",
              "type": "uint256"
            },
            {
              "internalType": "address",
              "name": "nftContract",
              "type": "address"
            },
            {
              "internalType": "uint256",
              "name": "tokenId",
              "type": "uint256"
            },
            {
              "internalType": "bool",
              "name": "onSale",
              "type": "bool"
            },
            {
              "internalType": "address payable",
              "name": "owner",
              "type": "address"
            },
            {
              "internalType": "uint256",
              "name": "price",
              "type": "uint256"
            },
            {
              "internalType": "address payable",
              "name": "highestBidder",
              "type": "address"
            },
            {
              "internalType": "uint256",
              "name": "highestBid",
              "type": "uint256"
            },
            {
              "internalType": "address payable[]",
              "name": "pendingBidders",
              "type": "address[]"
            },
            {
              "internalType": "address payable[]",
              "name": "pendingOffers",
              "type": "address[]"
            },
            {
              "internalType": "bool",
              "name": "auctionEnded",
              "type": "bool"
            }
          ],
          "internalType": "struct NFTMarket.MarketItem[]",
          "name": "",
          "type": "tuple[]"
        }
      ],
      "stateMutability": "view",
      "type": "function"
    },
    {
      "inputs": [
        {
          "internalType": "uint256",
          "name": "itemId",
          "type": "uint256"
        },
        {
          "internalType": "address",
          "name": "giftingAddress",
          "type": "address"
        }
      ],
      "name": "giftMarketItem",
      "outputs": [],
      "stateMutability": "nonpayable",
      "type": "function"
    },
    {
      "inputs": [
        {
          "internalType": "uint256",
          "name": "",
          "type": "uint256"
        }
      ],
      "name": "idToMarketItem",
      "outputs": [
        {
          "internalType": "uint256",
          "name": "itemId",
          "type": "uint256"
        },
        {
          "internalType": "address",
          "name": "nftContract",
          "type": "address"
        },
        {
          "internalType": "uint256",
          "name": "tokenId",
          "type": "uint256"
        },
        {
          "internalType": "bool",
          "name": "onSale",
          "type": "bool"
        },
        {
          "internalType": "address payable",
          "name": "owner",
          "type": "address"
        },
        {
          "internalType": "uint256",
          "name": "price",
          "type": "uint256"
        },
        {
          "internalType": "address payable",
          "name": "highestBidder",
          "type": "address"
        },
        {
          "internalType": "uint256",
          "name": "highestBid",
          "type": "uint256"
        },
        {
          "internalType": "bool",
          "name": "auctionEnded",
          "type": "bool"
        }
      ],
      "stateMutability": "view",
      "type": "function"
    },
    {
      "inputs": [],
      "name": "listingPrice",
      "outputs": [
        {
          "internalType": "uint256",
          "name": "",
          "type": "uint256"
        }
      ],
      "stateMutability": "view",
      "type": "function"
    },
    {
      "inputs": [
        {
          "internalType": "uint256",
          "name": "itemId",
          "type": "uint256"
        }
      ],
      "name": "makeAuctionBid",
      "outputs": [],
      "stateMutability": "payable",
      "type": "function"
    },
    {
      "inputs": [
        {
          "internalType": "uint256",
          "name": "itemId",
          "type": "uint256"
        }
      ],
      "name": "makeOffer",
      "outputs": [],
      "stateMutability": "payable",
      "type": "function"
    },
    {
      "inputs": [
        {
          "internalType": "uint256",
          "name": "",
          "type": "uint256"
        },
        {
          "internalType": "address",
          "name": "",
          "type": "address"
        }
      ],
      "name": "pendingOffers",
      "outputs": [
        {
          "internalType": "uint256",
          "name": "",
          "type": "uint256"
        }
      ],
      "stateMutability": "view",
      "type": "function"
    },
    {
      "inputs": [
        {
          "internalType": "uint256",
          "name": "",
          "type": "uint256"
        },
        {
          "internalType": "address",
          "name": "",
          "type": "address"
        }
      ],
      "name": "pendingReturns",
      "outputs": [
        {
          "internalType": "uint256",
          "name": "",
          "type": "uint256"
        }
      ],
      "stateMutability": "view",
      "type": "function"
    },
    {
      "inputs": [
        {
          "internalType": "uint256",
          "name": "itemId",
          "type": "uint256"
        }
      ],
      "name": "rejectAllOffers",
      "outputs": [],
      "stateMutability": "nonpayable",
      "type": "function"
    },
    {
      "inputs": [
        {
          "internalType": "uint256",
          "name": "itemId",
          "type": "uint256"
        },
        {
          "internalType": "address",
          "name": "_offeringAddress",
          "type": "address"
        }
      ],
      "name": "rejectOffer",
      "outputs": [],
      "stateMutability": "nonpayable",
      "type": "function"
    },
    {
      "inputs": [
        {
          "internalType": "uint256",
          "name": "_listingPrice",
          "type": "uint256"
        }
      ],
      "name": "setListingPrice",
      "outputs": [],
      "stateMutability": "nonpayable",
      "type": "function"
    },
    {
      "inputs": [
        {
          "internalType": "uint256",
          "name": "_tokenRate",
          "type": "uint256"
        }
      ],
      "name": "setTokenRate",
      "outputs": [],
      "stateMutability": "nonpayable",
      "type": "function"
    },
    {
      "inputs": [],
      "name": "tokenRate",
      "outputs": [
        {
          "internalType": "uint256",
          "name": "",
          "type": "uint256"
        }
      ],
      "stateMutability": "view",
      "type": "function"
    },
    {
      "inputs": [
        {
          "internalType": "uint256",
          "name": "itemId",
          "type": "uint256"
        }
      ],
      "name": "withdrawAuctionBid",
      "outputs": [],
      "stateMutability": "nonpayable",
      "type": "function"
    },
    {
      "inputs": [
        {
          "internalType": "uint256",
          "name": "itemId",
          "type": "uint256"
        }
      ],
      "name": "withdrawOffer",
      "outputs": [],
      "stateMutability": "nonpayable",
      "type": "function"
    }
  ],
  "bytecode": "0x608060405260016003556103e86005553480156200001c57600080fd5b5060405162004a4c38038062004a4c8339810160408190526200003f9162000078565b600160005560028054336001600160a01b031991821617909155600480549091166001600160a01b0392909216919091179055620000a8565b6000602082840312156200008a578081fd5b81516001600160a01b0381168114620000a1578182fd5b9392505050565b61499480620000b86000396000f3fe6080604052600436106101815760003560e01c80639a2f6474116100d1578063c78f19f91161008a578063db9371c211610064578063db9371c21461042b578063dd5f85181461044b578063e61a70c01461046b578063e65a01171461053957600080fd5b8063c78f19f9146103e2578063cfd825a2146103f8578063d138a94f1461041857600080fd5b80639a2f647414610356578063a1c11ca814610369578063b8f1eb6c1461037c578063bd1ecd611461039c578063c3a3b8ea146103bc578063c63f6181146103cf57600080fd5b80637063b64e1161013e5780638610f045116101185780638610f045146102be5780638877fafa146102de5780638ddac1ef146102fe578063918d407d1461033657600080fd5b80637063b64e146102695780637770bd15146102965780637c726b691461029e57600080fd5b80631ae1b70114610186578063283f766c146101a8578063298a0fde146101c8578063317118841461021357806349a2f5bf1461022957806361241c2814610249575b600080fd5b34801561019257600080fd5b506101a66101a13660046142c6565b610559565b005b3480156101b457600080fd5b506101a66101c336600461431a565b610952565b3480156101d457600080fd5b506102006101e3366004614332565b600860209081526000928352604080842090915290825290205481565b6040519081526020015b60405180910390f35b34801561021f57600080fd5b5061020060055481565b34801561023557600080fd5b506101a661024436600461431a565b610e3f565b34801561025557600080fd5b506101a661026436600461431a565b6112f4565b34801561027557600080fd5b50610289610284366004614361565b611323565b60405161020a9190614424565b6101a6611753565b3480156102aa57600080fd5b506101a66102b936600461431a565b611841565b3480156102ca57600080fd5b506101a66102d936600461431a565b611870565b3480156102ea57600080fd5b506101a66102f9366004614332565b611ac3565b34801561030a57600080fd5b50610200610319366004614332565b600760209081526000928352604080842090915290825290205481565b34801561034257600080fd5b506101a6610351366004614332565b611dae565b6101a661036436600461431a565b6124ed565b6101a6610377366004614361565b612640565b34801561038857600080fd5b506101a661039736600461431a565b6129d8565b3480156103a857600080fd5b506101a66103b736600461429b565b612e1f565b6101a66103ca36600461431a565b6131b7565b6101a66103dd36600461431a565b6133fb565b3480156103ee57600080fd5b5061020060035481565b34801561040457600080fd5b506101a661041336600461431a565b6137e0565b6101a661042636600461431a565b6138f9565b34801561043757600080fd5b506101a6610446366004614332565b613b2b565b34801561045757600080fd5b506101a661046636600461429b565b613e15565b34801561047757600080fd5b506104e661048636600461431a565b60066020819052600091825260409091208054600182015460028301546003840154600485015460058601549686015460099096015494966001600160a01b0394851696939560ff80851696610100909504851695939490921692911689565b60408051998a526001600160a01b0398891660208b01528901969096529315156060880152918516608087015260a086015290921660c084015260e083019190915215156101008201526101200161020a565b34801561054557600080fd5b506101a661055436600461431a565b6140ab565b600260005414156105855760405162461bcd60e51b815260040161057c906147af565b60405180910390fd5b6002600055806105d75760405162461bcd60e51b815260206004820152601f60248201527f5072696365204d7573742042652047726561746572205468616e205a65726f00604482015260640161057c565b6040516331a9108f60e11b81526004810183905233906001600160a01b03851690636352211e9060240160206040518083038186803b15801561061957600080fd5b505afa15801561062d573d6000803e3d6000fd5b505050506040513d601f19601f820116820180604052508101906106519190614278565b6001600160a01b0316146106775760405162461bcd60e51b815260040161057c9061452b565b60405163020604bf60e21b81526004810183905230906001600160a01b0385169063081812fc9060240160206040518083038186803b1580156106b957600080fd5b505afa1580156106cd573d6000803e3d6000fd5b505050506040513d601f19601f820116820180604052508101906106f19190614278565b6001600160a01b0316146107175760405162461bcd60e51b815260040161057c90614709565b6060610727600180546001019055565b600061073260015490565b9050604051806101600160405280828152602001866001600160a01b03168152602001858152602001600115158152602001336001600160a01b03168152602001848152602001336001600160a01b031681526020016000815260200183815260200183815260200160011515815250600660008381526020019081526020016000206000820151816000015560208201518160010160006101000a8154816001600160a01b0302191690836001600160a01b031602179055506040820151816002015560608201518160030160006101000a81548160ff02191690831515021790555060808201518160030160016101000a8154816001600160a01b0302191690836001600160a01b0316021790555060a0820151816004015560c08201518160050160006101000a8154816001600160a01b0302191690836001600160a01b0316021790555060e082015181600601556101008201518160070190805190602001906108a19291906141fe565b5061012082015180516108be9160088401916020909101906141fe565b5061014091909101516009909101805460ff19169115159190911790556040516323b872dd60e01b81526001600160a01b038616906323b872dd9061090b90339030908990600401614400565b600060405180830381600087803b15801561092557600080fd5b505af1158015610939573d6000803e3d6000fd5b5050505061094681614161565b50506001600055505050565b600260005414156109755760405162461bcd60e51b815260040161057c906147af565b600260009081558181526006602052604090206009015460ff16156109dc5760405162461bcd60e51b815260206004820152601e60248201527f41756374696f6e20466f722054686973204e46542048617320456e6465640000604482015260640161057c565b6000818152600660205260409020600501546001600160a01b03163314610b66576000818152600760209081526040808320338452909152902054610a335760405162461bcd60e51b815260040161057c90614631565b6000818152600760209081526040808320338085529252808320549051909283156108fc02918491818181858888f19350505050158015610a78573d6000803e3d6000fd5b50600082815260076020908152604080832033845290915281208190555b600083815260066020526040902060070154811015610b5f576000838152600660205260409020600701805433919083908110610ae357634e487b7160e01b600052603260045260246000fd5b6000918252602090912001546001600160a01b03161415610b4d576000838152600660205260409020600701805482908110610b2f57634e487b7160e01b600052603260045260246000fd5b600091825260209091200180546001600160a01b0319169055610b5f565b80610b57816148f5565b915050610a96565b5050610e2e565b6000818152600660205260409020600501546001600160a01b03163314610b9f5760405162461bcd60e51b815260040161057c90614631565b60008181526006602081905260408083209091015490519091339183156108fc0291849190818181858888f19350505050158015610be1573d6000803e3d6000fd5b50600082815260066020526040812060038101546007909101546101009091046001600160a01b0316908290610c18906001614870565b905060005b600086815260066020526040902060070154811015610d785760008681526007602081815260408084206001600160a01b0388168552808352818520548b86526006909352908420909201805491939185908110610c8b57634e487b7160e01b600052603260045260246000fd5b60009182526020808320909101546001600160a01b031683528201929092526040019020541115610d66576000868152600660205260409020600701805482908110610ce757634e487b7160e01b600052603260045260246000fd5b600091825260208083209091015488835260078083526040808520600690945284200180546001600160a01b0390921696509192919084908110610d3b57634e487b7160e01b600052603260045260246000fd5b60009182526020808320909101546001600160a01b0316835282019290925260400190205493509050805b80610d70816148f5565b915050610c1d565b5060008581526006602081815260408084206005810180546001600160a01b0319166001600160a01b0389169081179091558185018990556007808552838720918752908452918520859055938990529190520154610dd8906001614870565b8114610e29576000858152600660205260409020600701805482908110610e0f57634e487b7160e01b600052603260045260246000fd5b600091825260209091200180546001600160a01b03191690555b505050505b610e3781614161565b506001600055565b60026000541415610e625760405162461bcd60e51b815260040161057c906147af565b600260009081558181526006602052604090206009015460ff1615610ed85760405162461bcd60e51b815260206004820152602660248201527f41756374696f6e20466f722054686973204e46542048617320416c726561647960448201526508115b99195960d21b606482015260840161057c565b600081815260066020819052604090912090810154600582015460029092015490916001600160a01b03169060608315610fd757600085815260066020526040902060039081015490546101009091046001600160a01b0316906108fc90606490610f4390826148c7565b610f4d90886148a8565b610f579190614888565b6040518115909202916000818181858888f19350505050158015610f7f573d6000803e3d6000fd5b506002546003546001600160a01b03909116906108fc90606490610fa390886148a8565b610fad9190614888565b6040518115909202916000818181858888f19350505050158015610fd5573d6000803e3d6000fd5b505b600085815260066020526040908190206001015490516323b872dd60e01b81526001600160a01b03909116906323b872dd9061101b90309087908790600401614400565b600060405180830381600087803b15801561103557600080fd5b505af1158015611049573d6000803e3d6000fd5b5050505060005b60008681526006602052604090206007015481101561126f57600086815260066020526040812060070180548390811061109a57634e487b7160e01b600052603260045260246000fd5b6000918252602090912001546001600160a01b03161480159061111d57506000868152600760208181526040808420600690925283209091018054839190859081106110f657634e487b7160e01b600052603260045260246000fd5b60009182526020808320909101546001600160a01b03168352820192909252604001902054115b1561125d57600086815260066020526040902060070180548290811061115357634e487b7160e01b600052603260045260246000fd5b600091825260208083209091015488835260078083526040808520600690945284200180546001600160a01b03909216936108fc9392909190869081106111aa57634e487b7160e01b600052603260045260246000fd5b60009182526020808320909101546001600160a01b03168352820192909252604090810182205490518115909302929091818181858888f193505050501580156111f8573d6000803e3d6000fd5b5060008681526007602081815260408084206006909252832090910180548391908590811061123757634e487b7160e01b600052603260045260246000fd5b60009182526020808320909101546001600160a01b031683528201929092526040019020555b80611267816148f5565b915050611050565b506000858152600660208181526040832060038101805460ff196001600160a01b038a16610100810282166001600160a81b0319909316929092179092556005830180546001600160a01b03191690911790559281019390935560098301805490921660011790915582516112ea92600701918401906141fe565b5061094685614161565b6002546001600160a01b0316331461131e5760405162461bcd60e51b815260040161057c906145a2565b600555565b6060600061133060015490565b9050600061133e84866148a8565b611349906001614870565b905060008467ffffffffffffffff81111561137457634e487b7160e01b600052604160045260246000fd5b6040519080825280602002602001820160405280156113fa57816020015b60408051610160810182526000808252602080830182905292820181905260608083018290526080830182905260a0830182905260c0830182905260e08301829052610100830181905261012083015261014082015282526000199092019101816113925790505b509050825b828110158015611410575060018110155b156115a3576000818152600660208181526040928390208351610160810185528154815260018201546001600160a01b0390811682850152600283015482870152600383015460ff8116151560608401526101009081900482166080840152600484015460a0840152600584015490911660c08301529382015460e0820152600782018054865181860281018601909752808752919592948601939091908301828280156114e757602002820191906000526020600020905b81546001600160a01b031681526001909101906020018083116114c9575b505050505081526020016008820180548060200260200160405190810160405280929190818152602001828054801561154957602002820191906000526020600020905b81546001600160a01b0316815260019091019060200180831161152b575b50505091835250506009919091015460ff161515602090910152825183908390811061158557634e487b7160e01b600052603260045260246000fd5b6020026020010181905250808061159b906148de565b9150506113ff565b5060005b6000831180156115b657508581105b15611749576000818152600660208181526040928390208351610160810185528154815260018201546001600160a01b0390811682850152600283015482870152600383015460ff8116151560608401526101009081900482166080840152600484015460a0840152600584015490911660c08301529382015460e08201526007820180548651818602810186019097528087529195929486019390919083018282801561168d57602002820191906000526020600020905b81546001600160a01b0316815260019091019060200180831161166f575b50505050508152602001600882018054806020026020016040519081016040528092919081815260200182805480156116ef57602002820191906000526020600020905b81546001600160a01b031681526001909101906020018083116116d1575b50505091835250506009919091015460ff161515602090910152825183908390811061172b57634e487b7160e01b600052603260045260246000fd5b60200260200101819052508080611741906148f5565b9150506115a7565b5095945050505050565b600260005414156117765760405162461bcd60e51b815260040161057c906147af565b60026000556004805460405163a9059cbb60e01b815233928101929092523460248301526001600160a01b03169063a9059cbb90604401602060405180830381600087803b1580156117c757600080fd5b505af11580156117db573d6000803e3d6000fd5b505050506040513d601f19601f820116820180604052508101906117ff91906142fa565b61180857600080fd5b6002546040516001600160a01b03909116903480156108fc02916000818181858888f19350505050158015610e37573d6000803e3d6000fd5b6002546001600160a01b0316331461186b5760405162461bcd60e51b815260040161057c906145a2565b600355565b600260005414156118935760405162461bcd60e51b815260040161057c906147af565b600260009081558181526006602052604090206009015460ff166118c95760405162461bcd60e51b815260040161057c906146d9565b600081815260066020526040902060040154156118f85760405162461bcd60e51b815260040161057c90614782565b60008181526008602090815260408083203384529091529020546119845760405162461bcd60e51b815260206004820152603960248201527f596f7520446f6e2774204861766520416e79204578697374696e67204f66666560448201527f7220546f205769746864726177204f6e2054686973204e465400000000000000606482015260840161057c565b6000818152600860209081526040808320338085529252808320549051909283156108fc02918491818181858888f193505050501580156119c9573d6000803e3d6000fd5b50600082815260086020908152604080832033845290915281208190555b600083815260066020526040902060080154811015611ab0576000838152600660205260409020600801805433919083908110611a3457634e487b7160e01b600052603260045260246000fd5b6000918252602090912001546001600160a01b03161415611a9e576000838152600660205260409020600801805482908110611a8057634e487b7160e01b600052603260045260246000fd5b600091825260209091200180546001600160a01b0319169055611ab0565b80611aa8816148f5565b9150506119e7565b50611aba82614161565b50506001600055565b60026000541415611ae65760405162461bcd60e51b815260040161057c906147af565b600260008181558381526006602052604090819020600181015492015490516331a9108f60e11b8152600481019190915233916001600160a01b031690636352211e9060240160206040518083038186803b158015611b4457600080fd5b505afa158015611b58573d6000803e3d6000fd5b505050506040513d601f19601f82011682018060405250810190611b7c9190614278565b6001600160a01b031614611ba25760405162461bcd60e51b815260040161057c9061456b565b600082815260066020526040908190206001810154600290910154915163020604bf60e21b8152600481019290925230916001600160a01b039091169063081812fc9060240160206040518083038186803b158015611c0057600080fd5b505afa158015611c14573d6000803e3d6000fd5b505050506040513d601f19601f82011682018060405250810190611c389190614278565b6001600160a01b031614611c5e5760405162461bcd60e51b815260040161057c90614709565b60008281526006602052604090206003015461010090046001600160a01b03163314611c9c5760405162461bcd60e51b815260040161057c9061456b565b6001600160a01b038116611cf25760405162461bcd60e51b815260206004820152601f60248201527f47696674696e6720416464726573732053686f756c642062652056616c696400604482015260640161057c565b6000828152600660205260409081902060018101546002909101549151632142170760e11b81526001600160a01b03909116916342842e0e91611d3c913391869190600401614400565b600060405180830381600087803b158015611d5657600080fd5b505af1158015611d6a573d6000803e3d6000fd5b50505060008381526006602052604081206003810180546001600160a81b0319166101006001600160a01b0387160260ff19161790556004015550611aba82614161565b60026000541415611dd15760405162461bcd60e51b815260040161057c906147af565b600260009081558281526006602052604090206003015461010090046001600160a01b03163314611e145760405162461bcd60e51b815260040161057c906145ee565b60008281526006602052604090819020600181015460029091015491516331a9108f60e11b8152600481019290925233916001600160a01b0390911690636352211e9060240160206040518083038186803b158015611e7257600080fd5b505afa158015611e86573d6000803e3d6000fd5b505050506040513d601f19601f82011682018060405250810190611eaa9190614278565b6001600160a01b031614611ed05760405162461bcd60e51b815260040161057c906145ee565b600082815260066020526040908190206001810154600290910154915163020604bf60e21b8152600481019290925230916001600160a01b039091169063081812fc9060240160206040518083038186803b158015611f2e57600080fd5b505afa158015611f42573d6000803e3d6000fd5b505050506040513d601f19601f82011682018060405250810190611f669190614278565b6001600160a01b031614611f8c5760405162461bcd60e51b815260040161057c90614709565b60008281526006602052604090206009015460ff16611fed5760405162461bcd60e51b815260206004820181905260248201527f54686973204e46542069732043757272656e746c79206f6e2041756374696f6e604482015260640161057c565b60008281526008602090815260408083206001600160a01b03851684529091529020546120825760405162461bcd60e51b815260206004820152603960248201527f54686973204164647265737320446f65736e2774204861766520416e7920437560448201527f7272656e74204f666665727320466f722054686973204e465400000000000000606482015260840161057c565b60008281526008602090815260408083206001600160a01b03808616855290835281842054868552600690935292206003908101549054919260609261010090920416906108fc906064906120d790826148c7565b6120e190866148a8565b6120eb9190614888565b6040518115909202916000818181858888f19350505050158015612113573d6000803e3d6000fd5b506002546003546001600160a01b03909116906108fc9060649061213790866148a8565b6121419190614888565b6040518115909202916000818181858888f19350505050158015612169573d6000803e3d6000fd5b5060008481526006602052604090819020600181015460038201546002909201549251632142170760e11b81526001600160a01b03918216936342842e0e936121bf936101009091041691889190600401614400565b600060405180830381600087803b1580156121d957600080fd5b505af11580156121ed573d6000803e3d6000fd5b50505060008581526008602090815260408083206001600160a01b0388168452909152812081905590505b60008581526006602052604090206008015481101561243757600085815260066020526040812060080180548390811061226257634e487b7160e01b600052603260045260246000fd5b6000918252602090912001546001600160a01b0316148015906122e557506000858152600860208181526040808420600690925283209091018054839190859081106122be57634e487b7160e01b600052603260045260246000fd5b60009182526020808320909101546001600160a01b03168352820192909252604001902054115b1561242557600085815260066020526040902060080180548290811061231b57634e487b7160e01b600052603260045260246000fd5b600091825260208083209091015487835260088083526040808520600690945284200180546001600160a01b03909216936108fc93929091908690811061237257634e487b7160e01b600052603260045260246000fd5b60009182526020808320909101546001600160a01b03168352820192909252604090810182205490518115909302929091818181858888f193505050501580156123c0573d6000803e3d6000fd5b506000858152600760209081526040808320600690925282206008018054839190859081106123ff57634e487b7160e01b600052603260045260246000fd5b60009182526020808320909101546001600160a01b031683528201929092526040019020555b8061242f816148f5565b915050612218565b506000848152600660208181526040832060038101805460ff196001600160a01b038a16610100810282166001600160a81b0319909316929092179092556005830180546001600160a01b03191690911790559281019390935560098301805490921660011790915582516124b292600701918401906141fe565b50600084815260066020908152604090912082516124d8926008909201918401906141fe565b506124e284614161565b505060016000555050565b600260005414156125105760405162461bcd60e51b815260040161057c906147af565b600260009081558181526006602052604090206009015460ff166125465760405162461bcd60e51b815260040161057c906146d9565b600081815260066020526040902060040154156125755760405162461bcd60e51b815260040161057c90614782565b6000818152600860209081526040808320338452909152902054156125eb5760405162461bcd60e51b815260206004820152602660248201527f596f7520416c7265616479204861766520616e204f6666657220466f722054686044820152651a5cc813919560d21b606482015260840161057c565b600081815260086020818152604080842033808652908352818520349055858552600683529084209092018054600181018255908452922090910180546001600160a01b0319169091179055610e3781614161565b600260005414156126635760405162461bcd60e51b815260040161057c906147af565b6002600081815583815260066020526040908190209182015460019092015490516331a9108f60e11b8152600481018390526001600160a01b039091169033908290636352211e9060240160206040518083038186803b1580156126c657600080fd5b505afa1580156126da573d6000803e3d6000fd5b505050506040513d601f19601f820116820180604052508101906126fe9190614278565b6001600160a01b0316146127245760405162461bcd60e51b815260040161057c9061452b565b60405163020604bf60e21b81526004810183905230906001600160a01b0383169063081812fc9060240160206040518083038186803b15801561276657600080fd5b505afa15801561277a573d6000803e3d6000fd5b505050506040513d601f19601f8201168201806040525081019061279e9190614278565b6001600160a01b0316146127c45760405162461bcd60e51b815260040161057c90614709565b6060604051806101600160405280868152602001836001600160a01b03168152602001848152602001600115158152602001336001600160a01b03168152602001858152602001336001600160a01b031681526020016000815260200182815260200182815260200160011515815250600660008781526020019081526020016000206000820151816000015560208201518160010160006101000a8154816001600160a01b0302191690836001600160a01b031602179055506040820151816002015560608201518160030160006101000a81548160ff02191690831515021790555060808201518160030160016101000a8154816001600160a01b0302191690836001600160a01b0316021790555060a0820151816004015560c08201518160050160006101000a8154816001600160a01b0302191690836001600160a01b0316021790555060e082015181600601556101008201518160070190805190602001906129339291906141fe565b5061012082015180516129509160088401916020909101906141fe565b5061014091909101516009909101805460ff19169115159190911790556040516323b872dd60e01b81526001600160a01b038316906323b872dd9061299d90339030908890600401614400565b600060405180830381600087803b1580156129b757600080fd5b505af11580156129cb573d6000803e3d6000fd5b5050505061094685614161565b600260005414156129fb5760405162461bcd60e51b815260040161057c906147af565b600260009081558181526006602052604090206009015460ff16612a6b5760405162461bcd60e51b815260206004820152602160248201527f54686973204e46542069732043757272656e746c79206f6e2041756374696f6e6044820152601760f91b606482015260840161057c565b600081815260066020526040902060080154612adb5760405162461bcd60e51b815260206004820152602960248201527f54686973204e465420446f65736e2774204861766520416e792043757272656e6044820152683a1027b33332b9399760b91b606482015260840161057c565b60008181526006602052604090206003015461010090046001600160a01b03163314612b195760405162461bcd60e51b815260040161057c90614740565b60008181526006602052604090819020600181015460029091015491516331a9108f60e11b8152600481019290925233916001600160a01b0390911690636352211e9060240160206040518083038186803b158015612b7757600080fd5b505afa158015612b8b573d6000803e3d6000fd5b505050506040513d601f19601f82011682018060405250810190612baf9190614278565b6001600160a01b031614612bd55760405162461bcd60e51b815260040161057c9061468e565b606060005b600083815260066020526040902060080154811015612df9576000838152600660205260408120600801805483908110612c2457634e487b7160e01b600052603260045260246000fd5b6000918252602090912001546001600160a01b031614801590612ca75750600083815260086020818152604080842060069092528320909101805483919085908110612c8057634e487b7160e01b600052603260045260246000fd5b60009182526020808320909101546001600160a01b03168352820192909252604001902054115b15612de7576000838152600660205260409020600801805482908110612cdd57634e487b7160e01b600052603260045260246000fd5b600091825260208083209091015485835260088083526040808520600690945284200180546001600160a01b03909216936108fc939290919086908110612d3457634e487b7160e01b600052603260045260246000fd5b60009182526020808320909101546001600160a01b03168352820192909252604090810182205490518115909302929091818181858888f19350505050158015612d82573d6000803e3d6000fd5b50600083815260086020818152604080842060069092528320909101805483919085908110612dc157634e487b7160e01b600052603260045260246000fd5b60009182526020808320909101546001600160a01b031683528201929092526040019020555b80612df1816148f5565b915050612bda565b5060008281526006602090815260409091208251611ab0926008909201918401906141fe565b60026000541415612e425760405162461bcd60e51b815260040161057c906147af565b600260005560405163020604bf60e21b81526004810182905230906001600160a01b0384169063081812fc9060240160206040518083038186803b158015612e8957600080fd5b505afa158015612e9d573d6000803e3d6000fd5b505050506040513d601f19601f82011682018060405250810190612ec19190614278565b6001600160a01b031614612ee75760405162461bcd60e51b815260040161057c90614709565b6040516331a9108f60e11b81526004810182905233906001600160a01b03841690636352211e9060240160206040518083038186803b158015612f2957600080fd5b505afa158015612f3d573d6000803e3d6000fd5b505050506040513d601f19601f82011682018060405250810190612f619190614278565b6001600160a01b031614612f875760405162461bcd60e51b815260040161057c9061452b565b6060612f97600180546001019055565b6000612fa260015490565b9050604051806101600160405280828152602001856001600160a01b03168152602001848152602001600015158152602001336001600160a01b0316815260200160008152602001336001600160a01b031681526020016000815260200183815260200183815260200160001515815250600660008381526020019081526020016000206000820151816000015560208201518160010160006101000a8154816001600160a01b0302191690836001600160a01b031602179055506040820151816002015560608201518160030160006101000a81548160ff02191690831515021790555060808201518160030160016101000a8154816001600160a01b0302191690836001600160a01b0316021790555060a0820151816004015560c08201518160050160006101000a8154816001600160a01b0302191690836001600160a01b0316021790555060e082015181600601556101008201518160070190805190602001906131129291906141fe565b50610120820151805161312f9160088401916020909101906141fe565b5061014091909101516009909101805460ff19169115159190911790556040516323b872dd60e01b81526001600160a01b038516906323b872dd9061317c90339030908890600401614400565b600060405180830381600087803b15801561319657600080fd5b505af11580156131aa573d6000803e3d6000fd5b505050506124e281614161565b600260005414156131da5760405162461bcd60e51b815260040161057c906147af565b600260009081558181526006602052604090206009015460ff16156132415760405162461bcd60e51b815260206004820152601e60248201527f41756374696f6e20466f722054686973204e46542048617320456e6465640000604482015260640161057c565b6000818152600760209081526040808320338452909152902054156132b45760405162461bcd60e51b815260206004820152602360248201527f596f7520416c7265616479204861766520612042696420466f7220546869732060448201526213919560ea1b606482015260840161057c565b600081815260066020819052604090912060058101549101546001600160a01b03909116903481101561339b5760008381526006602081905260409091206005810180546001600160a01b0319163317905534910155801580159061333b57506000838152600660205260409020600301546001600160a01b038381166101009092041614155b15613396576000838152600660209081526040808320600790810180546001810182559085528385200180546001600160a01b0319166001600160a01b03881690811790915587855290835281842090845290915290208190555b6133e8565b600083815260076020818152604080842033808652908352818520349055878552600683529084209092018054600181018255908452922090910180546001600160a01b03191690911790555b6133f183614161565b5050600160005550565b6002600054141561341e5760405162461bcd60e51b815260040161057c906147af565b6002600081815582815260066020526040908190209182015460019092015490516331a9108f60e11b8152600481018390526001600160a01b039091169033908290636352211e9060240160206040518083038186803b15801561348157600080fd5b505afa158015613495573d6000803e3d6000fd5b505050506040513d601f19601f820116820180604052508101906134b99190614278565b6001600160a01b03161461352b5760405162461bcd60e51b815260206004820152603360248201527f596f75204d75737420426520546865204f776e65722054686973204e46542054604482015272379021b932b0ba329020b71020bab1ba34b7b760691b606482015260840161057c565b60405163020604bf60e21b81526004810183905230906001600160a01b0383169063081812fc9060240160206040518083038186803b15801561356d57600080fd5b505afa158015613581573d6000803e3d6000fd5b505050506040513d601f19601f820116820180604052508101906135a59190614278565b6001600160a01b0316146135cb5760405162461bcd60e51b815260040161057c90614709565b6060604051806101600160405280858152602001836001600160a01b03168152602001848152602001600015158152602001336001600160a01b0316815260200160008152602001336001600160a01b031681526020016000815260200182815260200182815260200160001515815250600660008681526020019081526020016000206000820151816000015560208201518160010160006101000a8154816001600160a01b0302191690836001600160a01b031602179055506040820151816002015560608201518160030160006101000a81548160ff02191690831515021790555060808201518160030160016101000a8154816001600160a01b0302191690836001600160a01b0316021790555060a0820151816004015560c08201518160050160006101000a8154816001600160a01b0302191690836001600160a01b0316021790555060e0820151816006015561010082015181600701908051906020019061373b9291906141fe565b5061012082015180516137589160088401916020909101906141fe565b5061014091909101516009909101805460ff19169115159190911790556040516323b872dd60e01b81526001600160a01b038316906323b872dd906137a590339030908890600401614400565b600060405180830381600087803b1580156137bf57600080fd5b505af11580156137d3573d6000803e3d6000fd5b505050506124e284614161565b600260005414156138035760405162461bcd60e51b815260040161057c906147af565b600260009081558181526006602052604090206003015461010090046001600160a01b031633146138465760405162461bcd60e51b815260040161057c90614740565b60008181526006602052604090819020600181015460029091015491516323b872dd60e01b81526001600160a01b03909116916323b872dd91613890913091339190600401614400565b600060405180830381600087803b1580156138aa57600080fd5b505af11580156138be573d6000803e3d6000fd5b50505060008281526006602052604081206003810180546001600160a81b031916336101000260ff19161790556004015550610e3781614161565b6002600054141561391c5760405162461bcd60e51b815260040161057c906147af565b600260009081558181526006602052604090206004015434146139a9576040805162461bcd60e51b81526020600482015260248101919091527f506c65617365205375626d6974205468652041736b696e67205072696365204960448201527f6e204f7264657220546f20436f6d706c65746520546865205075726368617365606482015260840161057c565b600081815260066020526040902060039081015490546101009091046001600160a01b0316906108fc906064906139e090826148c7565b6139ea90346148a8565b6139f49190614888565b6040518115909202916000818181858888f19350505050158015613a1c573d6000803e3d6000fd5b5060008181526006602052604090819020600181015460029091015491516323b872dd60e01b81526001600160a01b03909116916323b872dd91613a67913091339190600401614400565b600060405180830381600087803b158015613a8157600080fd5b505af1158015613a95573d6000803e3d6000fd5b5050506000828152600660205260408120600380820180546001600160a81b031916336101000260ff191617905560049091019190915560025490546001600160a01b0390911691506108fc90606490613aef90346148a8565b613af99190614888565b6040518115909202916000818181858888f19350505050158015613b21573d6000803e3d6000fd5b50610e3781614161565b60026000541415613b4e5760405162461bcd60e51b815260040161057c906147af565b600260009081558281526006602052604090206003015461010090046001600160a01b03163314613bcd5760405162461bcd60e51b8152602060048201526035602482015260008051602061493f8339815191526044820152742a102a37902932b532b1ba102a34329027b33332b960591b606482015260840161057c565b60008281526006602052604090206009015460ff16613bfe5760405162461bcd60e51b815260040161057c906146d9565b60008281526006602052604090206004015415613c2d5760405162461bcd60e51b815260040161057c90614782565b60008281526008602090815260408083206001600160a01b0385168452909152902054613cc4576040805162461bcd60e51b81526020600482015260248101919091527f54686973204164647265737320446f6e2774204861766520416e79204578697360448201527f74696e67204f6666657220546f2052656a656374204f6e2054686973204e4654606482015260840161057c565b60008281526008602090815260408083206001600160a01b0385168085529252808320549051909283156108fc02918491818181858888f19350505050158015613d12573d6000803e3d6000fd5b5060008381526008602090815260408083206001600160a01b038616845290915281208190555b600084815260066020526040902060080154811015613e0b57600084815260066020526040902060080180546001600160a01b038516919083908110613d8f57634e487b7160e01b600052603260045260246000fd5b6000918252602090912001546001600160a01b03161415613df9576000848152600660205260409020600801805482908110613ddb57634e487b7160e01b600052603260045260246000fd5b600091825260209091200180546001600160a01b0319169055613e0b565b80613e03816148f5565b915050613d39565b506133f183614161565b60026000541415613e385760405162461bcd60e51b815260040161057c906147af565b60026000556040516331a9108f60e11b81526004810182905233906001600160a01b03841690636352211e9060240160206040518083038186803b158015613e7f57600080fd5b505afa158015613e93573d6000803e3d6000fd5b505050506040513d601f19601f82011682018060405250810190613eb79190614278565b6001600160a01b031614613edd5760405162461bcd60e51b815260040161057c9061468e565b6060613eed600180546001019055565b6000613ef860015490565b9050604051806101600160405280828152602001856001600160a01b03168152602001848152602001600015158152602001336001600160a01b0316815260200160008152602001336001600160a01b031681526020016000815260200183815260200183815260200160011515815250600660008381526020019081526020016000206000820151816000015560208201518160010160006101000a8154816001600160a01b0302191690836001600160a01b031602179055506040820151816002015560608201518160030160006101000a81548160ff02191690831515021790555060808201518160030160016101000a8154816001600160a01b0302191690836001600160a01b0316021790555060a0820151816004015560c08201518160050160006101000a8154816001600160a01b0302191690836001600160a01b0316021790555060e082015181600601556101008201518160070190805190602001906140689291906141fe565b5061012082015180516140859160088401916020909101906141fe565b5061014091909101516009909101805460ff19169115159190911790556124e281614161565b600260005414156140ce5760405162461bcd60e51b815260040161057c906147af565b60026000556004805460405163a9059cbb60e01b81523392810192909252602482018390526001600160a01b03169063a9059cbb90604401602060405180830381600087803b15801561412057600080fd5b505af1158015614134573d6000803e3d6000fd5b505050506040513d601f19601f8201168201806040525081019061415891906142fa565b610e3757600080fd5b6000818152600660208190526040918290206001810154600282015460038301546004840154600585015495850154600986015497517fb904cde3c0136d554f4bd79941bd1a09f5cb0f6ad00ab53e8cbc49406c0639fb986141f3988b986001600160a01b039889169860ff8089169861010090048216979691909316949093600783019360089093019216906147e6565b60405180910390a150565b828054828255906000526020600020908101928215614253579160200282015b8281111561425357825182546001600160a01b0319166001600160a01b0390911617825560209092019160019091019061421e565b5061425f929150614263565b5090565b5b8082111561425f5760008155600101614264565b600060208284031215614289578081fd5b815161429481614926565b9392505050565b600080604083850312156142ad578081fd5b82356142b881614926565b946020939093013593505050565b6000806000606084860312156142da578081fd5b83356142e581614926565b95602085013595506040909401359392505050565b60006020828403121561430b578081fd5b81518015158114614294578182fd5b60006020828403121561432b578081fd5b5035919050565b60008060408385031215614344578182fd5b82359150602083013561435681614926565b809150509250929050565b60008060408385031215614373578182fd5b50508035926020909101359150565b6000815180845260208085019450808401835b838110156143ba5781516001600160a01b031687529582019590820190600101614395565b509495945050505050565b6000815480845260208085019450838352808320835b838110156143ba5781546001600160a01b0316875295820195600191820191016143db565b6001600160a01b039384168152919092166020820152604081019190915260600190565b60006020808301818452808551808352604092508286019150828160051b870101848801865b8381101561451d57603f19898403018552815180518452878101516001600160a01b0390811689860152878201518886015260608083015115159086015260808083015182169086015260a0808301519086015260c0808301519091169085015260e080820151908501526101008082015161016082870181905291906144d383880182614382565b9250505061012080830151868303828801526144ef8382614382565b925050506101408083015192506145098187018415159052565b50958801959350509086019060010161444a565b509098975050505050505050565b602080825260329082015260008051602061493f8339815191526040820152715420546f2043726561746520412053616c6560701b606082015260800190565b602080825260299082015260008051602061493f8339815191526040820152681508151bc811da599d60ba1b606082015260800190565b6020808252602c908201527f596f7520617265206e6f7420746865206f776e6572206f66207468697320736d60408201526b185c9d0818dbdb9d1c9858dd60a21b606082015260800190565b602080825260359082015260008051602061493f8339815191526040820152742a102a379020b1b1b2b83a102a34329027b33332b960591b606082015260800190565b60208082526037908201527f596f7520446f6e2774204861766520416e79204578697374696e67204269642060408201527f546f205769746864726177204f6e2054686973204e4654000000000000000000606082015260800190565b602080825260399082015260008051602061493f83398151915260408201527f5420546f204372656174652041204d61726b6574204974656d00000000000000606082015260800190565b6020808252601690820152752a3434b99027232a1024b99027b71020bab1ba34b7b760511b604082015260600190565b6020808252601a908201527f4d61726b6574204469646e27742047657420417070726f76616c000000000000604082015260600190565b602080825260349082015260008051602061493f8339815191526040820152735420546f2043616e63656c205468652053616c6560601b606082015260800190565b60208082526013908201527254686973204e4654204973204f6e2053616c6560681b604082015260600190565b6020808252601f908201527f5265656e7472616e637947756172643a207265656e7472616e742063616c6c00604082015260600190565b8b81526001600160a01b038b81166020830152604082018b90528915156060830152888116608083015260a08201889052861660c082015260e08101859052610160610100820181905260009061483f838201876143c5565b905082810361012084015261485481866143c5565b9150508215156101408301529c9b505050505050505050505050565b6000821982111561488357614883614910565b500190565b6000826148a357634e487b7160e01b81526012600452602481fd5b500490565b60008160001904831182151516156148c2576148c2614910565b500290565b6000828210156148d9576148d9614910565b500390565b6000816148ed576148ed614910565b506000190190565b600060001982141561490957614909614910565b5060010190565b634e487b7160e01b600052601160045260246000fd5b6001600160a01b038116811461493b57600080fd5b5056fe596f75204d75737420426520546865204f776e6572204f662054686973204e46a264697066735822122053329dbcca01fef222e9db8984cdf5280d7115a91292d0c31d3fa5ea95202f6c64736f6c63430008040033",
  "linkReferences": {},
  "deployedLinkReferences": {}
}