{
  "_format": "hh-sol-artifact-1",
  "contractName": "NFTMarket",
  "sourceName": "contracts/NFTMarket.sol",
  "abi": [
    {
      "inputs": [],
      "stateMutability": "nonpayable",
      "type": "constructor"
    },
    {
      "anonymous": false,
      "inputs": [
        {
          "indexed": false,
          "internalType": "uint256",
          "name": "itemId",
          "type": "uint256"
        },
        {
          "indexed": false,
          "internalType": "address",
          "name": "nftContract",
          "type": "address"
        },
        {
          "indexed": false,
          "internalType": "uint256",
          "name": "tokenId",
          "type": "uint256"
        },
        {
          "indexed": false,
          "internalType": "address payable",
          "name": "seller",
          "type": "address"
        },
        {
          "indexed": false,
          "internalType": "address payable",
          "name": "owner",
          "type": "address"
        },
        {
          "indexed": false,
          "internalType": "uint256",
          "name": "price",
          "type": "uint256"
        },
        {
          "indexed": false,
          "internalType": "address payable",
          "name": "highestBidder",
          "type": "address"
        },
        {
          "indexed": false,
          "internalType": "uint256",
          "name": "highestBid",
          "type": "uint256"
        },
        {
          "indexed": false,
          "internalType": "address payable[]",
          "name": "pendingBidders",
          "type": "address[]"
        },
        {
          "indexed": false,
          "internalType": "bool",
          "name": "auctionEnded",
          "type": "bool"
        }
      ],
      "name": "UpdatedMarketItem",
      "type": "event"
    },
    {
      "inputs": [
        {
          "internalType": "address",
          "name": "nftContract",
          "type": "address"
        },
        {
          "internalType": "uint256",
          "name": "itemId",
          "type": "uint256"
        }
      ],
      "name": "cancelMarketSale",
      "outputs": [],
      "stateMutability": "nonpayable",
      "type": "function"
    },
    {
      "inputs": [
        {
          "internalType": "address",
          "name": "nftContract",
          "type": "address"
        },
        {
          "internalType": "uint256",
          "name": "itemId",
          "type": "uint256"
        }
      ],
      "name": "createMarketAuction",
      "outputs": [],
      "stateMutability": "payable",
      "type": "function"
    },
    {
      "inputs": [
        {
          "internalType": "address",
          "name": "nftContract",
          "type": "address"
        },
        {
          "internalType": "uint256",
          "name": "tokenId",
          "type": "uint256"
        }
      ],
      "name": "createMarketItem",
      "outputs": [],
      "stateMutability": "nonpayable",
      "type": "function"
    },
    {
      "inputs": [
        {
          "internalType": "address",
          "name": "nftContract",
          "type": "address"
        },
        {
          "internalType": "uint256",
          "name": "tokenId",
          "type": "uint256"
        }
      ],
      "name": "createMarketItemForAuction",
      "outputs": [],
      "stateMutability": "nonpayable",
      "type": "function"
    },
    {
      "inputs": [
        {
          "internalType": "address",
          "name": "nftContract",
          "type": "address"
        },
        {
          "internalType": "uint256",
          "name": "tokenId",
          "type": "uint256"
        },
        {
          "internalType": "uint256",
          "name": "price",
          "type": "uint256"
        }
      ],
      "name": "createMarketItemForSale",
      "outputs": [],
      "stateMutability": "nonpayable",
      "type": "function"
    },
    {
      "inputs": [
        {
          "internalType": "address",
          "name": "nftContract",
          "type": "address"
        },
        {
          "internalType": "uint256",
          "name": "itemId",
          "type": "uint256"
        },
        {
          "internalType": "uint256",
          "name": "price",
          "type": "uint256"
        }
      ],
      "name": "createMarketSale",
      "outputs": [],
      "stateMutability": "payable",
      "type": "function"
    },
    {
      "inputs": [
        {
          "internalType": "address",
          "name": "nftContract",
          "type": "address"
        },
        {
          "internalType": "uint256",
          "name": "itemId",
          "type": "uint256"
        }
      ],
      "name": "executeMarketAuctionEnd",
      "outputs": [],
      "stateMutability": "nonpayable",
      "type": "function"
    },
    {
      "inputs": [
        {
          "internalType": "address",
          "name": "nftContract",
          "type": "address"
        },
        {
          "internalType": "uint256",
          "name": "itemId",
          "type": "uint256"
        }
      ],
      "name": "executeMarketSale",
      "outputs": [],
      "stateMutability": "payable",
      "type": "function"
    },
    {
      "inputs": [
        {
          "internalType": "uint256",
          "name": "pageNumber",
          "type": "uint256"
        },
        {
          "internalType": "uint256",
          "name": "pageSize",
          "type": "uint256"
        }
      ],
      "name": "fetchMarketItems",
      "outputs": [
        {
          "components": [
            {
              "internalType": "uint256",
              "name": "itemId",
              "type": "uint256"
            },
            {
              "internalType": "address",
              "name": "nftContract",
              "type": "address"
            },
            {
              "internalType": "uint256",
              "name": "tokenId",
              "type": "uint256"
            },
            {
              "internalType": "address payable",
              "name": "seller",
              "type": "address"
            },
            {
              "internalType": "address payable",
              "name": "owner",
              "type": "address"
            },
            {
              "internalType": "uint256",
              "name": "price",
              "type": "uint256"
            },
            {
              "internalType": "address payable",
              "name": "highestBidder",
              "type": "address"
            },
            {
              "internalType": "uint256",
              "name": "highestBid",
              "type": "uint256"
            },
            {
              "internalType": "address payable[]",
              "name": "pendingBidders",
              "type": "address[]"
            },
            {
              "internalType": "bool",
              "name": "auctionEnded",
              "type": "bool"
            }
          ],
          "internalType": "struct NFTMarket.MarketItem[]",
          "name": "",
          "type": "tuple[]"
        }
      ],
      "stateMutability": "view",
      "type": "function"
    },
    {
      "inputs": [
        {
          "internalType": "uint256",
          "name": "",
          "type": "uint256"
        }
      ],
      "name": "idToMarketItem",
      "outputs": [
        {
          "internalType": "uint256",
          "name": "itemId",
          "type": "uint256"
        },
        {
          "internalType": "address",
          "name": "nftContract",
          "type": "address"
        },
        {
          "internalType": "uint256",
          "name": "tokenId",
          "type": "uint256"
        },
        {
          "internalType": "address payable",
          "name": "seller",
          "type": "address"
        },
        {
          "internalType": "address payable",
          "name": "owner",
          "type": "address"
        },
        {
          "internalType": "uint256",
          "name": "price",
          "type": "uint256"
        },
        {
          "internalType": "address payable",
          "name": "highestBidder",
          "type": "address"
        },
        {
          "internalType": "uint256",
          "name": "highestBid",
          "type": "uint256"
        },
        {
          "internalType": "bool",
          "name": "auctionEnded",
          "type": "bool"
        }
      ],
      "stateMutability": "view",
      "type": "function"
    },
    {
      "inputs": [],
      "name": "listingPrice",
      "outputs": [
        {
          "internalType": "uint256",
          "name": "",
          "type": "uint256"
        }
      ],
      "stateMutability": "view",
      "type": "function"
    },
    {
      "inputs": [
        {
          "internalType": "uint256",
          "name": "itemId",
          "type": "uint256"
        }
      ],
      "name": "makeAuctionBid",
      "outputs": [],
      "stateMutability": "payable",
      "type": "function"
    },
    {
      "inputs": [
        {
          "internalType": "uint256",
          "name": "",
          "type": "uint256"
        },
        {
          "internalType": "address",
          "name": "",
          "type": "address"
        }
      ],
      "name": "pendingReturns",
      "outputs": [
        {
          "internalType": "uint256",
          "name": "",
          "type": "uint256"
        }
      ],
      "stateMutability": "view",
      "type": "function"
    },
    {
      "inputs": [
        {
          "internalType": "uint256",
          "name": "_listingPrice",
          "type": "uint256"
        }
      ],
      "name": "setListingPrice",
      "outputs": [],
      "stateMutability": "nonpayable",
      "type": "function"
    },
    {
      "inputs": [
        {
          "internalType": "uint256",
          "name": "itemId",
          "type": "uint256"
        }
      ],
      "name": "withdrawAuctionBid",
      "outputs": [],
      "stateMutability": "nonpayable",
      "type": "function"
    }
  ],
  "bytecode": "0x6080604052600160035534801561001557600080fd5b50600160008190555033600260006101000a81548173ffffffffffffffffffffffffffffffffffffffff021916908373ffffffffffffffffffffffffffffffffffffffff16021790555061525d8061006e6000396000f3fe6080604052600436106100e85760003560e01c80637c726b691161008a578063c78f19f911610059578063c78f19f9146102b1578063dd5f8518146102dc578063e61a70c014610305578063f01a6dde1461034a576100e8565b80637c726b69146102065780638ddac1ef1461022f578063bd1ecd611461026c578063c3a3b8ea14610295576100e8565b806321cf91ac116100c657806321cf91ac1461015b578063283f766c146101775780635d30c81b146101a05780637063b64e146101c9576100e8565b8063087a7992146100ed5780631ae1b701146101095780631dd9cf8614610132575b600080fd5b610107600480360381019061010291906142d8565b610366565b005b34801561011557600080fd5b50610130600480360381019061012b9190614314565b610880565b005b34801561013e57600080fd5b50610159600480360381019061015491906142d8565b610dda565b005b61017560048036038101906101709190614314565b611039565b005b34801561018357600080fd5b5061019e60048036038101906101999190614363565b611553565b005b3480156101ac57600080fd5b506101c760048036038101906101c291906142d8565b611ef2565b005b3480156101d557600080fd5b506101f060048036038101906101eb91906143c8565b612752565b6040516101fd9190614895565b60405180910390f35b34801561021257600080fd5b5061022d60048036038101906102289190614363565b612d7b565b005b34801561023b57600080fd5b506102566004803603810190610251919061438c565b612e15565b6040516102639190614a37565b60405180910390f35b34801561027857600080fd5b50610293600480360381019061028e91906142d8565b612e3a565b005b6102af60048036038101906102aa9190614363565b613351565b005b3480156102bd57600080fd5b506102c6613790565b6040516102d39190614a37565b60405180910390f35b3480156102e857600080fd5b5061030360048036038101906102fe91906142d8565b613796565b005b34801561031157600080fd5b5061032c60048036038101906103279190614363565b613b48565b60405161034199989796959493929190614af5565b60405180910390f35b610364600480360381019061035f91906142d8565b613c23565b005b600260005414156103ac576040517f08c379a00000000000000000000000000000000000000000000000000000000081526004016103a3906149d7565b60405180910390fd5b60026000819055506000600460008381526020019081526020016000206002015490503073ffffffffffffffffffffffffffffffffffffffff168373ffffffffffffffffffffffffffffffffffffffff1663081812fc836040518263ffffffff1660e01b815260040161041f9190614a37565b60206040518083038186803b15801561043757600080fd5b505afa15801561044b573d6000803e3d6000fd5b505050506040513d601f19601f8201168201806040525081019061046f91906142af565b73ffffffffffffffffffffffffffffffffffffffff16146104c5576040517f08c379a00000000000000000000000000000000000000000000000000000000081526004016104bc906148b7565b60405180910390fd5b3373ffffffffffffffffffffffffffffffffffffffff168373ffffffffffffffffffffffffffffffffffffffff16636352211e836040518263ffffffff1660e01b81526004016105159190614a37565b60206040518083038186803b15801561052d57600080fd5b505afa158015610541573d6000803e3d6000fd5b505050506040513d601f19601f8201168201806040525081019061056591906142af565b73ffffffffffffffffffffffffffffffffffffffff16146105bb576040517f08c379a00000000000000000000000000000000000000000000000000000000081526004016105b290614977565b60405180910390fd5b60606040518061014001604052808481526020018573ffffffffffffffffffffffffffffffffffffffff1681526020018381526020013373ffffffffffffffffffffffffffffffffffffffff168152602001600073ffffffffffffffffffffffffffffffffffffffff168152602001600081526020013373ffffffffffffffffffffffffffffffffffffffff1681526020016000815260200182815260200160001515815250600460008581526020019081526020016000206000820151816000015560208201518160010160006101000a81548173ffffffffffffffffffffffffffffffffffffffff021916908373ffffffffffffffffffffffffffffffffffffffff1602179055506040820151816002015560608201518160030160006101000a81548173ffffffffffffffffffffffffffffffffffffffff021916908373ffffffffffffffffffffffffffffffffffffffff16021790555060808201518160040160006101000a81548173ffffffffffffffffffffffffffffffffffffffff021916908373ffffffffffffffffffffffffffffffffffffffff16021790555060a0820151816005015560c08201518160060160006101000a81548173ffffffffffffffffffffffffffffffffffffffff021916908373ffffffffffffffffffffffffffffffffffffffff16021790555060e082015181600701556101008201518160080190805190602001906107d592919061411c565b506101208201518160090160006101000a81548160ff0219169083151502179055509050508373ffffffffffffffffffffffffffffffffffffffff166323b872dd3330856040518463ffffffff1660e01b81526004016108379392919061485e565b600060405180830381600087803b15801561085157600080fd5b505af1158015610865573d6000803e3d6000fd5b5050505061087283613f5a565b505060016000819055505050565b600260005414156108c6576040517f08c379a00000000000000000000000000000000000000000000000000000000081526004016108bd906149d7565b60405180910390fd5b600260008190555060008111610911576040517f08c379a0000000000000000000000000000000000000000000000000000000008152600401610908906149f7565b60405180910390fd5b3073ffffffffffffffffffffffffffffffffffffffff168373ffffffffffffffffffffffffffffffffffffffff1663081812fc846040518263ffffffff1660e01b81526004016109619190614a37565b60206040518083038186803b15801561097957600080fd5b505afa15801561098d573d6000803e3d6000fd5b505050506040513d601f19601f820116820180604052508101906109b191906142af565b73ffffffffffffffffffffffffffffffffffffffff1614610a07576040517f08c379a00000000000000000000000000000000000000000000000000000000081526004016109fe906148b7565b60405180910390fd5b3373ffffffffffffffffffffffffffffffffffffffff168373ffffffffffffffffffffffffffffffffffffffff16636352211e846040518263ffffffff1660e01b8152600401610a579190614a37565b60206040518083038186803b158015610a6f57600080fd5b505afa158015610a83573d6000803e3d6000fd5b505050506040513d601f19601f82011682018060405250810190610aa791906142af565b73ffffffffffffffffffffffffffffffffffffffff1614610afd576040517f08c379a0000000000000000000000000000000000000000000000000000000008152600401610af4906149b7565b60405180910390fd5b6060610b0960016140f8565b6000610b15600161410e565b90506040518061014001604052808281526020018673ffffffffffffffffffffffffffffffffffffffff1681526020018581526020013373ffffffffffffffffffffffffffffffffffffffff168152602001600073ffffffffffffffffffffffffffffffffffffffff1681526020018481526020013373ffffffffffffffffffffffffffffffffffffffff1681526020016000815260200183815260200160011515815250600460008381526020019081526020016000206000820151816000015560208201518160010160006101000a81548173ffffffffffffffffffffffffffffffffffffffff021916908373ffffffffffffffffffffffffffffffffffffffff1602179055506040820151816002015560608201518160030160006101000a81548173ffffffffffffffffffffffffffffffffffffffff021916908373ffffffffffffffffffffffffffffffffffffffff16021790555060808201518160040160006101000a81548173ffffffffffffffffffffffffffffffffffffffff021916908373ffffffffffffffffffffffffffffffffffffffff16021790555060a0820151816005015560c08201518160060160006101000a81548173ffffffffffffffffffffffffffffffffffffffff021916908373ffffffffffffffffffffffffffffffffffffffff16021790555060e08201518160070155610100820151816008019080519060200190610d2e92919061411c565b506101208201518160090160006101000a81548160ff0219169083151502179055509050508473ffffffffffffffffffffffffffffffffffffffff166323b872dd3330876040518463ffffffff1660e01b8152600401610d909392919061485e565b600060405180830381600087803b158015610daa57600080fd5b505af1158015610dbe573d6000803e3d6000fd5b50505050610dcb81613f5a565b50506001600081905550505050565b60026000541415610e20576040517f08c379a0000000000000000000000000000000000000000000000000000000008152600401610e17906149d7565b60405180910390fd5b600260008190555060006004600083815260200190815260200160002060020154905060006004600084815260200190815260200160002060030160009054906101000a900473ffffffffffffffffffffffffffffffffffffffff1690503373ffffffffffffffffffffffffffffffffffffffff168173ffffffffffffffffffffffffffffffffffffffff1614610eec576040517f08c379a0000000000000000000000000000000000000000000000000000000008152600401610ee390614a17565b60405180910390fd5b8373ffffffffffffffffffffffffffffffffffffffff166323b872dd3033856040518463ffffffff1660e01b8152600401610f299392919061485e565b600060405180830381600087803b158015610f4357600080fd5b505af1158015610f57573d6000803e3d6000fd5b50505050336004600085815260200190815260200160002060040160006101000a81548173ffffffffffffffffffffffffffffffffffffffff021916908373ffffffffffffffffffffffffffffffffffffffff16021790555060006004600085815260200190815260200160002060030160006101000a81548173ffffffffffffffffffffffffffffffffffffffff021916908373ffffffffffffffffffffffffffffffffffffffff1602179055506000600460008581526020019081526020016000206005018190555061102b83613f5a565b505060016000819055505050565b6002600054141561107f576040517f08c379a0000000000000000000000000000000000000000000000000000000008152600401611076906149d7565b60405180910390fd5b60026000819055506000600460008481526020019081526020016000206002015490503073ffffffffffffffffffffffffffffffffffffffff168473ffffffffffffffffffffffffffffffffffffffff1663081812fc836040518263ffffffff1660e01b81526004016110f29190614a37565b60206040518083038186803b15801561110a57600080fd5b505afa15801561111e573d6000803e3d6000fd5b505050506040513d601f19601f8201168201806040525081019061114291906142af565b73ffffffffffffffffffffffffffffffffffffffff1614611198576040517f08c379a000000000000000000000000000000000000000000000000000000000815260040161118f906148b7565b60405180910390fd5b3373ffffffffffffffffffffffffffffffffffffffff168473ffffffffffffffffffffffffffffffffffffffff16636352211e836040518263ffffffff1660e01b81526004016111e89190614a37565b60206040518083038186803b15801561120057600080fd5b505afa158015611214573d6000803e3d6000fd5b505050506040513d601f19601f8201168201806040525081019061123891906142af565b73ffffffffffffffffffffffffffffffffffffffff161461128e576040517f08c379a0000000000000000000000000000000000000000000000000000000008152600401611285906149b7565b60405180910390fd5b60606040518061014001604052808581526020018673ffffffffffffffffffffffffffffffffffffffff1681526020018381526020013373ffffffffffffffffffffffffffffffffffffffff168152602001600073ffffffffffffffffffffffffffffffffffffffff1681526020018481526020013373ffffffffffffffffffffffffffffffffffffffff1681526020016000815260200182815260200160011515815250600460008681526020019081526020016000206000820151816000015560208201518160010160006101000a81548173ffffffffffffffffffffffffffffffffffffffff021916908373ffffffffffffffffffffffffffffffffffffffff1602179055506040820151816002015560608201518160030160006101000a81548173ffffffffffffffffffffffffffffffffffffffff021916908373ffffffffffffffffffffffffffffffffffffffff16021790555060808201518160040160006101000a81548173ffffffffffffffffffffffffffffffffffffffff021916908373ffffffffffffffffffffffffffffffffffffffff16021790555060a0820151816005015560c08201518160060160006101000a81548173ffffffffffffffffffffffffffffffffffffffff021916908373ffffffffffffffffffffffffffffffffffffffff16021790555060e082015181600701556101008201518160080190805190602001906114a792919061411c565b506101208201518160090160006101000a81548160ff0219169083151502179055509050508473ffffffffffffffffffffffffffffffffffffffff166323b872dd3330856040518463ffffffff1660e01b81526004016115099392919061485e565b600060405180830381600087803b15801561152357600080fd5b505af1158015611537573d6000803e3d6000fd5b5050505061154484613f5a565b50506001600081905550505050565b60026000541415611599576040517f08c379a0000000000000000000000000000000000000000000000000000000008152600401611590906149d7565b60405180910390fd5b60026000819055506004600082815260200190815260200160002060090160009054906101000a900460ff1615611605576040517f08c379a00000000000000000000000000000000000000000000000000000000081526004016115fc906148d7565b60405180910390fd5b6004600082815260200190815260200160002060060160009054906101000a900473ffffffffffffffffffffffffffffffffffffffff1673ffffffffffffffffffffffffffffffffffffffff163373ffffffffffffffffffffffffffffffffffffffff161461195d5760006005600083815260200190815260200160002060003373ffffffffffffffffffffffffffffffffffffffff1673ffffffffffffffffffffffffffffffffffffffff1681526020019081526020016000205411611701576040517f08c379a00000000000000000000000000000000000000000000000000000000081526004016116f890614917565b60405180910390fd5b60006005600083815260200190815260200160002060003373ffffffffffffffffffffffffffffffffffffffff1673ffffffffffffffffffffffffffffffffffffffff1681526020019081526020016000205490503373ffffffffffffffffffffffffffffffffffffffff166108fc829081150290604051600060405180830381858888f1935050505015801561179c573d6000803e3d6000fd5b5060006005600084815260200190815260200160002060003373ffffffffffffffffffffffffffffffffffffffff1673ffffffffffffffffffffffffffffffffffffffff1681526020019081526020016000208190555060005b6004600084815260200190815260200160002060080180549050811015611956573373ffffffffffffffffffffffffffffffffffffffff1660046000858152602001908152602001600020600801828154811061187c577f4e487b7100000000000000000000000000000000000000000000000000000000600052603260045260246000fd5b9060005260206000200160009054906101000a900473ffffffffffffffffffffffffffffffffffffffff1673ffffffffffffffffffffffffffffffffffffffff16141561194357600460008481526020019081526020016000206008018181548110611911577f4e487b7100000000000000000000000000000000000000000000000000000000600052603260045260246000fd5b9060005260206000200160006101000a81549073ffffffffffffffffffffffffffffffffffffffff0219169055611956565b808061194e90614e16565b9150506117f6565b5050611ede565b3373ffffffffffffffffffffffffffffffffffffffff166004600083815260200190815260200160002060060160009054906101000a900473ffffffffffffffffffffffffffffffffffffffff1673ffffffffffffffffffffffffffffffffffffffff1614611a01576040517f08c379a00000000000000000000000000000000000000000000000000000000081526004016119f890614917565b60405180910390fd5b6000600460008381526020019081526020016000206007015490503373ffffffffffffffffffffffffffffffffffffffff166108fc829081150290604051600060405180830381858888f19350505050158015611a62573d6000803e3d6000fd5b506000806004600085815260200190815260200160002060030160009054906101000a900473ffffffffffffffffffffffffffffffffffffffff169050600060016004600087815260200190815260200160002060080180549050611ac79190614c43565b905060005b6004600087815260200190815260200160002060080180549050811015611d6a576005600087815260200190815260200160002060008473ffffffffffffffffffffffffffffffffffffffff1673ffffffffffffffffffffffffffffffffffffffff16815260200190815260200160002054600560008881526020019081526020016000206000600460008a81526020019081526020016000206008018481548110611ba1577f4e487b7100000000000000000000000000000000000000000000000000000000600052603260045260246000fd5b9060005260206000200160009054906101000a900473ffffffffffffffffffffffffffffffffffffffff1673ffffffffffffffffffffffffffffffffffffffff1673ffffffffffffffffffffffffffffffffffffffff168152602001908152602001600020541115611d5757600460008781526020019081526020016000206008018181548110611c5b577f4e487b7100000000000000000000000000000000000000000000000000000000600052603260045260246000fd5b9060005260206000200160009054906101000a900473ffffffffffffffffffffffffffffffffffffffff169250600560008781526020019081526020016000206000600460008981526020019081526020016000206008018381548110611ceb577f4e487b7100000000000000000000000000000000000000000000000000000000600052603260045260246000fd5b9060005260206000200160009054906101000a900473ffffffffffffffffffffffffffffffffffffffff1673ffffffffffffffffffffffffffffffffffffffff1673ffffffffffffffffffffffffffffffffffffffff1681526020019081526020016000205493508091505b8080611d6290614e16565b915050611acc565b50816004600087815260200190815260200160002060060160006101000a81548173ffffffffffffffffffffffffffffffffffffffff021916908373ffffffffffffffffffffffffffffffffffffffff16021790555082600460008781526020019081526020016000206007018190555060006005600087815260200190815260200160002060008473ffffffffffffffffffffffffffffffffffffffff1673ffffffffffffffffffffffffffffffffffffffff1681526020019081526020016000208190555060016004600087815260200190815260200160002060080180549050611e579190614c43565b8114611ed957600460008681526020019081526020016000206008018181548110611eab577f4e487b7100000000000000000000000000000000000000000000000000000000600052603260045260246000fd5b9060005260206000200160006101000a81549073ffffffffffffffffffffffffffffffffffffffff02191690555b505050505b611ee781613f5a565b600160008190555050565b60026000541415611f38576040517f08c379a0000000000000000000000000000000000000000000000000000000008152600401611f2f906149d7565b60405180910390fd5b60026000819055506004600082815260200190815260200160002060090160009054906101000a900460ff1615611fa4576040517f08c379a0000000000000000000000000000000000000000000000000000000008152600401611f9b90614997565b60405180910390fd5b60006004600083815260200190815260200160002060070154905060006004600084815260200190815260200160002060060160009054906101000a900473ffffffffffffffffffffffffffffffffffffffff169050600060046000858152602001908152602001600020600201549050606060008414612144576004600086815260200190815260200160002060030160009054906101000a900473ffffffffffffffffffffffffffffffffffffffff1673ffffffffffffffffffffffffffffffffffffffff166108fc606460035460646120809190614d24565b8761208b9190614cca565b6120959190614c99565b9081150290604051600060405180830381858888f193505050501580156120c0573d6000803e3d6000fd5b50600260009054906101000a900473ffffffffffffffffffffffffffffffffffffffff1673ffffffffffffffffffffffffffffffffffffffff166108fc60646003548761210d9190614cca565b6121179190614c99565b9081150290604051600060405180830381858888f19350505050158015612142573d6000803e3d6000fd5b505b8573ffffffffffffffffffffffffffffffffffffffff166323b872dd3085856040518463ffffffff1660e01b81526004016121819392919061485e565b600060405180830381600087803b15801561219b57600080fd5b505af11580156121af573d6000803e3d6000fd5b5050505060005b60046000878152602001908152602001600020600801805490508110156125c257600073ffffffffffffffffffffffffffffffffffffffff1660046000888152602001908152602001600020600801828154811061223d577f4e487b7100000000000000000000000000000000000000000000000000000000600052603260045260246000fd5b9060005260206000200160009054906101000a900473ffffffffffffffffffffffffffffffffffffffff1673ffffffffffffffffffffffffffffffffffffffff161415801561235457506000600560008881526020019081526020016000206000600460008a815260200190815260200160002060080184815481106122ec577f4e487b7100000000000000000000000000000000000000000000000000000000600052603260045260246000fd5b9060005260206000200160009054906101000a900473ffffffffffffffffffffffffffffffffffffffff1673ffffffffffffffffffffffffffffffffffffffff1673ffffffffffffffffffffffffffffffffffffffff16815260200190815260200160002054115b156125af576004600087815260200190815260200160002060080181815481106123a7577f4e487b7100000000000000000000000000000000000000000000000000000000600052603260045260246000fd5b9060005260206000200160009054906101000a900473ffffffffffffffffffffffffffffffffffffffff1673ffffffffffffffffffffffffffffffffffffffff166108fc600560008981526020019081526020016000206000600460008b8152602001908152602001600020600801858154811061244e577f4e487b7100000000000000000000000000000000000000000000000000000000600052603260045260246000fd5b9060005260206000200160009054906101000a900473ffffffffffffffffffffffffffffffffffffffff1673ffffffffffffffffffffffffffffffffffffffff1673ffffffffffffffffffffffffffffffffffffffff168152602001908152602001600020549081150290604051600060405180830381858888f193505050501580156124df573d6000803e3d6000fd5b506000600560008881526020019081526020016000206000600460008a81526020019081526020016000206008018481548110612545577f4e487b7100000000000000000000000000000000000000000000000000000000600052603260045260246000fd5b9060005260206000200160009054906101000a900473ffffffffffffffffffffffffffffffffffffffff1673ffffffffffffffffffffffffffffffffffffffff1673ffffffffffffffffffffffffffffffffffffffff168152602001908152602001600020819055505b80806125ba90614e16565b9150506121b6565b50826004600087815260200190815260200160002060040160006101000a81548173ffffffffffffffffffffffffffffffffffffffff021916908373ffffffffffffffffffffffffffffffffffffffff16021790555060006004600087815260200190815260200160002060030160006101000a81548173ffffffffffffffffffffffffffffffffffffffff021916908373ffffffffffffffffffffffffffffffffffffffff160217905550826004600087815260200190815260200160002060060160006101000a81548173ffffffffffffffffffffffffffffffffffffffff021916908373ffffffffffffffffffffffffffffffffffffffff1602179055506000600460008781526020019081526020016000206007018190555060016004600087815260200190815260200160002060090160006101000a81548160ff0219169083151502179055508060046000878152602001908152602001600020600801908051906020019061273892919061411c565b5061274285613f5a565b5050505060016000819055505050565b60606000612760600161410e565b90506000600184866127729190614cca565b61277c9190614c43565b905060008467ffffffffffffffff8111156127c0577f4e487b7100000000000000000000000000000000000000000000000000000000600052604160045260246000fd5b6040519080825280602002602001820160405280156127f957816020015b6127e66141a6565b8152602001906001900390816127de5790505b50905060008390505b828110158015612813575060018110155b15612ab7576004600082815260200190815260200160002060405180610140016040529081600082015481526020016001820160009054906101000a900473ffffffffffffffffffffffffffffffffffffffff1673ffffffffffffffffffffffffffffffffffffffff1673ffffffffffffffffffffffffffffffffffffffff168152602001600282015481526020016003820160009054906101000a900473ffffffffffffffffffffffffffffffffffffffff1673ffffffffffffffffffffffffffffffffffffffff1673ffffffffffffffffffffffffffffffffffffffff1681526020016004820160009054906101000a900473ffffffffffffffffffffffffffffffffffffffff1673ffffffffffffffffffffffffffffffffffffffff1673ffffffffffffffffffffffffffffffffffffffff168152602001600582015481526020016006820160009054906101000a900473ffffffffffffffffffffffffffffffffffffffff1673ffffffffffffffffffffffffffffffffffffffff1673ffffffffffffffffffffffffffffffffffffffff1681526020016007820154815260200160088201805480602002602001604051908101604052809291908181526020018280548015612a3c57602002820191906000526020600020905b8160009054906101000a900473ffffffffffffffffffffffffffffffffffffffff1673ffffffffffffffffffffffffffffffffffffffff16815260200190600101908083116129f2575b505050505081526020016009820160009054906101000a900460ff161515151581525050828281518110612a99577f4e487b7100000000000000000000000000000000000000000000000000000000600052603260045260246000fd5b60200260200101819052508080612aaf90614dd2565b915050612802565b5060005b600083118015612aca57508581105b15612d6e576004600082815260200190815260200160002060405180610140016040529081600082015481526020016001820160009054906101000a900473ffffffffffffffffffffffffffffffffffffffff1673ffffffffffffffffffffffffffffffffffffffff1673ffffffffffffffffffffffffffffffffffffffff168152602001600282015481526020016003820160009054906101000a900473ffffffffffffffffffffffffffffffffffffffff1673ffffffffffffffffffffffffffffffffffffffff1673ffffffffffffffffffffffffffffffffffffffff1681526020016004820160009054906101000a900473ffffffffffffffffffffffffffffffffffffffff1673ffffffffffffffffffffffffffffffffffffffff1673ffffffffffffffffffffffffffffffffffffffff168152602001600582015481526020016006820160009054906101000a900473ffffffffffffffffffffffffffffffffffffffff1673ffffffffffffffffffffffffffffffffffffffff1673ffffffffffffffffffffffffffffffffffffffff1681526020016007820154815260200160088201805480602002602001604051908101604052809291908181526020018280548015612cf357602002820191906000526020600020905b8160009054906101000a900473ffffffffffffffffffffffffffffffffffffffff1673ffffffffffffffffffffffffffffffffffffffff1681526020019060010190808311612ca9575b505050505081526020016009820160009054906101000a900460ff161515151581525050828281518110612d50577f4e487b7100000000000000000000000000000000000000000000000000000000600052603260045260246000fd5b60200260200101819052508080612d6690614e16565b915050612abb565b8194505050505092915050565b600260009054906101000a900473ffffffffffffffffffffffffffffffffffffffff1673ffffffffffffffffffffffffffffffffffffffff163373ffffffffffffffffffffffffffffffffffffffff1614612e0b576040517f08c379a0000000000000000000000000000000000000000000000000000000008152600401612e02906148f7565b60405180910390fd5b8060038190555050565b6005602052816000526040600020602052806000526040600020600091509150505481565b60026000541415612e80576040517f08c379a0000000000000000000000000000000000000000000000000000000008152600401612e77906149d7565b60405180910390fd5b60026000819055503073ffffffffffffffffffffffffffffffffffffffff168273ffffffffffffffffffffffffffffffffffffffff1663081812fc836040518263ffffffff1660e01b8152600401612ed89190614a37565b60206040518083038186803b158015612ef057600080fd5b505afa158015612f04573d6000803e3d6000fd5b505050506040513d601f19601f82011682018060405250810190612f2891906142af565b73ffffffffffffffffffffffffffffffffffffffff1614612f7e576040517f08c379a0000000000000000000000000000000000000000000000000000000008152600401612f75906148b7565b60405180910390fd5b3373ffffffffffffffffffffffffffffffffffffffff168273ffffffffffffffffffffffffffffffffffffffff16636352211e836040518263ffffffff1660e01b8152600401612fce9190614a37565b60206040518083038186803b158015612fe657600080fd5b505afa158015612ffa573d6000803e3d6000fd5b505050506040513d601f19601f8201168201806040525081019061301e91906142af565b73ffffffffffffffffffffffffffffffffffffffff1614613074576040517f08c379a000000000000000000000000000000000000000000000000000000000815260040161306b906149b7565b60405180910390fd5b606061308060016140f8565b600061308c600161410e565b90506040518061014001604052808281526020018573ffffffffffffffffffffffffffffffffffffffff1681526020018481526020013373ffffffffffffffffffffffffffffffffffffffff168152602001600073ffffffffffffffffffffffffffffffffffffffff168152602001600081526020013373ffffffffffffffffffffffffffffffffffffffff1681526020016000815260200183815260200160001515815250600460008381526020019081526020016000206000820151816000015560208201518160010160006101000a81548173ffffffffffffffffffffffffffffffffffffffff021916908373ffffffffffffffffffffffffffffffffffffffff1602179055506040820151816002015560608201518160030160006101000a81548173ffffffffffffffffffffffffffffffffffffffff021916908373ffffffffffffffffffffffffffffffffffffffff16021790555060808201518160040160006101000a81548173ffffffffffffffffffffffffffffffffffffffff021916908373ffffffffffffffffffffffffffffffffffffffff16021790555060a0820151816005015560c08201518160060160006101000a81548173ffffffffffffffffffffffffffffffffffffffff021916908373ffffffffffffffffffffffffffffffffffffffff16021790555060e082015181600701556101008201518160080190805190602001906132a692919061411c565b506101208201518160090160006101000a81548160ff0219169083151502179055509050508373ffffffffffffffffffffffffffffffffffffffff166323b872dd3330866040518463ffffffff1660e01b81526004016133089392919061485e565b600060405180830381600087803b15801561332257600080fd5b505af1158015613336573d6000803e3d6000fd5b5050505061334381613f5a565b505060016000819055505050565b60026000541415613397576040517f08c379a000000000000000000000000000000000000000000000000000000000815260040161338e906149d7565b60405180910390fd5b60026000819055506004600082815260200190815260200160002060090160009054906101000a900460ff1615613403576040517f08c379a00000000000000000000000000000000000000000000000000000000081526004016133fa906148d7565b60405180910390fd5b60006005600083815260200190815260200160002060003373ffffffffffffffffffffffffffffffffffffffff1673ffffffffffffffffffffffffffffffffffffffff1681526020019081526020016000205414613496576040517f08c379a000000000000000000000000000000000000000000000000000000000815260040161348d90614937565b60405180910390fd5b60006004600083815260200190815260200160002060060160009054906101000a900473ffffffffffffffffffffffffffffffffffffffff169050600060046000848152602001908152602001600020600701549050803411156136ad57336004600085815260200190815260200160002060060160006101000a81548173ffffffffffffffffffffffffffffffffffffffff021916908373ffffffffffffffffffffffffffffffffffffffff1602179055503460046000858152602001908152602001600020600701819055506000811180156135d657506004600084815260200190815260200160002060030160009054906101000a900473ffffffffffffffffffffffffffffffffffffffff1673ffffffffffffffffffffffffffffffffffffffff168273ffffffffffffffffffffffffffffffffffffffff1614155b156136a85760046000848152602001908152602001600020600801829080600181540180825580915050600190039060005260206000200160009091909190916101000a81548173ffffffffffffffffffffffffffffffffffffffff021916908373ffffffffffffffffffffffffffffffffffffffff160217905550806005600085815260200190815260200160002060008473ffffffffffffffffffffffffffffffffffffffff1673ffffffffffffffffffffffffffffffffffffffff168152602001908152602001600020819055505b61377a565b346005600085815260200190815260200160002060003373ffffffffffffffffffffffffffffffffffffffff1673ffffffffffffffffffffffffffffffffffffffff1681526020019081526020016000208190555060046000848152602001908152602001600020600801339080600181540180825580915050600190039060005260206000200160009091909190916101000a81548173ffffffffffffffffffffffffffffffffffffffff021916908373ffffffffffffffffffffffffffffffffffffffff1602179055505b61378383613f5a565b5050600160008190555050565b60035481565b600260005414156137dc576040517f08c379a00000000000000000000000000000000000000000000000000000000081526004016137d3906149d7565b60405180910390fd5b60026000819055503373ffffffffffffffffffffffffffffffffffffffff168273ffffffffffffffffffffffffffffffffffffffff16636352211e836040518263ffffffff1660e01b81526004016138349190614a37565b60206040518083038186803b15801561384c57600080fd5b505afa158015613860573d6000803e3d6000fd5b505050506040513d601f19601f8201168201806040525081019061388491906142af565b73ffffffffffffffffffffffffffffffffffffffff16146138da576040517f08c379a00000000000000000000000000000000000000000000000000000000081526004016138d1906149b7565b60405180910390fd5b60606138e660016140f8565b60006138f2600161410e565b90506040518061014001604052808281526020018573ffffffffffffffffffffffffffffffffffffffff168152602001848152602001600073ffffffffffffffffffffffffffffffffffffffff1681526020013373ffffffffffffffffffffffffffffffffffffffff168152602001600081526020013373ffffffffffffffffffffffffffffffffffffffff1681526020016000815260200183815260200160011515815250600460008381526020019081526020016000206000820151816000015560208201518160010160006101000a81548173ffffffffffffffffffffffffffffffffffffffff021916908373ffffffffffffffffffffffffffffffffffffffff1602179055506040820151816002015560608201518160030160006101000a81548173ffffffffffffffffffffffffffffffffffffffff021916908373ffffffffffffffffffffffffffffffffffffffff16021790555060808201518160040160006101000a81548173ffffffffffffffffffffffffffffffffffffffff021916908373ffffffffffffffffffffffffffffffffffffffff16021790555060a0820151816005015560c08201518160060160006101000a81548173ffffffffffffffffffffffffffffffffffffffff021916908373ffffffffffffffffffffffffffffffffffffffff16021790555060e08201518160070155610100820151816008019080519060200190613b0c92919061411c565b506101208201518160090160006101000a81548160ff021916908315150217905550905050613b3a81613f5a565b505060016000819055505050565b60046020528060005260406000206000915090508060000154908060010160009054906101000a900473ffffffffffffffffffffffffffffffffffffffff16908060020154908060030160009054906101000a900473ffffffffffffffffffffffffffffffffffffffff16908060040160009054906101000a900473ffffffffffffffffffffffffffffffffffffffff16908060050154908060060160009054906101000a900473ffffffffffffffffffffffffffffffffffffffff16908060070154908060090160009054906101000a900460ff16905089565b60026000541415613c69576040517f08c379a0000000000000000000000000000000000000000000000000000000008152600401613c60906149d7565b60405180910390fd5b6002600081905550600060046000838152602001908152602001600020600501549050600060046000848152602001908152602001600020600201549050813414613ce9576040517f08c379a0000000000000000000000000000000000000000000000000000000008152600401613ce090614957565b60405180910390fd5b6004600084815260200190815260200160002060030160009054906101000a900473ffffffffffffffffffffffffffffffffffffffff1673ffffffffffffffffffffffffffffffffffffffff166108fc60646003546064613d4a9190614d24565b34613d559190614cca565b613d5f9190614c99565b9081150290604051600060405180830381858888f19350505050158015613d8a573d6000803e3d6000fd5b508373ffffffffffffffffffffffffffffffffffffffff166323b872dd3033846040518463ffffffff1660e01b8152600401613dc89392919061485e565b600060405180830381600087803b158015613de257600080fd5b505af1158015613df6573d6000803e3d6000fd5b50505050336004600085815260200190815260200160002060040160006101000a81548173ffffffffffffffffffffffffffffffffffffffff021916908373ffffffffffffffffffffffffffffffffffffffff16021790555060006004600085815260200190815260200160002060030160006101000a81548173ffffffffffffffffffffffffffffffffffffffff021916908373ffffffffffffffffffffffffffffffffffffffff16021790555060006004600085815260200190815260200160002060050181905550600260009054906101000a900473ffffffffffffffffffffffffffffffffffffffff1673ffffffffffffffffffffffffffffffffffffffff166108fc606460035434613f0d9190614cca565b613f179190614c99565b9081150290604051600060405180830381858888f19350505050158015613f42573d6000803e3d6000fd5b50613f4c83613f5a565b505060016000819055505050565b7fdbc981a0a95e1ac563066f1f2031b6bfbddb3a8af6035fdb5eda876a6343d1e9816004600084815260200190815260200160002060010160009054906101000a900473ffffffffffffffffffffffffffffffffffffffff1660046000858152602001908152602001600020600201546004600086815260200190815260200160002060030160009054906101000a900473ffffffffffffffffffffffffffffffffffffffff166004600087815260200190815260200160002060040160009054906101000a900473ffffffffffffffffffffffffffffffffffffffff1660046000888152602001908152602001600020600501546004600089815260200190815260200160002060060160009054906101000a900473ffffffffffffffffffffffffffffffffffffffff16600460008a815260200190815260200160002060070154600460008b8152602001908152602001600020600801600460008c815260200190815260200160002060090160009054906101000a900460ff166040516140ed9a99989796959493929190614a52565b60405180910390a150565b6001816000016000828254019250508190555050565b600081600001549050919050565b828054828255906000526020600020908101928215614195579160200282015b828111156141945782518260006101000a81548173ffffffffffffffffffffffffffffffffffffffff021916908373ffffffffffffffffffffffffffffffffffffffff1602179055509160200191906001019061413c565b5b5090506141a29190614253565b5090565b60405180610140016040528060008152602001600073ffffffffffffffffffffffffffffffffffffffff16815260200160008152602001600073ffffffffffffffffffffffffffffffffffffffff168152602001600073ffffffffffffffffffffffffffffffffffffffff16815260200160008152602001600073ffffffffffffffffffffffffffffffffffffffff16815260200160008152602001606081526020016000151581525090565b5b8082111561426c576000816000905550600101614254565b5090565b60008135905061427f816151f9565b92915050565b600081519050614294816151f9565b92915050565b6000813590506142a981615210565b92915050565b6000602082840312156142c157600080fd5b60006142cf84828501614285565b91505092915050565b600080604083850312156142eb57600080fd5b60006142f985828601614270565b925050602061430a8582860161429a565b9150509250929050565b60008060006060848603121561432957600080fd5b600061433786828701614270565b93505060206143488682870161429a565b92505060406143598682870161429a565b9150509250925092565b60006020828403121561437557600080fd5b60006143838482850161429a565b91505092915050565b6000806040838503121561439f57600080fd5b60006143ad8582860161429a565b92505060206143be85828601614270565b9150509250929050565b600080604083850312156143db57600080fd5b60006143e98582860161429a565b92505060206143fa8582860161429a565b9150509250929050565b60006144108383614430565b60208301905092915050565b60006144288383614766565b905092915050565b61443981614d8a565b82525050565b61444881614d8a565b82525050565b61445781614d78565b82525050565b61446681614d78565b82525050565b600061447782614bb7565b6144818185614bff565b935061448c83614b82565b8060005b838110156144bd5781516144a48882614404565b97506144af83614bd8565b925050600181019050614490565b5085935050505092915050565b60006144d582614bc2565b6144df8185614c10565b93506144ea83614b92565b8060005b83811015614522576144ff82614ebd565b6145098882614404565b975061451483614be5565b9250506001810190506144ee565b5085935050505092915050565b600061453a82614bcd565b6145448185614c21565b93508360208202850161455685614ba7565b8060005b858110156145925784840389528151614573858261441c565b945061457e83614bf2565b925060208a0199505060018101905061455a565b50829750879550505050505092915050565b6145ad81614d9c565b82525050565b6145bc81614d9c565b82525050565b60006145cf601a83614c32565b91506145da82614edd565b602082019050919050565b60006145f2601e83614c32565b91506145fd82614f06565b602082019050919050565b6000614615602c83614c32565b915061462082614f2f565b604082019050919050565b6000614638603783614c32565b915061464382614f7e565b604082019050919050565b600061465b602383614c32565b915061466682614fcd565b604082019050919050565b600061467e604083614c32565b91506146898261501c565b604082019050919050565b60006146a1602a83614c32565b91506146ac8261506b565b604082019050919050565b60006146c4602683614c32565b91506146cf826150ba565b604082019050919050565b60006146e7602683614c32565b91506146f282615109565b604082019050919050565b600061470a601f83614c32565b915061471582615158565b602082019050919050565b600061472d601c83614c32565b915061473882615181565b602082019050919050565b6000614750602683614c32565b915061475b826151aa565b604082019050919050565b60006101408301600083015161477f6000860182614840565b506020830151614792602086018261444e565b5060408301516147a56040860182614840565b5060608301516147b86060860182614430565b5060808301516147cb6080860182614430565b5060a08301516147de60a0860182614840565b5060c08301516147f160c0860182614430565b5060e083015161480460e0860182614840565b5061010083015184820361010086015261481e828261446c565b9150506101208301516148356101208601826145a4565b508091505092915050565b61484981614dc8565b82525050565b61485881614dc8565b82525050565b6000606082019050614873600083018661445d565b614880602083018561445d565b61488d604083018461484f565b949350505050565b600060208201905081810360008301526148af818461452f565b905092915050565b600060208201905081810360008301526148d0816145c2565b9050919050565b600060208201905081810360008301526148f0816145e5565b9050919050565b6000602082019050818103600083015261491081614608565b9050919050565b600060208201905081810360008301526149308161462b565b9050919050565b600060208201905081810360008301526149508161464e565b9050919050565b6000602082019050818103600083015261497081614671565b9050919050565b6000602082019050818103600083015261499081614694565b9050919050565b600060208201905081810360008301526149b0816146b7565b9050919050565b600060208201905081810360008301526149d0816146da565b9050919050565b600060208201905081810360008301526149f0816146fd565b9050919050565b60006020820190508181036000830152614a1081614720565b9050919050565b60006020820190508181036000830152614a3081614743565b9050919050565b6000602082019050614a4c600083018461484f565b92915050565b600061014082019050614a68600083018d61484f565b614a75602083018c61445d565b614a82604083018b61484f565b614a8f606083018a61443f565b614a9c608083018961443f565b614aa960a083018861484f565b614ab660c083018761443f565b614ac360e083018661484f565b818103610100830152614ad681856144ca565b9050614ae66101208301846145b3565b9b9a5050505050505050505050565b600061012082019050614b0b600083018c61484f565b614b18602083018b61445d565b614b25604083018a61484f565b614b32606083018961443f565b614b3f608083018861443f565b614b4c60a083018761484f565b614b5960c083018661443f565b614b6660e083018561484f565b614b746101008301846145b3565b9a9950505050505050505050565b6000819050602082019050919050565b60008190508160005260206000209050919050565b6000819050602082019050919050565b600081519050919050565b600081549050919050565b600081519050919050565b6000602082019050919050565b6000600182019050919050565b6000602082019050919050565b600082825260208201905092915050565b600082825260208201905092915050565b600082825260208201905092915050565b600082825260208201905092915050565b6000614c4e82614dc8565b9150614c5983614dc8565b9250827fffffffffffffffffffffffffffffffffffffffffffffffffffffffffffffffff03821115614c8e57614c8d614e5f565b5b828201905092915050565b6000614ca482614dc8565b9150614caf83614dc8565b925082614cbf57614cbe614e8e565b5b828204905092915050565b6000614cd582614dc8565b9150614ce083614dc8565b9250817fffffffffffffffffffffffffffffffffffffffffffffffffffffffffffffffff0483118215151615614d1957614d18614e5f565b5b828202905092915050565b6000614d2f82614dc8565b9150614d3a83614dc8565b925082821015614d4d57614d4c614e5f565b5b828203905092915050565b600073ffffffffffffffffffffffffffffffffffffffff82169050919050565b6000614d8382614da8565b9050919050565b6000614d9582614da8565b9050919050565b60008115159050919050565b600073ffffffffffffffffffffffffffffffffffffffff82169050919050565b6000819050919050565b6000614ddd82614dc8565b91506000821415614df157614df0614e5f565b5b600182039050919050565b6000614e0f614e0a83614ed0565b614d58565b9050919050565b6000614e2182614dc8565b91507fffffffffffffffffffffffffffffffffffffffffffffffffffffffffffffffff821415614e5457614e53614e5f565b5b600182019050919050565b7f4e487b7100000000000000000000000000000000000000000000000000000000600052601160045260246000fd5b7f4e487b7100000000000000000000000000000000000000000000000000000000600052601260045260246000fd5b6000614ec98254614dfc565b9050919050565b60008160001c9050919050565b7f4d61726b6574206469646e27742067657420617070726f76616c000000000000600082015250565b7f41756374696f6e20666f722074686973204e46542068617320656e6465640000600082015250565b7f596f7520617265206e6f7420746865206f776e6572206f66207468697320736d60008201527f61727420636f6e74726163740000000000000000000000000000000000000000602082015250565b7f596f7520646f6e2774206861766520616e792070726576696f7573206269642060008201527f746f207769746864726177206f6e2074686973204e4654000000000000000000602082015250565b7f596f7520616c7265616479206861766520612062696420666f7220746869732060008201527f4e46540000000000000000000000000000000000000000000000000000000000602082015250565b7f506c65617365207375626d6974207468652061736b696e67207072696365206960008201527f6e206f7264657220746f20636f6d706c65746520746865207075726368617365602082015250565b7f596f75206d75737420626520746865204f776e657220746f206372656174652060008201527f616e2061756374696f6e00000000000000000000000000000000000000000000602082015250565b7f41756374696f6e20666f722074686973204e46542068617320616c726561647960008201527f20656e6465640000000000000000000000000000000000000000000000000000602082015250565b7f596f75206d75737420626520746865204f776e657220746f206372656174652060008201527f612073616c650000000000000000000000000000000000000000000000000000602082015250565b7f5265656e7472616e637947756172643a207265656e7472616e742063616c6c00600082015250565b7f5072696365206d757374206265206174206c6561737420312077656900000000600082015250565b7f596f75206d75737420626520746865204f776e657220746f2063616e63656c2060008201527f612073616c650000000000000000000000000000000000000000000000000000602082015250565b61520281614d78565b811461520d57600080fd5b50565b61521981614dc8565b811461522457600080fd5b5056fea26469706673582212201959baa8a8792f95f0c93e527b5bd4b70e9e711d9bbfe50552e8609a00748d2064736f6c63430008040033",
  "linkReferences": {},
  "deployedLinkReferences": {}
}