{
  "_format": "hh-sol-artifact-1",
  "contractName": "NFTMarket",
  "sourceName": "contracts/NFTMarket.sol",
  "abi": [
    {
      "inputs": [
        {
          "internalType": "address",
          "name": "_tokenAddress",
          "type": "address"
        }
      ],
      "stateMutability": "nonpayable",
      "type": "constructor"
    },
    {
      "anonymous": false,
      "inputs": [
        {
          "indexed": false,
          "internalType": "uint256",
          "name": "itemId",
          "type": "uint256"
        },
        {
          "indexed": false,
          "internalType": "address",
          "name": "nftContract",
          "type": "address"
        },
        {
          "indexed": false,
          "internalType": "uint256",
          "name": "tokenId",
          "type": "uint256"
        },
        {
          "indexed": false,
          "internalType": "bool",
          "name": "onSale",
          "type": "bool"
        },
        {
          "indexed": false,
          "internalType": "address payable",
          "name": "owner",
          "type": "address"
        },
        {
          "indexed": false,
          "internalType": "uint256",
          "name": "price",
          "type": "uint256"
        },
        {
          "indexed": false,
          "internalType": "address payable",
          "name": "highestBidder",
          "type": "address"
        },
        {
          "indexed": false,
          "internalType": "uint256",
          "name": "highestBid",
          "type": "uint256"
        },
        {
          "indexed": false,
          "internalType": "address payable[]",
          "name": "pendingBidders",
          "type": "address[]"
        },
        {
          "indexed": false,
          "internalType": "address payable[]",
          "name": "pendingOffers",
          "type": "address[]"
        },
        {
          "indexed": false,
          "internalType": "bool",
          "name": "auctionEnded",
          "type": "bool"
        },
        {
          "indexed": false,
          "internalType": "address payable",
          "name": "minter",
          "type": "address"
        },
        {
          "indexed": false,
          "internalType": "uint256",
          "name": "royalty",
          "type": "uint256"
        }
      ],
      "name": "UpdatedMarketItem",
      "type": "event"
    },
    {
      "inputs": [
        {
          "internalType": "uint256",
          "name": "itemId",
          "type": "uint256"
        },
        {
          "internalType": "address",
          "name": "_offeringAddress",
          "type": "address"
        }
      ],
      "name": "acceptOffer",
      "outputs": [],
      "stateMutability": "nonpayable",
      "type": "function"
    },
    {
      "inputs": [
        {
          "internalType": "uint256",
          "name": "itemId",
          "type": "uint256"
        }
      ],
      "name": "cancelMarketSale",
      "outputs": [],
      "stateMutability": "nonpayable",
      "type": "function"
    },
    {
      "inputs": [
        {
          "internalType": "uint256",
          "name": "itemId",
          "type": "uint256"
        }
      ],
      "name": "createMarketAuction",
      "outputs": [],
      "stateMutability": "payable",
      "type": "function"
    },
    {
      "inputs": [
        {
          "internalType": "address",
          "name": "nftContract",
          "type": "address"
        },
        {
          "internalType": "uint256",
          "name": "tokenId",
          "type": "uint256"
        },
        {
          "internalType": "uint256",
          "name": "royalty",
          "type": "uint256"
        }
      ],
      "name": "createMarketItem",
      "outputs": [],
      "stateMutability": "nonpayable",
      "type": "function"
    },
    {
      "inputs": [
        {
          "internalType": "address",
          "name": "nftContract",
          "type": "address"
        },
        {
          "internalType": "uint256",
          "name": "tokenId",
          "type": "uint256"
        },
        {
          "internalType": "uint256",
          "name": "royalty",
          "type": "uint256"
        }
      ],
      "name": "createMarketItemForAuction",
      "outputs": [],
      "stateMutability": "nonpayable",
      "type": "function"
    },
    {
      "inputs": [
        {
          "internalType": "address",
          "name": "nftContract",
          "type": "address"
        },
        {
          "internalType": "uint256",
          "name": "tokenId",
          "type": "uint256"
        },
        {
          "internalType": "uint256",
          "name": "price",
          "type": "uint256"
        },
        {
          "internalType": "uint256",
          "name": "royalty",
          "type": "uint256"
        }
      ],
      "name": "createMarketItemForSale",
      "outputs": [],
      "stateMutability": "nonpayable",
      "type": "function"
    },
    {
      "inputs": [
        {
          "internalType": "uint256",
          "name": "itemId",
          "type": "uint256"
        },
        {
          "internalType": "uint256",
          "name": "price",
          "type": "uint256"
        }
      ],
      "name": "createMarketSale",
      "outputs": [],
      "stateMutability": "payable",
      "type": "function"
    },
    {
      "inputs": [],
      "name": "crowdSale",
      "outputs": [],
      "stateMutability": "payable",
      "type": "function"
    },
    {
      "inputs": [
        {
          "internalType": "uint256",
          "name": "_amount",
          "type": "uint256"
        }
      ],
      "name": "earn",
      "outputs": [],
      "stateMutability": "nonpayable",
      "type": "function"
    },
    {
      "inputs": [
        {
          "internalType": "uint256",
          "name": "itemId",
          "type": "uint256"
        }
      ],
      "name": "executeMarketAuctionEnd",
      "outputs": [],
      "stateMutability": "nonpayable",
      "type": "function"
    },
    {
      "inputs": [
        {
          "internalType": "uint256",
          "name": "itemId",
          "type": "uint256"
        }
      ],
      "name": "executeMarketSale",
      "outputs": [],
      "stateMutability": "payable",
      "type": "function"
    },
    {
      "inputs": [
        {
          "internalType": "uint256",
          "name": "pageNumber",
          "type": "uint256"
        },
        {
          "internalType": "uint256",
          "name": "pageSize",
          "type": "uint256"
        }
      ],
      "name": "fetchMarketItems",
      "outputs": [
        {
          "components": [
            {
              "internalType": "uint256",
              "name": "itemId",
              "type": "uint256"
            },
            {
              "internalType": "address",
              "name": "nftContract",
              "type": "address"
            },
            {
              "internalType": "uint256",
              "name": "tokenId",
              "type": "uint256"
            },
            {
              "internalType": "bool",
              "name": "onSale",
              "type": "bool"
            },
            {
              "internalType": "address payable",
              "name": "owner",
              "type": "address"
            },
            {
              "internalType": "uint256",
              "name": "price",
              "type": "uint256"
            },
            {
              "internalType": "address payable",
              "name": "highestBidder",
              "type": "address"
            },
            {
              "internalType": "uint256",
              "name": "highestBid",
              "type": "uint256"
            },
            {
              "internalType": "address payable[]",
              "name": "pendingBidders",
              "type": "address[]"
            },
            {
              "internalType": "address payable[]",
              "name": "pendingOffers",
              "type": "address[]"
            },
            {
              "internalType": "bool",
              "name": "auctionEnded",
              "type": "bool"
            },
            {
              "internalType": "address payable",
              "name": "minter",
              "type": "address"
            },
            {
              "internalType": "uint256",
              "name": "royalty",
              "type": "uint256"
            }
          ],
          "internalType": "struct NFTMarket.MarketItem[]",
          "name": "",
          "type": "tuple[]"
        }
      ],
      "stateMutability": "view",
      "type": "function"
    },
    {
      "inputs": [
        {
          "internalType": "uint256",
          "name": "itemId",
          "type": "uint256"
        },
        {
          "internalType": "address",
          "name": "giftingAddress",
          "type": "address"
        }
      ],
      "name": "giftMarketItem",
      "outputs": [],
      "stateMutability": "nonpayable",
      "type": "function"
    },
    {
      "inputs": [
        {
          "internalType": "uint256",
          "name": "",
          "type": "uint256"
        }
      ],
      "name": "idToMarketItem",
      "outputs": [
        {
          "internalType": "uint256",
          "name": "itemId",
          "type": "uint256"
        },
        {
          "internalType": "address",
          "name": "nftContract",
          "type": "address"
        },
        {
          "internalType": "uint256",
          "name": "tokenId",
          "type": "uint256"
        },
        {
          "internalType": "bool",
          "name": "onSale",
          "type": "bool"
        },
        {
          "internalType": "address payable",
          "name": "owner",
          "type": "address"
        },
        {
          "internalType": "uint256",
          "name": "price",
          "type": "uint256"
        },
        {
          "internalType": "address payable",
          "name": "highestBidder",
          "type": "address"
        },
        {
          "internalType": "uint256",
          "name": "highestBid",
          "type": "uint256"
        },
        {
          "internalType": "bool",
          "name": "auctionEnded",
          "type": "bool"
        },
        {
          "internalType": "address payable",
          "name": "minter",
          "type": "address"
        },
        {
          "internalType": "uint256",
          "name": "royalty",
          "type": "uint256"
        }
      ],
      "stateMutability": "view",
      "type": "function"
    },
    {
      "inputs": [],
      "name": "listingPrice",
      "outputs": [
        {
          "internalType": "uint256",
          "name": "",
          "type": "uint256"
        }
      ],
      "stateMutability": "view",
      "type": "function"
    },
    {
      "inputs": [
        {
          "internalType": "uint256",
          "name": "itemId",
          "type": "uint256"
        }
      ],
      "name": "makeAuctionBid",
      "outputs": [],
      "stateMutability": "payable",
      "type": "function"
    },
    {
      "inputs": [
        {
          "internalType": "uint256",
          "name": "itemId",
          "type": "uint256"
        }
      ],
      "name": "makeOffer",
      "outputs": [],
      "stateMutability": "payable",
      "type": "function"
    },
    {
      "inputs": [
        {
          "internalType": "uint256",
          "name": "",
          "type": "uint256"
        },
        {
          "internalType": "address",
          "name": "",
          "type": "address"
        }
      ],
      "name": "pendingOffers",
      "outputs": [
        {
          "internalType": "uint256",
          "name": "",
          "type": "uint256"
        }
      ],
      "stateMutability": "view",
      "type": "function"
    },
    {
      "inputs": [
        {
          "internalType": "uint256",
          "name": "",
          "type": "uint256"
        },
        {
          "internalType": "address",
          "name": "",
          "type": "address"
        }
      ],
      "name": "pendingReturns",
      "outputs": [
        {
          "internalType": "uint256",
          "name": "",
          "type": "uint256"
        }
      ],
      "stateMutability": "view",
      "type": "function"
    },
    {
      "inputs": [
        {
          "internalType": "uint256",
          "name": "itemId",
          "type": "uint256"
        }
      ],
      "name": "rejectAllOffers",
      "outputs": [],
      "stateMutability": "nonpayable",
      "type": "function"
    },
    {
      "inputs": [
        {
          "internalType": "uint256",
          "name": "itemId",
          "type": "uint256"
        },
        {
          "internalType": "address",
          "name": "_offeringAddress",
          "type": "address"
        }
      ],
      "name": "rejectOffer",
      "outputs": [],
      "stateMutability": "nonpayable",
      "type": "function"
    },
    {
      "inputs": [
        {
          "internalType": "uint256",
          "name": "_listingPrice",
          "type": "uint256"
        }
      ],
      "name": "setListingPrice",
      "outputs": [],
      "stateMutability": "nonpayable",
      "type": "function"
    },
    {
      "inputs": [
        {
          "internalType": "uint256",
          "name": "_tokenRate",
          "type": "uint256"
        }
      ],
      "name": "setTokenRate",
      "outputs": [],
      "stateMutability": "nonpayable",
      "type": "function"
    },
    {
      "inputs": [
        {
          "internalType": "uint256",
          "name": "itemId",
          "type": "uint256"
        },
        {
          "internalType": "uint256",
          "name": "royalty",
          "type": "uint256"
        }
      ],
      "name": "setTokenRoyalty",
      "outputs": [],
      "stateMutability": "nonpayable",
      "type": "function"
    },
    {
      "inputs": [],
      "name": "tokenRate",
      "outputs": [
        {
          "internalType": "uint256",
          "name": "",
          "type": "uint256"
        }
      ],
      "stateMutability": "view",
      "type": "function"
    },
    {
      "inputs": [
        {
          "internalType": "uint256",
          "name": "itemId",
          "type": "uint256"
        }
      ],
      "name": "withdrawAuctionBid",
      "outputs": [],
      "stateMutability": "nonpayable",
      "type": "function"
    },
    {
      "inputs": [
        {
          "internalType": "uint256",
          "name": "itemId",
          "type": "uint256"
        }
      ],
      "name": "withdrawOffer",
      "outputs": [],
      "stateMutability": "nonpayable",
      "type": "function"
    }
  ],
  "bytecode": "0x608060405260016003556103e86005553480156200001c57600080fd5b5060405162005243380380620052438339810160408190526200003f9162000078565b600160005560028054336001600160a01b031991821617909155600480549091166001600160a01b0392909216919091179055620000a8565b6000602082840312156200008a578081fd5b81516001600160a01b0381168114620000a1578182fd5b9392505050565b61518b80620000b86000396000f3fe6080604052600436106101ac5760003560e01c80638e72532f116100ec578063c63f61811161008a578063d138a94f11610064578063d138a94f14610483578063db9371c214610496578063e61a70c0146104b6578063e65a01171461059f57600080fd5b8063c63f61811461043a578063c78f19f91461044d578063cfd825a21461046357600080fd5b8063a1c11ca8116100c6578063a1c11ca8146103d4578063b8f1eb6c146103e7578063bc189d3814610407578063c3a3b8ea1461042757600080fd5b80638e72532f14610381578063918d407d146103a15780639a2f6474146103c157600080fd5b806361241c28116101595780637c726b69116101335780637c726b69146102e95780638610f045146103095780638877fafa146103295780638ddac1ef1461034957600080fd5b806361241c28146102945780637063b64e146102b45780637770bd15146102e157600080fd5b8063317118841161018a578063317118841461023e57806349a2f5bf1461025457806358eb2df51461027457600080fd5b80631e877bbf146101b1578063283f766c146101d3578063298a0fde146101f3575b600080fd5b3480156101bd57600080fd5b506101d16101cc366004614d49565b6105bf565b005b3480156101df57600080fd5b506101d16101ee366004614da3565b610ab1565b3480156101ff57600080fd5b5061022b61020e366004614dbb565b600860209081526000928352604080842090915290825290205481565b6040519081526020015b60405180910390f35b34801561024a57600080fd5b5061022b60055481565b34801561026057600080fd5b506101d161026f366004614da3565b61101c565b34801561028057600080fd5b506101d161028f366004614d15565b611567565b3480156102a057600080fd5b506101d16102af366004614da3565b6118dd565b3480156102c057600080fd5b506102d46102cf366004614dea565b61193c565b6040516102359190614e89565b6101d1611db6565b3480156102f557600080fd5b506101d1610304366004614da3565b611ec2565b34801561031557600080fd5b506101d1610324366004614da3565b611f21565b34801561033557600080fd5b506101d1610344366004614dbb565b6121a3565b34801561035557600080fd5b5061022b610364366004614dbb565b600760209081526000928352604080842090915290825290205481565b34801561038d57600080fd5b506101d161039c366004614d15565b612492565b3480156103ad57600080fd5b506101d16103bc366004614dbb565b612963565b6101d16103cf366004614da3565b613202565b6101d16103e2366004614dea565b61339b565b3480156103f357600080fd5b506101d1610402366004614da3565b6137f2565b34801561041357600080fd5b506101d1610422366004614dea565b613c50565b6101d1610435366004614da3565b613cf9565b6101d1610448366004614da3565b613fa8565b34801561045957600080fd5b5061022b60035481565b34801561046f57600080fd5b506101d161047e366004614da3565b614400565b6101d1610491366004614da3565b614564565b3480156104a257600080fd5b506101d16104b1366004614dbb565b6147fc565b3480156104c257600080fd5b5061053e6104d1366004614da3565b6006602081905260009182526040909120805460018201546002830154600384015460048501546005860154968601546009870154600a9097015495976001600160a01b0395861697949660ff80861697610100968790048116979596938116959182169390910416908b565b604080519b8c526001600160a01b039a8b1660208d01528b019890985295151560608a0152938716608089015260a0880192909252851660c087015260e0860152151561010085015290911661012083015261014082015261016001610235565b3480156105ab57600080fd5b506101d16105ba366004614da3565b614af6565b600260005414156106055760405162461bcd60e51b815260206004820152601f602482015260008051602061513683398151915260448201526064015b60405180910390fd5b6002600055816106575760405162461bcd60e51b815260206004820152600d60248201527f496e76616c69642050726963650000000000000000000000000000000000000060448201526064016105fc565b603281111561069a5760405162461bcd60e51b815260206004820152600f60248201526e496e76616c696420726f79616c747960881b60448201526064016105fc565b6040516331a9108f60e11b81526004810184905233906001600160a01b03861690636352211e9060240160206040518083038186803b1580156106dc57600080fd5b505afa1580156106f0573d6000803e3d6000fd5b505050506040513d601f19601f820116820180604052508101906107149190614cf2565b6001600160a01b0316146107635760405162461bcd60e51b815260206004820152601660248201527513dddb995c9cda1a5c08139bdd0815995c9a599a595960521b60448201526064016105fc565b60405163020604bf60e21b81526004810184905230906001600160a01b0386169063081812fc9060240160206040518083038186803b1580156107a557600080fd5b505afa1580156107b9573d6000803e3d6000fd5b505050506040513d601f19601f820116820180604052508101906107dd9190614cf2565b6001600160a01b0316146108235760405162461bcd60e51b815260206004820152600d60248201526c1399595908105c1c1c9bdd985b609a1b60448201526064016105fc565b6060610833600180546001019055565b600061083e60015490565b9050604051806101a00160405280828152602001876001600160a01b03168152602001868152602001600115158152602001336001600160a01b03168152602001858152602001336001600160a01b0316815260200160008152602001838152602001838152602001600115158152602001336001600160a01b0316815260200184815250600660008381526020019081526020016000206000820151816000015560208201518160010160006101000a8154816001600160a01b0302191690836001600160a01b031602179055506040820151816002015560608201518160030160006101000a81548160ff02191690831515021790555060808201518160030160016101000a8154816001600160a01b0302191690836001600160a01b0316021790555060a0820151816004015560c08201518160050160006101000a8154816001600160a01b0302191690836001600160a01b0316021790555060e082015181600601556101008201518160070190805190602001906109c2929190614c78565b5061012082015180516109df916008840191602090910190614c78565b506101408201516009820180546101608501516001600160a81b031990911692151574ffffffffffffffffffffffffffffffffffffffff001916929092176101006001600160a01b039384160217905561018090920151600a909101556040516323b872dd60e01b815233600482015230602482015260448101879052908716906323b872dd90606401600060405180830381600087803b158015610a8357600080fd5b505af1158015610a97573d6000803e3d6000fd5b50505050610aa481614bca565b5050600160005550505050565b60026000541415610af25760405162461bcd60e51b815260206004820152601f602482015260008051602061513683398151915260448201526064016105fc565b600260009081558181526006602052604090206009015460ff1615610b595760405162461bcd60e51b815260206004820152600d60248201527f41756374696f6e20456e6465640000000000000000000000000000000000000060448201526064016105fc565b6000818152600660205260409020600501546001600160a01b03163314610d13576000818152600760209081526040808320338452909152902054610be05760405162461bcd60e51b815260206004820152601060248201527f4e6f6e204578697374696e67204269640000000000000000000000000000000060448201526064016105fc565b6000818152600760209081526040808320338085529252808320549051909283156108fc02918491818181858888f19350505050158015610c25573d6000803e3d6000fd5b50600082815260076020908152604080832033845290915281208190555b600083815260066020526040902060070154811015610d0c576000838152600660205260409020600701805433919083908110610c9057634e487b7160e01b600052603260045260246000fd5b6000918252602090912001546001600160a01b03161415610cfa576000838152600660205260409020600701805482908110610cdc57634e487b7160e01b600052603260045260246000fd5b600091825260209091200180546001600160a01b0319169055610d0c565b80610d04816150ec565b915050610c43565b505061100b565b6000818152600660205260409020600501546001600160a01b03163314610d7c5760405162461bcd60e51b815260206004820152601060248201527f4e6f6e204578697374696e67204269640000000000000000000000000000000060448201526064016105fc565b60008181526006602081905260408083209091015490519091339183156108fc0291849190818181858888f19350505050158015610dbe573d6000803e3d6000fd5b50600082815260066020526040812060038101546007909101546101009091046001600160a01b0316908290610df5906001615067565b905060005b600086815260066020526040902060070154811015610f555760008681526007602081815260408084206001600160a01b0388168552808352818520548b86526006909352908420909201805491939185908110610e6857634e487b7160e01b600052603260045260246000fd5b60009182526020808320909101546001600160a01b031683528201929092526040019020541115610f43576000868152600660205260409020600701805482908110610ec457634e487b7160e01b600052603260045260246000fd5b600091825260208083209091015488835260078083526040808520600690945284200180546001600160a01b0390921696509192919084908110610f1857634e487b7160e01b600052603260045260246000fd5b60009182526020808320909101546001600160a01b0316835282019290925260400190205493509050805b80610f4d816150ec565b915050610dfa565b5060008581526006602081815260408084206005810180546001600160a01b0319166001600160a01b0389169081179091558185018990556007808552838720918752908452918520859055938990529190520154610fb5906001615067565b8114611006576000858152600660205260409020600701805482908110610fec57634e487b7160e01b600052603260045260246000fd5b600091825260209091200180546001600160a01b03191690555b505050505b61101481614bca565b506001600055565b6002600054141561105d5760405162461bcd60e51b815260206004820152601f602482015260008051602061513683398151915260448201526064016105fc565b600260009081558181526006602052604090206009015460ff16156110c45760405162461bcd60e51b815260206004820152601560248201527f41756374696f6e20416c726561647920456e646564000000000000000000000060448201526064016105fc565b600081815260066020819052604090912090810154600582015460029092015490916001600160a01b03169060608315611238576000858152600660205260409020600a8101546003918201549154909161010090046001600160a01b0316906108fc90606490849061113790836150be565b61114191906150be565b61114b908961509f565b611155919061507f565b6040518115909202916000818181858888f1935050505015801561117d573d6000803e3d6000fd5b5060008681526006602052604090206009015461010090046001600160a01b03166108fc60646111ad848961509f565b6111b7919061507f565b6040518115909202916000818181858888f193505050501580156111df573d6000803e3d6000fd5b506002546003546001600160a01b03909116906108fc90606490611203908961509f565b61120d919061507f565b6040518115909202916000818181858888f19350505050158015611235573d6000803e3d6000fd5b50505b600085815260066020526040908190206001015490516323b872dd60e01b81523060048201526001600160a01b03858116602483015260448201859052909116906323b872dd90606401600060405180830381600087803b15801561129c57600080fd5b505af11580156112b0573d6000803e3d6000fd5b5050505060005b6000868152600660205260409020600701548110156114d657600086815260066020526040812060070180548390811061130157634e487b7160e01b600052603260045260246000fd5b6000918252602090912001546001600160a01b031614801590611384575060008681526007602081815260408084206006909252832090910180548391908590811061135d57634e487b7160e01b600052603260045260246000fd5b60009182526020808320909101546001600160a01b03168352820192909252604001902054115b156114c45760008681526006602052604090206007018054829081106113ba57634e487b7160e01b600052603260045260246000fd5b600091825260208083209091015488835260078083526040808520600690945284200180546001600160a01b03909216936108fc93929091908690811061141157634e487b7160e01b600052603260045260246000fd5b60009182526020808320909101546001600160a01b03168352820192909252604090810182205490518115909302929091818181858888f1935050505015801561145f573d6000803e3d6000fd5b5060008681526007602081815260408084206006909252832090910180548391908590811061149e57634e487b7160e01b600052603260045260246000fd5b60009182526020808320909101546001600160a01b031683528201929092526040019020555b806114ce816150ec565b9150506112b7565b506000858152600660208181526040832060038101805460ff196001600160a01b038a16610100810282166001600160a81b0319909316929092179092556005830180546001600160a01b03191690911790559281019390935560098301805490921660011790915582516115519260070191840190614c78565b5061155b85614bca565b50506001600055505050565b600260005414156115a85760405162461bcd60e51b815260206004820152601f602482015260008051602061513683398151915260448201526064016105fc565b600260005560328111156115f05760405162461bcd60e51b815260206004820152600f60248201526e496e76616c696420726f79616c747960881b60448201526064016105fc565b6040516331a9108f60e11b81526004810183905233906001600160a01b03851690636352211e9060240160206040518083038186803b15801561163257600080fd5b505afa158015611646573d6000803e3d6000fd5b505050506040513d601f19601f8201168201806040525081019061166a9190614cf2565b6001600160a01b0316146116b95760405162461bcd60e51b815260206004820152601660248201527513dddb995c9cda1a5c08139bdd0815995c9a599a595960521b60448201526064016105fc565b60606116c9600180546001019055565b60006116d460015490565b9050604051806101a00160405280828152602001866001600160a01b03168152602001858152602001600015158152602001336001600160a01b0316815260200160008152602001336001600160a01b0316815260200160008152602001838152602001838152602001600115158152602001336001600160a01b0316815260200184815250600660008381526020019081526020016000206000820151816000015560208201518160010160006101000a8154816001600160a01b0302191690836001600160a01b031602179055506040820151816002015560608201518160030160006101000a81548160ff02191690831515021790555060808201518160030160016101000a8154816001600160a01b0302191690836001600160a01b0316021790555060a0820151816004015560c08201518160050160006101000a8154816001600160a01b0302191690836001600160a01b0316021790555060e08201518160060155610100820151816007019080519060200190611859929190614c78565b506101208201518051611876916008840191602090910190614c78565b506101408201516009820180546101608501516001600160a01b03166101000274ffffffffffffffffffffffffffffffffffffffff0019931515939093166001600160a81b03199091161791909117905561018090910151600a9091015561155b81614bca565b6002546001600160a01b031633146119375760405162461bcd60e51b815260206004820152600d60248201527f496e76616c6964204f776e65720000000000000000000000000000000000000060448201526064016105fc565b600555565b6060600061194960015490565b90506000611957848661509f565b611962906001615067565b905060008467ffffffffffffffff81111561198d57634e487b7160e01b600052604160045260246000fd5b604051908082528060200260200182016040528015611a2357816020015b604080516101a0810182526000808252602080830182905292820181905260608083018290526080830182905260a0830182905260c0830182905260e0830182905261010083018190526101208301526101408201819052610160820181905261018082015282526000199092019101816119ab5790505b509050825b828110158015611a39575060018110155b15611be95760008181526006602081815260409283902083516101a0810185528154815260018201546001600160a01b0390811682850152600283015482870152600383015460ff8116151560608401526101009081900482166080840152600484015460a0840152600584015490911660c08301529382015460e082015260078201805486518186028101860190975280875291959294860193909190830182828015611b1057602002820191906000526020600020905b81546001600160a01b03168152600190910190602001808311611af2575b5050505050815260200160088201805480602002602001604051908101604052809291908181526020018280548015611b7257602002820191906000526020600020905b81546001600160a01b03168152600190910190602001808311611b54575b5050509183525050600982015460ff81161515602083015261010090046001600160a01b03166040820152600a909101546060909101528251839083908110611bcb57634e487b7160e01b600052603260045260246000fd5b60200260200101819052508080611be1906150d5565b915050611a28565b5060005b600083118015611bfc57508581105b15611dac5760008181526006602081815260409283902083516101a0810185528154815260018201546001600160a01b0390811682850152600283015482870152600383015460ff8116151560608401526101009081900482166080840152600484015460a0840152600584015490911660c08301529382015460e082015260078201805486518186028101860190975280875291959294860193909190830182828015611cd357602002820191906000526020600020905b81546001600160a01b03168152600190910190602001808311611cb5575b5050505050815260200160088201805480602002602001604051908101604052809291908181526020018280548015611d3557602002820191906000526020600020905b81546001600160a01b03168152600190910190602001808311611d17575b5050509183525050600982015460ff81161515602083015261010090046001600160a01b03166040820152600a909101546060909101528251839083908110611d8e57634e487b7160e01b600052603260045260246000fd5b60200260200101819052508080611da4906150ec565b915050611bed565b5095945050505050565b60026000541415611df75760405162461bcd60e51b815260206004820152601f602482015260008051602061513683398151915260448201526064016105fc565b60026000556004805460405163a9059cbb60e01b815233928101929092523460248301526001600160a01b03169063a9059cbb90604401602060405180830381600087803b158015611e4857600080fd5b505af1158015611e5c573d6000803e3d6000fd5b505050506040513d601f19601f82011682018060405250810190611e809190614d83565b611e8957600080fd5b6002546040516001600160a01b03909116903480156108fc02916000818181858888f19350505050158015611014573d6000803e3d6000fd5b6002546001600160a01b03163314611f1c5760405162461bcd60e51b815260206004820152600d60248201527f496e76616c6964204f776e65720000000000000000000000000000000000000060448201526064016105fc565b600355565b60026000541415611f625760405162461bcd60e51b815260206004820152601f602482015260008051602061513683398151915260448201526064016105fc565b600260009081558181526006602052604090206009015460ff16611fb55760405162461bcd60e51b815260206004820152600a60248201526927b71020bab1ba34b7b760b11b60448201526064016105fc565b60008181526006602052604090206004015415611ffe5760405162461bcd60e51b81526020600482015260076024820152664f6e2053616c6560c81b60448201526064016105fc565b60008181526008602090815260408083203384529091529020546120645760405162461bcd60e51b815260206004820152601260248201527f4e6f6e204578697374696e67204f66666572000000000000000000000000000060448201526064016105fc565b6000818152600860209081526040808320338085529252808320549051909283156108fc02918491818181858888f193505050501580156120a9573d6000803e3d6000fd5b50600082815260086020908152604080832033845290915281208190555b60008381526006602052604090206008015481101561219057600083815260066020526040902060080180543391908390811061211457634e487b7160e01b600052603260045260246000fd5b6000918252602090912001546001600160a01b0316141561217e57600083815260066020526040902060080180548290811061216057634e487b7160e01b600052603260045260246000fd5b600091825260209091200180546001600160a01b0319169055612190565b80612188816150ec565b9150506120c7565b5061219a82614bca565b50506001600055565b600260005414156121e45760405162461bcd60e51b815260206004820152601f602482015260008051602061513683398151915260448201526064016105fc565b600260008181558381526006602052604090819020600181015492015490516331a9108f60e11b8152600481019190915233916001600160a01b031690636352211e9060240160206040518083038186803b15801561224257600080fd5b505afa158015612256573d6000803e3d6000fd5b505050506040513d601f19601f8201168201806040525081019061227a9190614cf2565b6001600160a01b03161480156122ae575060008281526006602052604090206003015461010090046001600160a01b031633145b6122f35760405162461bcd60e51b815260206004820152601660248201527513dddb995c9cda1a5c08139bdd0815995c9a599a595960521b60448201526064016105fc565b600082815260066020526040908190206001810154600290910154915163020604bf60e21b8152600481019290925230916001600160a01b039091169063081812fc9060240160206040518083038186803b15801561235157600080fd5b505afa158015612365573d6000803e3d6000fd5b505050506040513d601f19601f820116820180604052508101906123899190614cf2565b6001600160a01b0316146123cf5760405162461bcd60e51b815260206004820152600d60248201526c1399595908105c1c1c9bdd985b609a1b60448201526064016105fc565b6000828152600660205260409081902060018101546002909101549151632142170760e11b81523360048201526001600160a01b03848116602483015260448201939093529116906342842e0e90606401600060405180830381600087803b15801561243a57600080fd5b505af115801561244e573d6000803e3d6000fd5b50505060008381526006602052604081206003810180546001600160a81b0319166101006001600160a01b0387160260ff1916179055600401555061219a82614bca565b600260005414156124d35760405162461bcd60e51b815260206004820152601f602482015260008051602061513683398151915260448201526064016105fc565b6002600055603281111561251b5760405162461bcd60e51b815260206004820152600f60248201526e496e76616c696420726f79616c747960881b60448201526064016105fc565b60405163020604bf60e21b81526004810183905230906001600160a01b0385169063081812fc9060240160206040518083038186803b15801561255d57600080fd5b505afa158015612571573d6000803e3d6000fd5b505050506040513d601f19601f820116820180604052508101906125959190614cf2565b6001600160a01b0316146125eb5760405162461bcd60e51b815260206004820152601a60248201527f4d61726b6574204469646e27742047657420417070726f76616c00000000000060448201526064016105fc565b6040516331a9108f60e11b81526004810183905233906001600160a01b03851690636352211e9060240160206040518083038186803b15801561262d57600080fd5b505afa158015612641573d6000803e3d6000fd5b505050506040513d601f19601f820116820180604052508101906126659190614cf2565b6001600160a01b0316146126e15760405162461bcd60e51b815260206004820152603260248201527f596f75204d75737420426520546865204f776e6572204f662054686973204e4660448201527f5420546f2043726561746520412053616c65000000000000000000000000000060648201526084016105fc565b60606126f1600180546001019055565b60006126fc60015490565b9050604051806101a00160405280828152602001866001600160a01b03168152602001858152602001600015158152602001336001600160a01b0316815260200160008152602001336001600160a01b0316815260200160008152602001838152602001838152602001600015158152602001336001600160a01b0316815260200184815250600660008381526020019081526020016000206000820151816000015560208201518160010160006101000a8154816001600160a01b0302191690836001600160a01b031602179055506040820151816002015560608201518160030160006101000a81548160ff02191690831515021790555060808201518160030160016101000a8154816001600160a01b0302191690836001600160a01b0316021790555060a0820151816004015560c08201518160050160006101000a8154816001600160a01b0302191690836001600160a01b0316021790555060e08201518160060155610100820151816007019080519060200190612881929190614c78565b50610120820151805161289e916008840191602090910190614c78565b506101408201516009820180546101608501516001600160a81b031990911692151574ffffffffffffffffffffffffffffffffffffffff001916929092176101006001600160a01b039384160217905561018090920151600a909101556040516323b872dd60e01b815233600482015230602482015260448101869052908616906323b872dd90606401600060405180830381600087803b15801561294257600080fd5b505af1158015612956573d6000803e3d6000fd5b5050505061155b81614bca565b600260005414156129a45760405162461bcd60e51b815260206004820152601f602482015260008051602061513683398151915260448201526064016105fc565b600260009081558281526006602052604090206003015461010090046001600160a01b03163314612a3d5760405162461bcd60e51b815260206004820152603560248201527f596f75204d75737420426520546865204f776e6572204f662054686973204e4660448201527f5420546f2041636365707420546865204f66666572000000000000000000000060648201526084016105fc565b60008281526006602052604090819020600181015460029091015491516331a9108f60e11b8152600481019290925233916001600160a01b0390911690636352211e9060240160206040518083038186803b158015612a9b57600080fd5b505afa158015612aaf573d6000803e3d6000fd5b505050506040513d601f19601f82011682018060405250810190612ad39190614cf2565b6001600160a01b031614612b4f5760405162461bcd60e51b815260206004820152603560248201527f596f75204d75737420426520546865204f776e6572204f662054686973204e4660448201527f5420546f2041636365707420546865204f66666572000000000000000000000060648201526084016105fc565b600082815260066020526040908190206001810154600290910154915163020604bf60e21b8152600481019290925230916001600160a01b039091169063081812fc9060240160206040518083038186803b158015612bad57600080fd5b505afa158015612bc1573d6000803e3d6000fd5b505050506040513d601f19601f82011682018060405250810190612be59190614cf2565b6001600160a01b031614612c3b5760405162461bcd60e51b815260206004820152601a60248201527f4d61726b6574204469646e27742047657420417070726f76616c00000000000060448201526064016105fc565b60008281526006602052604090206009015460ff16612c9c5760405162461bcd60e51b815260206004820181905260248201527f54686973204e46542069732043757272656e746c79206f6e2041756374696f6e60448201526064016105fc565b60008281526008602090815260408083206001600160a01b0385168452909152902054612d315760405162461bcd60e51b815260206004820152603960248201527f54686973204164647265737320446f65736e2774204861766520416e7920437560448201527f7272656e74204f666665727320466f722054686973204e46540000000000000060648201526084016105fc565b60008281526008602090815260408083206001600160a01b0380861685529083528184205486855260069093529220600a810154600391820154915492936060939192610100900416906108fc906064908490612d8e90836150be565b612d9891906150be565b612da2908761509f565b612dac919061507f565b6040518115909202916000818181858888f19350505050158015612dd4573d6000803e3d6000fd5b5060008581526006602052604090206009015461010090046001600160a01b03166108fc6064612e04848761509f565b612e0e919061507f565b6040518115909202916000818181858888f19350505050158015612e36573d6000803e3d6000fd5b506002546003546001600160a01b03909116906108fc90606490612e5a908761509f565b612e64919061507f565b6040518115909202916000818181858888f19350505050158015612e8c573d6000803e3d6000fd5b5060008581526006602052604090819020600181015460038201546002909201549251632142170760e11b81526001600160a01b03610100909304831660048201528783166024820152604481019390935216906342842e0e90606401600060405180830381600087803b158015612f0357600080fd5b505af1158015612f17573d6000803e3d6000fd5b50505060008681526008602090815260408083206001600160a01b0389168452909152812081905590505b600086815260066020526040902060080154811015613161576000868152600660205260408120600801805483908110612f8c57634e487b7160e01b600052603260045260246000fd5b6000918252602090912001546001600160a01b03161480159061300f5750600086815260086020818152604080842060069092528320909101805483919085908110612fe857634e487b7160e01b600052603260045260246000fd5b60009182526020808320909101546001600160a01b03168352820192909252604001902054115b1561314f57600086815260066020526040902060080180548290811061304557634e487b7160e01b600052603260045260246000fd5b600091825260208083209091015488835260088083526040808520600690945284200180546001600160a01b03909216936108fc93929091908690811061309c57634e487b7160e01b600052603260045260246000fd5b60009182526020808320909101546001600160a01b03168352820192909252604090810182205490518115909302929091818181858888f193505050501580156130ea573d6000803e3d6000fd5b5060008681526007602090815260408083206006909252822060080180548391908590811061312957634e487b7160e01b600052603260045260246000fd5b60009182526020808320909101546001600160a01b031683528201929092526040019020555b80613159816150ec565b915050612f42565b506000858152600660208181526040832060038101805460ff196001600160a01b038b16610100810282166001600160a81b0319909316929092179092556005830180546001600160a01b03191690911790559281019390935560098301805490921660011790915583516131dc9260070191850190614c78565b506000858152600660209081526040909120835161155192600890920191850190614c78565b600260005414156132435760405162461bcd60e51b815260206004820152601f602482015260008051602061513683398151915260448201526064016105fc565b600260009081558181526006602052604090206009015460ff166132965760405162461bcd60e51b815260206004820152600a60248201526927b71020bab1ba34b7b760b11b60448201526064016105fc565b600081815260066020526040902060040154156132df5760405162461bcd60e51b81526020600482015260076024820152664f6e2053616c6560c81b60448201526064016105fc565b6000818152600860209081526040808320338452909152902054156133465760405162461bcd60e51b815260206004820152601660248201527f416c7265616479204578697374696e67204f666665720000000000000000000060448201526064016105fc565b600081815260086020818152604080842033808652908352818520349055858552600683529084209092018054600181018255908452922090910180546001600160a01b031916909117905561101481614bca565b600260005414156133dc5760405162461bcd60e51b815260206004820152601f602482015260008051602061513683398151915260448201526064016105fc565b600260008181558381526006602052604090819020918201546001830154600a9093015491516331a9108f60e11b81526004810182905290926001600160a01b0316919033908390636352211e9060240160206040518083038186803b15801561344557600080fd5b505afa158015613459573d6000803e3d6000fd5b505050506040513d601f19601f8201168201806040525081019061347d9190614cf2565b6001600160a01b0316146134cc5760405162461bcd60e51b815260206004820152601660248201527513dddb995c9cda1a5c08139bdd0815995c9a599a595960521b60448201526064016105fc565b60405163020604bf60e21b81526004810184905230906001600160a01b0384169063081812fc9060240160206040518083038186803b15801561350e57600080fd5b505afa158015613522573d6000803e3d6000fd5b505050506040513d601f19601f820116820180604052508101906135469190614cf2565b6001600160a01b03161461358c5760405162461bcd60e51b815260206004820152600d60248201526c1399595908105c1c1c9bdd985b609a1b60448201526064016105fc565b6060604051806101a00160405280878152602001846001600160a01b03168152602001858152602001600115158152602001336001600160a01b03168152602001868152602001336001600160a01b0316815260200160008152602001828152602001828152602001600115158152602001336001600160a01b0316815260200183815250600660008881526020019081526020016000206000820151816000015560208201518160010160006101000a8154816001600160a01b0302191690836001600160a01b031602179055506040820151816002015560608201518160030160006101000a81548160ff02191690831515021790555060808201518160030160016101000a8154816001600160a01b0302191690836001600160a01b0316021790555060a0820151816004015560c08201518160050160006101000a8154816001600160a01b0302191690836001600160a01b0316021790555060e08201518160060155610100820151816007019080519060200190613710929190614c78565b50610120820151805161372d916008840191602090910190614c78565b506101408201516009820180546101608501516001600160a81b031990911692151574ffffffffffffffffffffffffffffffffffffffff001916929092176101006001600160a01b039384160217905561018090920151600a909101556040516323b872dd60e01b815233600482015230602482015260448101869052908416906323b872dd90606401600060405180830381600087803b1580156137d157600080fd5b505af11580156137e5573d6000803e3d6000fd5b50505050610aa486614bca565b600260005414156138335760405162461bcd60e51b815260206004820152601f602482015260008051602061513683398151915260448201526064016105fc565b600260009081558181526006602052604090206009015460ff166138995760405162461bcd60e51b815260206004820152600b60248201527f4f6e2041756374696f6e2e00000000000000000000000000000000000000000060448201526064016105fc565b6000818152600660205260409020600801546138f75760405162461bcd60e51b815260206004820152601360248201527f4e6f204578697374696e67204f66666572732e0000000000000000000000000060448201526064016105fc565b60008181526006602052604090819020600181015460029091015491516331a9108f60e11b8152600481019290925233916001600160a01b0390911690636352211e9060240160206040518083038186803b15801561395557600080fd5b505afa158015613969573d6000803e3d6000fd5b505050506040513d601f19601f8201168201806040525081019061398d9190614cf2565b6001600160a01b03161480156139c1575060008181526006602052604090206003015461010090046001600160a01b031633145b613a065760405162461bcd60e51b815260206004820152601660248201527513dddb995c9cda1a5c08139bdd0815995c9a599a595960521b60448201526064016105fc565b606060005b600083815260066020526040902060080154811015613c2a576000838152600660205260408120600801805483908110613a5557634e487b7160e01b600052603260045260246000fd5b6000918252602090912001546001600160a01b031614801590613ad85750600083815260086020818152604080842060069092528320909101805483919085908110613ab157634e487b7160e01b600052603260045260246000fd5b60009182526020808320909101546001600160a01b03168352820192909252604001902054115b15613c18576000838152600660205260409020600801805482908110613b0e57634e487b7160e01b600052603260045260246000fd5b600091825260208083209091015485835260088083526040808520600690945284200180546001600160a01b03909216936108fc939290919086908110613b6557634e487b7160e01b600052603260045260246000fd5b60009182526020808320909101546001600160a01b03168352820192909252604090810182205490518115909302929091818181858888f19350505050158015613bb3573d6000803e3d6000fd5b50600083815260086020818152604080842060069092528320909101805483919085908110613bf257634e487b7160e01b600052603260045260246000fd5b60009182526020808320909101546001600160a01b031683528201929092526040019020555b80613c22816150ec565b915050613a0b565b506000828152600660209081526040909120825161219092600890920191840190614c78565b600082815260066020526040902060038101546009909101546001600160a01b0361010092839004811692909104163382148015613c965750336001600160a01b038216145b613ce25760405162461bcd60e51b815260206004820152601660248201527f496e76616c6964204d69746572206f72204f776e65720000000000000000000060448201526064016105fc565b5050600091825260066020526040909120600a0155565b60026000541415613d3a5760405162461bcd60e51b815260206004820152601f602482015260008051602061513683398151915260448201526064016105fc565b600260009081558181526006602081905260409091206005810154918101546009909101546001600160a01b039092169160ff1615613dbb5760405162461bcd60e51b815260206004820152600d60248201527f41756374696f6e20456e6465640000000000000000000000000000000000000060448201526064016105fc565b600083815260076020908152604080832033845290915290205415613e225760405162461bcd60e51b815260206004820152601460248201527f416c7265616479204578697374696e672042696400000000000000000000000060448201526064016105fc565b60008381526006602052604090206003015461010090046001600160a01b0316331415613e915760405162461bcd60e51b815260206004820152600e60248201527f496e76616c69642042696464657200000000000000000000000000000000000060448201526064016105fc565b803411613ee05760405162461bcd60e51b815260206004820152600b60248201527f496e76616c69642042696400000000000000000000000000000000000000000060448201526064016105fc565b60008381526006602081905260409091206005810180546001600160a01b03191633179055349101558015801590613f3a57506000838152600660205260409020600301546001600160a01b038381166101009092041614155b15613f95576000838152600660209081526040808320600790810180546001810182559085528385200180546001600160a01b0319166001600160a01b03881690811790915587855290835281842090845290915290208190555b613f9e83614bca565b5050600160005550565b60026000541415613fe95760405162461bcd60e51b815260206004820152601f602482015260008051602061513683398151915260448201526064016105fc565b600260008181558281526006602052604090819020918201546001830154600a9093015491516331a9108f60e11b81526004810182905290926001600160a01b0316919033908390636352211e9060240160206040518083038186803b15801561405257600080fd5b505afa158015614066573d6000803e3d6000fd5b505050506040513d601f19601f8201168201806040525081019061408a9190614cf2565b6001600160a01b0316146140d95760405162461bcd60e51b815260206004820152601660248201527513dddb995c9cda1a5c08139bdd0815995c9a599a595960521b60448201526064016105fc565b60405163020604bf60e21b81526004810184905230906001600160a01b0384169063081812fc9060240160206040518083038186803b15801561411b57600080fd5b505afa15801561412f573d6000803e3d6000fd5b505050506040513d601f19601f820116820180604052508101906141539190614cf2565b6001600160a01b0316146141995760405162461bcd60e51b815260206004820152600d60248201526c1399595908105c1c1c9bdd985b609a1b60448201526064016105fc565b6060604051806101a00160405280868152602001846001600160a01b03168152602001858152602001600015158152602001336001600160a01b0316815260200160008152602001336001600160a01b0316815260200160008152602001828152602001828152602001600015158152602001336001600160a01b0316815260200183815250600660008781526020019081526020016000206000820151816000015560208201518160010160006101000a8154816001600160a01b0302191690836001600160a01b031602179055506040820151816002015560608201518160030160006101000a81548160ff02191690831515021790555060808201518160030160016101000a8154816001600160a01b0302191690836001600160a01b0316021790555060a0820151816004015560c08201518160050160006101000a8154816001600160a01b0302191690836001600160a01b0316021790555060e0820151816006015561010082015181600701908051906020019061431e929190614c78565b50610120820151805161433b916008840191602090910190614c78565b506101408201516009820180546101608501516001600160a81b031990911692151574ffffffffffffffffffffffffffffffffffffffff001916929092176101006001600160a01b039384160217905561018090920151600a909101556040516323b872dd60e01b815233600482015230602482015260448101869052908416906323b872dd90606401600060405180830381600087803b1580156143df57600080fd5b505af11580156143f3573d6000803e3d6000fd5b5050505061155b85614bca565b600260005414156144415760405162461bcd60e51b815260206004820152601f602482015260008051602061513683398151915260448201526064016105fc565b600260009081558181526006602052604090206003015461010090046001600160a01b031633146144ad5760405162461bcd60e51b815260206004820152601660248201527513dddb995c9cda1a5c08139bdd0815995c9a599a595960521b60448201526064016105fc565b60008181526006602052604090819020600181015460029091015491516323b872dd60e01b815230600482015233602482015260448101929092526001600160a01b0316906323b872dd90606401600060405180830381600087803b15801561451557600080fd5b505af1158015614529573d6000803e3d6000fd5b50505060008281526006602052604081206003810180546001600160a81b031916336101000260ff1916179055600401555061101481614bca565b600260005414156145a55760405162461bcd60e51b815260206004820152601f602482015260008051602061513683398151915260448201526064016105fc565b6002600090815581815260066020526040902060040154341461460a5760405162461bcd60e51b815260206004820152600d60248201527f496e56616c69642050726963650000000000000000000000000000000000000060448201526064016105fc565b6000818152600660205260409020600a8101546009820154600392830154925491926001600160a01b03610100928390048116939290910416906108fc90606490859061465790836150be565b61466191906150be565b61466b903461509f565b614675919061507f565b6040518115909202916000818181858888f1935050505015801561469d573d6000803e3d6000fd5b506001600160a01b0381166108fc60646146b7853461509f565b6146c1919061507f565b6040518115909202916000818181858888f193505050501580156146e9573d6000803e3d6000fd5b5060008381526006602052604090819020600181015460029091015491516323b872dd60e01b815230600482015233602482015260448101929092526001600160a01b0316906323b872dd90606401600060405180830381600087803b15801561475257600080fd5b505af1158015614766573d6000803e3d6000fd5b5050506000848152600660205260408120600380820180546001600160a81b031916336101000260ff191617905560049091019190915560025490546001600160a01b0390911691506108fc906064906147c0903461509f565b6147ca919061507f565b6040518115909202916000818181858888f193505050501580156147f2573d6000803e3d6000fd5b50613f9e83614bca565b6002600054141561483d5760405162461bcd60e51b815260206004820152601f602482015260008051602061513683398151915260448201526064016105fc565b600260009081558281526006602052604090206003015461010090046001600160a01b031633146148a95760405162461bcd60e51b815260206004820152601660248201527513dddb995c9cda1a5c08139bdd0815995c9a599a595960521b60448201526064016105fc565b60008281526006602052604090206009015460ff166148f75760405162461bcd60e51b815260206004820152600a60248201526927b71020bab1ba34b7b760b11b60448201526064016105fc565b600082815260066020526040902060040154156149405760405162461bcd60e51b81526020600482015260076024820152664f6e2053616c6560c81b60448201526064016105fc565b60008281526008602090815260408083206001600160a01b03851684529091529020546149af5760405162461bcd60e51b815260206004820152601260248201527f4e6f6e204578697374696e67204f66666572000000000000000000000000000060448201526064016105fc565b60008281526008602090815260408083206001600160a01b0385168085529252808320549051909283156108fc02918491818181858888f193505050501580156149fd573d6000803e3d6000fd5b5060008381526008602090815260408083206001600160a01b038616845290915281208190555b6000848152600660205260409020600801548110156147f257600084815260066020526040902060080180546001600160a01b038516919083908110614a7a57634e487b7160e01b600052603260045260246000fd5b6000918252602090912001546001600160a01b03161415614ae4576000848152600660205260409020600801805482908110614ac657634e487b7160e01b600052603260045260246000fd5b600091825260209091200180546001600160a01b03191690556147f2565b80614aee816150ec565b915050614a24565b60026000541415614b375760405162461bcd60e51b815260206004820152601f602482015260008051602061513683398151915260448201526064016105fc565b60026000556004805460405163a9059cbb60e01b81523392810192909252602482018390526001600160a01b03169063a9059cbb90604401602060405180830381600087803b158015614b8957600080fd5b505af1158015614b9d573d6000803e3d6000fd5b505050506040513d601f19601f82011682018060405250810190614bc19190614d83565b61101457600080fd5b60008181526006602081905260409182902060018101546002820154600383015460048401546005850154958501546009860154600a87015498517fe7b497859fb67e1e82b846375b7b49dd75eba57275f7be145fed7a9fc212b94899614c6d998c996001600160a01b03998a169960ff808a16996101009081900483169998948316979496600785019660089095019592831694919092049092169190614fac565b60405180910390a150565b828054828255906000526020600020908101928215614ccd579160200282015b82811115614ccd57825182546001600160a01b0319166001600160a01b03909116178255602090920191600190910190614c98565b50614cd9929150614cdd565b5090565b5b80821115614cd95760008155600101614cde565b600060208284031215614d03578081fd5b8151614d0e8161511d565b9392505050565b600080600060608486031215614d29578182fd5b8335614d348161511d565b95602085013595506040909401359392505050565b60008060008060808587031215614d5e578081fd5b8435614d698161511d565b966020860135965060408601359560600135945092505050565b600060208284031215614d94578081fd5b81518015158114614d0e578182fd5b600060208284031215614db4578081fd5b5035919050565b60008060408385031215614dcd578182fd5b823591506020830135614ddf8161511d565b809150509250929050565b60008060408385031215614dfc578182fd5b50508035926020909101359150565b6000815180845260208085019450808401835b83811015614e435781516001600160a01b031687529582019590820190600101614e1e565b509495945050505050565b6000815480845260208085019450838352808320835b83811015614e435781546001600160a01b031687529582019560019182019101614e64565b60006020808301818452808551808352604092508286019150828160051b870101848801865b83811015614f9e57603f19898403018552815180518452878101516001600160a01b0390811689860152878201518886015260608083015115159086015260808083015182169086015260a0808301519086015260c0808301519091169085015260e08082015190850152610100808201516101a08287018190529190614f3883880182614e0b565b925050506101208083015186830382880152614f548382614e0b565b9250505061014080830151614f6c8288018215159052565b5050610160828101516001600160a01b0316908601526101809182015191909401529386019390860190600101614eaf565b509098975050505050505050565b60006101a08f83526001600160a01b038f1660208401528d60408401528c15156060840152614fe6608084018d6001600160a01b03169052565b8a60a084015261500160c084018b6001600160a01b03169052565b8860e08401528061010084015261501a81840189614e4e565b905082810361012084015261502f8188614e4e565b91505061504161014083018615159052565b6001600160a01b039390931661016082015261018001529b9a5050505050505050505050565b6000821982111561507a5761507a615107565b500190565b60008261509a57634e487b7160e01b81526012600452602481fd5b500490565b60008160001904831182151516156150b9576150b9615107565b500290565b6000828210156150d0576150d0615107565b500390565b6000816150e4576150e4615107565b506000190190565b600060001982141561510057615100615107565b5060010190565b634e487b7160e01b600052601160045260246000fd5b6001600160a01b038116811461513257600080fd5b5056fe5265656e7472616e637947756172643a207265656e7472616e742063616c6c00a2646970667358221220c91764adbd974e9976bc3c6adb789f4aedb193d1364210edfc2b92818825619f64736f6c63430008040033",
  "linkReferences": {},
  "deployedLinkReferences": {}
}