{
  "_format": "hh-sol-artifact-1",
  "contractName": "NFTMarket",
  "sourceName": "contracts/NFTMarket.sol",
  "abi": [
    {
      "inputs": [
        {
          "internalType": "address",
          "name": "_tokenAddress",
          "type": "address"
        }
      ],
      "stateMutability": "nonpayable",
      "type": "constructor"
    },
    {
      "anonymous": false,
      "inputs": [
        {
          "indexed": false,
          "internalType": "uint256",
          "name": "itemId",
          "type": "uint256"
        },
        {
          "indexed": false,
          "internalType": "address",
          "name": "nftContract",
          "type": "address"
        },
        {
          "indexed": false,
          "internalType": "uint256",
          "name": "tokenId",
          "type": "uint256"
        },
        {
          "indexed": false,
          "internalType": "bool",
          "name": "onSale",
          "type": "bool"
        },
        {
          "indexed": false,
          "internalType": "address payable",
          "name": "owner",
          "type": "address"
        },
        {
          "indexed": false,
          "internalType": "uint256",
          "name": "price",
          "type": "uint256"
        },
        {
          "indexed": false,
          "internalType": "address payable",
          "name": "highestBidder",
          "type": "address"
        },
        {
          "indexed": false,
          "internalType": "uint256",
          "name": "highestBid",
          "type": "uint256"
        },
        {
          "indexed": false,
          "internalType": "address payable[]",
          "name": "pendingBidders",
          "type": "address[]"
        },
        {
          "indexed": false,
          "internalType": "address payable[]",
          "name": "pendingOffers",
          "type": "address[]"
        },
        {
          "indexed": false,
          "internalType": "bool",
          "name": "auctionEnded",
          "type": "bool"
        }
      ],
      "name": "UpdatedMarketItem",
      "type": "event"
    },
    {
      "inputs": [
        {
          "internalType": "uint256",
          "name": "itemId",
          "type": "uint256"
        },
        {
          "internalType": "address",
          "name": "_offeringAddress",
          "type": "address"
        }
      ],
      "name": "acceptOffer",
      "outputs": [],
      "stateMutability": "nonpayable",
      "type": "function"
    },
    {
      "inputs": [
        {
          "internalType": "uint256",
          "name": "itemId",
          "type": "uint256"
        }
      ],
      "name": "cancelMarketSale",
      "outputs": [],
      "stateMutability": "nonpayable",
      "type": "function"
    },
    {
      "inputs": [
        {
          "internalType": "uint256",
          "name": "itemId",
          "type": "uint256"
        }
      ],
      "name": "createMarketAuction",
      "outputs": [],
      "stateMutability": "payable",
      "type": "function"
    },
    {
      "inputs": [
        {
          "internalType": "address",
          "name": "nftContract",
          "type": "address"
        },
        {
          "internalType": "uint256",
          "name": "tokenId",
          "type": "uint256"
        }
      ],
      "name": "createMarketItem",
      "outputs": [],
      "stateMutability": "nonpayable",
      "type": "function"
    },
    {
      "inputs": [
        {
          "internalType": "address",
          "name": "nftContract",
          "type": "address"
        },
        {
          "internalType": "uint256",
          "name": "tokenId",
          "type": "uint256"
        }
      ],
      "name": "createMarketItemForAuction",
      "outputs": [],
      "stateMutability": "nonpayable",
      "type": "function"
    },
    {
      "inputs": [
        {
          "internalType": "address",
          "name": "nftContract",
          "type": "address"
        },
        {
          "internalType": "uint256",
          "name": "tokenId",
          "type": "uint256"
        },
        {
          "internalType": "uint256",
          "name": "price",
          "type": "uint256"
        }
      ],
      "name": "createMarketItemForSale",
      "outputs": [],
      "stateMutability": "nonpayable",
      "type": "function"
    },
    {
      "inputs": [
        {
          "internalType": "uint256",
          "name": "itemId",
          "type": "uint256"
        },
        {
          "internalType": "uint256",
          "name": "price",
          "type": "uint256"
        }
      ],
      "name": "createMarketSale",
      "outputs": [],
      "stateMutability": "payable",
      "type": "function"
    },
    {
      "inputs": [],
      "name": "crowdSale",
      "outputs": [],
      "stateMutability": "payable",
      "type": "function"
    },
    {
      "inputs": [
        {
          "internalType": "uint256",
          "name": "_amount",
          "type": "uint256"
        }
      ],
      "name": "earn",
      "outputs": [],
      "stateMutability": "nonpayable",
      "type": "function"
    },
    {
      "inputs": [
        {
          "internalType": "uint256",
          "name": "itemId",
          "type": "uint256"
        }
      ],
      "name": "executeMarketAuctionEnd",
      "outputs": [],
      "stateMutability": "nonpayable",
      "type": "function"
    },
    {
      "inputs": [
        {
          "internalType": "uint256",
          "name": "itemId",
          "type": "uint256"
        }
      ],
      "name": "executeMarketSale",
      "outputs": [],
      "stateMutability": "payable",
      "type": "function"
    },
    {
      "inputs": [
        {
          "internalType": "uint256",
          "name": "pageNumber",
          "type": "uint256"
        },
        {
          "internalType": "uint256",
          "name": "pageSize",
          "type": "uint256"
        }
      ],
      "name": "fetchMarketItems",
      "outputs": [
        {
          "components": [
            {
              "internalType": "uint256",
              "name": "itemId",
              "type": "uint256"
            },
            {
              "internalType": "address",
              "name": "nftContract",
              "type": "address"
            },
            {
              "internalType": "uint256",
              "name": "tokenId",
              "type": "uint256"
            },
            {
              "internalType": "bool",
              "name": "onSale",
              "type": "bool"
            },
            {
              "internalType": "address payable",
              "name": "owner",
              "type": "address"
            },
            {
              "internalType": "uint256",
              "name": "price",
              "type": "uint256"
            },
            {
              "internalType": "address payable",
              "name": "highestBidder",
              "type": "address"
            },
            {
              "internalType": "uint256",
              "name": "highestBid",
              "type": "uint256"
            },
            {
              "internalType": "address payable[]",
              "name": "pendingBidders",
              "type": "address[]"
            },
            {
              "internalType": "address payable[]",
              "name": "pendingOffers",
              "type": "address[]"
            },
            {
              "internalType": "bool",
              "name": "auctionEnded",
              "type": "bool"
            }
          ],
          "internalType": "struct NFTMarket.MarketItem[]",
          "name": "",
          "type": "tuple[]"
        }
      ],
      "stateMutability": "view",
      "type": "function"
    },
    {
      "inputs": [
        {
          "internalType": "uint256",
          "name": "itemId",
          "type": "uint256"
        },
        {
          "internalType": "address",
          "name": "giftingAddress",
          "type": "address"
        }
      ],
      "name": "giftMarketItem",
      "outputs": [],
      "stateMutability": "nonpayable",
      "type": "function"
    },
    {
      "inputs": [
        {
          "internalType": "uint256",
          "name": "",
          "type": "uint256"
        }
      ],
      "name": "idToMarketItem",
      "outputs": [
        {
          "internalType": "uint256",
          "name": "itemId",
          "type": "uint256"
        },
        {
          "internalType": "address",
          "name": "nftContract",
          "type": "address"
        },
        {
          "internalType": "uint256",
          "name": "tokenId",
          "type": "uint256"
        },
        {
          "internalType": "bool",
          "name": "onSale",
          "type": "bool"
        },
        {
          "internalType": "address payable",
          "name": "owner",
          "type": "address"
        },
        {
          "internalType": "uint256",
          "name": "price",
          "type": "uint256"
        },
        {
          "internalType": "address payable",
          "name": "highestBidder",
          "type": "address"
        },
        {
          "internalType": "uint256",
          "name": "highestBid",
          "type": "uint256"
        },
        {
          "internalType": "bool",
          "name": "auctionEnded",
          "type": "bool"
        }
      ],
      "stateMutability": "view",
      "type": "function"
    },
    {
      "inputs": [],
      "name": "listingPrice",
      "outputs": [
        {
          "internalType": "uint256",
          "name": "",
          "type": "uint256"
        }
      ],
      "stateMutability": "view",
      "type": "function"
    },
    {
      "inputs": [
        {
          "internalType": "uint256",
          "name": "itemId",
          "type": "uint256"
        }
      ],
      "name": "makeAuctionBid",
      "outputs": [],
      "stateMutability": "payable",
      "type": "function"
    },
    {
      "inputs": [
        {
          "internalType": "uint256",
          "name": "itemId",
          "type": "uint256"
        }
      ],
      "name": "makeOffer",
      "outputs": [],
      "stateMutability": "payable",
      "type": "function"
    },
    {
      "inputs": [
        {
          "internalType": "uint256",
          "name": "",
          "type": "uint256"
        },
        {
          "internalType": "address",
          "name": "",
          "type": "address"
        }
      ],
      "name": "pendingOffers",
      "outputs": [
        {
          "internalType": "uint256",
          "name": "",
          "type": "uint256"
        }
      ],
      "stateMutability": "view",
      "type": "function"
    },
    {
      "inputs": [
        {
          "internalType": "uint256",
          "name": "",
          "type": "uint256"
        },
        {
          "internalType": "address",
          "name": "",
          "type": "address"
        }
      ],
      "name": "pendingReturns",
      "outputs": [
        {
          "internalType": "uint256",
          "name": "",
          "type": "uint256"
        }
      ],
      "stateMutability": "view",
      "type": "function"
    },
    {
      "inputs": [
        {
          "internalType": "uint256",
          "name": "itemId",
          "type": "uint256"
        }
      ],
      "name": "rejectAllOffers",
      "outputs": [],
      "stateMutability": "nonpayable",
      "type": "function"
    },
    {
      "inputs": [
        {
          "internalType": "uint256",
          "name": "itemId",
          "type": "uint256"
        },
        {
          "internalType": "address",
          "name": "_offeringAddress",
          "type": "address"
        }
      ],
      "name": "rejectOffer",
      "outputs": [],
      "stateMutability": "nonpayable",
      "type": "function"
    },
    {
      "inputs": [
        {
          "internalType": "uint256",
          "name": "_listingPrice",
          "type": "uint256"
        }
      ],
      "name": "setListingPrice",
      "outputs": [],
      "stateMutability": "nonpayable",
      "type": "function"
    },
    {
      "inputs": [
        {
          "internalType": "uint256",
          "name": "_tokenRate",
          "type": "uint256"
        }
      ],
      "name": "setTokenRate",
      "outputs": [],
      "stateMutability": "nonpayable",
      "type": "function"
    },
    {
      "inputs": [],
      "name": "tokenRate",
      "outputs": [
        {
          "internalType": "uint256",
          "name": "",
          "type": "uint256"
        }
      ],
      "stateMutability": "view",
      "type": "function"
    },
    {
      "inputs": [
        {
          "internalType": "uint256",
          "name": "itemId",
          "type": "uint256"
        }
      ],
      "name": "withdrawAuctionBid",
      "outputs": [],
      "stateMutability": "nonpayable",
      "type": "function"
    },
    {
      "inputs": [
        {
          "internalType": "uint256",
          "name": "itemId",
          "type": "uint256"
        }
      ],
      "name": "withdrawOffer",
      "outputs": [],
      "stateMutability": "nonpayable",
      "type": "function"
    }
  ],
  "bytecode": "0x608060405260016003556103e86005553480156200001c57600080fd5b5060405162004d8638038062004d868339810160408190526200003f9162000078565b600160005560028054336001600160a01b031991821617909155600480549091166001600160a01b0392909216919091179055620000a8565b6000602082840312156200008a578081fd5b81516001600160a01b0381168114620000a1578182fd5b9392505050565b614cce80620000b86000396000f3fe6080604052600436106101a15760003560e01c80639a2f6474116100e1578063c78f19f91161008a578063db9371c211610064578063db9371c21461044b578063dd5f85181461046b578063e61a70c01461048b578063e65a01171461055957600080fd5b8063c78f19f914610402578063cfd825a214610418578063d138a94f1461043857600080fd5b8063bd1ecd61116100bb578063bd1ecd61146103bc578063c3a3b8ea146103dc578063c63f6181146103ef57600080fd5b80639a2f647414610376578063a1c11ca814610389578063b8f1eb6c1461039c57600080fd5b80637063b64e1161014e5780638610f045116101285780638610f045146102de5780638877fafa146102fe5780638ddac1ef1461031e578063918d407d1461035657600080fd5b80637063b64e146102895780637770bd15146102b65780637c726b69146102be57600080fd5b8063317118841161017f578063317118841461023357806349a2f5bf1461024957806361241c281461026957600080fd5b80631ae1b701146101a6578063283f766c146101c8578063298a0fde146101e8575b600080fd5b3480156101b257600080fd5b506101c66101c13660046148e2565b610579565b005b3480156101d457600080fd5b506101c66101e3366004614936565b6109d9565b3480156101f457600080fd5b5061022061020336600461494e565b600860209081526000928352604080842090915290825290205481565b6040519081526020015b60405180910390f35b34801561023f57600080fd5b5061022060055481565b34801561025557600080fd5b506101c6610264366004614936565b610f44565b34801561027557600080fd5b506101c6610284366004614936565b61141c565b34801561029557600080fd5b506102a96102a436600461497d565b6114a1565b60405161022a9190614a1c565b6101c66118d1565b3480156102ca57600080fd5b506101c66102d9366004614936565b6119dd565b3480156102ea57600080fd5b506101c66102f9366004614936565b611a62565b34801561030a57600080fd5b506101c661031936600461494e565b611ce4565b34801561032a57600080fd5b5061022061033936600461494e565b600760209081526000928352604080842090915290825290205481565b34801561036257600080fd5b506101c661037136600461494e565b611fe1565b6101c6610384366004614936565b61282f565b6101c661039736600461497d565b6129c8565b3480156103a857600080fd5b506101c66103b7366004614936565b612dcb565b3480156103c857600080fd5b506101c66103d73660046148b7565b613229565b6101c66103ea366004614936565b613669565b6101c66103fd366004614936565b613918565b34801561040e57600080fd5b5061022060035481565b34801561042457600080fd5b506101c6610433366004614936565b613d1c565b6101c6610446366004614936565b613e8e565b34801561045757600080fd5b506101c661046636600461494e565b6140c8565b34801561047757600080fd5b506101c66104863660046148b7565b6143cc565b34801561049757600080fd5b506105066104a6366004614936565b60066020819052600091825260409091208054600182015460028301546003840154600485015460058601549686015460099096015494966001600160a01b0394851696939560ff80851696610100909504851695939490921692911689565b60408051998a526001600160a01b0398891660208b01528901969096529315156060880152918516608087015260a086015290921660c084015260e083019190915215156101008201526101200161022a565b34801561056557600080fd5b506101c6610574366004614936565b6146a9565b600260005414156105bf5760405162461bcd60e51b815260206004820152601f6024820152600080516020614c7983398151915260448201526064015b60405180910390fd5b6002600055806106115760405162461bcd60e51b815260206004820152600d60248201527f496e56616c69642050726963650000000000000000000000000000000000000060448201526064016105b6565b6040516331a9108f60e11b81526004810183905233906001600160a01b03851690636352211e9060240160206040518083038186803b15801561065357600080fd5b505afa158015610667573d6000803e3d6000fd5b505050506040513d601f19601f8201168201806040525081019061068b9190614894565b6001600160a01b0316146106da5760405162461bcd60e51b815260206004820152601660248201527513dddb995c9cda1a5c08139bdd0815995c9a599a595960521b60448201526064016105b6565b60405163020604bf60e21b81526004810183905230906001600160a01b0385169063081812fc9060240160206040518083038186803b15801561071c57600080fd5b505afa158015610730573d6000803e3d6000fd5b505050506040513d601f19601f820116820180604052508101906107549190614894565b6001600160a01b03161461079a5760405162461bcd60e51b815260206004820152600d60248201526c1399595908105c1c1c9bdd985b609a1b60448201526064016105b6565b60606107aa600180546001019055565b60006107b560015490565b9050604051806101600160405280828152602001866001600160a01b03168152602001858152602001600115158152602001336001600160a01b03168152602001848152602001336001600160a01b031681526020016000815260200183815260200183815260200160011515815250600660008381526020019081526020016000206000820151816000015560208201518160010160006101000a8154816001600160a01b0302191690836001600160a01b031602179055506040820151816002015560608201518160030160006101000a81548160ff02191690831515021790555060808201518160030160016101000a8154816001600160a01b0302191690836001600160a01b0316021790555060a0820151816004015560c08201518160050160006101000a8154816001600160a01b0302191690836001600160a01b0316021790555060e0820151816006015561010082015181600701908051906020019061092492919061481a565b50610120820151805161094191600884019160209091019061481a565b5061014091909101516009909101805460ff19169115159190911790556040516323b872dd60e01b8152336004820152306024820152604481018590526001600160a01b038616906323b872dd90606401600060405180830381600087803b1580156109ac57600080fd5b505af11580156109c0573d6000803e3d6000fd5b505050506109cd8161477d565b50506001600055505050565b60026000541415610a1a5760405162461bcd60e51b815260206004820152601f6024820152600080516020614c7983398151915260448201526064016105b6565b600260009081558181526006602052604090206009015460ff1615610a815760405162461bcd60e51b815260206004820152600d60248201527f41756374696f6e20456e6465640000000000000000000000000000000000000060448201526064016105b6565b6000818152600660205260409020600501546001600160a01b03163314610c3b576000818152600760209081526040808320338452909152902054610b085760405162461bcd60e51b815260206004820152601060248201527f4e6f6e204578697374696e67204269640000000000000000000000000000000060448201526064016105b6565b6000818152600760209081526040808320338085529252808320549051909283156108fc02918491818181858888f19350505050158015610b4d573d6000803e3d6000fd5b50600082815260076020908152604080832033845290915281208190555b600083815260066020526040902060070154811015610c34576000838152600660205260409020600701805433919083908110610bb857634e487b7160e01b600052603260045260246000fd5b6000918252602090912001546001600160a01b03161415610c22576000838152600660205260409020600701805482908110610c0457634e487b7160e01b600052603260045260246000fd5b600091825260209091200180546001600160a01b0319169055610c34565b80610c2c81614c2f565b915050610b6b565b5050610f33565b6000818152600660205260409020600501546001600160a01b03163314610ca45760405162461bcd60e51b815260206004820152601060248201527f4e6f6e204578697374696e67204269640000000000000000000000000000000060448201526064016105b6565b60008181526006602081905260408083209091015490519091339183156108fc0291849190818181858888f19350505050158015610ce6573d6000803e3d6000fd5b50600082815260066020526040812060038101546007909101546101009091046001600160a01b0316908290610d1d906001614baa565b905060005b600086815260066020526040902060070154811015610e7d5760008681526007602081815260408084206001600160a01b0388168552808352818520548b86526006909352908420909201805491939185908110610d9057634e487b7160e01b600052603260045260246000fd5b60009182526020808320909101546001600160a01b031683528201929092526040019020541115610e6b576000868152600660205260409020600701805482908110610dec57634e487b7160e01b600052603260045260246000fd5b600091825260208083209091015488835260078083526040808520600690945284200180546001600160a01b0390921696509192919084908110610e4057634e487b7160e01b600052603260045260246000fd5b60009182526020808320909101546001600160a01b0316835282019290925260400190205493509050805b80610e7581614c2f565b915050610d22565b5060008581526006602081815260408084206005810180546001600160a01b0319166001600160a01b0389169081179091558185018990556007808552838720918752908452918520859055938990529190520154610edd906001614baa565b8114610f2e576000858152600660205260409020600701805482908110610f1457634e487b7160e01b600052603260045260246000fd5b600091825260209091200180546001600160a01b03191690555b505050505b610f3c8161477d565b506001600055565b60026000541415610f855760405162461bcd60e51b815260206004820152601f6024820152600080516020614c7983398151915260448201526064016105b6565b600260009081558181526006602052604090206009015460ff1615610fec5760405162461bcd60e51b815260206004820152601560248201527f41756374696f6e20416c726561647920456e646564000000000000000000000060448201526064016105b6565b600081815260066020819052604090912090810154600582015460029092015490916001600160a01b031690606083156110eb57600085815260066020526040902060039081015490546101009091046001600160a01b0316906108fc906064906110579082614c01565b6110619088614be2565b61106b9190614bc2565b6040518115909202916000818181858888f19350505050158015611093573d6000803e3d6000fd5b506002546003546001600160a01b03909116906108fc906064906110b79088614be2565b6110c19190614bc2565b6040518115909202916000818181858888f193505050501580156110e9573d6000803e3d6000fd5b505b600085815260066020526040908190206001015490516323b872dd60e01b81523060048201526001600160a01b03858116602483015260448201859052909116906323b872dd90606401600060405180830381600087803b15801561114f57600080fd5b505af1158015611163573d6000803e3d6000fd5b5050505060005b6000868152600660205260409020600701548110156113895760008681526006602052604081206007018054839081106111b457634e487b7160e01b600052603260045260246000fd5b6000918252602090912001546001600160a01b031614801590611237575060008681526007602081815260408084206006909252832090910180548391908590811061121057634e487b7160e01b600052603260045260246000fd5b60009182526020808320909101546001600160a01b03168352820192909252604001902054115b1561137757600086815260066020526040902060070180548290811061126d57634e487b7160e01b600052603260045260246000fd5b600091825260208083209091015488835260078083526040808520600690945284200180546001600160a01b03909216936108fc9392909190869081106112c457634e487b7160e01b600052603260045260246000fd5b60009182526020808320909101546001600160a01b03168352820192909252604090810182205490518115909302929091818181858888f19350505050158015611312573d6000803e3d6000fd5b5060008681526007602081815260408084206006909252832090910180548391908590811061135157634e487b7160e01b600052603260045260246000fd5b60009182526020808320909101546001600160a01b031683528201929092526040019020555b8061138181614c2f565b91505061116a565b506000858152600660208181526040832060038101805460ff196001600160a01b038a166101008102821674ffffffffffffffffffffffffffffffffffffffffff19909316929092179092556005830180546001600160a01b0319169091179055928101939093556009830180549092166001179091558251611412926007019184019061481a565b506109cd8561477d565b6002546001600160a01b0316331461149c5760405162461bcd60e51b815260206004820152602c60248201527f596f7520617265206e6f7420746865206f776e6572206f66207468697320736d60448201527f61727420636f6e7472616374000000000000000000000000000000000000000060648201526084016105b6565b600555565b606060006114ae60015490565b905060006114bc8486614be2565b6114c7906001614baa565b905060008467ffffffffffffffff8111156114f257634e487b7160e01b600052604160045260246000fd5b60405190808252806020026020018201604052801561157857816020015b60408051610160810182526000808252602080830182905292820181905260608083018290526080830182905260a0830182905260c0830182905260e08301829052610100830181905261012083015261014082015282526000199092019101816115105790505b509050825b82811015801561158e575060018110155b15611721576000818152600660208181526040928390208351610160810185528154815260018201546001600160a01b0390811682850152600283015482870152600383015460ff8116151560608401526101009081900482166080840152600484015460a0840152600584015490911660c08301529382015460e08201526007820180548651818602810186019097528087529195929486019390919083018282801561166557602002820191906000526020600020905b81546001600160a01b03168152600190910190602001808311611647575b50505050508152602001600882018054806020026020016040519081016040528092919081815260200182805480156116c757602002820191906000526020600020905b81546001600160a01b031681526001909101906020018083116116a9575b50505091835250506009919091015460ff161515602090910152825183908390811061170357634e487b7160e01b600052603260045260246000fd5b6020026020010181905250808061171990614c18565b91505061157d565b5060005b60008311801561173457508581105b156118c7576000818152600660208181526040928390208351610160810185528154815260018201546001600160a01b0390811682850152600283015482870152600383015460ff8116151560608401526101009081900482166080840152600484015460a0840152600584015490911660c08301529382015460e08201526007820180548651818602810186019097528087529195929486019390919083018282801561180b57602002820191906000526020600020905b81546001600160a01b031681526001909101906020018083116117ed575b505050505081526020016008820180548060200260200160405190810160405280929190818152602001828054801561186d57602002820191906000526020600020905b81546001600160a01b0316815260019091019060200180831161184f575b50505091835250506009919091015460ff16151560209091015282518390839081106118a957634e487b7160e01b600052603260045260246000fd5b602002602001018190525080806118bf90614c2f565b915050611725565b5095945050505050565b600260005414156119125760405162461bcd60e51b815260206004820152601f6024820152600080516020614c7983398151915260448201526064016105b6565b60026000556004805460405163a9059cbb60e01b815233928101929092523460248301526001600160a01b03169063a9059cbb90604401602060405180830381600087803b15801561196357600080fd5b505af1158015611977573d6000803e3d6000fd5b505050506040513d601f19601f8201168201806040525081019061199b9190614916565b6119a457600080fd5b6002546040516001600160a01b03909116903480156108fc02916000818181858888f19350505050158015610f3c573d6000803e3d6000fd5b6002546001600160a01b03163314611a5d5760405162461bcd60e51b815260206004820152602c60248201527f596f7520617265206e6f7420746865206f776e6572206f66207468697320736d60448201527f61727420636f6e7472616374000000000000000000000000000000000000000060648201526084016105b6565b600355565b60026000541415611aa35760405162461bcd60e51b815260206004820152601f6024820152600080516020614c7983398151915260448201526064016105b6565b600260009081558181526006602052604090206009015460ff16611af65760405162461bcd60e51b815260206004820152600a60248201526927b71020bab1ba34b7b760b11b60448201526064016105b6565b60008181526006602052604090206004015415611b3f5760405162461bcd60e51b81526020600482015260076024820152664f6e2053616c6560c81b60448201526064016105b6565b6000818152600860209081526040808320338452909152902054611ba55760405162461bcd60e51b815260206004820152601260248201527f4e6f6e204578697374696e67204f66666572000000000000000000000000000060448201526064016105b6565b6000818152600860209081526040808320338085529252808320549051909283156108fc02918491818181858888f19350505050158015611bea573d6000803e3d6000fd5b50600082815260086020908152604080832033845290915281208190555b600083815260066020526040902060080154811015611cd1576000838152600660205260409020600801805433919083908110611c5557634e487b7160e01b600052603260045260246000fd5b6000918252602090912001546001600160a01b03161415611cbf576000838152600660205260409020600801805482908110611ca157634e487b7160e01b600052603260045260246000fd5b600091825260209091200180546001600160a01b0319169055611cd1565b80611cc981614c2f565b915050611c08565b50611cdb8261477d565b50506001600055565b60026000541415611d255760405162461bcd60e51b815260206004820152601f6024820152600080516020614c7983398151915260448201526064016105b6565b600260008181558381526006602052604090819020600181015492015490516331a9108f60e11b8152600481019190915233916001600160a01b031690636352211e9060240160206040518083038186803b158015611d8357600080fd5b505afa158015611d97573d6000803e3d6000fd5b505050506040513d601f19601f82011682018060405250810190611dbb9190614894565b6001600160a01b0316148015611def575060008281526006602052604090206003015461010090046001600160a01b031633145b611e345760405162461bcd60e51b815260206004820152601660248201527513dddb995c9cda1a5c08139bdd0815995c9a599a595960521b60448201526064016105b6565b600082815260066020526040908190206001810154600290910154915163020604bf60e21b8152600481019290925230916001600160a01b039091169063081812fc9060240160206040518083038186803b158015611e9257600080fd5b505afa158015611ea6573d6000803e3d6000fd5b505050506040513d601f19601f82011682018060405250810190611eca9190614894565b6001600160a01b031614611f105760405162461bcd60e51b815260206004820152600d60248201526c1399595908105c1c1c9bdd985b609a1b60448201526064016105b6565b6000828152600660205260409081902060018101546002909101549151632142170760e11b81523360048201526001600160a01b03848116602483015260448201939093529116906342842e0e90606401600060405180830381600087803b158015611f7b57600080fd5b505af1158015611f8f573d6000803e3d6000fd5b505050600083815260066020526040812060038101805474ffffffffffffffffffffffffffffffffffffffffff19166101006001600160a01b0387160260ff19161790556004015550611cdb8261477d565b600260005414156120225760405162461bcd60e51b815260206004820152601f6024820152600080516020614c7983398151915260448201526064016105b6565b600260009081558281526006602052604090206003015461010090046001600160a01b031633146120bb5760405162461bcd60e51b815260206004820152603560248201527f596f75204d75737420426520546865204f776e6572204f662054686973204e4660448201527f5420546f2041636365707420546865204f66666572000000000000000000000060648201526084016105b6565b60008281526006602052604090819020600181015460029091015491516331a9108f60e11b8152600481019290925233916001600160a01b0390911690636352211e9060240160206040518083038186803b15801561211957600080fd5b505afa15801561212d573d6000803e3d6000fd5b505050506040513d601f19601f820116820180604052508101906121519190614894565b6001600160a01b0316146121cd5760405162461bcd60e51b815260206004820152603560248201527f596f75204d75737420426520546865204f776e6572204f662054686973204e4660448201527f5420546f2041636365707420546865204f66666572000000000000000000000060648201526084016105b6565b600082815260066020526040908190206001810154600290910154915163020604bf60e21b8152600481019290925230916001600160a01b039091169063081812fc9060240160206040518083038186803b15801561222b57600080fd5b505afa15801561223f573d6000803e3d6000fd5b505050506040513d601f19601f820116820180604052508101906122639190614894565b6001600160a01b0316146122b95760405162461bcd60e51b815260206004820152601a60248201527f4d61726b6574204469646e27742047657420417070726f76616c00000000000060448201526064016105b6565b60008281526006602052604090206009015460ff1661231a5760405162461bcd60e51b815260206004820181905260248201527f54686973204e46542069732043757272656e746c79206f6e2041756374696f6e60448201526064016105b6565b60008281526008602090815260408083206001600160a01b03851684529091529020546123af5760405162461bcd60e51b815260206004820152603960248201527f54686973204164647265737320446f65736e2774204861766520416e7920437560448201527f7272656e74204f666665727320466f722054686973204e46540000000000000060648201526084016105b6565b60008281526008602090815260408083206001600160a01b03808616855290835281842054868552600690935292206003908101549054919260609261010090920416906108fc906064906124049082614c01565b61240e9086614be2565b6124189190614bc2565b6040518115909202916000818181858888f19350505050158015612440573d6000803e3d6000fd5b506002546003546001600160a01b03909116906108fc906064906124649086614be2565b61246e9190614bc2565b6040518115909202916000818181858888f19350505050158015612496573d6000803e3d6000fd5b5060008481526006602052604090819020600181015460038201546002909201549251632142170760e11b81526001600160a01b03610100909304831660048201528683166024820152604481019390935216906342842e0e90606401600060405180830381600087803b15801561250d57600080fd5b505af1158015612521573d6000803e3d6000fd5b50505060008581526008602090815260408083206001600160a01b0388168452909152812081905590505b60008581526006602052604090206008015481101561276b57600085815260066020526040812060080180548390811061259657634e487b7160e01b600052603260045260246000fd5b6000918252602090912001546001600160a01b03161480159061261957506000858152600860208181526040808420600690925283209091018054839190859081106125f257634e487b7160e01b600052603260045260246000fd5b60009182526020808320909101546001600160a01b03168352820192909252604001902054115b1561275957600085815260066020526040902060080180548290811061264f57634e487b7160e01b600052603260045260246000fd5b600091825260208083209091015487835260088083526040808520600690945284200180546001600160a01b03909216936108fc9392909190869081106126a657634e487b7160e01b600052603260045260246000fd5b60009182526020808320909101546001600160a01b03168352820192909252604090810182205490518115909302929091818181858888f193505050501580156126f4573d6000803e3d6000fd5b5060008581526007602090815260408083206006909252822060080180548391908590811061273357634e487b7160e01b600052603260045260246000fd5b60009182526020808320909101546001600160a01b031683528201929092526040019020555b8061276381614c2f565b91505061254c565b506000848152600660208181526040832060038101805460ff196001600160a01b038a166101008102821674ffffffffffffffffffffffffffffffffffffffffff19909316929092179092556005830180546001600160a01b03191690911790559281019390935560098301805490921660011790915582516127f4926007019184019061481a565b506000848152600660209081526040909120825161281a9260089092019184019061481a565b506128248461477d565b505060016000555050565b600260005414156128705760405162461bcd60e51b815260206004820152601f6024820152600080516020614c7983398151915260448201526064016105b6565b600260009081558181526006602052604090206009015460ff166128c35760405162461bcd60e51b815260206004820152600a60248201526927b71020bab1ba34b7b760b11b60448201526064016105b6565b6000818152600660205260409020600401541561290c5760405162461bcd60e51b81526020600482015260076024820152664f6e2053616c6560c81b60448201526064016105b6565b6000818152600860209081526040808320338452909152902054156129735760405162461bcd60e51b815260206004820152601660248201527f416c7265616479204578697374696e67204f666665720000000000000000000060448201526064016105b6565b600081815260086020818152604080842033808652908352818520349055858552600683529084209092018054600181018255908452922090910180546001600160a01b0319169091179055610f3c8161477d565b60026000541415612a095760405162461bcd60e51b815260206004820152601f6024820152600080516020614c7983398151915260448201526064016105b6565b6002600081815583815260066020526040908190209182015460019092015490516331a9108f60e11b8152600481018390526001600160a01b039091169033908290636352211e9060240160206040518083038186803b158015612a6c57600080fd5b505afa158015612a80573d6000803e3d6000fd5b505050506040513d601f19601f82011682018060405250810190612aa49190614894565b6001600160a01b031614612af35760405162461bcd60e51b815260206004820152601660248201527513dddb995c9cda1a5c08139bdd0815995c9a599a595960521b60448201526064016105b6565b60405163020604bf60e21b81526004810183905230906001600160a01b0383169063081812fc9060240160206040518083038186803b158015612b3557600080fd5b505afa158015612b49573d6000803e3d6000fd5b505050506040513d601f19601f82011682018060405250810190612b6d9190614894565b6001600160a01b031614612bb35760405162461bcd60e51b815260206004820152600d60248201526c1399595908105c1c1c9bdd985b609a1b60448201526064016105b6565b6060604051806101600160405280868152602001836001600160a01b03168152602001848152602001600115158152602001336001600160a01b03168152602001858152602001336001600160a01b031681526020016000815260200182815260200182815260200160011515815250600660008781526020019081526020016000206000820151816000015560208201518160010160006101000a8154816001600160a01b0302191690836001600160a01b031602179055506040820151816002015560608201518160030160006101000a81548160ff02191690831515021790555060808201518160030160016101000a8154816001600160a01b0302191690836001600160a01b0316021790555060a0820151816004015560c08201518160050160006101000a8154816001600160a01b0302191690836001600160a01b0316021790555060e08201518160060155610100820151816007019080519060200190612d2292919061481a565b506101208201518051612d3f91600884019160209091019061481a565b5061014091909101516009909101805460ff19169115159190911790556040516323b872dd60e01b8152336004820152306024820152604481018490526001600160a01b038316906323b872dd90606401600060405180830381600087803b158015612daa57600080fd5b505af1158015612dbe573d6000803e3d6000fd5b505050506109cd8561477d565b60026000541415612e0c5760405162461bcd60e51b815260206004820152601f6024820152600080516020614c7983398151915260448201526064016105b6565b600260009081558181526006602052604090206009015460ff16612e725760405162461bcd60e51b815260206004820152600b60248201527f4f6e2041756374696f6e2e00000000000000000000000000000000000000000060448201526064016105b6565b600081815260066020526040902060080154612ed05760405162461bcd60e51b815260206004820152601360248201527f4e6f204578697374696e67204f66666572732e0000000000000000000000000060448201526064016105b6565b60008181526006602052604090819020600181015460029091015491516331a9108f60e11b8152600481019290925233916001600160a01b0390911690636352211e9060240160206040518083038186803b158015612f2e57600080fd5b505afa158015612f42573d6000803e3d6000fd5b505050506040513d601f19601f82011682018060405250810190612f669190614894565b6001600160a01b0316148015612f9a575060008181526006602052604090206003015461010090046001600160a01b031633145b612fdf5760405162461bcd60e51b815260206004820152601660248201527513dddb995c9cda1a5c08139bdd0815995c9a599a595960521b60448201526064016105b6565b606060005b60008381526006602052604090206008015481101561320357600083815260066020526040812060080180548390811061302e57634e487b7160e01b600052603260045260246000fd5b6000918252602090912001546001600160a01b0316148015906130b1575060008381526008602081815260408084206006909252832090910180548391908590811061308a57634e487b7160e01b600052603260045260246000fd5b60009182526020808320909101546001600160a01b03168352820192909252604001902054115b156131f15760008381526006602052604090206008018054829081106130e757634e487b7160e01b600052603260045260246000fd5b600091825260208083209091015485835260088083526040808520600690945284200180546001600160a01b03909216936108fc93929091908690811061313e57634e487b7160e01b600052603260045260246000fd5b60009182526020808320909101546001600160a01b03168352820192909252604090810182205490518115909302929091818181858888f1935050505015801561318c573d6000803e3d6000fd5b506000838152600860208181526040808420600690925283209091018054839190859081106131cb57634e487b7160e01b600052603260045260246000fd5b60009182526020808320909101546001600160a01b031683528201929092526040019020555b806131fb81614c2f565b915050612fe4565b5060008281526006602090815260409091208251611cd19260089092019184019061481a565b6002600054141561326a5760405162461bcd60e51b815260206004820152601f6024820152600080516020614c7983398151915260448201526064016105b6565b600260005560405163020604bf60e21b81526004810182905230906001600160a01b0384169063081812fc9060240160206040518083038186803b1580156132b157600080fd5b505afa1580156132c5573d6000803e3d6000fd5b505050506040513d601f19601f820116820180604052508101906132e99190614894565b6001600160a01b03161461333f5760405162461bcd60e51b815260206004820152601a60248201527f4d61726b6574204469646e27742047657420417070726f76616c00000000000060448201526064016105b6565b6040516331a9108f60e11b81526004810182905233906001600160a01b03841690636352211e9060240160206040518083038186803b15801561338157600080fd5b505afa158015613395573d6000803e3d6000fd5b505050506040513d601f19601f820116820180604052508101906133b99190614894565b6001600160a01b0316146134355760405162461bcd60e51b815260206004820152603260248201527f596f75204d75737420426520546865204f776e6572204f662054686973204e4660448201527f5420546f2043726561746520412053616c65000000000000000000000000000060648201526084016105b6565b6060613445600180546001019055565b600061345060015490565b9050604051806101600160405280828152602001856001600160a01b03168152602001848152602001600015158152602001336001600160a01b0316815260200160008152602001336001600160a01b031681526020016000815260200183815260200183815260200160001515815250600660008381526020019081526020016000206000820151816000015560208201518160010160006101000a8154816001600160a01b0302191690836001600160a01b031602179055506040820151816002015560608201518160030160006101000a81548160ff02191690831515021790555060808201518160030160016101000a8154816001600160a01b0302191690836001600160a01b0316021790555060a0820151816004015560c08201518160050160006101000a8154816001600160a01b0302191690836001600160a01b0316021790555060e082015181600601556101008201518160070190805190602001906135c092919061481a565b5061012082015180516135dd91600884019160209091019061481a565b5061014091909101516009909101805460ff19169115159190911790556040516323b872dd60e01b8152336004820152306024820152604481018490526001600160a01b038516906323b872dd90606401600060405180830381600087803b15801561364857600080fd5b505af115801561365c573d6000803e3d6000fd5b505050506128248161477d565b600260005414156136aa5760405162461bcd60e51b815260206004820152601f6024820152600080516020614c7983398151915260448201526064016105b6565b600260009081558181526006602081905260409091206005810154918101546009909101546001600160a01b039092169160ff161561372b5760405162461bcd60e51b815260206004820152600d60248201527f41756374696f6e20456e6465640000000000000000000000000000000000000060448201526064016105b6565b6000838152600760209081526040808320338452909152902054156137925760405162461bcd60e51b815260206004820152601460248201527f416c7265616479204578697374696e672042696400000000000000000000000060448201526064016105b6565b60008381526006602052604090206003015461010090046001600160a01b03163314156138015760405162461bcd60e51b815260206004820152600e60248201527f496e76616c69642042696464657200000000000000000000000000000000000060448201526064016105b6565b8034116138505760405162461bcd60e51b815260206004820152600b60248201527f496e76616c69642042696400000000000000000000000000000000000000000060448201526064016105b6565b60008381526006602081905260409091206005810180546001600160a01b031916331790553491015580158015906138aa57506000838152600660205260409020600301546001600160a01b038381166101009092041614155b15613905576000838152600660209081526040808320600790810180546001810182559085528385200180546001600160a01b0319166001600160a01b03881690811790915587855290835281842090845290915290208190555b61390e8361477d565b5050600160005550565b600260005414156139595760405162461bcd60e51b815260206004820152601f6024820152600080516020614c7983398151915260448201526064016105b6565b6002600081815582815260066020526040908190209182015460019092015490516331a9108f60e11b8152600481018390526001600160a01b039091169033908290636352211e9060240160206040518083038186803b1580156139bc57600080fd5b505afa1580156139d0573d6000803e3d6000fd5b505050506040513d601f19601f820116820180604052508101906139f49190614894565b6001600160a01b031614613a435760405162461bcd60e51b815260206004820152601660248201527513dddb995c9cda1a5c08139bdd0815995c9a599a595960521b60448201526064016105b6565b60405163020604bf60e21b81526004810183905230906001600160a01b0383169063081812fc9060240160206040518083038186803b158015613a8557600080fd5b505afa158015613a99573d6000803e3d6000fd5b505050506040513d601f19601f82011682018060405250810190613abd9190614894565b6001600160a01b031614613b035760405162461bcd60e51b815260206004820152600d60248201526c1399595908105c1c1c9bdd985b609a1b60448201526064016105b6565b6060604051806101600160405280858152602001836001600160a01b03168152602001848152602001600015158152602001336001600160a01b0316815260200160008152602001336001600160a01b031681526020016000815260200182815260200182815260200160001515815250600660008681526020019081526020016000206000820151816000015560208201518160010160006101000a8154816001600160a01b0302191690836001600160a01b031602179055506040820151816002015560608201518160030160006101000a81548160ff02191690831515021790555060808201518160030160016101000a8154816001600160a01b0302191690836001600160a01b0316021790555060a0820151816004015560c08201518160050160006101000a8154816001600160a01b0302191690836001600160a01b0316021790555060e08201518160060155610100820151816007019080519060200190613c7392919061481a565b506101208201518051613c9091600884019160209091019061481a565b5061014091909101516009909101805460ff19169115159190911790556040516323b872dd60e01b8152336004820152306024820152604481018490526001600160a01b038316906323b872dd90606401600060405180830381600087803b158015613cfb57600080fd5b505af1158015613d0f573d6000803e3d6000fd5b505050506128248461477d565b60026000541415613d5d5760405162461bcd60e51b815260206004820152601f6024820152600080516020614c7983398151915260448201526064016105b6565b600260009081558181526006602052604090206003015461010090046001600160a01b03163314613dc95760405162461bcd60e51b815260206004820152601660248201527513dddb995c9cda1a5c08139bdd0815995c9a599a595960521b60448201526064016105b6565b60008181526006602052604090819020600181015460029091015491516323b872dd60e01b815230600482015233602482015260448101929092526001600160a01b0316906323b872dd90606401600060405180830381600087803b158015613e3157600080fd5b505af1158015613e45573d6000803e3d6000fd5b505050600082815260066020526040812060038101805474ffffffffffffffffffffffffffffffffffffffffff1916336101000260ff19161790556004015550610f3c8161477d565b60026000541415613ecf5760405162461bcd60e51b815260206004820152601f6024820152600080516020614c7983398151915260448201526064016105b6565b60026000908155818152600660205260409020600401543414613f345760405162461bcd60e51b815260206004820152600d60248201527f496e56616c69642050726963650000000000000000000000000000000000000060448201526064016105b6565b600081815260066020526040902060039081015490546101009091046001600160a01b0316906108fc90606490613f6b9082614c01565b613f759034614be2565b613f7f9190614bc2565b6040518115909202916000818181858888f19350505050158015613fa7573d6000803e3d6000fd5b5060008181526006602052604090819020600181015460029091015491516323b872dd60e01b815230600482015233602482015260448101929092526001600160a01b0316906323b872dd90606401600060405180830381600087803b15801561401057600080fd5b505af1158015614024573d6000803e3d6000fd5b50505060008281526006602052604081206003808201805474ffffffffffffffffffffffffffffffffffffffffff1916336101000260ff191617905560049091019190915560025490546001600160a01b0390911691506108fc9060649061408c9034614be2565b6140969190614bc2565b6040518115909202916000818181858888f193505050501580156140be573d6000803e3d6000fd5b50610f3c8161477d565b600260005414156141095760405162461bcd60e51b815260206004820152601f6024820152600080516020614c7983398151915260448201526064016105b6565b600260009081558281526006602052604090206003015461010090046001600160a01b031633146141755760405162461bcd60e51b815260206004820152601660248201527513dddb995c9cda1a5c08139bdd0815995c9a599a595960521b60448201526064016105b6565b60008281526006602052604090206009015460ff166141c35760405162461bcd60e51b815260206004820152600a60248201526927b71020bab1ba34b7b760b11b60448201526064016105b6565b6000828152600660205260409020600401541561420c5760405162461bcd60e51b81526020600482015260076024820152664f6e2053616c6560c81b60448201526064016105b6565b60008281526008602090815260408083206001600160a01b038516845290915290205461427b5760405162461bcd60e51b815260206004820152601260248201527f4e6f6e204578697374696e67204f66666572000000000000000000000000000060448201526064016105b6565b60008281526008602090815260408083206001600160a01b0385168085529252808320549051909283156108fc02918491818181858888f193505050501580156142c9573d6000803e3d6000fd5b5060008381526008602090815260408083206001600160a01b038616845290915281208190555b6000848152600660205260409020600801548110156143c257600084815260066020526040902060080180546001600160a01b03851691908390811061434657634e487b7160e01b600052603260045260246000fd5b6000918252602090912001546001600160a01b031614156143b057600084815260066020526040902060080180548290811061439257634e487b7160e01b600052603260045260246000fd5b600091825260209091200180546001600160a01b03191690556143c2565b806143ba81614c2f565b9150506142f0565b5061390e8361477d565b6002600054141561440d5760405162461bcd60e51b815260206004820152601f6024820152600080516020614c7983398151915260448201526064016105b6565b60026000556040516331a9108f60e11b81526004810182905233906001600160a01b03841690636352211e9060240160206040518083038186803b15801561445457600080fd5b505afa158015614468573d6000803e3d6000fd5b505050506040513d601f19601f8201168201806040525081019061448c9190614894565b6001600160a01b0316146144db5760405162461bcd60e51b815260206004820152601660248201527513dddb995c9cda1a5c08139bdd0815995c9a599a595960521b60448201526064016105b6565b60606144eb600180546001019055565b60006144f660015490565b9050604051806101600160405280828152602001856001600160a01b03168152602001848152602001600015158152602001336001600160a01b0316815260200160008152602001336001600160a01b031681526020016000815260200183815260200183815260200160011515815250600660008381526020019081526020016000206000820151816000015560208201518160010160006101000a8154816001600160a01b0302191690836001600160a01b031602179055506040820151816002015560608201518160030160006101000a81548160ff02191690831515021790555060808201518160030160016101000a8154816001600160a01b0302191690836001600160a01b0316021790555060a0820151816004015560c08201518160050160006101000a8154816001600160a01b0302191690836001600160a01b0316021790555060e0820151816006015561010082015181600701908051906020019061466692919061481a565b50610120820151805161468391600884019160209091019061481a565b5061014091909101516009909101805460ff19169115159190911790556128248161477d565b600260005414156146ea5760405162461bcd60e51b815260206004820152601f6024820152600080516020614c7983398151915260448201526064016105b6565b60026000556004805460405163a9059cbb60e01b81523392810192909252602482018390526001600160a01b03169063a9059cbb90604401602060405180830381600087803b15801561473c57600080fd5b505af1158015614750573d6000803e3d6000fd5b505050506040513d601f19601f820116820180604052508101906147749190614916565b610f3c57600080fd5b6000818152600660208190526040918290206001810154600282015460038301546004840154600585015495850154600986015497517fb904cde3c0136d554f4bd79941bd1a09f5cb0f6ad00ab53e8cbc49406c0639fb9861480f988b986001600160a01b039889169860ff808916986101009004821697969190931694909360078301936008909301921690614b23565b60405180910390a150565b82805482825590600052602060002090810192821561486f579160200282015b8281111561486f57825182546001600160a01b0319166001600160a01b0390911617825560209092019160019091019061483a565b5061487b92915061487f565b5090565b5b8082111561487b5760008155600101614880565b6000602082840312156148a5578081fd5b81516148b081614c60565b9392505050565b600080604083850312156148c9578081fd5b82356148d481614c60565b946020939093013593505050565b6000806000606084860312156148f6578081fd5b833561490181614c60565b95602085013595506040909401359392505050565b600060208284031215614927578081fd5b815180151581146148b0578182fd5b600060208284031215614947578081fd5b5035919050565b60008060408385031215614960578182fd5b82359150602083013561497281614c60565b809150509250929050565b6000806040838503121561498f578182fd5b50508035926020909101359150565b6000815180845260208085019450808401835b838110156149d65781516001600160a01b0316875295820195908201906001016149b1565b509495945050505050565b6000815480845260208085019450838352808320835b838110156149d65781546001600160a01b0316875295820195600191820191016149f7565b60006020808301818452808551808352604092508286019150828160051b870101848801865b83811015614b1557603f19898403018552815180518452878101516001600160a01b0390811689860152878201518886015260608083015115159086015260808083015182169086015260a0808301519086015260c0808301519091169085015260e08082015190850152610100808201516101608287018190529190614acb8388018261499e565b925050506101208083015186830382880152614ae7838261499e565b92505050610140808301519250614b018187018415159052565b509588019593505090860190600101614a42565b509098975050505050505050565b60006101608d83526001600160a01b03808e1660208501528c60408501528b15156060850152808b1660808501528960a085015280891660c0850152508660e084015280610100840152614b79818401876149e1565b9050828103610120840152614b8e81866149e1565b9150508215156101408301529c9b505050505050505050505050565b60008219821115614bbd57614bbd614c4a565b500190565b600082614bdd57634e487b7160e01b81526012600452602481fd5b500490565b6000816000190483118215151615614bfc57614bfc614c4a565b500290565b600082821015614c1357614c13614c4a565b500390565b600081614c2757614c27614c4a565b506000190190565b6000600019821415614c4357614c43614c4a565b5060010190565b634e487b7160e01b600052601160045260246000fd5b6001600160a01b0381168114614c7557600080fd5b5056fe5265656e7472616e637947756172643a207265656e7472616e742063616c6c00a26469706673582212208f6d0157a61dd5f0792ae64ce271f13167fb70bc9b63d147304267bfbca1f7c064736f6c63430008040033",
  "linkReferences": {},
  "deployedLinkReferences": {}
}