{
  "_format": "hh-sol-artifact-1",
  "contractName": "NFTMarket",
  "sourceName": "contracts/NFTMarket.sol",
  "abi": [
    {
      "inputs": [],
      "stateMutability": "nonpayable",
      "type": "constructor"
    },
    {
      "anonymous": false,
      "inputs": [
        {
          "indexed": false,
          "internalType": "uint256",
          "name": "itemId",
          "type": "uint256"
        },
        {
          "indexed": false,
          "internalType": "address",
          "name": "nftContract",
          "type": "address"
        },
        {
          "indexed": false,
          "internalType": "uint256",
          "name": "tokenId",
          "type": "uint256"
        },
        {
          "indexed": false,
          "internalType": "address payable",
          "name": "seller",
          "type": "address"
        },
        {
          "indexed": false,
          "internalType": "address payable",
          "name": "owner",
          "type": "address"
        },
        {
          "indexed": false,
          "internalType": "uint256",
          "name": "price",
          "type": "uint256"
        },
        {
          "indexed": false,
          "internalType": "address payable",
          "name": "highestBidder",
          "type": "address"
        },
        {
          "indexed": false,
          "internalType": "uint256",
          "name": "highestBid",
          "type": "uint256"
        },
        {
          "indexed": false,
          "internalType": "address payable[]",
          "name": "pendingBidders",
          "type": "address[]"
        },
        {
          "indexed": false,
          "internalType": "bool",
          "name": "auctionEnded",
          "type": "bool"
        }
      ],
      "name": "UpdatedMarketItem",
      "type": "event"
    },
    {
      "inputs": [
        {
          "internalType": "address",
          "name": "nftContract",
          "type": "address"
        },
        {
          "internalType": "uint256",
          "name": "itemId",
          "type": "uint256"
        }
      ],
      "name": "cancelMarketSale",
      "outputs": [],
      "stateMutability": "nonpayable",
      "type": "function"
    },
    {
      "inputs": [
        {
          "internalType": "address",
          "name": "nftContract",
          "type": "address"
        },
        {
          "internalType": "uint256",
          "name": "itemId",
          "type": "uint256"
        }
      ],
      "name": "createMarketAuction",
      "outputs": [],
      "stateMutability": "payable",
      "type": "function"
    },
    {
      "inputs": [
        {
          "internalType": "address",
          "name": "nftContract",
          "type": "address"
        },
        {
          "internalType": "uint256",
          "name": "tokenId",
          "type": "uint256"
        }
      ],
      "name": "createMarketItem",
      "outputs": [],
      "stateMutability": "nonpayable",
      "type": "function"
    },
    {
      "inputs": [
        {
          "internalType": "address",
          "name": "nftContract",
          "type": "address"
        },
        {
          "internalType": "uint256",
          "name": "tokenId",
          "type": "uint256"
        }
      ],
      "name": "createMarketItemForAuction",
      "outputs": [],
      "stateMutability": "nonpayable",
      "type": "function"
    },
    {
      "inputs": [
        {
          "internalType": "address",
          "name": "nftContract",
          "type": "address"
        },
        {
          "internalType": "uint256",
          "name": "tokenId",
          "type": "uint256"
        },
        {
          "internalType": "uint256",
          "name": "price",
          "type": "uint256"
        }
      ],
      "name": "createMarketItemForSale",
      "outputs": [],
      "stateMutability": "nonpayable",
      "type": "function"
    },
    {
      "inputs": [
        {
          "internalType": "address",
          "name": "nftContract",
          "type": "address"
        },
        {
          "internalType": "uint256",
          "name": "itemId",
          "type": "uint256"
        },
        {
          "internalType": "uint256",
          "name": "price",
          "type": "uint256"
        }
      ],
      "name": "createMarketSale",
      "outputs": [],
      "stateMutability": "payable",
      "type": "function"
    },
    {
      "inputs": [
        {
          "internalType": "address",
          "name": "nftContract",
          "type": "address"
        },
        {
          "internalType": "uint256",
          "name": "itemId",
          "type": "uint256"
        }
      ],
      "name": "executeMarketAuctionEnd",
      "outputs": [],
      "stateMutability": "nonpayable",
      "type": "function"
    },
    {
      "inputs": [
        {
          "internalType": "address",
          "name": "nftContract",
          "type": "address"
        },
        {
          "internalType": "uint256",
          "name": "itemId",
          "type": "uint256"
        }
      ],
      "name": "executeMarketSale",
      "outputs": [],
      "stateMutability": "payable",
      "type": "function"
    },
    {
      "inputs": [
        {
          "internalType": "uint256",
          "name": "pageNumber",
          "type": "uint256"
        },
        {
          "internalType": "uint256",
          "name": "pageSize",
          "type": "uint256"
        }
      ],
      "name": "fetchMarketItems",
      "outputs": [
        {
          "components": [
            {
              "internalType": "uint256",
              "name": "itemId",
              "type": "uint256"
            },
            {
              "internalType": "address",
              "name": "nftContract",
              "type": "address"
            },
            {
              "internalType": "uint256",
              "name": "tokenId",
              "type": "uint256"
            },
            {
              "internalType": "address payable",
              "name": "seller",
              "type": "address"
            },
            {
              "internalType": "address payable",
              "name": "owner",
              "type": "address"
            },
            {
              "internalType": "uint256",
              "name": "price",
              "type": "uint256"
            },
            {
              "internalType": "address payable",
              "name": "highestBidder",
              "type": "address"
            },
            {
              "internalType": "uint256",
              "name": "highestBid",
              "type": "uint256"
            },
            {
              "internalType": "address payable[]",
              "name": "pendingBidders",
              "type": "address[]"
            },
            {
              "internalType": "bool",
              "name": "auctionEnded",
              "type": "bool"
            }
          ],
          "internalType": "struct NFTMarket.MarketItem[]",
          "name": "",
          "type": "tuple[]"
        }
      ],
      "stateMutability": "view",
      "type": "function"
    },
    {
      "inputs": [
        {
          "internalType": "uint256",
          "name": "",
          "type": "uint256"
        }
      ],
      "name": "idToMarketItem",
      "outputs": [
        {
          "internalType": "uint256",
          "name": "itemId",
          "type": "uint256"
        },
        {
          "internalType": "address",
          "name": "nftContract",
          "type": "address"
        },
        {
          "internalType": "uint256",
          "name": "tokenId",
          "type": "uint256"
        },
        {
          "internalType": "address payable",
          "name": "seller",
          "type": "address"
        },
        {
          "internalType": "address payable",
          "name": "owner",
          "type": "address"
        },
        {
          "internalType": "uint256",
          "name": "price",
          "type": "uint256"
        },
        {
          "internalType": "address payable",
          "name": "highestBidder",
          "type": "address"
        },
        {
          "internalType": "uint256",
          "name": "highestBid",
          "type": "uint256"
        },
        {
          "internalType": "bool",
          "name": "auctionEnded",
          "type": "bool"
        }
      ],
      "stateMutability": "view",
      "type": "function"
    },
    {
      "inputs": [],
      "name": "listingPrice",
      "outputs": [
        {
          "internalType": "uint256",
          "name": "",
          "type": "uint256"
        }
      ],
      "stateMutability": "view",
      "type": "function"
    },
    {
      "inputs": [
        {
          "internalType": "uint256",
          "name": "itemId",
          "type": "uint256"
        }
      ],
      "name": "makeAuctionBid",
      "outputs": [],
      "stateMutability": "payable",
      "type": "function"
    },
    {
      "inputs": [
        {
          "internalType": "uint256",
          "name": "",
          "type": "uint256"
        },
        {
          "internalType": "address",
          "name": "",
          "type": "address"
        }
      ],
      "name": "pendingReturns",
      "outputs": [
        {
          "internalType": "uint256",
          "name": "",
          "type": "uint256"
        }
      ],
      "stateMutability": "view",
      "type": "function"
    },
    {
      "inputs": [
        {
          "internalType": "uint256",
          "name": "itemId",
          "type": "uint256"
        }
      ],
      "name": "withdrawAuctionBid",
      "outputs": [],
      "stateMutability": "nonpayable",
      "type": "function"
    }
  ],
  "bytecode": "0x6080604052600160035534801561001557600080fd5b50600160008190555033600260006101000a81548173ffffffffffffffffffffffffffffffffffffffff021916908373ffffffffffffffffffffffffffffffffffffffff1602179055506157a2806200006f6000396000f3fe6080604052600436106100dd5760003560e01c80638ddac1ef1161007f578063c78f19f911610059578063c78f19f91461027d578063dd5f8518146102a8578063e61a70c0146102d1578063f01a6dde14610316576100dd565b80638ddac1ef146101fb578063bd1ecd6114610238578063c3a3b8ea14610261576100dd565b806321cf91ac116100bb57806321cf91ac14610150578063283f766c1461016c5780635d30c81b146101955780637063b64e146101be576100dd565b8063087a7992146100e25780631ae1b701146100fe5780631dd9cf8614610127575b600080fd5b6100fc60048036038101906100f791906146ea565b610332565b005b34801561010a57600080fd5b5061012560048036038101906101209190614726565b61088f565b005b34801561013357600080fd5b5061014e600480360381019061014991906146ea565b610e2c565b005b61016a60048036038101906101659190614726565b611201565b005b34801561017857600080fd5b50610193600480360381019061018e9190614775565b61175e565b005b3480156101a157600080fd5b506101bc60048036038101906101b791906146ea565b6123fb565b005b3480156101ca57600080fd5b506101e560048036038101906101e091906147da565b612bd1565b6040516101f29190614cf1565b60405180910390f35b34801561020757600080fd5b50610222600480360381019061021d919061479e565b6131fa565b60405161022f9190614e73565b60405180910390f35b34801561024457600080fd5b5061025f600480360381019061025a91906146ea565b61321f565b005b61027b60048036038101906102769190614775565b613779565b005b34801561028957600080fd5b50610292613cd2565b60405161029f9190614e73565b60405180910390f35b3480156102b457600080fd5b506102cf60048036038101906102ca91906146ea565b613cd8565b005b3480156102dd57600080fd5b506102f860048036038101906102f39190614775565b6140cd565b60405161030d99989796959493929190615077565b60405180910390f35b610330600480360381019061032b91906146ea565b6141a8565b005b60026000541415610378576040517f08c379a000000000000000000000000000000000000000000000000000000000815260040161036f90614e13565b60405180910390fd5b60026000819055506000600460008381526020019081526020016000206002015490503073ffffffffffffffffffffffffffffffffffffffff168373ffffffffffffffffffffffffffffffffffffffff1663081812fc836040518263ffffffff1660e01b81526004016103eb9190614e73565b60206040518083038186803b15801561040357600080fd5b505afa158015610417573d6000803e3d6000fd5b505050506040513d601f19601f8201168201806040525081019061043b91906146c1565b73ffffffffffffffffffffffffffffffffffffffff1614610491576040517f08c379a000000000000000000000000000000000000000000000000000000000815260040161048890614d13565b60405180910390fd5b3373ffffffffffffffffffffffffffffffffffffffff168373ffffffffffffffffffffffffffffffffffffffff16636352211e836040518263ffffffff1660e01b81526004016104e19190614e73565b60206040518083038186803b1580156104f957600080fd5b505afa15801561050d573d6000803e3d6000fd5b505050506040513d601f19601f8201168201806040525081019061053191906146c1565b73ffffffffffffffffffffffffffffffffffffffff1614610587576040517f08c379a000000000000000000000000000000000000000000000000000000000815260040161057e90614db3565b60405180910390fd5b60606040518061014001604052808481526020018573ffffffffffffffffffffffffffffffffffffffff1681526020018381526020013373ffffffffffffffffffffffffffffffffffffffff168152602001600073ffffffffffffffffffffffffffffffffffffffff168152602001600081526020013373ffffffffffffffffffffffffffffffffffffffff1681526020016000815260200182815260200160001515815250600460008581526020019081526020016000206000820151816000015560208201518160010160006101000a81548173ffffffffffffffffffffffffffffffffffffffff021916908373ffffffffffffffffffffffffffffffffffffffff1602179055506040820151816002015560608201518160030160006101000a81548173ffffffffffffffffffffffffffffffffffffffff021916908373ffffffffffffffffffffffffffffffffffffffff16021790555060808201518160040160006101000a81548173ffffffffffffffffffffffffffffffffffffffff021916908373ffffffffffffffffffffffffffffffffffffffff16021790555060a0820151816005015560c08201518160060160006101000a81548173ffffffffffffffffffffffffffffffffffffffff021916908373ffffffffffffffffffffffffffffffffffffffff16021790555060e082015181600701556101008201518160080190805190602001906107a192919061452e565b506101208201518160090160006101000a81548160ff0219169083151502179055509050508373ffffffffffffffffffffffffffffffffffffffff166323b872dd3330856040518463ffffffff1660e01b815260040161080393929190614cba565b600060405180830381600087803b15801561081d57600080fd5b505af1158015610831573d6000803e3d6000fd5b505050507fdbc981a0a95e1ac563066f1f2031b6bfbddb3a8af6035fdb5eda876a6343d1e9838584336000803360008960006040516108799a99989796959493929190614e8e565b60405180910390a1505060016000819055505050565b600260005414156108d5576040517f08c379a00000000000000000000000000000000000000000000000000000000081526004016108cc90614e13565b60405180910390fd5b600260008190555060008111610920576040517f08c379a000000000000000000000000000000000000000000000000000000000815260040161091790614e33565b60405180910390fd5b3073ffffffffffffffffffffffffffffffffffffffff168373ffffffffffffffffffffffffffffffffffffffff1663081812fc846040518263ffffffff1660e01b81526004016109709190614e73565b60206040518083038186803b15801561098857600080fd5b505afa15801561099c573d6000803e3d6000fd5b505050506040513d601f19601f820116820180604052508101906109c091906146c1565b73ffffffffffffffffffffffffffffffffffffffff1614610a16576040517f08c379a0000000000000000000000000000000000000000000000000000000008152600401610a0d90614d13565b60405180910390fd5b3373ffffffffffffffffffffffffffffffffffffffff168373ffffffffffffffffffffffffffffffffffffffff16636352211e846040518263ffffffff1660e01b8152600401610a669190614e73565b60206040518083038186803b158015610a7e57600080fd5b505afa158015610a92573d6000803e3d6000fd5b505050506040513d601f19601f82011682018060405250810190610ab691906146c1565b73ffffffffffffffffffffffffffffffffffffffff1614610b0c576040517f08c379a0000000000000000000000000000000000000000000000000000000008152600401610b0390614df3565b60405180910390fd5b6060610b18600161450a565b6000610b246001614520565b90506040518061014001604052808281526020018673ffffffffffffffffffffffffffffffffffffffff1681526020018581526020013373ffffffffffffffffffffffffffffffffffffffff168152602001600073ffffffffffffffffffffffffffffffffffffffff1681526020018481526020013373ffffffffffffffffffffffffffffffffffffffff1681526020016000815260200183815260200160011515815250600460008381526020019081526020016000206000820151816000015560208201518160010160006101000a81548173ffffffffffffffffffffffffffffffffffffffff021916908373ffffffffffffffffffffffffffffffffffffffff1602179055506040820151816002015560608201518160030160006101000a81548173ffffffffffffffffffffffffffffffffffffffff021916908373ffffffffffffffffffffffffffffffffffffffff16021790555060808201518160040160006101000a81548173ffffffffffffffffffffffffffffffffffffffff021916908373ffffffffffffffffffffffffffffffffffffffff16021790555060a0820151816005015560c08201518160060160006101000a81548173ffffffffffffffffffffffffffffffffffffffff021916908373ffffffffffffffffffffffffffffffffffffffff16021790555060e08201518160070155610100820151816008019080519060200190610d3d92919061452e565b506101208201518160090160006101000a81548160ff0219169083151502179055509050508473ffffffffffffffffffffffffffffffffffffffff166323b872dd3330876040518463ffffffff1660e01b8152600401610d9f93929190614cba565b600060405180830381600087803b158015610db957600080fd5b505af1158015610dcd573d6000803e3d6000fd5b505050507fdbc981a0a95e1ac563066f1f2031b6bfbddb3a8af6035fdb5eda876a6343d1e9818686336000883360008a6001604051610e159a99989796959493929190614f31565b60405180910390a150506001600081905550505050565b60026000541415610e72576040517f08c379a0000000000000000000000000000000000000000000000000000000008152600401610e6990614e13565b60405180910390fd5b600260008190555060006004600083815260200190815260200160002060020154905060006004600084815260200190815260200160002060030160009054906101000a900473ffffffffffffffffffffffffffffffffffffffff1690503373ffffffffffffffffffffffffffffffffffffffff168173ffffffffffffffffffffffffffffffffffffffff1614610f3e576040517f08c379a0000000000000000000000000000000000000000000000000000000008152600401610f3590614e53565b60405180910390fd5b336004600085815260200190815260200160002060040160006101000a81548173ffffffffffffffffffffffffffffffffffffffff021916908373ffffffffffffffffffffffffffffffffffffffff16021790555060006004600085815260200190815260200160002060030160006101000a81548173ffffffffffffffffffffffffffffffffffffffff021916908373ffffffffffffffffffffffffffffffffffffffff1602179055508373ffffffffffffffffffffffffffffffffffffffff166323b872dd3033856040518463ffffffff1660e01b815260040161102693929190614cba565b600060405180830381600087803b15801561104057600080fd5b505af1158015611054573d6000803e3d6000fd5b505050507fdbc981a0a95e1ac563066f1f2031b6bfbddb3a8af6035fdb5eda876a6343d1e9836004600086815260200190815260200160002060010160009054906101000a900473ffffffffffffffffffffffffffffffffffffffff1660046000878152602001908152602001600020600201546004600088815260200190815260200160002060030160009054906101000a900473ffffffffffffffffffffffffffffffffffffffff166004600089815260200190815260200160002060040160009054906101000a900473ffffffffffffffffffffffffffffffffffffffff16600460008a815260200190815260200160002060050154600460008b815260200190815260200160002060060160009054906101000a900473ffffffffffffffffffffffffffffffffffffffff16600460008c815260200190815260200160002060070154600460008d8152602001908152602001600020600801600460008e815260200190815260200160002060090160009054906101000a900460ff166040516111eb9a99989796959493929190614fd4565b60405180910390a1505060016000819055505050565b60026000541415611247576040517f08c379a000000000000000000000000000000000000000000000000000000000815260040161123e90614e13565b60405180910390fd5b60026000819055506000600460008481526020019081526020016000206002015490503073ffffffffffffffffffffffffffffffffffffffff168473ffffffffffffffffffffffffffffffffffffffff1663081812fc836040518263ffffffff1660e01b81526004016112ba9190614e73565b60206040518083038186803b1580156112d257600080fd5b505afa1580156112e6573d6000803e3d6000fd5b505050506040513d601f19601f8201168201806040525081019061130a91906146c1565b73ffffffffffffffffffffffffffffffffffffffff1614611360576040517f08c379a000000000000000000000000000000000000000000000000000000000815260040161135790614d13565b60405180910390fd5b3373ffffffffffffffffffffffffffffffffffffffff168473ffffffffffffffffffffffffffffffffffffffff16636352211e836040518263ffffffff1660e01b81526004016113b09190614e73565b60206040518083038186803b1580156113c857600080fd5b505afa1580156113dc573d6000803e3d6000fd5b505050506040513d601f19601f8201168201806040525081019061140091906146c1565b73ffffffffffffffffffffffffffffffffffffffff1614611456576040517f08c379a000000000000000000000000000000000000000000000000000000000815260040161144d90614df3565b60405180910390fd5b60606040518061014001604052808581526020018673ffffffffffffffffffffffffffffffffffffffff1681526020018381526020013373ffffffffffffffffffffffffffffffffffffffff168152602001600073ffffffffffffffffffffffffffffffffffffffff1681526020018481526020013373ffffffffffffffffffffffffffffffffffffffff1681526020016000815260200182815260200160011515815250600460008681526020019081526020016000206000820151816000015560208201518160010160006101000a81548173ffffffffffffffffffffffffffffffffffffffff021916908373ffffffffffffffffffffffffffffffffffffffff1602179055506040820151816002015560608201518160030160006101000a81548173ffffffffffffffffffffffffffffffffffffffff021916908373ffffffffffffffffffffffffffffffffffffffff16021790555060808201518160040160006101000a81548173ffffffffffffffffffffffffffffffffffffffff021916908373ffffffffffffffffffffffffffffffffffffffff16021790555060a0820151816005015560c08201518160060160006101000a81548173ffffffffffffffffffffffffffffffffffffffff021916908373ffffffffffffffffffffffffffffffffffffffff16021790555060e0820151816007015561010082015181600801908051906020019061166f92919061452e565b506101208201518160090160006101000a81548160ff0219169083151502179055509050508473ffffffffffffffffffffffffffffffffffffffff166323b872dd3330856040518463ffffffff1660e01b81526004016116d193929190614cba565b600060405180830381600087803b1580156116eb57600080fd5b505af11580156116ff573d6000803e3d6000fd5b505050507fdbc981a0a95e1ac563066f1f2031b6bfbddb3a8af6035fdb5eda876a6343d1e9848684336000883360008960006040516117479a99989796959493929190614f31565b60405180910390a150506001600081905550505050565b600260005414156117a4576040517f08c379a000000000000000000000000000000000000000000000000000000000815260040161179b90614e13565b60405180910390fd5b60026000819055506004600082815260200190815260200160002060090160009054906101000a900460ff1615611810576040517f08c379a000000000000000000000000000000000000000000000000000000000815260040161180790614d33565b60405180910390fd5b6004600082815260200190815260200160002060060160009054906101000a900473ffffffffffffffffffffffffffffffffffffffff1673ffffffffffffffffffffffffffffffffffffffff163373ffffffffffffffffffffffffffffffffffffffff1614611b685760006005600083815260200190815260200160002060003373ffffffffffffffffffffffffffffffffffffffff1673ffffffffffffffffffffffffffffffffffffffff168152602001908152602001600020541161190c576040517f08c379a000000000000000000000000000000000000000000000000000000000815260040161190390614d53565b60405180910390fd5b60006005600083815260200190815260200160002060003373ffffffffffffffffffffffffffffffffffffffff1673ffffffffffffffffffffffffffffffffffffffff1681526020019081526020016000205490503373ffffffffffffffffffffffffffffffffffffffff166108fc829081150290604051600060405180830381858888f193505050501580156119a7573d6000803e3d6000fd5b5060006005600084815260200190815260200160002060003373ffffffffffffffffffffffffffffffffffffffff1673ffffffffffffffffffffffffffffffffffffffff1681526020019081526020016000208190555060005b6004600084815260200190815260200160002060080180549050811015611b61573373ffffffffffffffffffffffffffffffffffffffff16600460008581526020019081526020016000206008018281548110611a87577f4e487b7100000000000000000000000000000000000000000000000000000000600052603260045260246000fd5b9060005260206000200160009054906101000a900473ffffffffffffffffffffffffffffffffffffffff1673ffffffffffffffffffffffffffffffffffffffff161415611b4e57600460008481526020019081526020016000206008018181548110611b1c577f4e487b7100000000000000000000000000000000000000000000000000000000600052603260045260246000fd5b9060005260206000200160006101000a81549073ffffffffffffffffffffffffffffffffffffffff0219169055611b61565b8080611b59906153aa565b915050611a01565b5050612255565b60006004600083815260200190815260200160002060070154905060006004600084815260200190815260200160002060060160009054906101000a900473ffffffffffffffffffffffffffffffffffffffff1690503373ffffffffffffffffffffffffffffffffffffffff166108fc839081150290604051600060405180830381858888f19350505050158015611c04573d6000803e3d6000fd5b50600060046000858152602001908152602001600020600701819055506004600084815260200190815260200160002060030160009054906101000a900473ffffffffffffffffffffffffffffffffffffffff166004600085815260200190815260200160002060060160006101000a81548173ffffffffffffffffffffffffffffffffffffffff021916908373ffffffffffffffffffffffffffffffffffffffff16021790555060008060056000868152602001908152602001600020600060046000888152602001908152602001600020600801600081548110611d13577f4e487b7100000000000000000000000000000000000000000000000000000000600052603260045260246000fd5b9060005260206000200160009054906101000a900473ffffffffffffffffffffffffffffffffffffffff1673ffffffffffffffffffffffffffffffffffffffff1673ffffffffffffffffffffffffffffffffffffffff1681526020019081526020016000205411611dba576004600085815260200190815260200160002060030160009054906101000a900473ffffffffffffffffffffffffffffffffffffffff16611e35565b60046000858152602001908152602001600020600801600081548110611e09577f4e487b7100000000000000000000000000000000000000000000000000000000600052603260045260246000fd5b9060005260206000200160009054906101000a900473ffffffffffffffffffffffffffffffffffffffff165b90506000805b60046000878152602001908152602001600020600801805490508110156120be576005600087815260200190815260200160002060008473ffffffffffffffffffffffffffffffffffffffff1673ffffffffffffffffffffffffffffffffffffffff16815260200190815260200160002054600560008881526020019081526020016000206000600460008a81526020019081526020016000206008018481548110611f10577f4e487b7100000000000000000000000000000000000000000000000000000000600052603260045260246000fd5b9060005260206000200160009054906101000a900473ffffffffffffffffffffffffffffffffffffffff1673ffffffffffffffffffffffffffffffffffffffff1673ffffffffffffffffffffffffffffffffffffffff1681526020019081526020016000205411801561202757508373ffffffffffffffffffffffffffffffffffffffff16600460008881526020019081526020016000206008018281548110611fe3577f4e487b7100000000000000000000000000000000000000000000000000000000600052603260045260246000fd5b9060005260206000200160009054906101000a900473ffffffffffffffffffffffffffffffffffffffff1673ffffffffffffffffffffffffffffffffffffffff1614155b156120ab5760046000878152602001908152602001600020600801818154811061207a577f4e487b7100000000000000000000000000000000000000000000000000000000600052603260045260246000fd5b9060005260206000200160009054906101000a900473ffffffffffffffffffffffffffffffffffffffff1692508091505b80806120b6906153aa565b915050611e3b565b50816004600087815260200190815260200160002060060160006101000a81548173ffffffffffffffffffffffffffffffffffffffff021916908373ffffffffffffffffffffffffffffffffffffffff1602179055506005600086815260200190815260200160002060008373ffffffffffffffffffffffffffffffffffffffff1673ffffffffffffffffffffffffffffffffffffffff16815260200190815260200160002054600460008781526020019081526020016000206007018190555060006005600087815260200190815260200160002060008473ffffffffffffffffffffffffffffffffffffffff1673ffffffffffffffffffffffffffffffffffffffff16815260200190815260200160002081905550600460008681526020019081526020016000206008018181548110612223577f4e487b7100000000000000000000000000000000000000000000000000000000600052603260045260246000fd5b9060005260206000200160006101000a81549073ffffffffffffffffffffffffffffffffffffffff0219169055505050505b7fdbc981a0a95e1ac563066f1f2031b6bfbddb3a8af6035fdb5eda876a6343d1e9816004600084815260200190815260200160002060010160009054906101000a900473ffffffffffffffffffffffffffffffffffffffff1660046000858152602001908152602001600020600201546004600086815260200190815260200160002060030160009054906101000a900473ffffffffffffffffffffffffffffffffffffffff166004600087815260200190815260200160002060040160009054906101000a900473ffffffffffffffffffffffffffffffffffffffff1660046000888152602001908152602001600020600501546004600089815260200190815260200160002060060160009054906101000a900473ffffffffffffffffffffffffffffffffffffffff16600460008a815260200190815260200160002060070154600460008b8152602001908152602001600020600801600460008c815260200190815260200160002060090160009054906101000a900460ff166040516123e89a99989796959493929190614fd4565b60405180910390a1600160008190555050565b60026000541415612441576040517f08c379a000000000000000000000000000000000000000000000000000000000815260040161243890614e13565b60405180910390fd5b60026000819055506004600082815260200190815260200160002060090160009054906101000a900460ff16156124ad576040517f08c379a00000000000000000000000000000000000000000000000000000000081526004016124a490614dd3565b60405180910390fd5b60006004600083815260200190815260200160002060070154905060006004600084815260200190815260200160002060060160009054906101000a900473ffffffffffffffffffffffffffffffffffffffff16905060006004600085815260200190815260200160002060020154905060606000841461264d576004600086815260200190815260200160002060030160009054906101000a900473ffffffffffffffffffffffffffffffffffffffff1673ffffffffffffffffffffffffffffffffffffffff166108fc6064600354606461258991906152a6565b87612594919061524c565b61259e919061521b565b9081150290604051600060405180830381858888f193505050501580156125c9573d6000803e3d6000fd5b50600260009054906101000a900473ffffffffffffffffffffffffffffffffffffffff1673ffffffffffffffffffffffffffffffffffffffff166108fc606460035487612616919061524c565b612620919061521b565b9081150290604051600060405180830381858888f1935050505015801561264b573d6000803e3d6000fd5b505b8573ffffffffffffffffffffffffffffffffffffffff166323b872dd3085856040518463ffffffff1660e01b815260040161268a93929190614cba565b600060405180830381600087803b1580156126a457600080fd5b505af11580156126b8573d6000803e3d6000fd5b50505050826004600087815260200190815260200160002060040160006101000a81548173ffffffffffffffffffffffffffffffffffffffff021916908373ffffffffffffffffffffffffffffffffffffffff16021790555060006004600087815260200190815260200160002060030160006101000a81548173ffffffffffffffffffffffffffffffffffffffff021916908373ffffffffffffffffffffffffffffffffffffffff160217905550826004600087815260200190815260200160002060060160006101000a81548173ffffffffffffffffffffffffffffffffffffffff021916908373ffffffffffffffffffffffffffffffffffffffff1602179055506000600460008781526020019081526020016000206007018190555060016004600087815260200190815260200160002060090160006101000a81548160ff0219169083151502179055508060046000878152602001908152602001600020600801908051906020019061283192919061452e565b5060005b6004600087815260200190815260200160002060080180549050811015612b7357600073ffffffffffffffffffffffffffffffffffffffff166004600088815260200190815260200160002060080182815481106128bc577f4e487b7100000000000000000000000000000000000000000000000000000000600052603260045260246000fd5b9060005260206000200160009054906101000a900473ffffffffffffffffffffffffffffffffffffffff1673ffffffffffffffffffffffffffffffffffffffff16141580156129d357506000600560008881526020019081526020016000206000600460008a8152602001908152602001600020600801848154811061296b577f4e487b7100000000000000000000000000000000000000000000000000000000600052603260045260246000fd5b9060005260206000200160009054906101000a900473ffffffffffffffffffffffffffffffffffffffff1673ffffffffffffffffffffffffffffffffffffffff1673ffffffffffffffffffffffffffffffffffffffff16815260200190815260200160002054115b15612b6057600460008781526020019081526020016000206008018181548110612a26577f4e487b7100000000000000000000000000000000000000000000000000000000600052603260045260246000fd5b9060005260206000200160009054906101000a900473ffffffffffffffffffffffffffffffffffffffff1673ffffffffffffffffffffffffffffffffffffffff166108fc600560008981526020019081526020016000206000600460008b81526020019081526020016000206008018581548110612acd577f4e487b7100000000000000000000000000000000000000000000000000000000600052603260045260246000fd5b9060005260206000200160009054906101000a900473ffffffffffffffffffffffffffffffffffffffff1673ffffffffffffffffffffffffffffffffffffffff1673ffffffffffffffffffffffffffffffffffffffff168152602001908152602001600020549081150290604051600060405180830381858888f19350505050158015612b5e573d6000803e3d6000fd5b505b8080612b6b906153aa565b915050612835565b507fdbc981a0a95e1ac563066f1f2031b6bfbddb3a8af6035fdb5eda876a6343d1e98587846000876000896000896001604051612bb99a99989796959493929190614e8e565b60405180910390a15050505060016000819055505050565b60606000612bdf6001614520565b9050600060018486612bf1919061524c565b612bfb91906151c5565b905060008467ffffffffffffffff811115612c3f577f4e487b7100000000000000000000000000000000000000000000000000000000600052604160045260246000fd5b604051908082528060200260200182016040528015612c7857816020015b612c656145b8565b815260200190600190039081612c5d5790505b50905060008390505b828110158015612c92575060018110155b15612f36576004600082815260200190815260200160002060405180610140016040529081600082015481526020016001820160009054906101000a900473ffffffffffffffffffffffffffffffffffffffff1673ffffffffffffffffffffffffffffffffffffffff1673ffffffffffffffffffffffffffffffffffffffff168152602001600282015481526020016003820160009054906101000a900473ffffffffffffffffffffffffffffffffffffffff1673ffffffffffffffffffffffffffffffffffffffff1673ffffffffffffffffffffffffffffffffffffffff1681526020016004820160009054906101000a900473ffffffffffffffffffffffffffffffffffffffff1673ffffffffffffffffffffffffffffffffffffffff1673ffffffffffffffffffffffffffffffffffffffff168152602001600582015481526020016006820160009054906101000a900473ffffffffffffffffffffffffffffffffffffffff1673ffffffffffffffffffffffffffffffffffffffff1673ffffffffffffffffffffffffffffffffffffffff1681526020016007820154815260200160088201805480602002602001604051908101604052809291908181526020018280548015612ebb57602002820191906000526020600020905b8160009054906101000a900473ffffffffffffffffffffffffffffffffffffffff1673ffffffffffffffffffffffffffffffffffffffff1681526020019060010190808311612e71575b505050505081526020016009820160009054906101000a900460ff161515151581525050828281518110612f18577f4e487b7100000000000000000000000000000000000000000000000000000000600052603260045260246000fd5b60200260200101819052508080612f2e90615366565b915050612c81565b5060005b600083118015612f4957508581105b156131ed576004600082815260200190815260200160002060405180610140016040529081600082015481526020016001820160009054906101000a900473ffffffffffffffffffffffffffffffffffffffff1673ffffffffffffffffffffffffffffffffffffffff1673ffffffffffffffffffffffffffffffffffffffff168152602001600282015481526020016003820160009054906101000a900473ffffffffffffffffffffffffffffffffffffffff1673ffffffffffffffffffffffffffffffffffffffff1673ffffffffffffffffffffffffffffffffffffffff1681526020016004820160009054906101000a900473ffffffffffffffffffffffffffffffffffffffff1673ffffffffffffffffffffffffffffffffffffffff1673ffffffffffffffffffffffffffffffffffffffff168152602001600582015481526020016006820160009054906101000a900473ffffffffffffffffffffffffffffffffffffffff1673ffffffffffffffffffffffffffffffffffffffff1673ffffffffffffffffffffffffffffffffffffffff168152602001600782015481526020016008820180548060200260200160405190810160405280929190818152602001828054801561317257602002820191906000526020600020905b8160009054906101000a900473ffffffffffffffffffffffffffffffffffffffff1673ffffffffffffffffffffffffffffffffffffffff1681526020019060010190808311613128575b505050505081526020016009820160009054906101000a900460ff1615151515815250508282815181106131cf577f4e487b7100000000000000000000000000000000000000000000000000000000600052603260045260246000fd5b602002602001018190525080806131e5906153aa565b915050612f3a565b8194505050505092915050565b6005602052816000526040600020602052806000526040600020600091509150505481565b60026000541415613265576040517f08c379a000000000000000000000000000000000000000000000000000000000815260040161325c90614e13565b60405180910390fd5b60026000819055503073ffffffffffffffffffffffffffffffffffffffff168273ffffffffffffffffffffffffffffffffffffffff1663081812fc836040518263ffffffff1660e01b81526004016132bd9190614e73565b60206040518083038186803b1580156132d557600080fd5b505afa1580156132e9573d6000803e3d6000fd5b505050506040513d601f19601f8201168201806040525081019061330d91906146c1565b73ffffffffffffffffffffffffffffffffffffffff1614613363576040517f08c379a000000000000000000000000000000000000000000000000000000000815260040161335a90614d13565b60405180910390fd5b3373ffffffffffffffffffffffffffffffffffffffff168273ffffffffffffffffffffffffffffffffffffffff16636352211e836040518263ffffffff1660e01b81526004016133b39190614e73565b60206040518083038186803b1580156133cb57600080fd5b505afa1580156133df573d6000803e3d6000fd5b505050506040513d601f19601f8201168201806040525081019061340391906146c1565b73ffffffffffffffffffffffffffffffffffffffff1614613459576040517f08c379a000000000000000000000000000000000000000000000000000000000815260040161345090614df3565b60405180910390fd5b6060613465600161450a565b60006134716001614520565b90506040518061014001604052808281526020018573ffffffffffffffffffffffffffffffffffffffff1681526020018481526020013373ffffffffffffffffffffffffffffffffffffffff168152602001600073ffffffffffffffffffffffffffffffffffffffff168152602001600081526020013373ffffffffffffffffffffffffffffffffffffffff1681526020016000815260200183815260200160001515815250600460008381526020019081526020016000206000820151816000015560208201518160010160006101000a81548173ffffffffffffffffffffffffffffffffffffffff021916908373ffffffffffffffffffffffffffffffffffffffff1602179055506040820151816002015560608201518160030160006101000a81548173ffffffffffffffffffffffffffffffffffffffff021916908373ffffffffffffffffffffffffffffffffffffffff16021790555060808201518160040160006101000a81548173ffffffffffffffffffffffffffffffffffffffff021916908373ffffffffffffffffffffffffffffffffffffffff16021790555060a0820151816005015560c08201518160060160006101000a81548173ffffffffffffffffffffffffffffffffffffffff021916908373ffffffffffffffffffffffffffffffffffffffff16021790555060e0820151816007015561010082015181600801908051906020019061368b92919061452e565b506101208201518160090160006101000a81548160ff0219169083151502179055509050508373ffffffffffffffffffffffffffffffffffffffff166323b872dd3330866040518463ffffffff1660e01b81526004016136ed93929190614cba565b600060405180830381600087803b15801561370757600080fd5b505af115801561371b573d6000803e3d6000fd5b505050507fdbc981a0a95e1ac563066f1f2031b6bfbddb3a8af6035fdb5eda876a6343d1e9818585336000803360008a60006040516137639a99989796959493929190614e8e565b60405180910390a1505060016000819055505050565b600260005414156137bf576040517f08c379a00000000000000000000000000000000000000000000000000000000081526004016137b690614e13565b60405180910390fd5b60026000819055506004600082815260200190815260200160002060090160009054906101000a900460ff161561382b576040517f08c379a000000000000000000000000000000000000000000000000000000000815260040161382290614d33565b60405180910390fd5b60006005600083815260200190815260200160002060003373ffffffffffffffffffffffffffffffffffffffff1673ffffffffffffffffffffffffffffffffffffffff16815260200190815260200160002054146138be576040517f08c379a00000000000000000000000000000000000000000000000000000000081526004016138b590614d73565b60405180910390fd5b60006004600083815260200190815260200160002060060160009054906101000a900473ffffffffffffffffffffffffffffffffffffffff16905060006004600084815260200190815260200160002060070154905080341115613a5d57336004600085815260200190815260200160002060060160006101000a81548173ffffffffffffffffffffffffffffffffffffffff021916908373ffffffffffffffffffffffffffffffffffffffff16021790555034600460008581526020019081526020016000206007018190555060046000848152602001908152602001600020600801829080600181540180825580915050600190039060005260206000200160009091909190916101000a81548173ffffffffffffffffffffffffffffffffffffffff021916908373ffffffffffffffffffffffffffffffffffffffff160217905550806005600085815260200190815260200160002060008473ffffffffffffffffffffffffffffffffffffffff1673ffffffffffffffffffffffffffffffffffffffff16815260200190815260200160002081905550613b2a565b346005600085815260200190815260200160002060003373ffffffffffffffffffffffffffffffffffffffff1673ffffffffffffffffffffffffffffffffffffffff1681526020019081526020016000208190555060046000848152602001908152602001600020600801339080600181540180825580915050600190039060005260206000200160009091909190916101000a81548173ffffffffffffffffffffffffffffffffffffffff021916908373ffffffffffffffffffffffffffffffffffffffff1602179055505b7fdbc981a0a95e1ac563066f1f2031b6bfbddb3a8af6035fdb5eda876a6343d1e9836004600086815260200190815260200160002060010160009054906101000a900473ffffffffffffffffffffffffffffffffffffffff1660046000878152602001908152602001600020600201546004600088815260200190815260200160002060030160009054906101000a900473ffffffffffffffffffffffffffffffffffffffff166004600089815260200190815260200160002060040160009054906101000a900473ffffffffffffffffffffffffffffffffffffffff16600460008a815260200190815260200160002060050154600460008b815260200190815260200160002060060160009054906101000a900473ffffffffffffffffffffffffffffffffffffffff16600460008c815260200190815260200160002060070154600460008d8152602001908152602001600020600801600460008e815260200190815260200160002060090160009054906101000a900460ff16604051613cbd9a99989796959493929190614fd4565b60405180910390a15050600160008190555050565b60035481565b60026000541415613d1e576040517f08c379a0000000000000000000000000000000000000000000000000000000008152600401613d1590614e13565b60405180910390fd5b60026000819055503373ffffffffffffffffffffffffffffffffffffffff168273ffffffffffffffffffffffffffffffffffffffff16636352211e836040518263ffffffff1660e01b8152600401613d769190614e73565b60206040518083038186803b158015613d8e57600080fd5b505afa158015613da2573d6000803e3d6000fd5b505050506040513d601f19601f82011682018060405250810190613dc691906146c1565b73ffffffffffffffffffffffffffffffffffffffff1614613e1c576040517f08c379a0000000000000000000000000000000000000000000000000000000008152600401613e1390614df3565b60405180910390fd5b6060613e28600161450a565b6000613e346001614520565b90506040518061014001604052808281526020018573ffffffffffffffffffffffffffffffffffffffff1681526020018481526020013373ffffffffffffffffffffffffffffffffffffffff168152602001600073ffffffffffffffffffffffffffffffffffffffff168152602001600081526020013373ffffffffffffffffffffffffffffffffffffffff1681526020016000815260200183815260200160011515815250600460008381526020019081526020016000206000820151816000015560208201518160010160006101000a81548173ffffffffffffffffffffffffffffffffffffffff021916908373ffffffffffffffffffffffffffffffffffffffff1602179055506040820151816002015560608201518160030160006101000a81548173ffffffffffffffffffffffffffffffffffffffff021916908373ffffffffffffffffffffffffffffffffffffffff16021790555060808201518160040160006101000a81548173ffffffffffffffffffffffffffffffffffffffff021916908373ffffffffffffffffffffffffffffffffffffffff16021790555060a0820151816005015560c08201518160060160006101000a81548173ffffffffffffffffffffffffffffffffffffffff021916908373ffffffffffffffffffffffffffffffffffffffff16021790555060e0820151816007015561010082015181600801908051906020019061404e92919061452e565b506101208201518160090160006101000a81548160ff0219169083151502179055509050507fdbc981a0a95e1ac563066f1f2031b6bfbddb3a8af6035fdb5eda876a6343d1e9818585336000803360008a60016040516140b79a99989796959493929190614e8e565b60405180910390a1505060016000819055505050565b60046020528060005260406000206000915090508060000154908060010160009054906101000a900473ffffffffffffffffffffffffffffffffffffffff16908060020154908060030160009054906101000a900473ffffffffffffffffffffffffffffffffffffffff16908060040160009054906101000a900473ffffffffffffffffffffffffffffffffffffffff16908060050154908060060160009054906101000a900473ffffffffffffffffffffffffffffffffffffffff16908060070154908060090160009054906101000a900460ff16905089565b600260005414156141ee576040517f08c379a00000000000000000000000000000000000000000000000000000000081526004016141e590614e13565b60405180910390fd5b60026000819055506000600460008381526020019081526020016000206005015490506000600460008481526020019081526020016000206002015490506060823414614270576040517f08c379a000000000000000000000000000000000000000000000000000000000815260040161426790614d93565b60405180910390fd5b6004600085815260200190815260200160002060030160009054906101000a900473ffffffffffffffffffffffffffffffffffffffff1673ffffffffffffffffffffffffffffffffffffffff166108fc606460035460646142d191906152a6565b346142dc919061524c565b6142e6919061521b565b9081150290604051600060405180830381858888f19350505050158015614311573d6000803e3d6000fd5b508473ffffffffffffffffffffffffffffffffffffffff166323b872dd3033856040518463ffffffff1660e01b815260040161434f93929190614cba565b600060405180830381600087803b15801561436957600080fd5b505af115801561437d573d6000803e3d6000fd5b50505050336004600086815260200190815260200160002060040160006101000a81548173ffffffffffffffffffffffffffffffffffffffff021916908373ffffffffffffffffffffffffffffffffffffffff16021790555060006004600086815260200190815260200160002060030160006101000a81548173ffffffffffffffffffffffffffffffffffffffff021916908373ffffffffffffffffffffffffffffffffffffffff160217905550600260009054906101000a900473ffffffffffffffffffffffffffffffffffffffff1673ffffffffffffffffffffffffffffffffffffffff166108fc606460035434614478919061524c565b614482919061521b565b9081150290604051600060405180830381858888f193505050501580156144ad573d6000803e3d6000fd5b507fdbc981a0a95e1ac563066f1f2031b6bfbddb3a8af6035fdb5eda876a6343d1e984868460003360003360008960016040516144f39a99989796959493929190614e8e565b60405180910390a150505060016000819055505050565b6001816000016000828254019250508190555050565b600081600001549050919050565b8280548282559060005260206000209081019282156145a7579160200282015b828111156145a65782518260006101000a81548173ffffffffffffffffffffffffffffffffffffffff021916908373ffffffffffffffffffffffffffffffffffffffff1602179055509160200191906001019061454e565b5b5090506145b49190614665565b5090565b60405180610140016040528060008152602001600073ffffffffffffffffffffffffffffffffffffffff16815260200160008152602001600073ffffffffffffffffffffffffffffffffffffffff168152602001600073ffffffffffffffffffffffffffffffffffffffff16815260200160008152602001600073ffffffffffffffffffffffffffffffffffffffff16815260200160008152602001606081526020016000151581525090565b5b8082111561467e576000816000905550600101614666565b5090565b6000813590506146918161573e565b92915050565b6000815190506146a68161573e565b92915050565b6000813590506146bb81615755565b92915050565b6000602082840312156146d357600080fd5b60006146e184828501614697565b91505092915050565b600080604083850312156146fd57600080fd5b600061470b85828601614682565b925050602061471c858286016146ac565b9150509250929050565b60008060006060848603121561473b57600080fd5b600061474986828701614682565b935050602061475a868287016146ac565b925050604061476b868287016146ac565b9150509250925092565b60006020828403121561478757600080fd5b6000614795848285016146ac565b91505092915050565b600080604083850312156147b157600080fd5b60006147bf858286016146ac565b92505060206147d085828601614682565b9150509250929050565b600080604083850312156147ed57600080fd5b60006147fb858286016146ac565b925050602061480c858286016146ac565b9150509250929050565b60006148228383614842565b60208301905092915050565b600061483a8383614bc2565b905092915050565b61484b8161530c565b82525050565b61485a8161530c565b82525050565b614869816152fa565b82525050565b614878816152fa565b82525050565b600061488982615139565b6148938185615181565b935061489e83615104565b8060005b838110156148cf5781516148b68882614816565b97506148c18361515a565b9250506001810190506148a2565b5085935050505092915050565b60006148e782615139565b6148f18185615192565b93506148fc83615104565b8060005b8381101561492d5781516149148882614816565b975061491f8361515a565b925050600181019050614900565b5085935050505092915050565b600061494582615144565b61494f8185615192565b935061495a83615114565b8060005b838110156149925761496f82615451565b6149798882614816565b975061498483615167565b92505060018101905061495e565b5085935050505092915050565b60006149aa8261514f565b6149b481856151a3565b9350836020820285016149c685615129565b8060005b85811015614a0257848403895281516149e3858261482e565b94506149ee83615174565b925060208a019950506001810190506149ca565b50829750879550505050505092915050565b614a1d8161531e565b82525050565b614a2c8161531e565b82525050565b614a3b81615354565b82525050565b6000614a4e601a836151b4565b9150614a5982615471565b602082019050919050565b6000614a71601e836151b4565b9150614a7c8261549a565b602082019050919050565b6000614a946037836151b4565b9150614a9f826154c3565b604082019050919050565b6000614ab76023836151b4565b9150614ac282615512565b604082019050919050565b6000614ada6040836151b4565b9150614ae582615561565b604082019050919050565b6000614afd602a836151b4565b9150614b08826155b0565b604082019050919050565b6000614b206026836151b4565b9150614b2b826155ff565b604082019050919050565b6000614b436026836151b4565b9150614b4e8261564e565b604082019050919050565b6000614b66601f836151b4565b9150614b718261569d565b602082019050919050565b6000614b89601c836151b4565b9150614b94826156c6565b602082019050919050565b6000614bac6026836151b4565b9150614bb7826156ef565b604082019050919050565b600061014083016000830151614bdb6000860182614c9c565b506020830151614bee6020860182614860565b506040830151614c016040860182614c9c565b506060830151614c146060860182614842565b506080830151614c276080860182614842565b5060a0830151614c3a60a0860182614c9c565b5060c0830151614c4d60c0860182614842565b5060e0830151614c6060e0860182614c9c565b50610100830151848203610100860152614c7a828261487e565b915050610120830151614c91610120860182614a14565b508091505092915050565b614ca58161534a565b82525050565b614cb48161534a565b82525050565b6000606082019050614ccf600083018661486f565b614cdc602083018561486f565b614ce96040830184614cab565b949350505050565b60006020820190508181036000830152614d0b818461499f565b905092915050565b60006020820190508181036000830152614d2c81614a41565b9050919050565b60006020820190508181036000830152614d4c81614a64565b9050919050565b60006020820190508181036000830152614d6c81614a87565b9050919050565b60006020820190508181036000830152614d8c81614aaa565b9050919050565b60006020820190508181036000830152614dac81614acd565b9050919050565b60006020820190508181036000830152614dcc81614af0565b9050919050565b60006020820190508181036000830152614dec81614b13565b9050919050565b60006020820190508181036000830152614e0c81614b36565b9050919050565b60006020820190508181036000830152614e2c81614b59565b9050919050565b60006020820190508181036000830152614e4c81614b7c565b9050919050565b60006020820190508181036000830152614e6c81614b9f565b9050919050565b6000602082019050614e886000830184614cab565b92915050565b600061014082019050614ea4600083018d614cab565b614eb1602083018c61486f565b614ebe604083018b614cab565b614ecb606083018a614851565b614ed86080830189614851565b614ee560a0830188614a32565b614ef260c0830187614851565b614eff60e0830186614a32565b818103610100830152614f1281856148dc565b9050614f22610120830184614a23565b9b9a5050505050505050505050565b600061014082019050614f47600083018d614cab565b614f54602083018c61486f565b614f61604083018b614cab565b614f6e606083018a614851565b614f7b6080830189614851565b614f8860a0830188614cab565b614f9560c0830187614851565b614fa260e0830186614a32565b818103610100830152614fb581856148dc565b9050614fc5610120830184614a23565b9b9a5050505050505050505050565b600061014082019050614fea600083018d614cab565b614ff7602083018c61486f565b615004604083018b614cab565b615011606083018a614851565b61501e6080830189614851565b61502b60a0830188614cab565b61503860c0830187614851565b61504560e0830186614cab565b818103610100830152615058818561493a565b9050615068610120830184614a23565b9b9a5050505050505050505050565b60006101208201905061508d600083018c614cab565b61509a602083018b61486f565b6150a7604083018a614cab565b6150b46060830189614851565b6150c16080830188614851565b6150ce60a0830187614cab565b6150db60c0830186614851565b6150e860e0830185614cab565b6150f6610100830184614a23565b9a9950505050505050505050565b6000819050602082019050919050565b60008190508160005260206000209050919050565b6000819050602082019050919050565b600081519050919050565b600081549050919050565b600081519050919050565b6000602082019050919050565b6000600182019050919050565b6000602082019050919050565b600082825260208201905092915050565b600082825260208201905092915050565b600082825260208201905092915050565b600082825260208201905092915050565b60006151d08261534a565b91506151db8361534a565b9250827fffffffffffffffffffffffffffffffffffffffffffffffffffffffffffffffff038211156152105761520f6153f3565b5b828201905092915050565b60006152268261534a565b91506152318361534a565b92508261524157615240615422565b5b828204905092915050565b60006152578261534a565b91506152628361534a565b9250817fffffffffffffffffffffffffffffffffffffffffffffffffffffffffffffffff048311821515161561529b5761529a6153f3565b5b828202905092915050565b60006152b18261534a565b91506152bc8361534a565b9250828210156152cf576152ce6153f3565b5b828203905092915050565b600073ffffffffffffffffffffffffffffffffffffffff82169050919050565b60006153058261532a565b9050919050565b60006153178261532a565b9050919050565b60008115159050919050565b600073ffffffffffffffffffffffffffffffffffffffff82169050919050565b6000819050919050565b600061535f8261534a565b9050919050565b60006153718261534a565b91506000821415615385576153846153f3565b5b600182039050919050565b60006153a361539e83615464565b6152da565b9050919050565b60006153b58261534a565b91507fffffffffffffffffffffffffffffffffffffffffffffffffffffffffffffffff8214156153e8576153e76153f3565b5b600182019050919050565b7f4e487b7100000000000000000000000000000000000000000000000000000000600052601160045260246000fd5b7f4e487b7100000000000000000000000000000000000000000000000000000000600052601260045260246000fd5b600061545d8254615390565b9050919050565b60008160001c9050919050565b7f4d61726b6574206469646e27742067657420617070726f76616c000000000000600082015250565b7f41756374696f6e20666f722074686973204e46542068617320656e6465640000600082015250565b7f596f7520646f6e2774206861766520616e792070726576696f7573206269642060008201527f746f207769746864726177206f6e2074686973204e4654000000000000000000602082015250565b7f596f7520616c7265616479206861766520612062696420666f7220746869732060008201527f4e46540000000000000000000000000000000000000000000000000000000000602082015250565b7f506c65617365207375626d6974207468652061736b696e67207072696365206960008201527f6e206f7264657220746f20636f6d706c65746520746865207075726368617365602082015250565b7f596f75206d75737420626520746865204f776e657220746f206372656174652060008201527f616e2061756374696f6e00000000000000000000000000000000000000000000602082015250565b7f41756374696f6e20666f722074686973204e46542068617320616c726561647960008201527f20656e6465640000000000000000000000000000000000000000000000000000602082015250565b7f596f75206d75737420626520746865204f776e657220746f206372656174652060008201527f612073616c650000000000000000000000000000000000000000000000000000602082015250565b7f5265656e7472616e637947756172643a207265656e7472616e742063616c6c00600082015250565b7f5072696365206d757374206265206174206c6561737420312077656900000000600082015250565b7f596f75206d75737420626520746865204f776e657220746f2063616e63656c2060008201527f612073616c650000000000000000000000000000000000000000000000000000602082015250565b615747816152fa565b811461575257600080fd5b50565b61575e8161534a565b811461576957600080fd5b5056fea2646970667358221220b2624d31a06e0448ea6c225a142641b054d8e636e57887d178875ce8811c276a64736f6c63430008040033",
  "linkReferences": {},
  "deployedLinkReferences": {}
}